{
  "_format": "hh-sol-artifact-1",
  "contractName": "ECCUtilsMock",
  "sourceName": "contracts/mocks/ECCUtils/ECCUtilsMock.sol",
  "abi": [
    {
      "constant": true,
      "inputs": [
        {
          "internalType": "address",
          "name": "_addr",
          "type": "address"
        }
      ],
      "name": "addressToBytes",
      "outputs": [
        {
          "internalType": "bytes",
          "name": "bs",
          "type": "bytes"
        }
      ],
      "payable": false,
      "stateMutability": "pure",
      "type": "function"
    },
    {
      "constant": true,
      "inputs": [
        {
          "internalType": "bytes32",
          "name": "raw",
          "type": "bytes32"
        }
      ],
      "name": "bytes32ToBytes",
      "outputs": [
        {
          "internalType": "bytes",
          "name": "res",
          "type": "bytes"
        }
      ],
      "payable": false,
      "stateMutability": "pure",
      "type": "function"
    },
    {
      "constant": true,
      "inputs": [
        {
          "internalType": "bytes",
          "name": "_bs",
          "type": "bytes"
        }
      ],
      "name": "bytesToAddress",
      "outputs": [
        {
          "internalType": "address",
          "name": "addr",
          "type": "address"
        }
      ],
      "payable": false,
      "stateMutability": "pure",
      "type": "function"
    },
    {
      "constant": true,
      "inputs": [
        {
          "internalType": "bytes",
          "name": "_bs",
          "type": "bytes"
        }
      ],
      "name": "bytesToBytes32",
      "outputs": [
        {
          "internalType": "bytes32",
          "name": "value",
          "type": "bytes32"
        }
      ],
      "payable": false,
      "stateMutability": "pure",
      "type": "function"
    },
    {
      "constant": true,
      "inputs": [
        {
          "internalType": "bytes",
          "name": "keyBytes",
          "type": "bytes"
        }
      ],
      "name": "bytesToHex",
      "outputs": [
        {
          "internalType": "bytes",
          "name": "keyHex",
          "type": "bytes"
        }
      ],
      "payable": false,
      "stateMutability": "pure",
      "type": "function"
    },
    {
      "constant": true,
      "inputs": [
        {
          "internalType": "bytes",
          "name": "_bs",
          "type": "bytes"
        }
      ],
      "name": "bytesToUint256",
      "outputs": [
        {
          "internalType": "uint256",
          "name": "value",
          "type": "uint256"
        }
      ],
      "payable": false,
      "stateMutability": "pure",
      "type": "function"
    },
    {
      "constant": true,
      "inputs": [
        {
          "internalType": "bytes",
          "name": "raw",
          "type": "bytes"
        },
        {
          "internalType": "uint256",
          "name": "offset",
          "type": "uint256"
        },
        {
          "internalType": "bytes",
          "name": "hash",
          "type": "bytes"
        }
      ],
      "name": "checkNodeHash",
      "outputs": [
        {
          "internalType": "bool",
          "name": "flag",
          "type": "bool"
        }
      ],
      "payable": false,
      "stateMutability": "pure",
      "type": "function"
    },
    {
      "constant": true,
      "inputs": [
        {
          "internalType": "bytes",
          "name": "keyCompact",
          "type": "bytes"
        }
      ],
      "name": "compactToHex",
      "outputs": [
        {
          "internalType": "bytes",
          "name": "keyHex",
          "type": "bytes"
        }
      ],
      "payable": false,
      "stateMutability": "pure",
      "type": "function"
    },
    {
      "constant": true,
      "inputs": [
        {
          "internalType": "bytes",
          "name": "key",
          "type": "bytes"
        },
        {
          "internalType": "bytes",
          "name": "element",
          "type": "bytes"
        }
      ],
      "name": "compareKey",
      "outputs": [
        {
          "internalType": "bytes",
          "name": "keySlice",
          "type": "bytes"
        },
        {
          "internalType": "bool",
          "name": "isIn",
          "type": "bool"
        }
      ],
      "payable": false,
      "stateMutability": "pure",
      "type": "function"
    },
    {
      "constant": true,
      "inputs": [
        {
          "internalType": "bytes",
          "name": "rawTx",
          "type": "bytes"
        }
      ],
      "name": "decodeCrossTx",
      "outputs": [
        {
          "internalType": "bytes",
          "name": "zionTxHash",
          "type": "bytes"
        },
        {
          "internalType": "uint64",
          "name": "fromChainID",
          "type": "uint64"
        },
        {
          "internalType": "bytes",
          "name": "crossTxParam",
          "type": "bytes"
        }
      ],
      "payable": false,
      "stateMutability": "view",
      "type": "function"
    },
    {
      "constant": true,
      "inputs": [
        {
          "internalType": "bytes",
          "name": "rawEpochInfo",
          "type": "bytes"
        }
      ],
      "name": "decodeEpochInfo",
      "outputs": [
        {
          "internalType": "uint64",
          "name": "epochStartHeight",
          "type": "uint64"
        },
        {
          "internalType": "uint64",
          "name": "epochId",
          "type": "uint64"
        },
        {
          "internalType": "address[]",
          "name": "validators",
          "type": "address[]"
        }
      ],
      "payable": false,
      "stateMutability": "pure",
      "type": "function"
    },
    {
      "constant": true,
      "inputs": [
        {
          "internalType": "bytes",
          "name": "rawHeader",
          "type": "bytes"
        }
      ],
      "name": "decodeHeader",
      "outputs": [
        {
          "internalType": "bytes",
          "name": "root",
          "type": "bytes"
        },
        {
          "internalType": "uint256",
          "name": "number",
          "type": "uint256"
        }
      ],
      "payable": false,
      "stateMutability": "view",
      "type": "function"
    },
    {
      "constant": true,
      "inputs": [
        {
          "internalType": "bytes",
          "name": "rawParam",
          "type": "bytes"
        }
      ],
      "name": "decodeTxParam",
      "outputs": [
        {
          "internalType": "bytes",
          "name": "sourceTxHash",
          "type": "bytes"
        },
        {
          "internalType": "bytes",
          "name": "crossChainId",
          "type": "bytes"
        },
        {
          "internalType": "bytes",
          "name": "fromContract",
          "type": "bytes"
        },
        {
          "internalType": "uint64",
          "name": "toChainId",
          "type": "uint64"
        },
        {
          "internalType": "bytes",
          "name": "toContract",
          "type": "bytes"
        },
        {
          "internalType": "bytes",
          "name": "method",
          "type": "bytes"
        },
        {
          "internalType": "bytes",
          "name": "args",
          "type": "bytes"
        }
      ],
      "payable": false,
      "stateMutability": "pure",
      "type": "function"
    },
    {
      "constant": true,
      "inputs": [
        {
          "internalType": "bytes",
          "name": "validatorBytes",
          "type": "bytes"
        }
      ],
      "name": "decodeValidators",
      "outputs": [
        {
          "internalType": "address[]",
          "name": "validators",
          "type": "address[]"
        }
      ],
      "payable": false,
      "stateMutability": "pure",
      "type": "function"
    },
    {
      "constant": true,
      "inputs": [
        {
          "internalType": "bytes",
          "name": "txHash",
          "type": "bytes"
        },
        {
          "internalType": "bytes",
          "name": "crossChainId",
          "type": "bytes"
        },
        {
          "internalType": "bytes",
          "name": "fromContract",
          "type": "bytes"
        },
        {
          "internalType": "uint64",
          "name": "toChainId",
          "type": "uint64"
        },
        {
          "internalType": "bytes",
          "name": "toContract",
          "type": "bytes"
        },
        {
          "internalType": "bytes",
          "name": "method",
          "type": "bytes"
        },
        {
          "internalType": "bytes",
          "name": "args",
          "type": "bytes"
        }
      ],
      "name": "encodeTxParam",
      "outputs": [
        {
          "internalType": "bytes",
          "name": "rawParam",
          "type": "bytes"
        }
      ],
      "payable": false,
      "stateMutability": "pure",
      "type": "function"
    },
    {
      "constant": true,
      "inputs": [
        {
          "internalType": "address[]",
          "name": "validators",
          "type": "address[]"
        }
      ],
      "name": "encodeValidators",
      "outputs": [
        {
          "internalType": "bytes",
          "name": "validatorBytes",
          "type": "bytes"
        }
      ],
      "payable": false,
      "stateMutability": "pure",
      "type": "function"
    },
    {
      "constant": true,
      "inputs": [
        {
          "internalType": "bytes",
          "name": "ziontxHash",
          "type": "bytes"
        },
        {
          "internalType": "uint64",
          "name": "toChainId",
          "type": "uint64"
        }
      ],
      "name": "getCrossTxStorageSlot",
      "outputs": [
        {
          "internalType": "bytes",
          "name": "slotIndex",
          "type": "bytes"
        }
      ],
      "payable": false,
      "stateMutability": "pure",
      "type": "function"
    },
    {
      "constant": true,
      "inputs": [
        {
          "internalType": "uint64",
          "name": "epochId",
          "type": "uint64"
        }
      ],
      "name": "getEpochInfoStorageSlot",
      "outputs": [
        {
          "internalType": "bytes",
          "name": "slotIndex",
          "type": "bytes"
        }
      ],
      "payable": false,
      "stateMutability": "pure",
      "type": "function"
    },
    {
      "constant": true,
      "inputs": [
        {
          "internalType": "uint64",
          "name": "num",
          "type": "uint64"
        }
      ],
      "name": "getUint64Bytes",
      "outputs": [
        {
          "internalType": "bytes8",
          "name": "res",
          "type": "bytes8"
        }
      ],
      "payable": false,
      "stateMutability": "pure",
      "type": "function"
    },
    {
      "constant": true,
      "inputs": [
        {
          "internalType": "address[]",
          "name": "_validators",
          "type": "address[]"
        },
        {
          "internalType": "address[]",
          "name": "_signers",
          "type": "address[]"
        }
      ],
      "name": "hasEnoughSigners",
      "outputs": [
        {
          "internalType": "bool",
          "name": "",
          "type": "bool"
        }
      ],
      "payable": false,
      "stateMutability": "pure",
      "type": "function"
    },
    {
      "constant": true,
      "inputs": [
        {
          "internalType": "bytes",
          "name": "keyHex",
          "type": "bytes"
        }
      ],
      "name": "hexToCompact",
      "outputs": [
        {
          "internalType": "bytes",
          "name": "keyCompact",
          "type": "bytes"
        }
      ],
      "payable": false,
      "stateMutability": "pure",
      "type": "function"
    },
    {
      "constant": true,
      "inputs": [
        {
          "internalType": "bytes",
          "name": "raw",
          "type": "bytes"
        },
        {
          "internalType": "uint256",
          "name": "offset",
          "type": "uint256"
        }
      ],
      "name": "rlpGetNextAddress",
      "outputs": [
        {
          "internalType": "address",
          "name": "res",
          "type": "address"
        },
        {
          "internalType": "uint256",
          "name": "_offset",
          "type": "uint256"
        },
        {
          "internalType": "bytes",
          "name": "_raw",
          "type": "bytes"
        }
      ],
      "payable": false,
      "stateMutability": "pure",
      "type": "function"
    },
    {
      "constant": true,
      "inputs": [
        {
          "internalType": "bytes",
          "name": "raw",
          "type": "bytes"
        },
        {
          "internalType": "uint256",
          "name": "offset",
          "type": "uint256"
        }
      ],
      "name": "rlpGetNextBytes",
      "outputs": [
        {
          "internalType": "bytes",
          "name": "res",
          "type": "bytes"
        },
        {
          "internalType": "uint256",
          "name": "_offset",
          "type": "uint256"
        },
        {
          "internalType": "bytes",
          "name": "_raw",
          "type": "bytes"
        }
      ],
      "payable": false,
      "stateMutability": "view",
      "type": "function"
    },
    {
      "constant": true,
      "inputs": [
        {
          "internalType": "bytes",
          "name": "raw",
          "type": "bytes"
        },
        {
          "internalType": "uint256",
          "name": "offset",
          "type": "uint256"
        }
      ],
      "name": "rlpGetNextBytes32",
      "outputs": [
        {
          "internalType": "bytes32",
          "name": "res",
          "type": "bytes32"
        },
        {
          "internalType": "uint256",
          "name": "_offset",
          "type": "uint256"
        },
        {
          "internalType": "bytes",
          "name": "_raw",
          "type": "bytes"
        }
      ],
      "payable": false,
      "stateMutability": "pure",
      "type": "function"
    },
    {
      "constant": true,
      "inputs": [
        {
          "internalType": "bytes",
          "name": "raw",
          "type": "bytes"
        },
        {
          "internalType": "uint256",
          "name": "offset",
          "type": "uint256"
        }
      ],
      "name": "rlpGetNextUint256",
      "outputs": [
        {
          "internalType": "uint256",
          "name": "res",
          "type": "uint256"
        },
        {
          "internalType": "uint256",
          "name": "_offset",
          "type": "uint256"
        },
        {
          "internalType": "bytes",
          "name": "_raw",
          "type": "bytes"
        }
      ],
      "payable": false,
      "stateMutability": "pure",
      "type": "function"
    },
    {
      "constant": true,
      "inputs": [
        {
          "internalType": "bytes",
          "name": "raw",
          "type": "bytes"
        },
        {
          "internalType": "uint256",
          "name": "offset",
          "type": "uint256"
        }
      ],
      "name": "rlpGetNextUint64",
      "outputs": [
        {
          "internalType": "uint64",
          "name": "res",
          "type": "uint64"
        },
        {
          "internalType": "uint256",
          "name": "_offset",
          "type": "uint256"
        },
        {
          "internalType": "bytes",
          "name": "_raw",
          "type": "bytes"
        }
      ],
      "payable": false,
      "stateMutability": "pure",
      "type": "function"
    },
    {
      "constant": true,
      "inputs": [
        {
          "internalType": "bytes",
          "name": "raw",
          "type": "bytes"
        },
        {
          "internalType": "uint256",
          "name": "offset",
          "type": "uint256"
        }
      ],
      "name": "rlpReadKind",
      "outputs": [
        {
          "internalType": "enum ECCUtils.Kind",
          "name": "kind",
          "type": "uint8"
        },
        {
          "internalType": "uint256",
          "name": "size",
          "type": "uint256"
        },
        {
          "internalType": "uint256",
          "name": "offset_",
          "type": "uint256"
        }
      ],
      "payable": false,
      "stateMutability": "pure",
      "type": "function"
    },
    {
      "constant": true,
      "inputs": [
        {
          "internalType": "bytes",
          "name": "raw",
          "type": "bytes"
        },
        {
          "internalType": "uint256",
          "name": "offset",
          "type": "uint256"
        }
      ],
      "name": "rlpSplit",
      "outputs": [
        {
          "internalType": "bytes",
          "name": "res",
          "type": "bytes"
        },
        {
          "internalType": "uint256",
          "name": "offset_",
          "type": "uint256"
        }
      ],
      "payable": false,
      "stateMutability": "pure",
      "type": "function"
    },
    {
      "constant": true,
      "inputs": [
        {
          "internalType": "bytes",
          "name": "_buf",
          "type": "bytes"
        }
      ],
      "name": "takeOneByte",
      "outputs": [
        {
          "internalType": "bytes",
          "name": "buf",
          "type": "bytes"
        },
        {
          "internalType": "uint256",
          "name": "i",
          "type": "uint256"
        }
      ],
      "payable": false,
      "stateMutability": "pure",
      "type": "function"
    },
    {
      "constant": true,
      "inputs": [
        {
          "internalType": "uint256",
          "name": "_value",
          "type": "uint256"
        }
      ],
      "name": "uint256ToBytes",
      "outputs": [
        {
          "internalType": "bytes",
          "name": "bs",
          "type": "bytes"
        }
      ],
      "payable": false,
      "stateMutability": "pure",
      "type": "function"
    },
    {
      "constant": true,
      "inputs": [
        {
          "internalType": "bytes",
          "name": "_accountProof",
          "type": "bytes"
        },
        {
          "internalType": "bytes",
          "name": "_headerRoot",
          "type": "bytes"
        },
        {
          "internalType": "bytes",
          "name": "_address",
          "type": "bytes"
        },
        {
          "internalType": "bytes",
          "name": "_storageProof",
          "type": "bytes"
        },
        {
          "internalType": "bytes",
          "name": "_storageIndex",
          "type": "bytes"
        }
      ],
      "name": "verifyAccountProof",
      "outputs": [
        {
          "internalType": "bytes",
          "name": "value",
          "type": "bytes"
        }
      ],
      "payable": false,
      "stateMutability": "pure",
      "type": "function"
    },
    {
      "constant": true,
      "inputs": [
        {
          "internalType": "bytes32",
          "name": "headerHash",
          "type": "bytes32"
        },
        {
          "internalType": "bytes",
          "name": "rawSeals",
          "type": "bytes"
        },
        {
          "internalType": "address[]",
          "name": "validators",
          "type": "address[]"
        }
      ],
      "name": "verifyHeader",
      "outputs": [
        {
          "internalType": "bool",
          "name": "",
          "type": "bool"
        }
      ],
      "payable": false,
      "stateMutability": "pure",
      "type": "function"
    },
    {
      "constant": true,
      "inputs": [
        {
          "internalType": "bytes",
          "name": "_proof",
          "type": "bytes"
        },
        {
          "internalType": "bytes",
          "name": "_key",
          "type": "bytes"
        },
        {
          "internalType": "bytes",
          "name": "_root",
          "type": "bytes"
        }
      ],
      "name": "verifyProof",
      "outputs": [
        {
          "internalType": "bytes",
          "name": "value",
          "type": "bytes"
        }
      ],
      "payable": false,
      "stateMutability": "pure",
      "type": "function"
    },
    {
      "constant": true,
      "inputs": [
        {
          "internalType": "bytes32",
          "name": "headerHash",
          "type": "bytes32"
        },
        {
          "internalType": "bytes",
          "name": "seal",
          "type": "bytes"
        }
      ],
      "name": "verifySeal",
      "outputs": [
        {
          "internalType": "address",
          "name": "signer",
          "type": "address"
        }
      ],
      "payable": false,
      "stateMutability": "pure",
      "type": "function"
    }
  ],
  "bytecode": "0x608060405234801561001057600080fd5b50615e2880620000216000396000f3fe608060405234801561001057600080fd5b50600436106102065760003560e01c80638b3543db1161011a578063c9a9c89e116100ad578063ded8454a1161007c578063ded8454a14612915578063df5a0944146129d2578063e219b42f14612e0d578063e967086014612f02578063f8bebaae1461316457610206565b8063c9a9c89e146123df578063cc9de25d14612590578063da81ebd21461265f578063dbc9845f146127a457610206565b8063bfe370d9116100e9578063bfe370d914611fad578063c59b47bf1461207c578063c7559da4146121f0578063c768bb9f1461229757610206565b80638b3543db14611b395780638e91a6f214611c6d5780639f2d14e414611de5578063a873a89414611f2b57610206565b806342526e4e1161019d5780634ee649781161016c5780634ee649781461146c57806351ea2c61146115b857806364daf9d6146117185780636538bf7c1461185357806365a95ef71461196357610206565b806342526e4e1461105b578063451d89fa146111565780634c0999c71461128a5780634ca66fc81461133157610206565b806320a88265116101d957806320a882651461096b57806322eb8e3014610ab75780633076ce2014610beb578063334aa7bc14610cf057610206565b806305773f981461020b578063078a880c1461059b57806313735fb8146106ff57806320511a46146108ba575b600080fd5b610520600480360360a081101561022157600080fd5b810190808035906020019064010000000081111561023e57600080fd5b82018360208201111561025057600080fd5b8035906020019184600183028401116401000000008311171561027257600080fd5b91908080601f016020809104026020016040519081016040528093929190818152602001838380828437600081840152601f19601f820116905080830192505050505050509192919290803590602001906401000000008111156102d557600080fd5b8201836020820111156102e757600080fd5b8035906020019184600183028401116401000000008311171561030957600080fd5b91908080601f016020809104026020016040519081016040528093929190818152602001838380828437600081840152601f19601f8201169050808301925050505050505091929192908035906020019064010000000081111561036c57600080fd5b82018360208201111561037e57600080fd5b803590602001918460018302840111640100000000831117156103a057600080fd5b91908080601f016020809104026020016040519081016040528093929190818152602001838380828437600081840152601f19601f8201169050808301925050505050505091929192908035906020019064010000000081111561040357600080fd5b82018360208201111561041557600080fd5b8035906020019184600183028401116401000000008311171561043757600080fd5b91908080601f016020809104026020016040519081016040528093929190818152602001838380828437600081840152601f19601f8201169050808301925050505050505091929192908035906020019064010000000081111561049a57600080fd5b8201836020820111156104ac57600080fd5b803590602001918460018302840111640100000000831117156104ce57600080fd5b91908080601f016020809104026020016040519081016040528093929190818152602001838380828437600081840152601f19601f820116905080830192505050505050509192919290505050613295565b6040518080602001828103825283818151815260200191508051906020019080838360005b83811015610560578082015181840152602081019050610545565b50505050905090810190601f16801561058d5780820380516001836020036101000a031916815260200191505b509250505060405180910390f35b6106e5600480360360408110156105b157600080fd5b81019080803590602001906401000000008111156105ce57600080fd5b8201836020820111156105e057600080fd5b8035906020019184602083028401116401000000008311171561060257600080fd5b919080806020026020016040519081016040528093929190818152602001838360200280828437600081840152601f19601f8201169050808301925050505050505091929192908035906020019064010000000081111561066257600080fd5b82018360208201111561067457600080fd5b8035906020019184602083028401116401000000008311171561069657600080fd5b919080806020026020016040519081016040528093929190818152602001838360200280828437600081840152601f19601f8201169050808301925050505050505091929192905050506132af565b604051808215151515815260200191505060405180910390f35b6107b86004803603602081101561071557600080fd5b810190808035906020019064010000000081111561073257600080fd5b82018360208201111561074457600080fd5b8035906020019184600183028401116401000000008311171561076657600080fd5b91908080601f016020809104026020016040519081016040528093929190818152602001838380828437600081840152601f19601f8201169050808301925050505050505091929192905050506132c3565b60405180806020018467ffffffffffffffff1667ffffffffffffffff16815260200180602001838103835286818151815260200191508051906020019080838360005b838110156108165780820151818401526020810190506107fb565b50505050905090810190601f1680156108435780820380516001836020036101000a031916815260200191505b50838103825284818151815260200191508051906020019080838360005b8381101561087c578082015181840152602081019050610861565b50505050905090810190601f1680156108a95780820380516001836020036101000a031916815260200191505b509550505050505060405180910390f35b6108f0600480360360208110156108d057600080fd5b81019080803567ffffffffffffffff169060200190929190505050613344565b6040518080602001828103825283818151815260200191508051906020019080838360005b83811015610930578082015181840152602081019050610915565b50505050905090810190601f16801561095d5780820380516001836020036101000a031916815260200191505b509250505060405180910390f35b610a2e6004803603604081101561098157600080fd5b810190808035906020019064010000000081111561099e57600080fd5b8201836020820111156109b057600080fd5b803590602001918460018302840111640100000000831117156109d257600080fd5b91908080601f016020809104026020016040519081016040528093929190818152602001838380828437600081840152601f19601f8201169050808301925050505050505091929192908035906020019092919050505061337f565b6040518084815260200183815260200180602001828103825283818151815260200191508051906020019080838360005b83811015610a7a578082015181840152602081019050610a5f565b50505050905090810190601f168015610aa75780820380516001836020036101000a031916815260200191505b5094505050505060405180910390f35b610b7060048036036020811015610acd57600080fd5b8101908080359060200190640100000000811115610aea57600080fd5b820183602082011115610afc57600080fd5b80359060200191846001830284011164010000000083111715610b1e57600080fd5b91908080601f016020809104026020016040519081016040528093929190818152602001838380828437600081840152601f19601f8201169050808301925050505050505091929192905050506133a6565b6040518080602001828103825283818151815260200191508051906020019080838360005b83811015610bb0578082015181840152602081019050610b95565b50505050905090810190601f168015610bdd5780820380516001836020036101000a031916815260200191505b509250505060405180910390f35b610cae60048036036040811015610c0157600080fd5b810190808035906020019092919080359060200190640100000000811115610c2857600080fd5b820183602082011115610c3a57600080fd5b80359060200191846001830284011164010000000083111715610c5c57600080fd5b91908080601f016020809104026020016040519081016040528093929190818152602001838380828437600081840152601f19601f8201169050808301925050505050505091929192905050506133b8565b604051808273ffffffffffffffffffffffffffffffffffffffff1673ffffffffffffffffffffffffffffffffffffffff16815260200191505060405180910390f35b610da960048036036020811015610d0657600080fd5b8101908080359060200190640100000000811115610d2357600080fd5b820183602082011115610d3557600080fd5b80359060200191846001830284011164010000000083111715610d5757600080fd5b91908080601f016020809104026020016040519081016040528093929190818152602001838380828437600081840152601f19601f8201169050808301925050505050505091929192905050506133cc565b604051808060200180602001806020018867ffffffffffffffff1667ffffffffffffffff16815260200180602001806020018060200187810387528e818151815260200191508051906020019080838360005b83811015610e17578082015181840152602081019050610dfc565b50505050905090810190601f168015610e445780820380516001836020036101000a031916815260200191505b5087810386528d818151815260200191508051906020019080838360005b83811015610e7d578082015181840152602081019050610e62565b50505050905090810190601f168015610eaa5780820380516001836020036101000a031916815260200191505b5087810385528c818151815260200191508051906020019080838360005b83811015610ee3578082015181840152602081019050610ec8565b50505050905090810190601f168015610f105780820380516001836020036101000a031916815260200191505b5087810384528a818151815260200191508051906020019080838360005b83811015610f49578082015181840152602081019050610f2e565b50505050905090810190601f168015610f765780820380516001836020036101000a031916815260200191505b50878103835289818151815260200191508051906020019080838360005b83811015610faf578082015181840152602081019050610f94565b50505050905090810190601f168015610fdc5780820380516001836020036101000a031916815260200191505b50878103825288818151815260200191508051906020019080838360005b83811015611015578082015181840152602081019050610ffa565b50505050905090810190601f1680156110425780820380516001836020036101000a031916815260200191505b509d505050505050505050505050505060405180910390f35b6111146004803603602081101561107157600080fd5b810190808035906020019064010000000081111561108e57600080fd5b8201836020820111156110a057600080fd5b803590602001918460018302840111640100000000831117156110c257600080fd5b91908080601f016020809104026020016040519081016040528093929190818152602001838380828437600081840152601f19601f82011690508083019250505050505050919291929050505061343a565b604051808273ffffffffffffffffffffffffffffffffffffffff1673ffffffffffffffffffffffffffffffffffffffff16815260200191505060405180910390f35b61120f6004803603602081101561116c57600080fd5b810190808035906020019064010000000081111561118957600080fd5b82018360208201111561119b57600080fd5b803590602001918460018302840111640100000000831117156111bd57600080fd5b91908080601f016020809104026020016040519081016040528093929190818152602001838380828437600081840152601f19601f82011690508083019250505050505050919291929050505061344c565b6040518080602001828103825283818151815260200191508051906020019080838360005b8381101561124f578082015181840152602081019050611234565b50505050905090810190601f16801561127c5780820380516001836020036101000a031916815260200191505b509250505060405180910390f35b6112b6600480360360208110156112a057600080fd5b810190808035906020019092919050505061345e565b6040518080602001828103825283818151815260200191508051906020019080838360005b838110156112f65780820151818401526020810190506112db565b50505050905090810190601f1680156113235780820380516001836020036101000a031916815260200191505b509250505060405180910390f35b6113ea6004803603602081101561134757600080fd5b810190808035906020019064010000000081111561136457600080fd5b82018360208201111561137657600080fd5b8035906020019184600183028401116401000000008311171561139857600080fd5b91908080601f016020809104026020016040519081016040528093929190818152602001838380828437600081840152601f19601f820116905080830192505050505050509192919290505050613470565b6040518080602001838152602001828103825284818151815260200191508051906020019080838360005b83811015611430578082015181840152602081019050611415565b50505050905090810190601f16801561145d5780820380516001836020036101000a031916815260200191505b50935050505060405180910390f35b61152f6004803603604081101561148257600080fd5b810190808035906020019064010000000081111561149f57600080fd5b8201836020820111156114b157600080fd5b803590602001918460018302840111640100000000831117156114d357600080fd5b91908080601f016020809104026020016040519081016040528093929190818152602001838380828437600081840152601f19601f82011690508083019250505050505050919291929080359060200190929190505050613486565b6040518084815260200183815260200180602001828103825283818151815260200191508051906020019080838360005b8381101561157b578082015181840152602081019050611560565b50505050905090810190601f1680156115a85780820380516001836020036101000a031916815260200191505b5094505050505060405180910390f35b61167b600480360360408110156115ce57600080fd5b81019080803590602001906401000000008111156115eb57600080fd5b8201836020820111156115fd57600080fd5b8035906020019184600183028401116401000000008311171561161f57600080fd5b91908080601f016020809104026020016040519081016040528093929190818152602001838380828437600081840152601f19601f820116905080830192505050505050509192919290803590602001909291905050506134ad565b604051808467ffffffffffffffff1667ffffffffffffffff16815260200183815260200180602001828103825283818151815260200191508051906020019080838360005b838110156116db5780820151818401526020810190506116c0565b50505050905090810190601f1680156117085780820380516001836020036101000a031916815260200191505b5094505050505060405180910390f35b6117d16004803603602081101561172e57600080fd5b810190808035906020019064010000000081111561174b57600080fd5b82018360208201111561175d57600080fd5b8035906020019184600183028401116401000000008311171561177f57600080fd5b91908080601f016020809104026020016040519081016040528093929190818152602001838380828437600081840152601f19601f8201169050808301925050505050505091929192905050506134d4565b6040518080602001838152602001828103825284818151815260200191508051906020019080838360005b838110156118175780820151818401526020810190506117fc565b50505050905090810190601f1680156118445780820380516001836020036101000a031916815260200191505b50935050505060405180910390f35b61190c6004803603602081101561186957600080fd5b810190808035906020019064010000000081111561188657600080fd5b82018360208201111561189857600080fd5b803590602001918460018302840111640100000000831117156118ba57600080fd5b91908080601f016020809104026020016040519081016040528093929190818152602001838380828437600081840152601f19601f820116905080830192505050505050509192919290505050613502565b6040518080602001828103825283818151815260200191508051906020019060200280838360005b8381101561194f578082015181840152602081019050611934565b505050509050019250505060405180910390f35b611ab36004803603604081101561197957600080fd5b810190808035906020019064010000000081111561199657600080fd5b8201836020820111156119a857600080fd5b803590602001918460018302840111640100000000831117156119ca57600080fd5b91908080601f016020809104026020016040519081016040528093929190818152602001838380828437600081840152601f19601f82011690508083019250505050505050919291929080359060200190640100000000811115611a2d57600080fd5b820183602082011115611a3f57600080fd5b80359060200191846001830284011164010000000083111715611a6157600080fd5b91908080601f016020809104026020016040519081016040528093929190818152602001838380828437600081840152601f19601f820116905080830192505050505050509192919290505050613514565b604051808060200183151515158152602001828103825284818151815260200191508051906020019080838360005b83811015611afd578082015181840152602081019050611ae2565b50505050905090810190601f168015611b2a5780820380516001836020036101000a031916815260200191505b50935050505060405180910390f35b611bf260048036036020811015611b4f57600080fd5b8101908080359060200190640100000000811115611b6c57600080fd5b820183602082011115611b7e57600080fd5b80359060200191846001830284011164010000000083111715611ba057600080fd5b91908080601f016020809104026020016040519081016040528093929190818152602001838380828437600081840152601f19601f82011690508083019250505050505050919291929050505061352d565b6040518080602001828103825283818151815260200191508051906020019080838360005b83811015611c32578082015181840152602081019050611c17565b50505050905090810190601f168015611c5f5780820380516001836020036101000a031916815260200191505b509250505060405180910390f35b611d3060048036036040811015611c8357600080fd5b8101908080359060200190640100000000811115611ca057600080fd5b820183602082011115611cb257600080fd5b80359060200191846001830284011164010000000083111715611cd457600080fd5b91908080601f016020809104026020016040519081016040528093929190818152602001838380828437600081840152601f19601f8201169050808301925050505050505091929192908035906020019092919050505061353f565b604051808473ffffffffffffffffffffffffffffffffffffffff1673ffffffffffffffffffffffffffffffffffffffff16815260200183815260200180602001828103825283818151815260200191508051906020019080838360005b83811015611da8578082015181840152602081019050611d8d565b50505050905090810190601f168015611dd55780820380516001836020036101000a031916815260200191505b5094505050505060405180910390f35b611e9e60048036036020811015611dfb57600080fd5b8101908080359060200190640100000000811115611e1857600080fd5b820183602082011115611e2a57600080fd5b80359060200191846001830284011164010000000083111715611e4c57600080fd5b91908080601f016020809104026020016040519081016040528093929190818152602001838380828437600081840152601f19601f820116905080830192505050505050509192919290505050613566565b604051808467ffffffffffffffff1667ffffffffffffffff1681526020018367ffffffffffffffff1667ffffffffffffffff16815260200180602001828103825283818151815260200191508051906020019060200280838360005b83811015611f15578082015181840152602081019050611efa565b5050505090500194505050505060405180910390f35b611f6160048036036020811015611f4157600080fd5b81019080803567ffffffffffffffff16906020019092919050505061359e565b604051808277ffffffffffffffffffffffffffffffffffffffffffffffff191677ffffffffffffffffffffffffffffffffffffffffffffffff1916815260200191505060405180910390f35b61206660048036036020811015611fc357600080fd5b8101908080359060200190640100000000811115611fe057600080fd5b820183602082011115611ff257600080fd5b8035906020019184600183028401116401000000008311171561201457600080fd5b91908080601f016020809104026020016040519081016040528093929190818152602001838380828437600081840152601f19601f8201169050808301925050505050505091929192905050506135b0565b6040518082815260200191505060405180910390f35b6121d66004803603606081101561209257600080fd5b81019080803590602001906401000000008111156120af57600080fd5b8201836020820111156120c157600080fd5b803590602001918460018302840111640100000000831117156120e357600080fd5b91908080601f016020809104026020016040519081016040528093929190818152602001838380828437600081840152601f19601f820116905080830192505050505050509192919290803590602001909291908035906020019064010000000081111561215057600080fd5b82018360208201111561216257600080fd5b8035906020019184600183028401116401000000008311171561218457600080fd5b91908080601f016020809104026020016040519081016040528093929190818152602001838380828437600081840152601f19601f8201169050808301925050505050505091929192905050506135c2565b604051808215151515815260200191505060405180910390f35b61221c6004803603602081101561220657600080fd5b81019080803590602001909291905050506135d8565b6040518080602001828103825283818151815260200191508051906020019080838360005b8381101561225c578082015181840152602081019050612241565b50505050905090810190601f1680156122895780820380516001836020036101000a031916815260200191505b509250505060405180910390f35b612364600480360360408110156122ad57600080fd5b81019080803590602001906401000000008111156122ca57600080fd5b8201836020820111156122dc57600080fd5b803590602001918460018302840111640100000000831117156122fe57600080fd5b91908080601f016020809104026020016040519081016040528093929190818152602001838380828437600081840152601f19601f820116905080830192505050505050509192919290803567ffffffffffffffff1690602001909291905050506135ea565b6040518080602001828103825283818151815260200191508051906020019080838360005b838110156123a4578082015181840152602081019050612389565b50505050905090810190601f1680156123d15780820380516001836020036101000a031916815260200191505b509250505060405180910390f35b6124a2600480360360408110156123f557600080fd5b810190808035906020019064010000000081111561241257600080fd5b82018360208201111561242457600080fd5b8035906020019184600183028401116401000000008311171561244657600080fd5b91908080601f016020809104026020016040519081016040528093929190818152602001838380828437600081840152601f19601f82011690508083019250505050505050919291929080359060200190929190505050613641565b604051808060200184815260200180602001838103835286818151815260200191508051906020019080838360005b838110156124ec5780820151818401526020810190506124d1565b50505050905090810190601f1680156125195780820380516001836020036101000a031916815260200191505b50838103825284818151815260200191508051906020019080838360005b83811015612552578082015181840152602081019050612537565b50505050905090810190601f16801561257f5780820380516001836020036101000a031916815260200191505b509550505050505060405180910390f35b612649600480360360208110156125a657600080fd5b81019080803590602001906401000000008111156125c357600080fd5b8201836020820111156125d557600080fd5b803590602001918460018302840111640100000000831117156125f757600080fd5b91908080601f016020809104026020016040519081016040528093929190818152602001838380828437600081840152601f19601f820116905080830192505050505050509192919290505050613669565b6040518082815260200191505060405180910390f35b6127226004803603604081101561267557600080fd5b810190808035906020019064010000000081111561269257600080fd5b8201836020820111156126a457600080fd5b803590602001918460018302840111640100000000831117156126c657600080fd5b91908080601f016020809104026020016040519081016040528093929190818152602001838380828437600081840152601f19601f8201169050808301925050505050505091929192908035906020019092919050505061367b565b6040518080602001838152602001828103825284818151815260200191508051906020019080838360005b8381101561276857808201518184015260208101905061274d565b50505050905090810190601f1680156127955780820380516001836020036101000a031916815260200191505b50935050505060405180910390f35b6128fb600480360360608110156127ba57600080fd5b8101908080359060200190929190803590602001906401000000008111156127e157600080fd5b8201836020820111156127f357600080fd5b8035906020019184600183028401116401000000008311171561281557600080fd5b91908080601f016020809104026020016040519081016040528093929190818152602001838380828437600081840152601f19601f8201169050808301925050505050505091929192908035906020019064010000000081111561287857600080fd5b82018360208201111561288a57600080fd5b803590602001918460208302840111640100000000831117156128ac57600080fd5b919080806020026020016040519081016040528093929190818152602001838360200280828437600081840152601f19601f820116905080830192505050505050509192919290505050613694565b604051808215151515815260200191505060405180910390f35b6129576004803603602081101561292b57600080fd5b81019080803573ffffffffffffffffffffffffffffffffffffffff1690602001909291905050506136aa565b6040518080602001828103825283818151815260200191508051906020019080838360005b8381101561299757808201518184015260208101905061297c565b50505050905090810190601f1680156129c45780820380516001836020036101000a031916815260200191505b509250505060405180910390f35b612d92600480360360e08110156129e857600080fd5b8101908080359060200190640100000000811115612a0557600080fd5b820183602082011115612a1757600080fd5b80359060200191846001830284011164010000000083111715612a3957600080fd5b91908080601f016020809104026020016040519081016040528093929190818152602001838380828437600081840152601f19601f82011690508083019250505050505050919291929080359060200190640100000000811115612a9c57600080fd5b820183602082011115612aae57600080fd5b80359060200191846001830284011164010000000083111715612ad057600080fd5b91908080601f016020809104026020016040519081016040528093929190818152602001838380828437600081840152601f19601f82011690508083019250505050505050919291929080359060200190640100000000811115612b3357600080fd5b820183602082011115612b4557600080fd5b80359060200191846001830284011164010000000083111715612b6757600080fd5b91908080601f016020809104026020016040519081016040528093929190818152602001838380828437600081840152601f19601f820116905080830192505050505050509192919290803567ffffffffffffffff16906020019092919080359060200190640100000000811115612bde57600080fd5b820183602082011115612bf057600080fd5b80359060200191846001830284011164010000000083111715612c1257600080fd5b91908080601f016020809104026020016040519081016040528093929190818152602001838380828437600081840152601f19601f82011690508083019250505050505050919291929080359060200190640100000000811115612c7557600080fd5b820183602082011115612c8757600080fd5b80359060200191846001830284011164010000000083111715612ca957600080fd5b91908080601f016020809104026020016040519081016040528093929190818152602001838380828437600081840152601f19601f82011690508083019250505050505050919291929080359060200190640100000000811115612d0c57600080fd5b820183602082011115612d1e57600080fd5b80359060200191846001830284011164010000000083111715612d4057600080fd5b91908080601f016020809104026020016040519081016040528093929190818152602001838380828437600081840152601f19601f8201169050808301925050505050505091929192905050506136bc565b6040518080602001828103825283818151815260200191508051906020019080838360005b83811015612dd2578082015181840152602081019050612db7565b50505050905090810190601f168015612dff5780820380516001836020036101000a031916815260200191505b509250505060405180910390f35b612ed060048036036040811015612e2357600080fd5b8101908080359060200190640100000000811115612e4057600080fd5b820183602082011115612e5257600080fd5b80359060200191846001830284011164010000000083111715612e7457600080fd5b91908080601f016020809104026020016040519081016040528093929190818152602001838380828437600081840152601f19601f820116905080830192505050505050509192919290803590602001909291905050506136da565b60405180846005811115612ee057fe5b60ff168152602001838152602001828152602001935050505060405180910390f35b6130e960048036036060811015612f1857600080fd5b8101908080359060200190640100000000811115612f3557600080fd5b820183602082011115612f4757600080fd5b80359060200191846001830284011164010000000083111715612f6957600080fd5b91908080601f016020809104026020016040519081016040528093929190818152602001838380828437600081840152601f19601f82011690508083019250505050505050919291929080359060200190640100000000811115612fcc57600080fd5b820183602082011115612fde57600080fd5b8035906020019184600183028401116401000000008311171561300057600080fd5b91908080601f016020809104026020016040519081016040528093929190818152602001838380828437600081840152601f19601f8201169050808301925050505050505091929192908035906020019064010000000081111561306357600080fd5b82018360208201111561307557600080fd5b8035906020019184600183028401116401000000008311171561309757600080fd5b91908080601f016020809104026020016040519081016040528093929190818152602001838380828437600081840152601f19601f8201169050808301925050505050505091929192905050506136f6565b6040518080602001828103825283818151815260200191508051906020019080838360005b8381101561312957808201518184015260208101905061310e565b50505050905090810190601f1680156131565780820380516001836020036101000a031916815260200191505b509250505060405180910390f35b61321a6004803603602081101561317a57600080fd5b810190808035906020019064010000000081111561319757600080fd5b8201836020820111156131a957600080fd5b803590602001918460208302840111640100000000831117156131cb57600080fd5b919080806020026020016040519081016040528093929190818152602001838360200280828437600081840152601f19601f82011690508083019250505050505050919291929050505061370c565b6040518080602001828103825283818151815260200191508051906020019080838360005b8381101561325a57808201518184015260208101905061323f565b50505050905090810190601f1680156132875780820380516001836020036101000a031916815260200191505b509250505060405180910390f35b60606132a4868686868661371e565b905095945050505050565b60006132bb83836137b2565b905092915050565b6060600060606132d1615bf3565b6132da85613901565b90506060613325826040015160000151836040015160200151846040015160400151856040015160600151866040015160800151876040015160a00151886040015160c00151613992565b9050816000015182602001518282925094509450945050509193909250565b606061334e615c24565b82816000019067ffffffffffffffff16908167ffffffffffffffff168152505061337781613c63565b915050919050565b600080606061338e8585613d7a565b80935081945050508282869250925092509250925092565b60606133b182613e0d565b9050919050565b60006133c48383614048565b905092915050565b6060806060600060608060606133e0615c59565b6133e9896140ef565b9050806000015181602001518260400151836060015184608001518560a001518660c00151869650859550849450829250819150809050975097509750975097509750975050919395979092949650565b6000613445826145b6565b9050919050565b60606134578261461e565b9050919050565b60606134698261477c565b9050919050565b6060600061347d83614799565b91509150915091565b60008060606134958585614833565b80935081945050508282869250925092509250925092565b60008060606134bc85856148cb565b80935081945050508282869250925092509250925092565b606060006134e0615ca0565b6134e984614963565b9050806000015181602001518191509250925050915091565b606061350d826149cc565b9050919050565b606060006135228484614a81565b915091509250929050565b606061353882614b4b565b9050919050565b600080606061354e8585614d17565b80935081945050508282869250925092509250925092565b6000806060613573615c24565b61357c85614daf565b9050806020015181600001518260400151809050935093509350509193909250565b60006135a982614f8b565b9050919050565b60006135bb82615000565b9050919050565b60006135cf848484615085565b90509392505050565b60606135e3826150df565b9050919050565b60606135f4615c59565b6135fc615bf3565b83826060019067ffffffffffffffff16908167ffffffffffffffff168152505084816000018190525081816040018190525061363781615192565b9250505092915050565b60606000606061365185856152b1565b80935081945050508282869250925092509250925092565b600061367482615302565b9050919050565b60606000613689848461541d565b915091509250929050565b60006136a1848484615454565b90509392505050565b60606136b5826155cc565b9050919050565b60606136cd88888888888888613992565b9050979650505050505050565b60008060006136e985856155ec565b9250925092509250925092565b60606137038484846156a7565b90509392505050565b60606137178261596a565b9050919050565b6060808490508051602082012060208201526020815260606137418883896156a7565b905061374e81602061541d565b5080915050600061376082602061541d565b91505061376d828261541d565b905080915050606061377f838361541d565b5090506060869050805160208201206020820152602081526137a28882846156a7565b9550505050505095945050505050565b6000806137f060016137e260036137d4600289516159d490919063ffffffff16565b615a5a90919063ffffffff16565b615aa490919063ffffffff16565b9050600080905060008090505b84518110156138f25760008090505b86518110156138e45786818151811061382157fe5b602002602001015173ffffffffffffffffffffffffffffffffffffffff1686838151811061384b57fe5b602002602001015173ffffffffffffffffffffffffffffffffffffffff1614156138d757828060010193505073777777777777777777777777777777777777777787828151811061389857fe5b602002602001019073ffffffffffffffffffffffffffffffffffffffff16908173ffffffffffffffffffffffffffffffffffffffff16815250506138e4565b808060010191505061380c565b5080806001019150506137fd565b50818110159250505092915050565b613909615bf3565b60006020905061391983826155ec565b909150905080915050606061392e84836152b1565b81915084600001819450829052505061394784836148cb565b846020018194508267ffffffffffffffff1667ffffffffffffffff16815250505061397284836152b1565b8093508192505050613983816140ef565b83604001819052505050919050565b606087878787878787604051602001808060200180602001806020018867ffffffffffffffff1667ffffffffffffffff16815260200180602001806020018060200187810387528e818151815260200191508051906020019080838360005b83811015613a0c5780820151818401526020810190506139f1565b50505050905090810190601f168015613a395780820380516001836020036101000a031916815260200191505b5087810386528d818151815260200191508051906020019080838360005b83811015613a72578082015181840152602081019050613a57565b50505050905090810190601f168015613a9f5780820380516001836020036101000a031916815260200191505b5087810385528c818151815260200191508051906020019080838360005b83811015613ad8578082015181840152602081019050613abd565b50505050905090810190601f168015613b055780820380516001836020036101000a031916815260200191505b5087810384528a818151815260200191508051906020019080838360005b83811015613b3e578082015181840152602081019050613b23565b50505050905090810190601f168015613b6b5780820380516001836020036101000a031916815260200191505b50878103835289818151815260200191508051906020019080838360005b83811015613ba4578082015181840152602081019050613b89565b50505050905090810190601f168015613bd15780820380516001836020036101000a031916815260200191505b50878103825288818151815260200191508051906020019080838360005b83811015613c0a578082015181840152602081019050613bef565b50505050905090810190601f168015613c375780820380516001836020036101000a031916815260200191505b509d50505050505050505050505050506040516020818303038152906040529050979650505050505050565b60606000613c748360000151614f8b565b60405160200180807fe4bf3526f07c80af3a5de1411dd34471c71bdd5d04eedbfa1040da2c968020418152506020018277ffffffffffffffffffffffffffffffffffffffffffffffff191677ffffffffffffffffffffffffffffffffffffffffffffffff19168152600801915050604051602081830303815290604052805190602001209050613d726773745f70726f6f6660c01b82604051602001808377ffffffffffffffffffffffffffffffffffffffffffffffff191677ffffffffffffffffffffffffffffffffffffffffffffffff19168152600801828152602001925050506040516020818303038152906040528051906020012061477c565b915050919050565b6000806000613d8985856155ec565b90915080955081925050506020811115613dee576040517f08c379a000000000000000000000000000000000000000000000000000000000815260040180806020018281038252602c815260200180615d72602c913960400191505060405180910390fd5b838101915080602003808503860151600882021b935050509250929050565b60606000600483600081518110613e2057fe5b602001015160f81c60f81b7effffffffffffffffffffffffffffffffffffffffffffffffffffffffffffff1916901c9050600083519050600080600060028560f81c06905060028560f81c04915080826002808702030101925060405195506020838701016040528286526001811415613eef57600f60f81b87600081518110613ea657fe5b602001015160f81c60f81b1686600081518110613ebf57fe5b60200101907effffffffffffffffffffffffffffffffffffffffffffffffffffffffffffff1916908160001a9053505b6001821415613f3c57601060f81b866001850381518110613f0c57fe5b60200101907effffffffffffffffffffffffffffffffffffffffffffffffffffffffffffff1916908160001a9053505b60008090505b6001850381101561403d576004886001830181518110613f5e57fe5b602001015160f81c60f81b7effffffffffffffffffffffffffffffffffffffffffffffffffffffffffffff1916901c8783836002020181518110613f9e57fe5b60200101907effffffffffffffffffffffffffffffffffffffffffffffffffffffffffffff1916908160001a905350600f60f81b886001830181518110613fe157fe5b602001015160f81c60f81b16878360018460020201018151811061400157fe5b60200101907effffffffffffffffffffffffffffffffffffffffffffffffffffffffffffff1916908160001a9053508080600101915050613f42565b505050505050919050565b6000604182511461405c57600090506140e9565b60008060006020850151925060408501519150606085015160001a601b01905060018682858560405160008152602001604052604051808581526020018460ff1660ff1681526020018381526020018281526020019450505050506020604051602081039080840390855afa1580156140d9573d6000803e3d6000fd5b5050506020604051035193505050505b92915050565b6140f7615c59565b8180602001905160e081101561410c57600080fd5b810190808051604051939291908464010000000082111561412c57600080fd5b8382019150602082018581111561414257600080fd5b825186600182028301116401000000008211171561415f57600080fd5b8083526020830192505050908051906020019080838360005b83811015614193578082015181840152602081019050614178565b50505050905090810190601f1680156141c05780820380516001836020036101000a031916815260200191505b50604052602001805160405193929190846401000000008211156141e357600080fd5b838201915060208201858111156141f957600080fd5b825186600182028301116401000000008211171561421657600080fd5b8083526020830192505050908051906020019080838360005b8381101561424a57808201518184015260208101905061422f565b50505050905090810190601f1680156142775780820380516001836020036101000a031916815260200191505b506040526020018051604051939291908464010000000082111561429a57600080fd5b838201915060208201858111156142b057600080fd5b82518660018202830111640100000000821117156142cd57600080fd5b8083526020830192505050908051906020019080838360005b838110156143015780820151818401526020810190506142e6565b50505050905090810190601f16801561432e5780820380516001836020036101000a031916815260200191505b50604052602001805190602001909291908051604051939291908464010000000082111561435b57600080fd5b8382019150602082018581111561437157600080fd5b825186600182028301116401000000008211171561438e57600080fd5b8083526020830192505050908051906020019080838360005b838110156143c25780820151818401526020810190506143a7565b50505050905090810190601f1680156143ef5780820380516001836020036101000a031916815260200191505b506040526020018051604051939291908464010000000082111561441257600080fd5b8382019150602082018581111561442857600080fd5b825186600182028301116401000000008211171561444557600080fd5b8083526020830192505050908051906020019080838360005b8381101561447957808201518184015260208101905061445e565b50505050905090810190601f1680156144a65780820380516001836020036101000a031916815260200191505b50604052602001805160405193929190846401000000008211156144c957600080fd5b838201915060208201858111156144df57600080fd5b82518660018202830111640100000000821117156144fc57600080fd5b8083526020830192505050908051906020019080838360005b83811015614530578082015181840152602081019050614515565b50505050905090810190601f16801561455d5780820380516001836020036101000a031916815260200191505b506040525050508760000188602001896040018a6060018b6080018c60a0018d60c0018790528790528790528767ffffffffffffffff1667ffffffffffffffff1681525087905287905287905250505050505050919050565b60006014825114614612576040517f08c379a0000000000000000000000000000000000000000000000000000000008152600401808060200182810382526023815260200180615d026023913960400191505060405180910390fd5b60148201519050919050565b6060600060016002845102019050604051915060208183010160405280825260008090505b835181101561473257600484828151811061465a57fe5b602001015160f81c60f81b7effffffffffffffffffffffffffffffffffffffffffffffffffffffffffffff1916901c83600283028151811061469857fe5b60200101907effffffffffffffffffffffffffffffffffffffffffffffffffffffffffffff1916908160001a905350600f60f81b8482815181106146d857fe5b602001015160f81c60f81b168360016002840201815181106146f657fe5b60200101907effffffffffffffffffffffffffffffffffffffffffffffffffffffffffffff1916908160001a9053508080600101915050614643565b50601060f81b82600183038151811061474757fe5b60200101907effffffffffffffffffffffffffffffffffffffffffffffffffffffffffffff1916908160001a90535050919050565b606060405190506040810160405260208152816020820152919050565b606060008083511415614814576040517f08c379a00000000000000000000000000000000000000000000000000000000081526004018080602001828103825260188152602001807f74616b654f6e65427974653a20656d70747920696e707574000000000000000081525060200191505060405180910390fd5b60ff600184015116905060018351036001840152600183019150915091565b600080600061484285856155ec565b909150809550819250505060208111156148a7576040517f08c379a000000000000000000000000000000000000000000000000000000000815260040180806020018281038252602c815260200180615dc8602c913960400191505060405180910390fd5b838101915080602003808503860151600882021b600882021c935050509250929050565b60008060006148da85856155ec565b9091508095508192505050600881111561493f576040517f08c379a000000000000000000000000000000000000000000000000000000000815260040180806020018281038252602a815260200180615d9e602a913960400191505060405180910390fd5b838101915080602003808503860151600882021b600882021c935050509250929050565b61496b615ca0565b6000806149798460206155ec565b9250505061498a84605783016152b1565b8191505083600001819052506149a4846101bd83016155ec565b90915080925081935050506149bb84838301614833565b508360200181815250505050919050565b60608180602001905160208110156149e357600080fd5b8101908080516040519392919084640100000000821115614a0357600080fd5b83820191506020820185811115614a1957600080fd5b8251866020820283011164010000000082111715614a3657600080fd5b8083526020830192505050908051906020019060200280838360005b83811015614a6d578082015181840152602081019050614a52565b505050509050016040525050509050919050565b60606000825184511015614a9b5783600091509150614b44565b60006020845181614aa857fe5b0490506001915060008090505b81811015614adf576020810260200180860151818801511484169350508080600101915050614ab5565b50602081026020017fffffffffffffffffffffffffffffffffffffffffffffffffffffffffffffffff855182036008021b8186015182880151181615831692505081614b32578460009250925050614b44565b83518551038451860152835185019250505b9250929050565b60606000825190506000600160028381614b6157fe5b040190506000809050600060028481614b7657fe5b069050601060f81b866001860381518110614b8d57fe5b602001015160f81c60f81b7effffffffffffffffffffffffffffffffffffffffffffffffffffffffffffff19161415614bdb576002915060026001850181614bd157fe5b0492508060010390505b8082019150604051945060208386010160405282855260006001821415614c175786600081518110614c0957fe5b602001015160f81c60f81b90505b6000818460fc1b0190508087600081518110614c2f57fe5b60200101907effffffffffffffffffffffffffffffffffffffffffffffffffffffffffffff1916908160001a905350505060008090505b60018403811015614d0d5760008783836002020181518110614c8457fe5b602001015160f81c60f81b905060008884600185600202010181518110614ca757fe5b602001015160f81c60f81b90506000818360041b01905080896001860181518110614cce57fe5b60200101907effffffffffffffffffffffffffffffffffffffffffffffffffffffffffffff1916908160001a9053505050508080600101915050614c66565b5050505050919050565b6000806000614d2685856155ec565b90915080955081925050506014811115614d8b576040517f08c379a000000000000000000000000000000000000000000000000000000000815260040180806020018281038252602c815260200180615d25602c913960400191505060405180910390fd5b838101915080602003808503860151600882021b600882021c935050509250929050565b614db7615c24565b6000809050600080614dca8560206155ec565b92505050614dd885826148cb565b856000018193508267ffffffffffffffff1667ffffffffffffffff168152505050614e0385826155ec565b909150905080915050614e1685826155ec565b90915080925081935050506000605b8381614e2d57fe5b0614614ea1576040517f08c379a00000000000000000000000000000000000000000000000000000000081526004018080602001828103825260148152602001807f696e76616c69642072617745706f6368496e666f00000000000000000000000081525060200191505060405180910390fd5b605b8281614eab57fe5b04604051908082528060200260200182016040528015614eda5781602001602082028038833980820191505090505b5084604001819052505b81811015614f5b576000614efb8660468401614d17565b5090508085604001518580600101965081518110614f1557fe5b602002602001019073ffffffffffffffffffffffffffffffffffffffff16908173ffffffffffffffffffffffffffffffffffffffff168152505050605b81019050614ee4565b614f6585826148cb565b50846020018167ffffffffffffffff1667ffffffffffffffff1681525050505050919050565b600060ff821660381b905061ff00821660281b8101905062ff0000821660181b8101905063ff000000821660081b8101905064ff00000000821660081c8101905065ff0000000000821660181c8101905066ff000000000000821660281c810190508160381c810190508060c01b9050919050565b60006020825114615079576040517f08c379a00000000000000000000000000000000000000000000000000000000081526004018080602001828103825260178152602001807f6279746573206c656e677468206973206e6f742033322e00000000000000000081525060200191505060405180910390fd5b60208201519050919050565b600080600061509486866155ec565b925092505060208211600081146150b257600181146150c3576150d5565b6020850151868801511493506150d5565b60208501518683038401878901201493505b5050509392505050565b60607f7fffffffffffffffffffffffffffffffffffffffffffffffffffffffffffffff821115615177576040517f08c379a00000000000000000000000000000000000000000000000000000000081526004018080602001828103825260178152602001807f56616c75652065786365656473207468652072616e676500000000000000000081525060200191505060405180910390fd5b60405190506020815281602082015260408101604052919050565b60606152aa667265717565737460c81b6151b3846040015160600151614f8b565b8460000151604051602001808478ffffffffffffffffffffffffffffffffffffffffffffffffff191678ffffffffffffffffffffffffffffffffffffffffffffffffff191681526007018377ffffffffffffffffffffffffffffffffffffffffffffffff191677ffffffffffffffffffffffffffffffffffffffffffffffff1916815260080182805190602001908083835b602083106152685780518252602082019150602081019050602083039250615245565b6001836020036101000a03801982511681845116808217855250505050505090500193505050506040516020818303038152906040528051906020012061477c565b9050919050565b60606000806152c085856155ec565b9091508095508192505050838101915060405192506020601f82010460200260200180840160405281845281602085018387890160045afa5050509250929050565b6000602082511461537b576040517f08c379a00000000000000000000000000000000000000000000000000000000081526004018080602001828103825260178152602001807f6279746573206c656e677468206973206e6f742033322e00000000000000000081525060200191505060405180910390fd5b602082015190507f7fffffffffffffffffffffffffffffffffffffffffffffffffffffffffffffff811115615418576040517f08c379a00000000000000000000000000000000000000000000000000000000081526004018080602001828103825260178152602001807f56616c75652065786365656473207468652072616e676500000000000000000081525060200191505060405180910390fd5b919050565b606060008061542c85856155ec565b9091508093508192505050806020830386015260208203850192508082019150509250929050565b60008060209050606061546885602061541d565b5080955050600061548460438751615a5a90919063ffffffff16565b90506060816040519080825280602002602001820160405280156154b75781602001602082028038833980820191505090505b50905060008090505b828110156155b3576154d2888661541d565b809650819550505061550a89604051602001808281526020019150506040516020818303038152906040528051906020012085614048565b82828151811061551657fe5b602002602001019073ffffffffffffffffffffffffffffffffffffffff16908173ffffffffffffffffffffffffffffffffffffffff1681525050600073ffffffffffffffffffffffffffffffffffffffff1682828151811061557457fe5b602002602001015173ffffffffffffffffffffffffffffffffffffffff1614156155a6576000955050505050506155c5565b80806001019150506154c0565b506155be86826137b2565b9450505050505b9392505050565b60606040519050601481528160601b602082015260408101604052919050565b60008060008385015160f81c608081101561560d5760019350600192508491505b607f811160b78210161561562c57600293506080810392506001850191505b60b6811160c0821016156156585760039350600185870101518160d7036008021c925060b68103850191505b60bf811160f782101615615677576004935060c0810392506001850191505b60f681111561569f57600593506001858701015181610117036008021c925060f68103850191505b509250925092565b60606156b28361461e565b92506156bf84602061541d565b50809450506000602090506000855190508392505b602081018210156158ea5760606156ec878486615085565b61575e576040517f08c379a00000000000000000000000000000000000000000000000000000000081526004018080602001828103825260178152602001807f70726f6f663a756e657175616c206e6f6465206861736800000000000000000081525060200191505060405180910390fd5b615768878461541d565b809450819250505060008061577e8360206155ec565b925092505061578f838383016155ec565b90915080925081935050508181019050602083510181141561586a57606060006157ba85602061541d565b91509150600060606157cb84613e0d565b90506157d78c82614a81565b809350819d50505081615852576040517f08c379a00000000000000000000000000000000000000000000000000000000081526004018080602001828103825260118152602001807f70726f6f663a696e76616c6964206b657900000000000000000000000000000081525060200191505060405180910390fd5b61585c878461541d565b50809a5050505050506158e2565b6000808951141561587e5760119050615890565b61588789614799565b809250819a5050505b60006020905060008090505b60118110156158de57808314156158c1576158b7868361541d565b50809950506158de565b6158cb868361541d565b905080925050808060010191505061589c565b5050505b5050506156d4565b6000855114615961576040517f08c379a00000000000000000000000000000000000000000000000000000000081526004018080602001828103825260118152602001807f70726f6f663a696e76616c6964206b657900000000000000000000000000000081525060200191505060405180910390fd5b50509392505050565b6060816040516020018080602001828103825283818151815260200191508051906020019060200280838360005b838110156159b3578082015181840152602081019050615998565b50505050905001925050506040516020818303038152906040529050919050565b6000808314156159e75760009050615a54565b60008284029050828482816159f857fe5b0414615a4f576040517f08c379a0000000000000000000000000000000000000000000000000000000008152600401808060200182810382526021815260200180615d516021913960400191505060405180910390fd5b809150505b92915050565b6000615a9c83836040518060400160405280601a81526020017f536166654d6174683a206469766973696f6e206279207a65726f000000000000815250615b2c565b905092915050565b600080828401905083811015615b22576040517f08c379a000000000000000000000000000000000000000000000000000000000815260040180806020018281038252601b8152602001807f536166654d6174683a206164646974696f6e206f766572666c6f77000000000081525060200191505060405180910390fd5b8091505092915050565b6000808314158290615bd9576040517f08c379a00000000000000000000000000000000000000000000000000000000081526004018080602001828103825283818151815260200191508051906020019080838360005b83811015615b9e578082015181840152602081019050615b83565b50505050905090810190601f168015615bcb5780820380516001836020036101000a031916815260200191505b509250505060405180910390fd5b506000838581615be557fe5b049050809150509392505050565b604051806060016040528060608152602001600067ffffffffffffffff168152602001615c1e615cba565b81525090565b6040518060600160405280600067ffffffffffffffff168152602001600067ffffffffffffffff168152602001606081525090565b6040518060e00160405280606081526020016060815260200160608152602001600067ffffffffffffffff1681526020016060815260200160608152602001606081525090565b604051806040016040528060608152602001600081525090565b6040518060e00160405280606081526020016060815260200160608152602001600067ffffffffffffffff168152602001606081526020016060815260200160608152509056fe6279746573206c656e67746820646f6573206e6f74206d617463682061646472657373726c704765744e657874416464726573733a2064617461206c6f6e676572207468616e203230206279746573536166654d6174683a206d756c7469706c69636174696f6e206f766572666c6f77726c704765744e657874427974657333323a2064617461206c6f6e676572207468616e203332206279746573726c704765744e65787455696e7436343a2064617461206c6f6e676572207468616e2038206279746573726c704765744e65787455696e743235363a2064617461206c6f6e676572207468616e203332206279746573a265627a7a72315820f280964927d139c78fb899ec7b2aea87a699962c992944988f498f6b3cabd72664736f6c63430005110032",
  "linkReferences": {},
  "deployedLinkReferences": {}
}