{
  "_format": "hh-sol-artifact-1",
  "contractName": "LockProxyWithLP",
  "sourceName": "contracts/core/lockProxy/LockProxyWithLP.sol",
  "abi": [
    {
      "anonymous": false,
      "inputs": [
        {
          "indexed": false,
          "internalType": "address",
          "name": "fromAssetHash",
          "type": "address"
        },
        {
          "indexed": false,
          "internalType": "uint64",
          "name": "toChainId",
          "type": "uint64"
        },
        {
          "indexed": false,
          "internalType": "bytes",
          "name": "targetProxyHash",
          "type": "bytes"
        },
        {
          "indexed": false,
          "internalType": "uint256",
          "name": "initialAmount",
          "type": "uint256"
        }
      ],
      "name": "BindAssetEvent",
      "type": "event"
    },
    {
      "anonymous": false,
      "inputs": [
        {
          "indexed": false,
          "internalType": "address",
          "name": "originAssetAddress",
          "type": "address"
        },
        {
          "indexed": false,
          "internalType": "address",
          "name": "LPTokenAddress",
          "type": "address"
        }
      ],
      "name": "BindLPToAssetEvent",
      "type": "event"
    },
    {
      "anonymous": false,
      "inputs": [
        {
          "indexed": false,
          "internalType": "uint64",
          "name": "toChainId",
          "type": "uint64"
        },
        {
          "indexed": false,
          "internalType": "bytes",
          "name": "targetProxyHash",
          "type": "bytes"
        }
      ],
      "name": "BindProxyEvent",
      "type": "event"
    },
    {
      "anonymous": false,
      "inputs": [
        {
          "indexed": false,
          "internalType": "address",
          "name": "fromAssetHash",
          "type": "address"
        },
        {
          "indexed": false,
          "internalType": "address",
          "name": "fromAddress",
          "type": "address"
        },
        {
          "indexed": false,
          "internalType": "uint64",
          "name": "toChainId",
          "type": "uint64"
        },
        {
          "indexed": false,
          "internalType": "bytes",
          "name": "toAssetHash",
          "type": "bytes"
        },
        {
          "indexed": false,
          "internalType": "bytes",
          "name": "toAddress",
          "type": "bytes"
        },
        {
          "indexed": false,
          "internalType": "uint256",
          "name": "amount",
          "type": "uint256"
        }
      ],
      "name": "LockEvent",
      "type": "event"
    },
    {
      "anonymous": false,
      "inputs": [
        {
          "indexed": true,
          "internalType": "address",
          "name": "previousOwner",
          "type": "address"
        },
        {
          "indexed": true,
          "internalType": "address",
          "name": "newOwner",
          "type": "address"
        }
      ],
      "name": "OwnershipTransferred",
      "type": "event"
    },
    {
      "anonymous": false,
      "inputs": [
        {
          "indexed": false,
          "internalType": "address",
          "name": "manager",
          "type": "address"
        }
      ],
      "name": "SetManagerProxyEvent",
      "type": "event"
    },
    {
      "anonymous": false,
      "inputs": [
        {
          "indexed": false,
          "internalType": "address",
          "name": "toAssetHash",
          "type": "address"
        },
        {
          "indexed": false,
          "internalType": "address",
          "name": "toAddress",
          "type": "address"
        },
        {
          "indexed": false,
          "internalType": "uint256",
          "name": "amount",
          "type": "uint256"
        }
      ],
      "name": "UnlockEvent",
      "type": "event"
    },
    {
      "anonymous": false,
      "inputs": [
        {
          "indexed": false,
          "internalType": "address",
          "name": "toAddress",
          "type": "address"
        },
        {
          "indexed": false,
          "internalType": "address",
          "name": "fromAssetHash",
          "type": "address"
        },
        {
          "indexed": false,
          "internalType": "address",
          "name": "fromLPHash",
          "type": "address"
        },
        {
          "indexed": false,
          "internalType": "uint256",
          "name": "amount",
          "type": "uint256"
        }
      ],
      "name": "depositEvent",
      "type": "event"
    },
    {
      "anonymous": false,
      "inputs": [
        {
          "indexed": false,
          "internalType": "address",
          "name": "toAddress",
          "type": "address"
        },
        {
          "indexed": false,
          "internalType": "address",
          "name": "fromAssetHash",
          "type": "address"
        },
        {
          "indexed": false,
          "internalType": "address",
          "name": "fromLPHash",
          "type": "address"
        },
        {
          "indexed": false,
          "internalType": "uint256",
          "name": "amount",
          "type": "uint256"
        }
      ],
      "name": "withdrawEvent",
      "type": "event"
    },
    {
      "constant": true,
      "inputs": [
        {
          "internalType": "address",
          "name": "",
          "type": "address"
        },
        {
          "internalType": "uint64",
          "name": "",
          "type": "uint64"
        }
      ],
      "name": "assetHashMap",
      "outputs": [
        {
          "internalType": "bytes",
          "name": "",
          "type": "bytes"
        }
      ],
      "payable": false,
      "stateMutability": "view",
      "type": "function"
    },
    {
      "constant": true,
      "inputs": [
        {
          "internalType": "address",
          "name": "",
          "type": "address"
        }
      ],
      "name": "assetLPMap",
      "outputs": [
        {
          "internalType": "address",
          "name": "",
          "type": "address"
        }
      ],
      "payable": false,
      "stateMutability": "view",
      "type": "function"
    },
    {
      "constant": false,
      "inputs": [
        {
          "internalType": "address",
          "name": "fromAssetHash",
          "type": "address"
        },
        {
          "internalType": "uint64",
          "name": "toChainId",
          "type": "uint64"
        },
        {
          "internalType": "bytes",
          "name": "toAssetHash",
          "type": "bytes"
        }
      ],
      "name": "bindAssetHash",
      "outputs": [
        {
          "internalType": "bool",
          "name": "",
          "type": "bool"
        }
      ],
      "payable": false,
      "stateMutability": "nonpayable",
      "type": "function"
    },
    {
      "constant": false,
      "inputs": [
        {
          "internalType": "address[]",
          "name": "fromAssetHash",
          "type": "address[]"
        },
        {
          "internalType": "uint64[]",
          "name": "toChainId",
          "type": "uint64[]"
        },
        {
          "internalType": "bytes[]",
          "name": "toAssetHash",
          "type": "bytes[]"
        }
      ],
      "name": "bindAssetHashBatch",
      "outputs": [
        {
          "internalType": "bool",
          "name": "",
          "type": "bool"
        }
      ],
      "payable": false,
      "stateMutability": "nonpayable",
      "type": "function"
    },
    {
      "constant": false,
      "inputs": [
        {
          "internalType": "address",
          "name": "fromAssetHash",
          "type": "address"
        },
        {
          "internalType": "address",
          "name": "fromLPHash",
          "type": "address"
        },
        {
          "internalType": "uint64",
          "name": "toChainId",
          "type": "uint64"
        },
        {
          "internalType": "bytes",
          "name": "toAssetHash",
          "type": "bytes"
        },
        {
          "internalType": "bytes",
          "name": "toLPHash",
          "type": "bytes"
        }
      ],
      "name": "bindLPAndAsset",
      "outputs": [
        {
          "internalType": "bool",
          "name": "",
          "type": "bool"
        }
      ],
      "payable": false,
      "stateMutability": "nonpayable",
      "type": "function"
    },
    {
      "constant": false,
      "inputs": [
        {
          "internalType": "address[]",
          "name": "fromAssetHash",
          "type": "address[]"
        },
        {
          "internalType": "address[]",
          "name": "fromLPHash",
          "type": "address[]"
        },
        {
          "internalType": "uint64[]",
          "name": "toChainId",
          "type": "uint64[]"
        },
        {
          "internalType": "bytes[]",
          "name": "toAssetHash",
          "type": "bytes[]"
        },
        {
          "internalType": "bytes[]",
          "name": "toLPHash",
          "type": "bytes[]"
        }
      ],
      "name": "bindLPAndAssetBatch",
      "outputs": [
        {
          "internalType": "bool",
          "name": "",
          "type": "bool"
        }
      ],
      "payable": false,
      "stateMutability": "nonpayable",
      "type": "function"
    },
    {
      "constant": false,
      "inputs": [
        {
          "internalType": "address",
          "name": "originAssetAddress",
          "type": "address"
        },
        {
          "internalType": "address",
          "name": "LPTokenAddress",
          "type": "address"
        }
      ],
      "name": "bindLPToAsset",
      "outputs": [
        {
          "internalType": "bool",
          "name": "",
          "type": "bool"
        }
      ],
      "payable": false,
      "stateMutability": "nonpayable",
      "type": "function"
    },
    {
      "constant": false,
      "inputs": [
        {
          "internalType": "address[]",
          "name": "originAssetAddress",
          "type": "address[]"
        },
        {
          "internalType": "address[]",
          "name": "LPTokenAddress",
          "type": "address[]"
        }
      ],
      "name": "bindLPToAssetBatch",
      "outputs": [
        {
          "internalType": "bool",
          "name": "",
          "type": "bool"
        }
      ],
      "payable": false,
      "stateMutability": "nonpayable",
      "type": "function"
    },
    {
      "constant": false,
      "inputs": [
        {
          "internalType": "uint64",
          "name": "toChainId",
          "type": "uint64"
        },
        {
          "internalType": "bytes",
          "name": "targetProxyHash",
          "type": "bytes"
        }
      ],
      "name": "bindProxyHash",
      "outputs": [
        {
          "internalType": "bool",
          "name": "",
          "type": "bool"
        }
      ],
      "payable": false,
      "stateMutability": "nonpayable",
      "type": "function"
    },
    {
      "constant": false,
      "inputs": [
        {
          "internalType": "uint64[]",
          "name": "toChainId",
          "type": "uint64[]"
        },
        {
          "internalType": "bytes[]",
          "name": "targetProxyHash",
          "type": "bytes[]"
        }
      ],
      "name": "bindProxyHashBatch",
      "outputs": [
        {
          "internalType": "bool",
          "name": "",
          "type": "bool"
        }
      ],
      "payable": false,
      "stateMutability": "nonpayable",
      "type": "function"
    },
    {
      "constant": false,
      "inputs": [
        {
          "internalType": "address",
          "name": "originAssetAddress",
          "type": "address"
        },
        {
          "internalType": "uint256",
          "name": "amount",
          "type": "uint256"
        }
      ],
      "name": "deposit",
      "outputs": [
        {
          "internalType": "bool",
          "name": "",
          "type": "bool"
        }
      ],
      "payable": false,
      "stateMutability": "nonpayable",
      "type": "function"
    },
    {
      "constant": false,
      "inputs": [
        {
          "internalType": "address",
          "name": "originAssetAddress",
          "type": "address"
        },
        {
          "internalType": "uint256",
          "name": "amount",
          "type": "uint256"
        },
        {
          "internalType": "address",
          "name": "toAddress",
          "type": "address"
        }
      ],
      "name": "deposit",
      "outputs": [
        {
          "internalType": "bool",
          "name": "",
          "type": "bool"
        }
      ],
      "payable": false,
      "stateMutability": "nonpayable",
      "type": "function"
    },
    {
      "constant": true,
      "inputs": [
        {
          "internalType": "address",
          "name": "fromAssetHash",
          "type": "address"
        }
      ],
      "name": "getBalanceFor",
      "outputs": [
        {
          "internalType": "uint256",
          "name": "",
          "type": "uint256"
        }
      ],
      "payable": false,
      "stateMutability": "view",
      "type": "function"
    },
    {
      "constant": true,
      "inputs": [],
      "name": "isOwner",
      "outputs": [
        {
          "internalType": "bool",
          "name": "",
          "type": "bool"
        }
      ],
      "payable": false,
      "stateMutability": "view",
      "type": "function"
    },
    {
      "constant": false,
      "inputs": [
        {
          "internalType": "address",
          "name": "fromAssetHash",
          "type": "address"
        },
        {
          "internalType": "uint64",
          "name": "toChainId",
          "type": "uint64"
        },
        {
          "internalType": "bytes",
          "name": "toAddress",
          "type": "bytes"
        },
        {
          "internalType": "uint256",
          "name": "amount",
          "type": "uint256"
        }
      ],
      "name": "lock",
      "outputs": [
        {
          "internalType": "bool",
          "name": "",
          "type": "bool"
        }
      ],
      "payable": true,
      "stateMutability": "payable",
      "type": "function"
    },
    {
      "constant": true,
      "inputs": [],
      "name": "managerProxyContract",
      "outputs": [
        {
          "internalType": "address",
          "name": "",
          "type": "address"
        }
      ],
      "payable": false,
      "stateMutability": "view",
      "type": "function"
    },
    {
      "constant": true,
      "inputs": [],
      "name": "owner",
      "outputs": [
        {
          "internalType": "address",
          "name": "",
          "type": "address"
        }
      ],
      "payable": false,
      "stateMutability": "view",
      "type": "function"
    },
    {
      "constant": true,
      "inputs": [
        {
          "internalType": "uint64",
          "name": "",
          "type": "uint64"
        }
      ],
      "name": "proxyHashMap",
      "outputs": [
        {
          "internalType": "bytes",
          "name": "",
          "type": "bytes"
        }
      ],
      "payable": false,
      "stateMutability": "view",
      "type": "function"
    },
    {
      "constant": false,
      "inputs": [],
      "name": "renounceOwnership",
      "outputs": [],
      "payable": false,
      "stateMutability": "nonpayable",
      "type": "function"
    },
    {
      "constant": false,
      "inputs": [
        {
          "internalType": "address",
          "name": "ethCCMProxyAddr",
          "type": "address"
        }
      ],
      "name": "setManagerProxy",
      "outputs": [],
      "payable": false,
      "stateMutability": "nonpayable",
      "type": "function"
    },
    {
      "constant": false,
      "inputs": [
        {
          "internalType": "address",
          "name": "newOwner",
          "type": "address"
        }
      ],
      "name": "transferOwnership",
      "outputs": [],
      "payable": false,
      "stateMutability": "nonpayable",
      "type": "function"
    },
    {
      "constant": false,
      "inputs": [
        {
          "internalType": "bytes",
          "name": "argsBs",
          "type": "bytes"
        },
        {
          "internalType": "bytes",
          "name": "fromContractAddr",
          "type": "bytes"
        },
        {
          "internalType": "uint64",
          "name": "fromChainId",
          "type": "uint64"
        }
      ],
      "name": "unlock",
      "outputs": [
        {
          "internalType": "bool",
          "name": "",
          "type": "bool"
        }
      ],
      "payable": false,
      "stateMutability": "nonpayable",
      "type": "function"
    },
    {
      "constant": false,
      "inputs": [
        {
          "internalType": "address",
          "name": "targetTokenAddress",
          "type": "address"
        },
        {
          "internalType": "uint256",
          "name": "amount",
          "type": "uint256"
        },
        {
          "internalType": "address",
          "name": "toAddress",
          "type": "address"
        }
      ],
      "name": "withdraw",
      "outputs": [
        {
          "internalType": "bool",
          "name": "",
          "type": "bool"
        }
      ],
      "payable": false,
      "stateMutability": "nonpayable",
      "type": "function"
    },
    {
      "constant": false,
      "inputs": [
        {
          "internalType": "address",
          "name": "targetTokenAddress",
          "type": "address"
        },
        {
          "internalType": "uint256",
          "name": "amount",
          "type": "uint256"
        }
      ],
      "name": "withdraw",
      "outputs": [
        {
          "internalType": "bool",
          "name": "",
          "type": "bool"
        }
      ],
      "payable": false,
      "stateMutability": "nonpayable",
      "type": "function"
    }
  ],
  "bytecode": "0x6080604052600062000016620000ba60201b60201c565b9050806000806101000a81548173ffffffffffffffffffffffffffffffffffffffff021916908373ffffffffffffffffffffffffffffffffffffffff1602179055508073ffffffffffffffffffffffffffffffffffffffff16600073ffffffffffffffffffffffffffffffffffffffff167f8be0079c531659141344cd1fd0a4f28419497f9722a3daafe3b4186f6b6457e060405160405180910390a350620000c2565b600033905090565b615fae80620000d26000396000f3fe60806040526004361061014b5760003560e01c80636bc9e760116100b65780639e5767aa1161006f5780639e5767aa14610543578063af9980f014610580578063d798f881146105a9578063f2fde38b146105d4578063f3fef3a3146105fd578063f45346dc1461063a5761014b565b80636bc9e7601461042c5780636f3326d514610469578063715018a6146104a657806384a6d055146104bd5780638da5cb5b146104ed5780638f32d59b146105185761014b565b806347e7ef241161010857806347e7ef24146102be5780634f7d9808146102fb57806353d1d2771461033857806359c589a11461037557806361c6617d146103b257806369328dec146103ef5761014b565b806306af4b9f146101505780630892cf481461018d57806325a9f900146101ca5780633348f63b146102075780633389279d14610244578063379b98f614610281575b600080fd5b34801561015c57600080fd5b50610177600480360361017291908101906144a4565b610677565b604051610184919061571a565b60405180910390f35b34801561019957600080fd5b506101b460048036036101af9190810190614289565b6109a8565b6040516101c1919061571a565b60405180910390f35b3480156101d657600080fd5b506101f160048036036101ec919081019061440f565b610e2c565b6040516101fe919061571a565b60405180910390f35b34801561021357600080fd5b5061022e6004803603610229919081019061413b565b610fa1565b60405161023b919061571a565b60405180910390f35b34801561025057600080fd5b5061026b60048036036102669190810190613f3f565b6110b3565b60405161027891906154e5565b60405180910390f35b34801561028d57600080fd5b506102a860048036036102a39190810190614575565b6110e6565b6040516102b5919061571a565b60405180910390f35b3480156102ca57600080fd5b506102e560048036036102e09190810190614074565b6111ae565b6040516102f2919061571a565b60405180910390f35b34801561030757600080fd5b50610322600480360361031d91908101906140ff565b611332565b60405161032f9190615735565b60405180910390f35b34801561034457600080fd5b5061035f600480360361035a9190810190613fcd565b6113ef565b60405161036c919061571a565b60405180910390f35b34801561038157600080fd5b5061039c60048036036103979190810190613f3f565b611678565b6040516103a99190615c17565b60405180910390f35b3480156103be57600080fd5b506103d960048036036103d4919081019061421d565b61176a565b6040516103e6919061571a565b60405180910390f35b3480156103fb57600080fd5b50610416600480360361041191908101906140b0565b611921565b604051610423919061571a565b60405180910390f35b34801561043857600080fd5b50610453600480360361044e9190810190613f91565b611aa6565b604051610460919061571a565b60405180910390f35b34801561047557600080fd5b50610490600480360361048b9190810190614378565b611bb0565b60405161049d919061571a565b60405180910390f35b3480156104b257600080fd5b506104bb611dec565b005b6104d760048036036104d291908101906141a2565b611ef2565b6040516104e4919061571a565b60405180910390f35b3480156104f957600080fd5b506105026123d8565b60405161050f91906154e5565b60405180910390f35b34801561052457600080fd5b5061052d612401565b60405161053a919061571a565b60405180910390f35b34801561054f57600080fd5b5061056a6004803603610565919081019061454c565b61245f565b6040516105779190615735565b60405180910390f35b34801561058c57600080fd5b506105a760048036036105a29190810190613f3f565b61250f565b005b3480156105b557600080fd5b506105be6125f3565b6040516105cb91906154e5565b60405180910390f35b3480156105e057600080fd5b506105fb60048036036105f69190810190613f3f565b612619565b005b34801561060957600080fd5b50610624600480360361061f9190810190614074565b61266c565b604051610631919061571a565b60405180910390f35b34801561064657600080fd5b50610661600480360361065c91908101906140b0565b6127f0565b60405161066e919061571a565b60405180910390f35b600080600160009054906101000a900473ffffffffffffffffffffffffffffffffffffffff1690508073ffffffffffffffffffffffffffffffffffffffff166387939a7f6040518163ffffffff1660e01b815260040160206040518083038186803b1580156106e557600080fd5b505afa1580156106f9573d6000803e3d6000fd5b505050506040513d601f19601f8201168201806040525061071d9190810190613f68565b73ffffffffffffffffffffffffffffffffffffffff1661073b612975565b73ffffffffffffffffffffffffffffffffffffffff1614610791576040517f08c379a0000000000000000000000000000000000000000000000000000000008152600401610788906158f7565b60405180910390fd5b610799613bd9565b6107a28661297d565b90506000855114156107e9576040517f08c379a00000000000000000000000000000000000000000000000000000000081526004016107e090615937565b60405180910390fd5b610819600260008667ffffffffffffffff1667ffffffffffffffff168152602001908152602001600020866129e5565b610858576040517f08c379a000000000000000000000000000000000000000000000000000000000815260040161084f90615b97565b60405180910390fd5b600081600001515114156108a1576040517f08c379a000000000000000000000000000000000000000000000000000000000815260040161089890615877565b60405180910390fd5b60006108b08260000151612a9d565b9050600082602001515114156108fb576040517f08c379a00000000000000000000000000000000000000000000000000000000081526004016108f290615a37565b60405180910390fd5b600061090a8360200151612a9d565b905061091b82828560400151612aef565b61095a576040517f08c379a000000000000000000000000000000000000000000000000000000000815260040161095190615897565b60405180910390fd5b7fd90288730b87c2b8e0c45bd82260fd22478aba30ae1c4d578b8daba9261604df8282856040015160405161099193929190615622565b60405180910390a160019450505050509392505050565b60006109b2612401565b6109f1576040517f08c379a00000000000000000000000000000000000000000000000000000000081526004016109e890615997565b60405180910390fd5b8451865114610a35576040517f08c379a0000000000000000000000000000000000000000000000000000000008152600401610a2c906158d7565b60405180910390fd5b8151835114610a79576040517f08c379a0000000000000000000000000000000000000000000000000000000008152600401610a70906158d7565b60405180910390fd5b60008090505b8551811015610e1e57838181518110610a9457fe5b602002602001015160036000898481518110610aac57fe5b602002602001015173ffffffffffffffffffffffffffffffffffffffff1673ffffffffffffffffffffffffffffffffffffffff1681526020019081526020016000206000878481518110610afc57fe5b602002602001015167ffffffffffffffff1667ffffffffffffffff1681526020019081526020016000209080519060200190610b39929190613bfa565b50828181518110610b4657fe5b602002602001015160036000888481518110610b5e57fe5b602002602001015173ffffffffffffffffffffffffffffffffffffffff1673ffffffffffffffffffffffffffffffffffffffff1681526020019081526020016000206000878481518110610bae57fe5b602002602001015167ffffffffffffffff1667ffffffffffffffff1681526020019081526020016000209080519060200190610beb929190613bfa565b50858181518110610bf857fe5b602002602001015160046000898481518110610c1057fe5b602002602001015173ffffffffffffffffffffffffffffffffffffffff1673ffffffffffffffffffffffffffffffffffffffff16815260200190815260200160002060006101000a81548173ffffffffffffffffffffffffffffffffffffffff021916908373ffffffffffffffffffffffffffffffffffffffff1602179055507f1628c8374c1bdfeb2275fd9f4c90562fd3fae974783dc522c8234e36abcfc58e878281518110610cbd57fe5b6020026020010151868381518110610cd157fe5b6020026020010151868481518110610ce557fe5b6020026020010151610d098b8681518110610cfc57fe5b6020026020010151611678565b604051610d1994939291906156ce565b60405180910390a17f1628c8374c1bdfeb2275fd9f4c90562fd3fae974783dc522c8234e36abcfc58e868281518110610d4e57fe5b6020026020010151868381518110610d6257fe5b6020026020010151858481518110610d7657fe5b6020026020010151610d9a8a8681518110610d8d57fe5b6020026020010151611678565b604051610daa94939291906156ce565b60405180910390a17f2319c5345cde8ceb76a957b55d75082616215452400c34305e4e6adaaf42f711878281518110610ddf57fe5b6020026020010151878381518110610df357fe5b6020026020010151604051610e09929190615545565b60405180910390a18080600101915050610a7f565b506001905095945050505050565b6000610e36612401565b610e75576040517f08c379a0000000000000000000000000000000000000000000000000000000008152600401610e6c90615997565b60405180910390fd5b8151835114610eb9576040517f08c379a0000000000000000000000000000000000000000000000000000000008152600401610eb090615977565b60405180910390fd5b60008090505b8351811015610f9657828181518110610ed457fe5b602002602001015160026000868481518110610eec57fe5b602002602001015167ffffffffffffffff1667ffffffffffffffff1681526020019081526020016000209080519060200190610f29929190613bfa565b507fdacd7d303272a3b58aec6620d6d1fb588f4996a5b46858ed437f1c34348f2d0f848281518110610f5757fe5b6020026020010151848381518110610f6b57fe5b6020026020010151604051610f81929190615c32565b60405180910390a18080600101915050610ebf565b506001905092915050565b6000610fab612401565b610fea576040517f08c379a0000000000000000000000000000000000000000000000000000000008152600401610fe190615997565b60405180910390fd5b81600360008673ffffffffffffffffffffffffffffffffffffffff1673ffffffffffffffffffffffffffffffffffffffff16815260200190815260200160002060008567ffffffffffffffff1667ffffffffffffffff1681526020019081526020016000209080519060200190611062929190613bfa565b507f1628c8374c1bdfeb2275fd9f4c90562fd3fae974783dc522c8234e36abcfc58e84848461109088611678565b6040516110a09493929190615682565b60405180910390a1600190509392505050565b60046020528060005260406000206000915054906101000a900473ffffffffffffffffffffffffffffffffffffffff1681565b60006110f0612401565b61112f576040517f08c379a000000000000000000000000000000000000000000000000000000000815260040161112690615997565b60405180910390fd5b81600260008567ffffffffffffffff1667ffffffffffffffff168152602001908152602001600020908051906020019061116a929190613bfa565b507fdacd7d303272a3b58aec6620d6d1fb588f4996a5b46858ed437f1c34348f2d0f838360405161119c929190615c62565b60405180910390a16001905092915050565b6000808214156111f3576040517f08c379a00000000000000000000000000000000000000000000000000000000081526004016111ea90615817565b60405180910390fd5b6111fd8383612bc7565b61123c576040517f08c379a000000000000000000000000000000000000000000000000000000000815260040161123390615857565b60405180910390fd5b6000600460008573ffffffffffffffffffffffffffffffffffffffff1673ffffffffffffffffffffffffffffffffffffffff16815260200190815260200160002060009054906101000a900473ffffffffffffffffffffffffffffffffffffffff1690506112ab813385612aef565b6112ea576040517f08c379a00000000000000000000000000000000000000000000000000000000081526004016112e190615a57565b60405180910390fd5b7f30b853cf217db6b44a3d46920798a5308afc086c638198e6c161bd7fa12a1d3a3385838660405161131f9493929190615500565b60405180910390a1600191505092915050565b6003602052816000526040600020602052806000526040600020600091509150508054600181600116156101000203166002900480601f0160208091040260200160405190810160405280929190818152602001828054600181600116156101000203166002900480156113e75780601f106113bc576101008083540402835291602001916113e7565b820191906000526020600020905b8154815290600101906020018083116113ca57829003601f168201915b505050505081565b60006113f9612401565b611438576040517f08c379a000000000000000000000000000000000000000000000000000000000815260040161142f90615997565b60405180910390fd5b82600360008873ffffffffffffffffffffffffffffffffffffffff1673ffffffffffffffffffffffffffffffffffffffff16815260200190815260200160002060008667ffffffffffffffff1667ffffffffffffffff16815260200190815260200160002090805190602001906114b0929190613bfa565b5081600360008773ffffffffffffffffffffffffffffffffffffffff1673ffffffffffffffffffffffffffffffffffffffff16815260200190815260200160002060008667ffffffffffffffff1667ffffffffffffffff1681526020019081526020016000209080519060200190611529929190613bfa565b5084600460008873ffffffffffffffffffffffffffffffffffffffff1673ffffffffffffffffffffffffffffffffffffffff16815260200190815260200160002060006101000a81548173ffffffffffffffffffffffffffffffffffffffff021916908373ffffffffffffffffffffffffffffffffffffffff1602179055507f1628c8374c1bdfeb2275fd9f4c90562fd3fae974783dc522c8234e36abcfc58e8685856115d58a611678565b6040516115e59493929190615682565b60405180910390a17f1628c8374c1bdfeb2275fd9f4c90562fd3fae974783dc522c8234e36abcfc58e85858461161a89611678565b60405161162a9493929190615682565b60405180910390a17f2319c5345cde8ceb76a957b55d75082616215452400c34305e4e6adaaf42f7118686604051611663929190615545565b60405180910390a16001905095945050505050565b60008073ffffffffffffffffffffffffffffffffffffffff168273ffffffffffffffffffffffffffffffffffffffff1614156116d35760003090508073ffffffffffffffffffffffffffffffffffffffff1631915050611765565b60008290508073ffffffffffffffffffffffffffffffffffffffff166370a08231306040518263ffffffff1660e01b815260040161171191906154e5565b60206040518083038186803b15801561172957600080fd5b505afa15801561173d573d6000803e3d6000fd5b505050506040513d601f19601f820116820180604052506117619190810190614523565b9150505b919050565b6000611774612401565b6117b3576040517f08c379a00000000000000000000000000000000000000000000000000000000081526004016117aa90615997565b60405180910390fd5b81518351146117f7576040517f08c379a00000000000000000000000000000000000000000000000000000000081526004016117ee90615bf7565b60405180910390fd5b60008090505b83518110156119165782818151811061181257fe5b60200260200101516004600086848151811061182a57fe5b602002602001015173ffffffffffffffffffffffffffffffffffffffff1673ffffffffffffffffffffffffffffffffffffffff16815260200190815260200160002060006101000a81548173ffffffffffffffffffffffffffffffffffffffff021916908373ffffffffffffffffffffffffffffffffffffffff1602179055507f2319c5345cde8ceb76a957b55d75082616215452400c34305e4e6adaaf42f7118482815181106118d757fe5b60200260200101518483815181106118eb57fe5b6020026020010151604051611901929190615545565b60405180910390a180806001019150506117fd565b506001905092915050565b600080831415611966576040517f08c379a000000000000000000000000000000000000000000000000000000000815260040161195d90615817565b60405180910390fd5b6000600460008673ffffffffffffffffffffffffffffffffffffffff1673ffffffffffffffffffffffffffffffffffffffff16815260200190815260200160002060009054906101000a900473ffffffffffffffffffffffffffffffffffffffff1690506119d48185612bc7565b611a13576040517f08c379a0000000000000000000000000000000000000000000000000000000008152600401611a0a90615a97565b60405180910390fd5b611a1e858486612aef565b611a5d576040517f08c379a0000000000000000000000000000000000000000000000000000000008152600401611a5490615757565b60405180910390fd5b7fcc7320d7ac24f61b5790719a3c0d7c3cdb569d0affd3996fd075136aa97fb51683868387604051611a9294939291906155dd565b60405180910390a160019150509392505050565b6000611ab0612401565b611aef576040517f08c379a0000000000000000000000000000000000000000000000000000000008152600401611ae690615997565b60405180910390fd5b81600460008573ffffffffffffffffffffffffffffffffffffffff1673ffffffffffffffffffffffffffffffffffffffff16815260200190815260200160002060006101000a81548173ffffffffffffffffffffffffffffffffffffffff021916908373ffffffffffffffffffffffffffffffffffffffff1602179055507f2319c5345cde8ceb76a957b55d75082616215452400c34305e4e6adaaf42f7118383604051611b9e929190615545565b60405180910390a16001905092915050565b6000611bba612401565b611bf9576040517f08c379a0000000000000000000000000000000000000000000000000000000008152600401611bf090615997565b60405180910390fd5b8351835114611c3d576040517f08c379a0000000000000000000000000000000000000000000000000000000008152600401611c3490615ab7565b60405180910390fd5b8151835114611c81576040517f08c379a0000000000000000000000000000000000000000000000000000000008152600401611c7890615ab7565b60405180910390fd5b60008090505b8351811015611de057828181518110611c9c57fe5b602002602001015160036000878481518110611cb457fe5b602002602001015173ffffffffffffffffffffffffffffffffffffffff1673ffffffffffffffffffffffffffffffffffffffff1681526020019081526020016000206000868481518110611d0457fe5b602002602001015167ffffffffffffffff1667ffffffffffffffff1681526020019081526020016000209080519060200190611d41929190613bfa565b507f1628c8374c1bdfeb2275fd9f4c90562fd3fae974783dc522c8234e36abcfc58e858281518110611d6f57fe5b6020026020010151858381518110611d8357fe5b6020026020010151858481518110611d9757fe5b6020026020010151611dbb898681518110611dae57fe5b6020026020010151611678565b604051611dcb94939291906156ce565b60405180910390a18080600101915050611c87565b50600190509392505050565b611df4612401565b611e33576040517f08c379a0000000000000000000000000000000000000000000000000000000008152600401611e2a90615997565b60405180910390fd5b600073ffffffffffffffffffffffffffffffffffffffff166000809054906101000a900473ffffffffffffffffffffffffffffffffffffffff1673ffffffffffffffffffffffffffffffffffffffff167f8be0079c531659141344cd1fd0a4f28419497f9722a3daafe3b4186f6b6457e060405160405180910390a360008060006101000a81548173ffffffffffffffffffffffffffffffffffffffff021916908373ffffffffffffffffffffffffffffffffffffffff160217905550565b600080821415611f37576040517f08c379a0000000000000000000000000000000000000000000000000000000008152600401611f2e90615817565b60405180910390fd5b611f418583612bc7565b611f80576040517f08c379a0000000000000000000000000000000000000000000000000000000008152600401611f7790615857565b60405180910390fd5b6060600360008773ffffffffffffffffffffffffffffffffffffffff1673ffffffffffffffffffffffffffffffffffffffff16815260200190815260200160002060008667ffffffffffffffff1667ffffffffffffffff1681526020019081526020016000208054600181600116156101000203166002900480601f01602080910402602001604051908101604052809291908181526020018280546001816001161561010002031660029004801561207a5780601f1061204f5761010080835404028352916020019161207a565b820191906000526020600020905b81548152906001019060200180831161205d57829003601f168201915b505050505090506000815114156120c6576040517f08c379a00000000000000000000000000000000000000000000000000000000081526004016120bd90615a17565b60405180910390fd5b6120ce613bd9565b604051806060016040528083815260200186815260200185815250905060606120f682612d28565b90506000600160009054906101000a900473ffffffffffffffffffffffffffffffffffffffff16905060008173ffffffffffffffffffffffffffffffffffffffff166387939a7f6040518163ffffffff1660e01b815260040160206040518083038186803b15801561216757600080fd5b505afa15801561217b573d6000803e3d6000fd5b505050506040513d601f19601f8201168201806040525061219f9190810190613f68565b905060008190506060600260008c67ffffffffffffffff1667ffffffffffffffff1681526020019081526020016000208054600181600116156101000203166002900480601f0160208091040260200160405190810160405280929190818152602001828054600181600116156101000203166002900480156122635780601f1061223857610100808354040283529160200191612263565b820191906000526020600020905b81548152906001019060200180831161224657829003601f168201915b505050505090506000815114156122af576040517f08c379a00000000000000000000000000000000000000000000000000000000081526004016122a6906158b7565b60405180910390fd5b8173ffffffffffffffffffffffffffffffffffffffff1663bd5cf6258c83886040518463ffffffff1660e01b81526004016122ec93929190615c92565b602060405180830381600087803b15801561230657600080fd5b505af115801561231a573d6000803e3d6000fd5b505050506040513d601f19601f8201168201806040525061233e919081019061447b565b61237d576040517f08c379a0000000000000000000000000000000000000000000000000000000008152600401612374906159b7565b60405180910390fd5b7f8636abd6d0e464fe725a13346c7ac779b73561c705506044a2e6b2cdb1295ea58c6123a7612975565b8d8a8e8e6040516123bd9695949392919061556e565b60405180910390a16001975050505050505050949350505050565b60008060009054906101000a900473ffffffffffffffffffffffffffffffffffffffff16905090565b60008060009054906101000a900473ffffffffffffffffffffffffffffffffffffffff1673ffffffffffffffffffffffffffffffffffffffff16612443612975565b73ffffffffffffffffffffffffffffffffffffffff1614905090565b60026020528060005260406000206000915090508054600181600116156101000203166002900480601f0160208091040260200160405190810160405280929190818152602001828054600181600116156101000203166002900480156125075780601f106124dc57610100808354040283529160200191612507565b820191906000526020600020905b8154815290600101906020018083116124ea57829003601f168201915b505050505081565b612517612401565b612556576040517f08c379a000000000000000000000000000000000000000000000000000000000815260040161254d90615997565b60405180910390fd5b80600160006101000a81548173ffffffffffffffffffffffffffffffffffffffff021916908373ffffffffffffffffffffffffffffffffffffffff1602179055507f43b1a8ec337adb61e8311ed025d99c80db65c02fe5c5027c1b6a93b40970cec4600160009054906101000a900473ffffffffffffffffffffffffffffffffffffffff166040516125e891906154e5565b60405180910390a150565b600160009054906101000a900473ffffffffffffffffffffffffffffffffffffffff1681565b612621612401565b612660576040517f08c379a000000000000000000000000000000000000000000000000000000000815260040161265790615997565b60405180910390fd5b61266981612d7e565b50565b6000808214156126b1576040517f08c379a00000000000000000000000000000000000000000000000000000000081526004016126a890615817565b60405180910390fd5b6000600460008573ffffffffffffffffffffffffffffffffffffffff1673ffffffffffffffffffffffffffffffffffffffff16815260200190815260200160002060009054906101000a900473ffffffffffffffffffffffffffffffffffffffff16905061271f8184612bc7565b61275e576040517f08c379a000000000000000000000000000000000000000000000000000000000815260040161275590615a97565b60405180910390fd5b612769843385612aef565b6127a8576040517f08c379a000000000000000000000000000000000000000000000000000000000815260040161279f90615757565b60405180910390fd5b7fcc7320d7ac24f61b5790719a3c0d7c3cdb569d0affd3996fd075136aa97fb516338583866040516127dd9493929190615500565b60405180910390a1600191505092915050565b600080831415612835576040517f08c379a000000000000000000000000000000000000000000000000000000000815260040161282c90615817565b60405180910390fd5b61283f8484612bc7565b61287e576040517f08c379a000000000000000000000000000000000000000000000000000000000815260040161287590615857565b60405180910390fd5b6000600460008673ffffffffffffffffffffffffffffffffffffffff1673ffffffffffffffffffffffffffffffffffffffff16815260200190815260200160002060009054906101000a900473ffffffffffffffffffffffffffffffffffffffff1690506128ed818486612aef565b61292c576040517f08c379a000000000000000000000000000000000000000000000000000000000815260040161292390615a57565b60405180910390fd5b7f30b853cf217db6b44a3d46920798a5308afc086c638198e6c161bd7fa12a1d3a8386838760405161296194939291906155dd565b60405180910390a160019150509392505050565b600033905090565b612985613bd9565b61298d613bd9565b600080905061299c8482612eac565b8191508360000181935082905250506129b58482612eac565b8191508360200181935082905250506129ce8482612f96565b836040018193508281525050508192505050919050565b60008060019050835460026001808316156101000203821604845180821460018114612a145760009450612a8f565b8215612a8e576020831060018114612a7257600189600052602060002060208a018581015b600284828410011415612a69578151835414612a585760009950600093505b600183019250602082019150612a39565b50505050612a8c565b61010080860402945060208801518514612a8b57600095505b5b505b5b505050508091505092915050565b60006014825114612ae3576040517f08c379a0000000000000000000000000000000000000000000000000000000008152600401612ada906157b7565b60405180910390fd5b60148201519050919050565b60008073ffffffffffffffffffffffffffffffffffffffff168473ffffffffffffffffffffffffffffffffffffffff161415612b71578273ffffffffffffffffffffffffffffffffffffffff166108fc839081150290604051600060405180830381858888f19350505050158015612b6b573d6000803e3d6000fd5b50612bbc565b612b7c8484846130a6565b612bbb576040517f08c379a0000000000000000000000000000000000000000000000000000000008152600401612bb2906157d7565b60405180910390fd5b5b600190509392505050565b60008073ffffffffffffffffffffffffffffffffffffffff168373ffffffffffffffffffffffffffffffffffffffff161415612c88576000341415612c41576040517f08c379a0000000000000000000000000000000000000000000000000000000008152600401612c3890615bd7565b60405180910390fd5b813414612c83576040517f08c379a0000000000000000000000000000000000000000000000000000000008152600401612c7a90615ad7565b60405180910390fd5b612d1e565b60003414612ccb576040517f08c379a0000000000000000000000000000000000000000000000000000000008152600401612cc290615957565b60405180910390fd5b612cde83612cd7612975565b30856130e3565b612d1d576040517f08c379a0000000000000000000000000000000000000000000000000000000008152600401612d14906157d7565b60405180910390fd5b5b6001905092915050565b606080612d388360000151613123565b612d458460200151613123565b612d52856040015161315d565b604051602001612d64939291906154b4565b604051602081830303815290604052905080915050919050565b600073ffffffffffffffffffffffffffffffffffffffff168173ffffffffffffffffffffffffffffffffffffffff161415612dee576040517f08c379a0000000000000000000000000000000000000000000000000000000008152600401612de5906157f7565b60405180910390fd5b8073ffffffffffffffffffffffffffffffffffffffff166000809054906101000a900473ffffffffffffffffffffffffffffffffffffffff1673ffffffffffffffffffffffffffffffffffffffff167f8be0079c531659141344cd1fd0a4f28419497f9722a3daafe3b4186f6b6457e060405160405180910390a3806000806101000a81548173ffffffffffffffffffffffffffffffffffffffff021916908373ffffffffffffffffffffffffffffffffffffffff16021790555050565b6060600080612ebb8585613209565b8095508192505050845181850111158015612ed7575080840184105b612f16576040517f08c379a0000000000000000000000000000000000000000000000000000000008152600401612f0d90615b77565b60405180910390fd5b6060811560008114612f3357604051915060208201604052612f84565b6040519150601f8316801560200281840101848101888315602002848c0101015b81831015612f715780518352602083019250602081019050612f54565b50858552601f19601f8301166040525050505b50808286019350935050509250929050565b60008083516020840111158015612faf57506020830183105b612fee576040517f08c379a0000000000000000000000000000000000000000000000000000000008152600401612fe590615777565b60405180910390fd5b600060405160206000600182038760208a0101515b838310156130235780821a83860153600183019250600182039150613003565b5050508082016040528151925050507f7fffffffffffffffffffffffffffffffffffffffffffffffffffffffffffffff811115613095576040517f08c379a000000000000000000000000000000000000000000000000000000000815260040161308c90615917565b60405180910390fd5b806020850192509250509250929050565b6000808490506130d784848373ffffffffffffffffffffffffffffffffffffffff1661346e9092919063ffffffff16565b60019150509392505050565b6000808590506131168585858473ffffffffffffffffffffffffffffffffffffffff1661350d909392919063ffffffff16565b6001915050949350505050565b6060600082519050613134816135af565b83604051602001613146929190615490565b604051602081830303815290604052915050919050565b60607f7fffffffffffffffffffffffffffffffffffffffffffffffffffffffffffffff8211156131c2576040517f08c379a00000000000000000000000000000000000000000000000000000000081526004016131b9906159f7565b60405180910390fd5b6060604051905060208082526000601f5b828210156131f65785811a826020860101536001820191506001810390506131d3565b5050604082016040525080915050919050565b600080600061321885856136b4565b8095508192505050600060fd60f81b827effffffffffffffffffffffffffffffffffffffffffffffffffffffffffffff191614156132c85761325a8686613728565b8161ffff169150809650819250505060fd811015801561327c575061ffff8111155b6132bb576040517f08c379a00000000000000000000000000000000000000000000000000000000081526004016132b290615797565b60405180910390fd5b8085935093505050613467565b60fe60f81b827effffffffffffffffffffffffffffffffffffffffffffffffffffffffffffff191614156133725761330086866137bc565b8163ffffffff169150809650819250505061ffff81118015613326575063ffffffff8111155b613365576040517f08c379a000000000000000000000000000000000000000000000000000000000815260040161335c90615a77565b60405180910390fd5b8085935093505050613467565b60ff60f81b827effffffffffffffffffffffffffffffffffffffffffffffffffffffffffffff19161415613412576133aa868661386e565b8167ffffffffffffffff169150809650819250505063ffffffff8111613405576040517f08c379a00000000000000000000000000000000000000000000000000000000081526004016133fc90615a77565b60405180910390fd5b8085935093505050613467565b8160f81c60ff16905060fd811061345e576040517f08c379a000000000000000000000000000000000000000000000000000000000815260040161345590615a77565b60405180910390fd5b80859350935050505b9250929050565b613508838473ffffffffffffffffffffffffffffffffffffffff1663a9059cbb905060e01b84846040516024016134a6929190615659565b604051602081830303815290604052907bffffffffffffffffffffffffffffffffffffffffffffffffffffffff19166020820180517bffffffffffffffffffffffffffffffffffffffffffffffffffffffff8381831617835250505050613920565b505050565b6135a9848573ffffffffffffffffffffffffffffffffffffffff166323b872dd905060e01b85858560405160240161354793929190615622565b604051602081830303815290604052907bffffffffffffffffffffffffffffffffffffffffffffffffffffffff19166020820180517bffffffffffffffffffffffffffffffffffffffffffffffffffffffff8381831617835250505050613920565b50505050565b606060fd8267ffffffffffffffff1610156135d4576135cd82613a7c565b90506136af565b61ffff8267ffffffffffffffff1611613624576135f460fd60f81b613aa1565b6135fd83613ab6565b60405160200161360e929190615490565b60405160208183030381529060405290506136af565b63ffffffff8267ffffffffffffffff16116136765761364660fe60f81b613aa1565b61364f83613afe565b604051602001613660929190615490565b60405160208183030381529060405290506136af565b61368360ff60f81b613aa1565b61368c83613b46565b60405160200161369d929190615490565b60405160208183030381529060405290505b919050565b600080835160018401111580156136cd57506001830183105b61370c576040517f08c379a0000000000000000000000000000000000000000000000000000000008152600401613703906159d7565b60405180910390fd5b6000836020860101519050806001850192509250509250929050565b6000808351600284011115801561374157506002830183105b613780576040517f08c379a000000000000000000000000000000000000000000000000000000000815260040161377790615af7565b60405180910390fd5b6000604051846020870101518060011a82538060001a600183015360028201604052601e82035192505050806002850192509250509250929050565b600080835160048401111580156137d557506004830183105b613814576040517f08c379a000000000000000000000000000000000000000000000000000000000815260040161380b90615b57565b60405180910390fd5b600060405160046000600182038760208a0101515b838310156138495780821a83860153600183019250600182039150613829565b5050508082016040528060200382035192505050806004850192509250509250929050565b6000808351600884011115801561388757506008830183105b6138c6576040517f08c379a00000000000000000000000000000000000000000000000000000000081526004016138bd90615b37565b60405180910390fd5b600060405160086000600182038760208a0101515b838310156138fb5780821a838601536001830192506001820391506138db565b5050508082016040528060200382035192505050806008850192509250509250929050565b61392982613b8e565b613968576040517f08c379a000000000000000000000000000000000000000000000000000000000815260040161395f90615bb7565b60405180910390fd5b600060608373ffffffffffffffffffffffffffffffffffffffff16836040516139919190615479565b6000604051808303816000865af19150503d80600081146139ce576040519150601f19603f3d011682016040523d82523d6000602084013e6139d3565b606091505b509150915081613a18576040517f08c379a0000000000000000000000000000000000000000000000000000000008152600401613a0f90615837565b60405180910390fd5b600081511115613a765780806020019051613a36919081019061447b565b613a75576040517f08c379a0000000000000000000000000000000000000000000000000000000008152600401613a6c90615b17565b60405180910390fd5b5b50505050565b6060806040519050600181528260f81b60208201526021810160405280915050919050565b6060613aaf8260f81c613a7c565b9050919050565b606080604051905060028082526000601f5b82821015613aeb5785811a82602086010153600182019150600181039050613ac8565b5050602282016040525080915050919050565b606080604051905060048082526000601f5b82821015613b335785811a82602086010153600182019150600181039050613b10565b5050602482016040525080915050919050565b606080604051905060088082526000601f5b82821015613b7b5785811a82602086010153600182019150600181039050613b58565b5050602882016040525080915050919050565b60008060007fc5d2460186f7233c927e7db2dcc703c0e500b653ca82273b7bfad8045d85a47060001b9050833f91506000801b8214158015613bd05750808214155b92505050919050565b60405180606001604052806060815260200160608152602001600081525090565b828054600181600116156101000203166002900490600052602060002090601f016020900481019282601f10613c3b57805160ff1916838001178555613c69565b82800160010185558215613c69579182015b82811115613c68578251825591602001919060010190613c4d565b5b509050613c769190613c7a565b5090565b613c9c91905b80821115613c98576000816000905550600101613c80565b5090565b90565b600081359050613cae81615f0f565b92915050565b600081519050613cc381615f0f565b92915050565b600082601f830112613cda57600080fd5b8135613ced613ce882615d17565b615cea565b91508181835260208401935060208101905083856020840282011115613d1257600080fd5b60005b83811015613d425781613d288882613c9f565b845260208401935060208301925050600181019050613d15565b5050505092915050565b600082601f830112613d5d57600080fd5b8135613d70613d6b82615d3f565b615cea565b9150818183526020840193506020810190508360005b83811015613db65781358601613d9c8882613e58565b845260208401935060208301925050600181019050613d86565b5050505092915050565b600082601f830112613dd157600080fd5b8135613de4613ddf82615d67565b615cea565b91508181835260208401935060208101905083856020840282011115613e0957600080fd5b60005b83811015613e395781613e1f8882613f2a565b845260208401935060208301925050600181019050613e0c565b5050505092915050565b600081519050613e5281615f26565b92915050565b600082601f830112613e6957600080fd5b8135613e7c613e7782615d8f565b615cea565b91508082526020830160208301858383011115613e9857600080fd5b613ea3838284615ebc565b50505092915050565b600082601f830112613ebd57600080fd5b8135613ed0613ecb82615dbb565b615cea565b91508082526020830160208301858383011115613eec57600080fd5b613ef7838284615ebc565b50505092915050565b600081359050613f0f81615f3d565b92915050565b600081519050613f2481615f3d565b92915050565b600081359050613f3981615f54565b92915050565b600060208284031215613f5157600080fd5b6000613f5f84828501613c9f565b91505092915050565b600060208284031215613f7a57600080fd5b6000613f8884828501613cb4565b91505092915050565b60008060408385031215613fa457600080fd5b6000613fb285828601613c9f565b9250506020613fc385828601613c9f565b9150509250929050565b600080600080600060a08688031215613fe557600080fd5b6000613ff388828901613c9f565b955050602061400488828901613c9f565b945050604061401588828901613f2a565b935050606086013567ffffffffffffffff81111561403257600080fd5b61403e88828901613eac565b925050608086013567ffffffffffffffff81111561405b57600080fd5b61406788828901613eac565b9150509295509295909350565b6000806040838503121561408757600080fd5b600061409585828601613c9f565b92505060206140a685828601613f00565b9150509250929050565b6000806000606084860312156140c557600080fd5b60006140d386828701613c9f565b93505060206140e486828701613f00565b92505060406140f586828701613c9f565b9150509250925092565b6000806040838503121561411257600080fd5b600061412085828601613c9f565b925050602061413185828601613f2a565b9150509250929050565b60008060006060848603121561415057600080fd5b600061415e86828701613c9f565b935050602061416f86828701613f2a565b925050604084013567ffffffffffffffff81111561418c57600080fd5b61419886828701613eac565b9150509250925092565b600080600080608085870312156141b857600080fd5b60006141c687828801613c9f565b94505060206141d787828801613f2a565b935050604085013567ffffffffffffffff8111156141f457600080fd5b61420087828801613eac565b925050606061421187828801613f00565b91505092959194509250565b6000806040838503121561423057600080fd5b600083013567ffffffffffffffff81111561424a57600080fd5b61425685828601613cc9565b925050602083013567ffffffffffffffff81111561427357600080fd5b61427f85828601613cc9565b9150509250929050565b600080600080600060a086880312156142a157600080fd5b600086013567ffffffffffffffff8111156142bb57600080fd5b6142c788828901613cc9565b955050602086013567ffffffffffffffff8111156142e457600080fd5b6142f088828901613cc9565b945050604086013567ffffffffffffffff81111561430d57600080fd5b61431988828901613dc0565b935050606086013567ffffffffffffffff81111561433657600080fd5b61434288828901613d4c565b925050608086013567ffffffffffffffff81111561435f57600080fd5b61436b88828901613d4c565b9150509295509295909350565b60008060006060848603121561438d57600080fd5b600084013567ffffffffffffffff8111156143a757600080fd5b6143b386828701613cc9565b935050602084013567ffffffffffffffff8111156143d057600080fd5b6143dc86828701613dc0565b925050604084013567ffffffffffffffff8111156143f957600080fd5b61440586828701613d4c565b9150509250925092565b6000806040838503121561442257600080fd5b600083013567ffffffffffffffff81111561443c57600080fd5b61444885828601613dc0565b925050602083013567ffffffffffffffff81111561446557600080fd5b61447185828601613d4c565b9150509250929050565b60006020828403121561448d57600080fd5b600061449b84828501613e43565b91505092915050565b6000806000606084860312156144b957600080fd5b600084013567ffffffffffffffff8111156144d357600080fd5b6144df86828701613eac565b935050602084013567ffffffffffffffff8111156144fc57600080fd5b61450886828701613eac565b925050604061451986828701613f2a565b9150509250925092565b60006020828403121561453557600080fd5b600061454384828501613f15565b91505092915050565b60006020828403121561455e57600080fd5b600061456c84828501613f2a565b91505092915050565b6000806040838503121561458857600080fd5b600061459685828601613f2a565b925050602083013567ffffffffffffffff8111156145b357600080fd5b6145bf85828601613eac565b9150509250929050565b6145d281615e86565b82525050565b6145e181615e2a565b82525050565b6145f081615e3c565b82525050565b600061460182615df2565b61460b8185615dfd565b935061461b818560208601615ecb565b61462481615efe565b840191505092915050565b600061463a82615df2565b6146448185615e0e565b9350614654818560208601615ecb565b80840191505092915050565b600061466b82615de7565b6146758185615dfd565b9350614685818560208601615ecb565b61468e81615efe565b840191505092915050565b60006146a6603e83615e19565b91507f7472616e736665722061737365742066726f6d206c6f636b5f70726f7879206360008301527f6f6e747261637420746f2066726f6d41646472657373206661696c65642100006020830152604082019050919050565b600061470c602383615e19565b91507f4e65787455696e743235352c206f66667365742065786365656473206d61786960008301527f6d756d00000000000000000000000000000000000000000000000000000000006020830152604082019050919050565b6000614772601f83615e19565b91507f4e65787455696e7431362c2076616c7565206f7574736964652072616e6765006000830152602082019050919050565b60006147b2602383615e19565b91507f6279746573206c656e67746820646f6573206e6f74206d61746368206164647260008301527f65737300000000000000000000000000000000000000000000000000000000006020830152604082019050919050565b6000614818603383615e19565b91507f7472616e7366657220657263323020617373657420746f206c6f636b5f70726f60008301527f787920636f6e7472616374206661696c656421000000000000000000000000006020830152604082019050919050565b600061487e602683615e19565b91507f4f776e61626c653a206e6577206f776e657220697320746865207a65726f206160008301527f64647265737300000000000000000000000000000000000000000000000000006020830152604082019050919050565b60006148e4601683615e19565b91507f616d6f756e742063616e6e6f74206265207a65726f21000000000000000000006000830152602082019050919050565b6000614924602083615e19565b91507f5361666545524332303a206c6f772d6c6576656c2063616c6c206661696c65646000830152602082019050919050565b6000614964603e83615e19565b91507f7472616e736665722061737365742066726f6d2066726f6d416464726573732060008301527f746f206c6f636b5f70726f787920636f6e7472616374206661696c65642100006020830152604082019050919050565b60006149ca601b83615e19565b91507f746f4173736574486173682063616e6e6f7420626520656d70747900000000006000830152602082019050919050565b6000614a0a603c83615e19565b91507f7472616e736665722061737365742066726f6d206c6f636b5f70726f7879206360008301527f6f6e747261637420746f20746f41646472657373206661696c656421000000006020830152604082019050919050565b6000614a70601983615e19565b91507f656d70747920696c6c6567616c20746f50726f787948617368000000000000006000830152602082019050919050565b6000614ab0602583615e19565b91507f62696e644c50416e64417373657442617463683a2061726773206c656e67746860008301527f20646966660000000000000000000000000000000000000000000000000000006020830152604082019050919050565b6000614b16602d83615e19565b91507f6d736753656e646572206973206e6f742045746843726f7373436861696e4d6160008301527f6e61676572436f6e7472616374000000000000000000000000000000000000006020830152604082019050919050565b6000614b7c601783615e19565b91507f56616c75652065786365656473207468652072616e67650000000000000000006000830152602082019050919050565b6000614bbc602b83615e19565b91507f66726f6d2070726f787920636f6e747261637420616464726573732063616e6e60008301527f6f7420626520656d7074790000000000000000000000000000000000000000006020830152604082019050919050565b6000614c22602283615e19565b91507f74686572652073686f756c64206265206e6f206574686572207472616e73666560008301527f72210000000000000000000000000000000000000000000000000000000000006020830152604082019050919050565b6000614c88602483615e19565b91507f62696e6450726f78794861736842617463683a2061726773206c656e6774682060008301527f64696666000000000000000000000000000000000000000000000000000000006020830152604082019050919050565b6000614cee602083615e19565b91507f4f776e61626c653a2063616c6c6572206973206e6f7420746865206f776e65726000830152602082019050919050565b6000614d2e602f83615e19565b91507f45746843726f7373436861696e4d616e616765722063726f7373436861696e2060008301527f6578656375746564206572726f722100000000000000000000000000000000006020830152604082019050919050565b6000614d94602083615e19565b91507f4e657874427974652c204f66667365742065786365656473206d6178696d756d6000830152602082019050919050565b6000614dd4600683615dfd565b91507f756e6c6f636b00000000000000000000000000000000000000000000000000006000830152602082019050919050565b6000614e14601b83615e19565b91507f56616c756520657863656564732075696e743235352072616e676500000000006000830152602082019050919050565b6000614e54601983615e19565b91507f656d70747920696c6c6567616c20746f417373657448617368000000000000006000830152602082019050919050565b6000614e94601983615e19565b91507f746f416464726573732063616e6e6f7420626520656d707479000000000000006000830152602082019050919050565b6000614ed4604b83615e19565b91507f7472616e736665722070726f6f66206f66206c69717569646974792066726f6d60008301527f206c6f636b5f70726f787920636f6e747261637420746f2066726f6d4164647260208301527f657373206661696c6564210000000000000000000000000000000000000000006040830152606082019050919050565b6000614f60602083615e19565b91507f4e65787456617255696e742c2076616c7565206f7574736964652072616e67656000830152602082019050919050565b6000614fa0604b83615e19565b91507f7472616e736665722070726f6f66206f66206c69717569646974792066726f6d60008301527f2066726f6d4164647265737320746f206c6f636b5f70726f787920636f6e747260208301527f616374206661696c6564210000000000000000000000000000000000000000006040830152606082019050919050565b600061502c602483615e19565b91507f62696e6441737365744861736842617463683a2061726773206c656e6774682060008301527f64696666000000000000000000000000000000000000000000000000000000006020830152604082019050919050565b6000615092602983615e19565b91507f7472616e73666572726564206574686572206973206e6f7420657175616c207460008301527f6f20616d6f756e742100000000000000000000000000000000000000000000006020830152604082019050919050565b60006150f8602283615e19565b91507f4e65787455696e7431362c206f66667365742065786365656473206d6178696d60008301527f756d0000000000000000000000000000000000000000000000000000000000006020830152604082019050919050565b600061515e602a83615e19565b91507f5361666545524332303a204552433230206f7065726174696f6e20646964206e60008301527f6f742073756363656564000000000000000000000000000000000000000000006020830152604082019050919050565b60006151c4602283615e19565b91507f4e65787455696e7436342c206f66667365742065786365656473206d6178696d60008301527f756d0000000000000000000000000000000000000000000000000000000000006020830152604082019050919050565b600061522a602283615e19565b91507f4e65787455696e7433322c206f66667365742065786365656473206d6178696d60008301527f756d0000000000000000000000000000000000000000000000000000000000006020830152604082019050919050565b6000615290602483615e19565b91507f4e65787456617242797465732c206f66667365742065786365656473206d617860008301527f696d756d000000000000000000000000000000000000000000000000000000006020830152604082019050919050565b60006152f6602283615e19565b91507f46726f6d2050726f787920636f6e74726163742061646472657373206572726f60008301527f72210000000000000000000000000000000000000000000000000000000000006020830152604082019050919050565b600061535c601f83615e19565b91507f5361666545524332303a2063616c6c20746f206e6f6e2d636f6e7472616374006000830152602082019050919050565b600061539c602183615e19565b91507f7472616e736665727265642065746865722063616e6e6f74206265207a65726f60008301527f21000000000000000000000000000000000000000000000000000000000000006020830152604082019050919050565b6000615402602483615e19565b91507f62696e644c50546f417373657442617463683a2061726773206c656e6774682060008301527f64696666000000000000000000000000000000000000000000000000000000006020830152604082019050919050565b61546481615e68565b82525050565b61547381615e72565b82525050565b6000615485828461462f565b915081905092915050565b600061549c828561462f565b91506154a8828461462f565b91508190509392505050565b60006154c0828661462f565b91506154cc828561462f565b91506154d8828461462f565b9150819050949350505050565b60006020820190506154fa60008301846145d8565b92915050565b600060808201905061551560008301876145c9565b61552260208301866145d8565b61552f60408301856145d8565b61553c606083018461545b565b95945050505050565b600060408201905061555a60008301856145d8565b61556760208301846145d8565b9392505050565b600060c08201905061558360008301896145d8565b61559060208301886145c9565b61559d604083018761546a565b81810360608301526155af81866145f6565b905081810360808301526155c381856145f6565b90506155d260a083018461545b565b979650505050505050565b60006080820190506155f260008301876145d8565b6155ff60208301866145d8565b61560c60408301856145d8565b615619606083018461545b565b95945050505050565b600060608201905061563760008301866145d8565b61564460208301856145d8565b615651604083018461545b565b949350505050565b600060408201905061566e60008301856145d8565b61567b602083018461545b565b9392505050565b600060808201905061569760008301876145d8565b6156a4602083018661546a565b81810360408301526156b681856145f6565b90506156c5606083018461545b565b95945050505050565b60006080820190506156e360008301876145d8565b6156f0602083018661546a565b81810360408301526157028185614660565b9050615711606083018461545b565b95945050505050565b600060208201905061572f60008301846145e7565b92915050565b6000602082019050818103600083015261574f8184614660565b905092915050565b6000602082019050818103600083015261577081614699565b9050919050565b60006020820190508181036000830152615790816146ff565b9050919050565b600060208201905081810360008301526157b081614765565b9050919050565b600060208201905081810360008301526157d0816147a5565b9050919050565b600060208201905081810360008301526157f08161480b565b9050919050565b6000602082019050818103600083015261581081614871565b9050919050565b60006020820190508181036000830152615830816148d7565b9050919050565b6000602082019050818103600083015261585081614917565b9050919050565b6000602082019050818103600083015261587081614957565b9050919050565b60006020820190508181036000830152615890816149bd565b9050919050565b600060208201905081810360008301526158b0816149fd565b9050919050565b600060208201905081810360008301526158d081614a63565b9050919050565b600060208201905081810360008301526158f081614aa3565b9050919050565b6000602082019050818103600083015261591081614b09565b9050919050565b6000602082019050818103600083015261593081614b6f565b9050919050565b6000602082019050818103600083015261595081614baf565b9050919050565b6000602082019050818103600083015261597081614c15565b9050919050565b6000602082019050818103600083015261599081614c7b565b9050919050565b600060208201905081810360008301526159b081614ce1565b9050919050565b600060208201905081810360008301526159d081614d21565b9050919050565b600060208201905081810360008301526159f081614d87565b9050919050565b60006020820190508181036000830152615a1081614e07565b9050919050565b60006020820190508181036000830152615a3081614e47565b9050919050565b60006020820190508181036000830152615a5081614e87565b9050919050565b60006020820190508181036000830152615a7081614ec7565b9050919050565b60006020820190508181036000830152615a9081614f53565b9050919050565b60006020820190508181036000830152615ab081614f93565b9050919050565b60006020820190508181036000830152615ad08161501f565b9050919050565b60006020820190508181036000830152615af081615085565b9050919050565b60006020820190508181036000830152615b10816150eb565b9050919050565b60006020820190508181036000830152615b3081615151565b9050919050565b60006020820190508181036000830152615b50816151b7565b9050919050565b60006020820190508181036000830152615b708161521d565b9050919050565b60006020820190508181036000830152615b9081615283565b9050919050565b60006020820190508181036000830152615bb0816152e9565b9050919050565b60006020820190508181036000830152615bd08161534f565b9050919050565b60006020820190508181036000830152615bf08161538f565b9050919050565b60006020820190508181036000830152615c10816153f5565b9050919050565b6000602082019050615c2c600083018461545b565b92915050565b6000604082019050615c47600083018561546a565b8181036020830152615c598184614660565b90509392505050565b6000604082019050615c77600083018561546a565b8181036020830152615c8981846145f6565b90509392505050565b6000608082019050615ca7600083018661546a565b8181036020830152615cb981856145f6565b90508181036040830152615ccc81614dc7565b90508181036060830152615ce081846145f6565b9050949350505050565b6000604051905081810181811067ffffffffffffffff82111715615d0d57600080fd5b8060405250919050565b600067ffffffffffffffff821115615d2e57600080fd5b602082029050602081019050919050565b600067ffffffffffffffff821115615d5657600080fd5b602082029050602081019050919050565b600067ffffffffffffffff821115615d7e57600080fd5b602082029050602081019050919050565b600067ffffffffffffffff821115615da657600080fd5b601f19601f8301169050602081019050919050565b600067ffffffffffffffff821115615dd257600080fd5b601f19601f8301169050602081019050919050565b600081519050919050565b600081519050919050565b600082825260208201905092915050565b600081905092915050565b600082825260208201905092915050565b6000615e3582615e48565b9050919050565b60008115159050919050565b600073ffffffffffffffffffffffffffffffffffffffff82169050919050565b6000819050919050565b600067ffffffffffffffff82169050919050565b6000615e9182615e98565b9050919050565b6000615ea382615eaa565b9050919050565b6000615eb582615e48565b9050919050565b82818337600083830152505050565b60005b83811015615ee9578082015181840152602081019050615ece565b83811115615ef8576000848401525b50505050565b6000601f19601f8301169050919050565b615f1881615e2a565b8114615f2357600080fd5b50565b615f2f81615e3c565b8114615f3a57600080fd5b50565b615f4681615e68565b8114615f5157600080fd5b50565b615f5d81615e72565b8114615f6857600080fd5b5056fea365627a7a723158207fecb474ab76265f70a4c86b0cabfa2a894a3b7df13e42883a0dc89e5382856d6c6578706572696d656e74616cf564736f6c63430005110040",
  "linkReferences": {},
  "deployedLinkReferences": {}
}