{
  "_format": "hh-sol-artifact-1",
  "contractName": "EthCrossChainManagerImplemetation",
  "sourceName": "contracts/core/cross_chain_manager/logic/EthCrossChainManagerImplemetation.sol",
  "abi": [
    {
      "anonymous": false,
      "inputs": [
        {
          "indexed": false,
          "internalType": "uint256",
          "name": "height",
          "type": "uint256"
        },
        {
          "indexed": false,
          "internalType": "bytes",
          "name": "rawHeader",
          "type": "bytes"
        },
        {
          "indexed": false,
          "internalType": "bytes",
          "name": "oldValidatorSet",
          "type": "bytes"
        },
        {
          "indexed": false,
          "internalType": "bytes",
          "name": "newEpochInfo",
          "type": "bytes"
        }
      ],
      "name": "ChangeEpochEvent",
      "type": "event"
    },
    {
      "anonymous": false,
      "inputs": [
        {
          "indexed": true,
          "internalType": "address",
          "name": "sender",
          "type": "address"
        },
        {
          "indexed": false,
          "internalType": "bytes",
          "name": "txId",
          "type": "bytes"
        },
        {
          "indexed": false,
          "internalType": "address",
          "name": "proxyOrAssetContract",
          "type": "address"
        },
        {
          "indexed": false,
          "internalType": "uint64",
          "name": "toChainId",
          "type": "uint64"
        },
        {
          "indexed": false,
          "internalType": "bytes",
          "name": "toContract",
          "type": "bytes"
        },
        {
          "indexed": false,
          "internalType": "bytes",
          "name": "rawdata",
          "type": "bytes"
        }
      ],
      "name": "CrossChainEvent",
      "type": "event"
    },
    {
      "anonymous": false,
      "inputs": [
        {
          "indexed": false,
          "internalType": "uint256",
          "name": "height",
          "type": "uint256"
        },
        {
          "indexed": false,
          "internalType": "bytes",
          "name": "rawHeader",
          "type": "bytes"
        }
      ],
      "name": "InitGenesisBlockEvent",
      "type": "event"
    },
    {
      "anonymous": false,
      "inputs": [
        {
          "indexed": false,
          "internalType": "uint64",
          "name": "fromChainID",
          "type": "uint64"
        },
        {
          "indexed": false,
          "internalType": "bytes",
          "name": "toContract",
          "type": "bytes"
        },
        {
          "indexed": false,
          "internalType": "bytes",
          "name": "crossChainTxHash",
          "type": "bytes"
        },
        {
          "indexed": false,
          "internalType": "bytes",
          "name": "fromChainTxHash",
          "type": "bytes"
        }
      ],
      "name": "VerifyHeaderAndExecuteTxEvent",
      "type": "event"
    },
    {
      "constant": false,
      "inputs": [
        {
          "internalType": "bytes",
          "name": "rawHeader",
          "type": "bytes"
        },
        {
          "internalType": "bytes",
          "name": "rawSeals",
          "type": "bytes"
        },
        {
          "internalType": "bytes",
          "name": "accountProof",
          "type": "bytes"
        },
        {
          "internalType": "bytes",
          "name": "storageProof",
          "type": "bytes"
        },
        {
          "internalType": "bytes",
          "name": "nextEpochInfo",
          "type": "bytes"
        }
      ],
      "name": "changeEpoch",
      "outputs": [
        {
          "internalType": "bool",
          "name": "",
          "type": "bool"
        }
      ],
      "payable": false,
      "stateMutability": "nonpayable",
      "type": "function"
    },
    {
      "constant": false,
      "inputs": [
        {
          "internalType": "uint64",
          "name": "toChainId",
          "type": "uint64"
        },
        {
          "internalType": "bytes",
          "name": "toContract",
          "type": "bytes"
        },
        {
          "internalType": "bytes",
          "name": "method",
          "type": "bytes"
        },
        {
          "internalType": "bytes",
          "name": "txData",
          "type": "bytes"
        }
      ],
      "name": "crossChain",
      "outputs": [
        {
          "internalType": "bool",
          "name": "",
          "type": "bool"
        }
      ],
      "payable": false,
      "stateMutability": "nonpayable",
      "type": "function"
    },
    {
      "constant": false,
      "inputs": [],
      "name": "fallback",
      "outputs": [],
      "payable": true,
      "stateMutability": "payable",
      "type": "function"
    },
    {
      "constant": false,
      "inputs": [
        {
          "internalType": "bytes",
          "name": "rawHeader",
          "type": "bytes"
        },
        {
          "internalType": "bytes",
          "name": "rawSeals",
          "type": "bytes"
        },
        {
          "internalType": "bytes",
          "name": "accountProof",
          "type": "bytes"
        },
        {
          "internalType": "bytes",
          "name": "storageProof",
          "type": "bytes"
        },
        {
          "internalType": "bytes",
          "name": "currentEpochInfo",
          "type": "bytes"
        }
      ],
      "name": "initGenesisBlock",
      "outputs": [
        {
          "internalType": "bool",
          "name": "",
          "type": "bool"
        }
      ],
      "payable": false,
      "stateMutability": "nonpayable",
      "type": "function"
    },
    {
      "constant": false,
      "inputs": [
        {
          "internalType": "bytes",
          "name": "rawHeader",
          "type": "bytes"
        },
        {
          "internalType": "bytes",
          "name": "rawSeals",
          "type": "bytes"
        },
        {
          "internalType": "bytes",
          "name": "accountProof",
          "type": "bytes"
        },
        {
          "internalType": "bytes",
          "name": "storageProof",
          "type": "bytes"
        },
        {
          "internalType": "bytes",
          "name": "rawCrossTx",
          "type": "bytes"
        }
      ],
      "name": "verifyHeaderAndExecuteTx",
      "outputs": [
        {
          "internalType": "bool",
          "name": "",
          "type": "bool"
        }
      ],
      "payable": false,
      "stateMutability": "nonpayable",
      "type": "function"
    }
  ],
  "bytecode": "0x608060405234801561001057600080fd5b506159f480620000216000396000f3fe60806040526004361061004a5760003560e01c80630228aa351461004f578063552079dc1461038b578063bd5cf62514610395578063d450e04c146104f1578063fcc9b11e1461082d575b600080fd5b34801561005b57600080fd5b50610371600480360360a081101561007257600080fd5b810190808035906020019064010000000081111561008f57600080fd5b8201836020820111156100a157600080fd5b803590602001918460018302840111640100000000831117156100c357600080fd5b91908080601f016020809104026020016040519081016040528093929190818152602001838380828437600081840152601f19601f8201169050808301925050505050505091929192908035906020019064010000000081111561012657600080fd5b82018360208201111561013857600080fd5b8035906020019184600183028401116401000000008311171561015a57600080fd5b91908080601f016020809104026020016040519081016040528093929190818152602001838380828437600081840152601f19601f820116905080830192505050505050509192919290803590602001906401000000008111156101bd57600080fd5b8201836020820111156101cf57600080fd5b803590602001918460018302840111640100000000831117156101f157600080fd5b91908080601f016020809104026020016040519081016040528093929190818152602001838380828437600081840152601f19601f8201169050808301925050505050505091929192908035906020019064010000000081111561025457600080fd5b82018360208201111561026657600080fd5b8035906020019184600183028401116401000000008311171561028857600080fd5b91908080601f016020809104026020016040519081016040528093929190818152602001838380828437600081840152601f19601f820116905080830192505050505050509192919290803590602001906401000000008111156102eb57600080fd5b8201836020820111156102fd57600080fd5b8035906020019184600183028401116401000000008311171561031f57600080fd5b91908080601f016020809104026020016040519081016040528093929190818152602001838380828437600081840152601f19601f820116905080830192505050505050509192919290505050610b69565b604051808215151515815260200191505060405180910390f35b610393611513565b005b3480156103a157600080fd5b506104d7600480360360808110156103b857600080fd5b81019080803567ffffffffffffffff169060200190929190803590602001906401000000008111156103e957600080fd5b8201836020820111156103fb57600080fd5b8035906020019184600183028401116401000000008311171561041d57600080fd5b90919293919293908035906020019064010000000081111561043e57600080fd5b82018360208201111561045057600080fd5b8035906020019184600183028401116401000000008311171561047257600080fd5b90919293919293908035906020019064010000000081111561049357600080fd5b8201836020820111156104a557600080fd5b803590602001918460018302840111640100000000831117156104c757600080fd5b9091929391929390505050611581565b604051808215151515815260200191505060405180910390f35b3480156104fd57600080fd5b50610813600480360360a081101561051457600080fd5b810190808035906020019064010000000081111561053157600080fd5b82018360208201111561054357600080fd5b8035906020019184600183028401116401000000008311171561056557600080fd5b91908080601f016020809104026020016040519081016040528093929190818152602001838380828437600081840152601f19601f820116905080830192505050505050509192919290803590602001906401000000008111156105c857600080fd5b8201836020820111156105da57600080fd5b803590602001918460018302840111640100000000831117156105fc57600080fd5b91908080601f016020809104026020016040519081016040528093929190818152602001838380828437600081840152601f19601f8201169050808301925050505050505091929192908035906020019064010000000081111561065f57600080fd5b82018360208201111561067157600080fd5b8035906020019184600183028401116401000000008311171561069357600080fd5b91908080601f016020809104026020016040519081016040528093929190818152602001838380828437600081840152601f19601f820116905080830192505050505050509192919290803590602001906401000000008111156106f657600080fd5b82018360208201111561070857600080fd5b8035906020019184600183028401116401000000008311171561072a57600080fd5b91908080601f016020809104026020016040519081016040528093929190818152602001838380828437600081840152601f19601f8201169050808301925050505050505091929192908035906020019064010000000081111561078d57600080fd5b82018360208201111561079f57600080fd5b803590602001918460018302840111640100000000831117156107c157600080fd5b91908080601f016020809104026020016040519081016040528093929190818152602001838380828437600081840152601f19601f820116905080830192505050505050509192919290505050611c48565b604051808215151515815260200191505060405180910390f35b34801561083957600080fd5b50610b4f600480360360a081101561085057600080fd5b810190808035906020019064010000000081111561086d57600080fd5b82018360208201111561087f57600080fd5b803590602001918460018302840111640100000000831117156108a157600080fd5b91908080601f016020809104026020016040519081016040528093929190818152602001838380828437600081840152601f19601f8201169050808301925050505050505091929192908035906020019064010000000081111561090457600080fd5b82018360208201111561091657600080fd5b8035906020019184600183028401116401000000008311171561093857600080fd5b91908080601f016020809104026020016040519081016040528093929190818152602001838380828437600081840152601f19601f8201169050808301925050505050505091929192908035906020019064010000000081111561099b57600080fd5b8201836020820111156109ad57600080fd5b803590602001918460018302840111640100000000831117156109cf57600080fd5b91908080601f016020809104026020016040519081016040528093929190818152602001838380828437600081840152601f19601f82011690508083019250505050505050919291929080359060200190640100000000811115610a3257600080fd5b820183602082011115610a4457600080fd5b80359060200191846001830284011164010000000083111715610a6657600080fd5b91908080601f016020809104026020016040519081016040528093929190818152602001838380828437600081840152601f19601f82011690508083019250505050505050919291929080359060200190640100000000811115610ac957600080fd5b820183602082011115610adb57600080fd5b80359060200191846001830284011164010000000083111715610afd57600080fd5b91908080601f016020809104026020016040519081016040528093929190818152602001838380828437600081840152601f19601f82011690508083019250505050505050919291929050505061254c565b604051808215151515815260200191505060405180910390f35b6000610b736154a8565b610b7c87612d14565b9050610b866154c2565b610b8f84612d7d565b90506000735fbdb2315678afecb367f032d93f642f64180aa390508073ffffffffffffffffffffffffffffffffffffffff16635ac407906040518163ffffffff1660e01b815260040160206040518083038186803b158015610bf057600080fd5b505afa158015610c04573d6000803e3d6000fd5b505050506040513d6020811015610c1a57600080fd5b810190808051906020019092919050505067ffffffffffffffff1683602001511015610c91576040517f08c379a000000000000000000000000000000000000000000000000000000000815260040180806020018281038252603b8152602001806157b0603b913960400191505060405180910390fd5b60018173ffffffffffffffffffffffffffffffffffffffff1663f881afd26040518163ffffffff1660e01b815260040160206040518083038186803b158015610cd957600080fd5b505afa158015610ced573d6000803e3d6000fd5b505050506040513d6020811015610d0357600080fd5b81019080805190602001909291905050500167ffffffffffffffff16826000015167ffffffffffffffff1614610d84576040517f08c379a00000000000000000000000000000000000000000000000000000000081526004018080602001828103825260308152602001806155b76030913960400191505060405180910390fd5b60608173ffffffffffffffffffffffffffffffffffffffff1663cd62908f6040518163ffffffff1660e01b815260040160006040518083038186803b158015610dcc57600080fd5b505afa158015610de0573d6000803e3d6000fd5b505050506040513d6000823e3d601f19601f820116820180604052506020811015610e0a57600080fd5b8101908080516040519392919084640100000000821115610e2a57600080fd5b83820191506020820185811115610e4057600080fd5b8251866001820283011164010000000082111715610e5d57600080fd5b8083526020830192505050908051906020019080838360005b83811015610e91578082015181840152602081019050610e76565b50505050905090810190601f168015610ebe5780820380516001836020036101000a031916815260200191505b5060405250505090506060610ed282612f59565b9050610ee68b805190602001208b8361300e565b610f58576040517f08c379a00000000000000000000000000000000000000000000000000000000081526004018080602001828103825260148152602001807f56657269667920686561646572206661696c656400000000000000000000000081525060200191505060405180910390fd5b6060610f6385613186565b90506060610fad8b88600001516040518060400160405280601481526020017fa4bf827047a08510722b2d62e668a72fccfa232c0000000000000000000000008152508d8661329d565b90508880519060200120610fc082613331565b14611033576040517f08c379a00000000000000000000000000000000000000000000000000000000081526004018080602001828103825260138152602001807f5665726966792070726f6f66206661696c65640000000000000000000000000081525060200191505060405180910390fd5b8473ffffffffffffffffffffffffffffffffffffffff1663512feecc87602001516040518263ffffffff1660e01b8152600401808267ffffffffffffffff1667ffffffffffffffff168152602001915050602060405180830381600087803b15801561109e57600080fd5b505af11580156110b2573d6000803e3d6000fd5b505050506040513d60208110156110c857600080fd5b810190808051906020019092919050505061112e576040517f08c379a00000000000000000000000000000000000000000000000000000000081526004018080602001828103825260348152602001806159606034913960400191505060405180910390fd5b8473ffffffffffffffffffffffffffffffffffffffff1663738b5ae487600001516040518263ffffffff1660e01b8152600401808267ffffffffffffffff1667ffffffffffffffff168152602001915050602060405180830381600087803b15801561119957600080fd5b505af11580156111ad573d6000803e3d6000fd5b505050506040513d60208110156111c357600080fd5b8101908080519060200190929190505050611229576040517f08c379a00000000000000000000000000000000000000000000000000000000081526004018080602001828103825260308152602001806158de6030913960400191505060405180910390fd5b8473ffffffffffffffffffffffffffffffffffffffff16631dc544bf61125288604001516133b6565b6040518263ffffffff1660e01b81526004018080602001828103825283818151815260200191508051906020019080838360005b838110156112a1578082015181840152602081019050611286565b50505050905090810190601f1680156112ce5780820380516001836020036101000a031916815260200191505b5092505050602060405180830381600087803b1580156112ed57600080fd5b505af1158015611301573d6000803e3d6000fd5b505050506040513d602081101561131757600080fd5b810190808051906020019092919050505061137d576040517f08c379a00000000000000000000000000000000000000000000000000000000081526004018080602001828103825260388152602001806156ae6038913960400191505060405180910390fd5b7fef6229e7d9f33cdb9aafa4a1ec2deb98baa7fd31ffb3e15a6371979f49e954b587602001518e868c60405180858152602001806020018060200180602001848103845287818151815260200191508051906020019080838360005b838110156113f45780820151818401526020810190506113d9565b50505050905090810190601f1680156114215780820380516001836020036101000a031916815260200191505b50848103835286818151815260200191508051906020019080838360005b8381101561145a57808201518184015260208101905061143f565b50505050905090810190601f1680156114875780820380516001836020036101000a031916815260200191505b50848103825285818151815260200191508051906020019080838360005b838110156114c05780820151818401526020810190506114a5565b50505050905090810190601f1680156114ed5780820380516001836020036101000a031916815260200191505b5097505050505050505060405180910390a1600197505050505050505095945050505050565b6040517f08c379a00000000000000000000000000000000000000000000000000000000081526004018080602001828103825260148152602001807f556e737570706f727465642066756e6374696f6e00000000000000000000000081525060200191505060405180910390fd5b600073e7f1725e7734ce288f8367e1bb143e90bb3f051273ffffffffffffffffffffffffffffffffffffffff1663fc91a897336040518263ffffffff1660e01b8152600401808273ffffffffffffffffffffffffffffffffffffffff1673ffffffffffffffffffffffffffffffffffffffff16815260200191505060206040518083038186803b15801561161457600080fd5b505afa158015611628573d6000803e3d6000fd5b505050506040513d602081101561163e57600080fd5b81019080805190602001909291905050506116a4576040517f08c379a000000000000000000000000000000000000000000000000000000000815260040180806020018281038252602a8152602001806156e6602a913960400191505060405180910390fd5b6000735fbdb2315678afecb367f032d93f642f64180aa373ffffffffffffffffffffffffffffffffffffffff1663ff3d24a16040518163ffffffff1660e01b815260040160206040518083038186803b15801561170057600080fd5b505afa158015611714573d6000803e3d6000fd5b505050506040513d602081101561172a57600080fd5b81019080805190602001909291905050509050606061174882613420565b9050606060023083604051602001808373ffffffffffffffffffffffffffffffffffffffff1673ffffffffffffffffffffffffffffffffffffffff1660601b815260140182805190602001908083835b602083106117bb5780518252602082019150602081019050602083039250611798565b6001836020036101000a038019825116818451168082178552505050505050905001925050506040516020818303038152906040526040518082805190602001908083835b602083106118235780518252602082019150602081019050602083039250611800565b6001836020036101000a038019825116818451168082178552505050505050905001915050602060405180830381855afa158015611865573d6000803e3d6000fd5b5050506040513d602081101561187a57600080fd5b8101908080519060200190929190505050604051602001808281526020019150506040516020818303038152906040529050606061199183836118bc336134d3565b8f8f8f8080601f016020809104026020016040519081016040528093929190818152602001838380828437600081840152601f19601f820116905080830192505050505050508e8e8080601f016020809104026020016040519081016040528093929190818152602001838380828437600081840152601f19601f820116905080830192505050505050508d8d8080601f016020809104026020016040519081016040528093929190818152602001838380828437600081840152601f19601f820116905080830192505050505050506134f3565b9050735fbdb2315678afecb367f032d93f642f64180aa373ffffffffffffffffffffffffffffffffffffffff16634c3ccf6482805190602001206040518263ffffffff1660e01b815260040180828152602001915050602060405180830381600087803b158015611a0157600080fd5b505af1158015611a15573d6000803e3d6000fd5b505050506040513d6020811015611a2b57600080fd5b8101908080519060200190929190505050611a91576040517f08c379a00000000000000000000000000000000000000000000000000000000081526004018080602001828103825260308152602001806159306030913960400191505060405180910390fd5b3273ffffffffffffffffffffffffffffffffffffffff167f6ad3bf15c1988bc04bc153490cab16db8efb9a3990215bf1c64ea6e28be8848384338f8f8f8760405180806020018773ffffffffffffffffffffffffffffffffffffffff1673ffffffffffffffffffffffffffffffffffffffff1681526020018667ffffffffffffffff1667ffffffffffffffff168152602001806020018060200184810384528a818151815260200191508051906020019080838360005b83811015611b63578082015181840152602081019050611b48565b50505050905090810190601f168015611b905780820380516001836020036101000a031916815260200191505b508481038352878782818152602001925080828437600081840152601f19601f820116905080830192505050848103825285818151815260200191508051906020019080838360005b83811015611bf4578082015181840152602081019050611bd9565b50505050905090810190601f168015611c215780820380516001836020036101000a031916815260200191505b50995050505050505050505060405180910390a26001945050505050979650505050505050565b6000611c526154a8565b611c5b87612d14565b9050611c656154f7565b611c6e846137c4565b90506000735fbdb2315678afecb367f032d93f642f64180aa390506060611dd28273ffffffffffffffffffffffffffffffffffffffff1663cd62908f6040518163ffffffff1660e01b815260040160006040518083038186803b158015611cd457600080fd5b505afa158015611ce8573d6000803e3d6000fd5b505050506040513d6000823e3d601f19601f820116820180604052506020811015611d1257600080fd5b8101908080516040519392919084640100000000821115611d3257600080fd5b83820191506020820185811115611d4857600080fd5b8251866001820283011164010000000082111715611d6557600080fd5b8083526020830192505050908051906020019080838360005b83811015611d99578082015181840152602081019050611d7e565b50505050905090810190601f168015611dc65780820380516001836020036101000a031916815260200191505b50604052505050612f59565b90508173ffffffffffffffffffffffffffffffffffffffff16635ac407906040518163ffffffff1660e01b815260040160206040518083038186803b158015611e1a57600080fd5b505afa158015611e2e573d6000803e3d6000fd5b505050506040513d6020811015611e4457600080fd5b810190808051906020019092919050505067ffffffffffffffff1684602001511015611ed8576040517f08c379a00000000000000000000000000000000000000000000000000000000081526004018080602001828103825260148152602001807f496e76616c696420626c6f636b2068656967687400000000000000000000000081525060200191505060405180910390fd5b611eea8a805190602001208a8361300e565b611f5c576040517f08c379a00000000000000000000000000000000000000000000000000000000081526004018080602001828103825260148152602001807f56657269667920686561646572206661696c656400000000000000000000000081525060200191505060405180910390fd5b6060611f6784613855565b90506060611fb18a87600001516040518060400160405280601481526020017f5747c05ff236f8d18bb21bc02ecc389def853cae0000000000000000000000008152508c8661329d565b90508780519060200120611fc482613331565b14612037576040517f08c379a00000000000000000000000000000000000000000000000000000000081526004018080602001828103825260138152602001807f5665726966792070726f6f66206661696c65640000000000000000000000000081525060200191505060405180910390fd5b8373ffffffffffffffffffffffffffffffffffffffff16630586763c86602001516120658860000151613331565b6040518363ffffffff1660e01b8152600401808367ffffffffffffffff1667ffffffffffffffff1681526020018281526020019250505060206040518083038186803b1580156120b457600080fd5b505afa1580156120c8573d6000803e3d6000fd5b505050506040513d60208110156120de57600080fd5b810190808051906020019092919050505015612145576040517f08c379a000000000000000000000000000000000000000000000000000000000815260040180806020018281038252602281526020018061590e6022913960400191505060405180910390fd5b8373ffffffffffffffffffffffffffffffffffffffff1663e90bfdcf86602001516121738860000151613331565b6040518363ffffffff1660e01b8152600401808367ffffffffffffffff1667ffffffffffffffff16815260200182815260200192505050602060405180830381600087803b1580156121c457600080fd5b505af11580156121d8573d6000803e3d6000fd5b505050506040513d60208110156121ee57600080fd5b8101908080519060200190929190505050612271576040517f08c379a00000000000000000000000000000000000000000000000000000000081526004018080602001828103825260208152602001807f536176652063726f7373636861696e207478206578697374206661696c65642181525060200191505060405180910390fd5b62012fd185604001516060015167ffffffffffffffff16146122de576040517f08c379a00000000000000000000000000000000000000000000000000000000081526004018080602001828103825260268152602001806157106026913960400191505060405180910390fd5b60006122f1866040015160800151613974565b905061231c81876040015160a00151886040015160c001518960400151604001518a602001516139dc565b61238e576040517f08c379a000000000000000000000000000000000000000000000000000000000815260040180806020018281038252601d8152602001807f457865637574652043726f7373436861696e205478206661696c65642100000081525060200191505060405180910390fd5b7f8a4a2663ce60ce4955c595da2894de0415240f1ace024cfbff85f513b656bdae86602001518760400151608001518860000151896040015160000151604051808567ffffffffffffffff1667ffffffffffffffff168152602001806020018060200180602001848103845287818151815260200191508051906020019080838360005b8381101561242d578082015181840152602081019050612412565b50505050905090810190601f16801561245a5780820380516001836020036101000a031916815260200191505b50848103835286818151815260200191508051906020019080838360005b83811015612493578082015181840152602081019050612478565b50505050905090810190601f1680156124c05780820380516001836020036101000a031916815260200191505b50848103825285818151815260200191508051906020019080838360005b838110156124f95780820151818401526020810190506124de565b50505050905090810190601f1680156125265780820380516001836020036101000a031916815260200191505b5097505050505050505060405180910390a1600197505050505050505095945050505050565b60006125566154a8565b61255f87612d14565b90506125696154c2565b61257284612d7d565b90506000735fbdb2315678afecb367f032d93f642f64180aa3905060008173ffffffffffffffffffffffffffffffffffffffff1663cd62908f6040518163ffffffff1660e01b815260040160006040518083038186803b1580156125d557600080fd5b505afa1580156125e9573d6000803e3d6000fd5b505050506040513d6000823e3d601f19601f82011682018060405250602081101561261357600080fd5b810190808051604051939291908464010000000082111561263357600080fd5b8382019150602082018581111561264957600080fd5b825186600182028301116401000000008211171561266657600080fd5b8083526020830192505050908051906020019080838360005b8381101561269a57808201518184015260208101905061267f565b50505050905090810190601f1680156126c75780820380516001836020036101000a031916815260200191505b506040525050505114612725576040517f08c379a00000000000000000000000000000000000000000000000000000000081526004018080602001828103825260388152602001806158a66038913960400191505060405180910390fd5b816020015167ffffffffffffffff16836020015110156127ad576040517f08c379a00000000000000000000000000000000000000000000000000000000081526004018080602001828103825260148152602001807f496e76616c696420626c6f636b2068656967687400000000000000000000000081525060200191505060405180910390fd5b6127c3898051906020012089846040015161300e565b612835576040517f08c379a00000000000000000000000000000000000000000000000000000000081526004018080602001828103825260148152602001807f56657269667920686561646572206661696c656400000000000000000000000081525060200191505060405180910390fd5b606061284083613186565b9050606061288a8986600001516040518060400160405280601481526020017fa4bf827047a08510722b2d62e668a72fccfa232c0000000000000000000000008152508b8661329d565b9050868051906020012061289d82613331565b14612910576040517f08c379a00000000000000000000000000000000000000000000000000000000081526004018080602001828103825260138152602001807f5665726966792070726f6f66206661696c65640000000000000000000000000081525060200191505060405180910390fd5b8273ffffffffffffffffffffffffffffffffffffffff1663512feecc85602001516040518263ffffffff1660e01b8152600401808267ffffffffffffffff1667ffffffffffffffff168152602001915050602060405180830381600087803b15801561297b57600080fd5b505af115801561298f573d6000803e3d6000fd5b505050506040513d60208110156129a557600080fd5b8101908080519060200190929190505050612a0b576040517f08c379a000000000000000000000000000000000000000000000000000000000815260040180806020018281038252603d815260200180615636603d913960400191505060405180910390fd5b8273ffffffffffffffffffffffffffffffffffffffff1663738b5ae485600001516040518263ffffffff1660e01b8152600401808267ffffffffffffffff1667ffffffffffffffff168152602001915050602060405180830381600087803b158015612a7657600080fd5b505af1158015612a8a573d6000803e3d6000fd5b505050506040513d6020811015612aa057600080fd5b8101908080519060200190929190505050612b06576040517f08c379a00000000000000000000000000000000000000000000000000000000081526004018080602001828103825260338152602001806157eb6033913960400191505060405180910390fd5b8273ffffffffffffffffffffffffffffffffffffffff16631dc544bf612b2f86604001516133b6565b6040518263ffffffff1660e01b81526004018080602001828103825283818151815260200191508051906020019080838360005b83811015612b7e578082015181840152602081019050612b63565b50505050905090810190601f168015612bab5780820380516001836020036101000a031916815260200191505b5092505050602060405180830381600087803b158015612bca57600080fd5b505af1158015612bde573d6000803e3d6000fd5b505050506040513d6020811015612bf457600080fd5b8101908080519060200190929190505050612c5a576040517f08c379a000000000000000000000000000000000000000000000000000000000815260040180806020018281038252603b815260200180615673603b913960400191505060405180910390fd5b7ff01968fc3a2655cf1b5144cb32de6dc898f91b9239c103744e8457152ab2fbde85602001518c6040518083815260200180602001828103825283818151815260200191508051906020019080838360005b83811015612cc7578082015181840152602081019050612cac565b50505050905090810190601f168015612cf45780820380516001836020036101000a031916815260200191505b50935050505060405180910390a160019550505050505095945050505050565b612d1c6154a8565b600080612d2a846020614015565b92505050612d3b84605783016140d0565b819150508360000181905250612d55846101bd8301614015565b9091508092508193505050612d6c84838301614121565b508360200181815250505050919050565b612d856154c2565b6000809050600080612d98856020614015565b92505050612da685826141b9565b856000018193508267ffffffffffffffff1667ffffffffffffffff168152505050612dd18582614015565b909150905080915050612de48582614015565b90915080925081935050506000605b8381612dfb57fe5b0614612e6f576040517f08c379a00000000000000000000000000000000000000000000000000000000081526004018080602001828103825260148152602001807f696e76616c69642072617745706f6368496e666f00000000000000000000000081525060200191505060405180910390fd5b605b8281612e7957fe5b04604051908082528060200260200182016040528015612ea85781602001602082028038833980820191505090505b5084604001819052505b81811015612f29576000612ec98660468401614251565b5090508085604001518580600101965081518110612ee357fe5b602002602001019073ffffffffffffffffffffffffffffffffffffffff16908173ffffffffffffffffffffffffffffffffffffffff168152505050605b81019050612eb2565b612f3385826141b9565b50846020018167ffffffffffffffff1667ffffffffffffffff1681525050505050919050565b6060818060200190516020811015612f7057600080fd5b8101908080516040519392919084640100000000821115612f9057600080fd5b83820191506020820185811115612fa657600080fd5b8251866020820283011164010000000082111715612fc357600080fd5b8083526020830192505050908051906020019060200280838360005b83811015612ffa578082015181840152602081019050612fdf565b505050509050016040525050509050919050565b6000806020905060606130228560206142e9565b5080955050600061303e6043875161432090919063ffffffff16565b90506060816040519080825280602002602001820160405280156130715781602001602082028038833980820191505090505b50905060008090505b8281101561316d5761308c88866142e9565b80965081955050506130c48960405160200180828152602001915050604051602081830303815290604052805190602001208561436a565b8282815181106130d057fe5b602002602001019073ffffffffffffffffffffffffffffffffffffffff16908173ffffffffffffffffffffffffffffffffffffffff1681525050600073ffffffffffffffffffffffffffffffffffffffff1682828151811061312e57fe5b602002602001015173ffffffffffffffffffffffffffffffffffffffff1614156131605760009550505050505061317f565b808060010191505061307a565b506131788682614411565b9450505050505b9392505050565b606060006131978360000151614560565b60405160200180807fe4bf3526f07c80af3a5de1411dd34471c71bdd5d04eedbfa1040da2c968020418152506020018277ffffffffffffffffffffffffffffffffffffffffffffffff191677ffffffffffffffffffffffffffffffffffffffffffffffff191681526008019150506040516020818303038152906040528051906020012090506132956773745f70726f6f6660c01b82604051602001808377ffffffffffffffffffffffffffffffffffffffffffffffff191677ffffffffffffffffffffffffffffffffffffffffffffffff1916815260080182815260200192505050604051602081830303815290604052805190602001206145d5565b915050919050565b6060808490508051602082012060208201526020815260606132c08883896145f2565b90506132cd8160206142e9565b508091505060006132df8260206142e9565b9150506132ec82826142e9565b90508091505060606132fe83836142e9565b5090506060869050805160208201206020820152602081526133218882846145f2565b9550505050505095945050505050565b600060208251146133aa576040517f08c379a00000000000000000000000000000000000000000000000000000000081526004018080602001828103825260178152602001807f6279746573206c656e677468206973206e6f742033322e00000000000000000081525060200191505060405180910390fd5b60208201519050919050565b6060816040516020018080602001828103825283818151815260200191508051906020019060200280838360005b838110156133ff5780820151818401526020810190506133e4565b50505050905001925050506040516020818303038152906040529050919050565b60607f7fffffffffffffffffffffffffffffffffffffffffffffffffffffffffffffff8211156134b8576040517f08c379a00000000000000000000000000000000000000000000000000000000081526004018080602001828103825260178152602001807f56616c75652065786365656473207468652072616e676500000000000000000081525060200191505060405180910390fd5b60405190506020815281602082015260408101604052919050565b60606040519050601481528160601b602082015260408101604052919050565b606087878787878787604051602001808060200180602001806020018867ffffffffffffffff1667ffffffffffffffff16815260200180602001806020018060200187810387528e818151815260200191508051906020019080838360005b8381101561356d578082015181840152602081019050613552565b50505050905090810190601f16801561359a5780820380516001836020036101000a031916815260200191505b5087810386528d818151815260200191508051906020019080838360005b838110156135d35780820151818401526020810190506135b8565b50505050905090810190601f1680156136005780820380516001836020036101000a031916815260200191505b5087810385528c818151815260200191508051906020019080838360005b8381101561363957808201518184015260208101905061361e565b50505050905090810190601f1680156136665780820380516001836020036101000a031916815260200191505b5087810384528a818151815260200191508051906020019080838360005b8381101561369f578082015181840152602081019050613684565b50505050905090810190601f1680156136cc5780820380516001836020036101000a031916815260200191505b50878103835289818151815260200191508051906020019080838360005b838110156137055780820151818401526020810190506136ea565b50505050905090810190601f1680156137325780820380516001836020036101000a031916815260200191505b50878103825288818151815260200191508051906020019080838360005b8381101561376b578082015181840152602081019050613750565b50505050905090810190601f1680156137985780820380516001836020036101000a031916815260200191505b509d50505050505050505050505050506040516020818303038152906040529050979650505050505050565b6137cc6154f7565b6000602090506137dc8382614015565b90915090508091505060606137f184836140d0565b81915084600001819450829052505061380a84836141b9565b846020018194508267ffffffffffffffff1667ffffffffffffffff16815250505061383584836140d0565b8093508192505050613846816148b5565b83604001819052505050919050565b606061396d667265717565737460c81b613876846040015160600151614560565b8460000151604051602001808478ffffffffffffffffffffffffffffffffffffffffffffffffff191678ffffffffffffffffffffffffffffffffffffffffffffffffff191681526007018377ffffffffffffffffffffffffffffffffffffffffffffffff191677ffffffffffffffffffffffffffffffffffffffffffffffff1916815260080182805190602001908083835b6020831061392b5780518252602082019150602081019050602083039250613908565b6001836020036101000a0380198251168184511680821785525050505050509050019350505050604051602081830303815290604052805190602001206145d5565b9050919050565b600060148251146139d0576040517f08c379a00000000000000000000000000000000000000000000000000000000081526004018080602001828103825260238152602001806155e76023913960400191505060405180910390fd5b60148201519050919050565b600073e7f1725e7734ce288f8367e1bb143e90bb3f051273ffffffffffffffffffffffffffffffffffffffff1663fc91a897876040518263ffffffff1660e01b8152600401808273ffffffffffffffffffffffffffffffffffffffff1673ffffffffffffffffffffffffffffffffffffffff16815260200191505060206040518083038186803b158015613a6f57600080fd5b505afa158015613a83573d6000803e3d6000fd5b505050506040513d6020811015613a9957600080fd5b8101908080519060200190929190505050613aff576040517f08c379a000000000000000000000000000000000000000000000000000000000815260040180806020018281038252602e815260200180615782602e913960400191505060405180910390fd5b735fbdb2315678afecb367f032d93f642f64180aa373ffffffffffffffffffffffffffffffffffffffff168673ffffffffffffffffffffffffffffffffffffffff161415613bb5576040517f08c379a00000000000000000000000000000000000000000000000000000000081526004018080602001828103825260178152602001807f446f6e27742074727920746f2063616c6c20656363642100000000000000000081525060200191505060405180910390fd5b600060608773ffffffffffffffffffffffffffffffffffffffff16876040516020018082805190602001908083835b60208310613c075780518252602082019150602081019050602083039250613be4565b6001836020036101000a038019825116818451168082178552505050505050905001807f2862797465732c62797465732c75696e74363429000000000000000000000000815250601401915050604051602081830303815290604052805190602001208787876040516020018080602001806020018467ffffffffffffffff1667ffffffffffffffff168152602001838103835286818151815260200191508051906020019080838360005b83811015613cce578082015181840152602081019050613cb3565b50505050905090810190601f168015613cfb5780820380516001836020036101000a031916815260200191505b50838103825285818151815260200191508051906020019080838360005b83811015613d34578082015181840152602081019050613d19565b50505050905090810190601f168015613d615780820380516001836020036101000a031916815260200191505b509550505050505060405160208183030381529060405260405160200180837bffffffffffffffffffffffffffffffffffffffffffffffffffffffff19167bffffffffffffffffffffffffffffffffffffffffffffffffffffffff1916815260040182805190602001908083835b60208310613df25780518252602082019150602081019050602083039250613dcf565b6001836020036101000a038019825116818451168082178552505050505050905001925050506040516020818303038152906040526040518082805190602001908083835b60208310613e5a5780518252602082019150602081019050602083039250613e37565b6001836020036101000a0380198251168184511680821785525050505050509050019150506000604051808303816000865af19150503d8060008114613ebc576040519150601f19603f3d011682016040523d82523d6000602084013e613ec1565b606091505b50915091506001151582151514613f23576040517f08c379a000000000000000000000000000000000000000000000000000000000815260040180806020018281038252602b815260200180615736602b913960400191505060405180910390fd5b600081511415613f7e576040517f08c379a000000000000000000000000000000000000000000000000000000000815260040180806020018281038252602781526020018061581e6027913960400191505060405180910390fd5b6000818060200190516020811015613f9557600080fd5b810190808051906020019092919050505090506001151581151514614005576040517f08c379a000000000000000000000000000000000000000000000000000000000815260040180806020018281038252603781526020018061586f6037913960400191505060405180910390fd5b6001935050505095945050505050565b60008060008385015160f81c60808110156140365760019350600192508491505b607f811160b78210161561405557600293506080810392506001850191505b60b6811160c0821016156140815760039350600185870101518160d7036008021c925060b68103850191505b60bf811160f7821016156140a0576004935060c0810392506001850191505b60f68111156140c857600593506001858701015181610117036008021c925060f68103850191505b509250925092565b60606000806140df8585614015565b9091508095508192505050838101915060405192506020601f82010460200260200180840160405281845281602085018387890160045afa5050509250929050565b60008060006141308585614015565b90915080955081925050506020811115614195576040517f08c379a000000000000000000000000000000000000000000000000000000000815260040180806020018281038252602c815260200180615994602c913960400191505060405180910390fd5b838101915080602003808503860151600882021b600882021c935050509250929050565b60008060006141c88585614015565b9091508095508192505050600881111561422d576040517f08c379a000000000000000000000000000000000000000000000000000000000815260040180806020018281038252602a815260200180615845602a913960400191505060405180910390fd5b838101915080602003808503860151600882021b600882021c935050509250929050565b60008060006142608585614015565b909150809550819250505060148111156142c5576040517f08c379a000000000000000000000000000000000000000000000000000000000815260040180806020018281038252602c81526020018061560a602c913960400191505060405180910390fd5b838101915080602003808503860151600882021b600882021c935050509250929050565b60606000806142f88585614015565b9091508093508192505050806020830386015260208203850192508082019150509250929050565b600061436283836040518060400160405280601a81526020017f536166654d6174683a206469766973696f6e206279207a65726f000000000000815250614d7c565b905092915050565b6000604182511461437e576000905061440b565b60008060006020850151925060408501519150606085015160001a601b01905060018682858560405160008152602001604052604051808581526020018460ff1660ff1681526020018381526020018281526020019450505050506020604051602081039080840390855afa1580156143fb573d6000803e3d6000fd5b5050506020604051035193505050505b92915050565b60008061444f6001614441600361443360028951614e4390919063ffffffff16565b61432090919063ffffffff16565b614ec990919063ffffffff16565b9050600080905060008090505b84518110156145515760008090505b86518110156145435786818151811061448057fe5b602002602001015173ffffffffffffffffffffffffffffffffffffffff168683815181106144aa57fe5b602002602001015173ffffffffffffffffffffffffffffffffffffffff1614156145365782806001019350507377777777777777777777777777777777777777778782815181106144f757fe5b602002602001019073ffffffffffffffffffffffffffffffffffffffff16908173ffffffffffffffffffffffffffffffffffffffff1681525050614543565b808060010191505061446b565b50808060010191505061445c565b50818110159250505092915050565b600060ff821660381b905061ff00821660281b8101905062ff0000821660181b8101905063ff000000821660081b8101905064ff00000000821660081c8101905065ff0000000000821660181c8101905066ff000000000000821660281c810190508160381c810190508060c01b9050919050565b606060405190506040810160405260208152816020820152919050565b60606145fd83614f51565b925061460a8460206142e9565b50809450506000602090506000855190508392505b602081018210156148355760606146378784866150af565b6146a9576040517f08c379a00000000000000000000000000000000000000000000000000000000081526004018080602001828103825260178152602001807f70726f6f663a756e657175616c206e6f6465206861736800000000000000000081525060200191505060405180910390fd5b6146b387846142e9565b80945081925050506000806146c9836020614015565b92509250506146da83838301614015565b9091508092508193505050818101905060208351018114156147b557606060006147058560206142e9565b915091506000606061471684615109565b90506147228c82615344565b809350819d5050508161479d576040517f08c379a00000000000000000000000000000000000000000000000000000000081526004018080602001828103825260118152602001807f70726f6f663a696e76616c6964206b657900000000000000000000000000000081525060200191505060405180910390fd5b6147a787846142e9565b50809a50505050505061482d565b600080895114156147c957601190506147db565b6147d28961540e565b809250819a5050505b60006020905060008090505b6011811015614829578083141561480c5761480286836142e9565b5080995050614829565b61481686836142e9565b90508092505080806001019150506147e7565b5050505b50505061461f565b60008551146148ac576040517f08c379a00000000000000000000000000000000000000000000000000000000081526004018080602001828103825260118152602001807f70726f6f663a696e76616c6964206b657900000000000000000000000000000081525060200191505060405180910390fd5b50509392505050565b6148bd615528565b8180602001905160e08110156148d257600080fd5b81019080805160405193929190846401000000008211156148f257600080fd5b8382019150602082018581111561490857600080fd5b825186600182028301116401000000008211171561492557600080fd5b8083526020830192505050908051906020019080838360005b8381101561495957808201518184015260208101905061493e565b50505050905090810190601f1680156149865780820380516001836020036101000a031916815260200191505b50604052602001805160405193929190846401000000008211156149a957600080fd5b838201915060208201858111156149bf57600080fd5b82518660018202830111640100000000821117156149dc57600080fd5b8083526020830192505050908051906020019080838360005b83811015614a105780820151818401526020810190506149f5565b50505050905090810190601f168015614a3d5780820380516001836020036101000a031916815260200191505b5060405260200180516040519392919084640100000000821115614a6057600080fd5b83820191506020820185811115614a7657600080fd5b8251866001820283011164010000000082111715614a9357600080fd5b8083526020830192505050908051906020019080838360005b83811015614ac7578082015181840152602081019050614aac565b50505050905090810190601f168015614af45780820380516001836020036101000a031916815260200191505b506040526020018051906020019092919080516040519392919084640100000000821115614b2157600080fd5b83820191506020820185811115614b3757600080fd5b8251866001820283011164010000000082111715614b5457600080fd5b8083526020830192505050908051906020019080838360005b83811015614b88578082015181840152602081019050614b6d565b50505050905090810190601f168015614bb55780820380516001836020036101000a031916815260200191505b5060405260200180516040519392919084640100000000821115614bd857600080fd5b83820191506020820185811115614bee57600080fd5b8251866001820283011164010000000082111715614c0b57600080fd5b8083526020830192505050908051906020019080838360005b83811015614c3f578082015181840152602081019050614c24565b50505050905090810190601f168015614c6c5780820380516001836020036101000a031916815260200191505b5060405260200180516040519392919084640100000000821115614c8f57600080fd5b83820191506020820185811115614ca557600080fd5b8251866001820283011164010000000082111715614cc257600080fd5b8083526020830192505050908051906020019080838360005b83811015614cf6578082015181840152602081019050614cdb565b50505050905090810190601f168015614d235780820380516001836020036101000a031916815260200191505b506040525050508760000188602001896040018a6060018b6080018c60a0018d60c0018790528790528790528767ffffffffffffffff1667ffffffffffffffff1681525087905287905287905250505050505050919050565b6000808314158290614e29576040517f08c379a00000000000000000000000000000000000000000000000000000000081526004018080602001828103825283818151815260200191508051906020019080838360005b83811015614dee578082015181840152602081019050614dd3565b50505050905090810190601f168015614e1b5780820380516001836020036101000a031916815260200191505b509250505060405180910390fd5b506000838581614e3557fe5b049050809150509392505050565b600080831415614e565760009050614ec3565b6000828402905082848281614e6757fe5b0414614ebe576040517f08c379a00000000000000000000000000000000000000000000000000000000081526004018080602001828103825260218152602001806157616021913960400191505060405180910390fd5b809150505b92915050565b600080828401905083811015614f47576040517f08c379a000000000000000000000000000000000000000000000000000000000815260040180806020018281038252601b8152602001807f536166654d6174683a206164646974696f6e206f766572666c6f77000000000081525060200191505060405180910390fd5b8091505092915050565b6060600060016002845102019050604051915060208183010160405280825260008090505b8351811015615065576004848281518110614f8d57fe5b602001015160f81c60f81b7effffffffffffffffffffffffffffffffffffffffffffffffffffffffffffff1916901c836002830281518110614fcb57fe5b60200101907effffffffffffffffffffffffffffffffffffffffffffffffffffffffffffff1916908160001a905350600f60f81b84828151811061500b57fe5b602001015160f81c60f81b1683600160028402018151811061502957fe5b60200101907effffffffffffffffffffffffffffffffffffffffffffffffffffffffffffff1916908160001a9053508080600101915050614f76565b50601060f81b82600183038151811061507a57fe5b60200101907effffffffffffffffffffffffffffffffffffffffffffffffffffffffffffff1916908160001a90535050919050565b60008060006150be8686614015565b925092505060208211600081146150dc57600181146150ed576150ff565b6020850151868801511493506150ff565b60208501518683038401878901201493505b5050509392505050565b6060600060048360008151811061511c57fe5b602001015160f81c60f81b7effffffffffffffffffffffffffffffffffffffffffffffffffffffffffffff1916901c9050600083519050600080600060028560f81c06905060028560f81c049150808260028087020301019250604051955060208387010160405282865260018114156151eb57600f60f81b876000815181106151a257fe5b602001015160f81c60f81b16866000815181106151bb57fe5b60200101907effffffffffffffffffffffffffffffffffffffffffffffffffffffffffffff1916908160001a9053505b600182141561523857601060f81b86600185038151811061520857fe5b60200101907effffffffffffffffffffffffffffffffffffffffffffffffffffffffffffff1916908160001a9053505b60008090505b6001850381101561533957600488600183018151811061525a57fe5b602001015160f81c60f81b7effffffffffffffffffffffffffffffffffffffffffffffffffffffffffffff1916901c878383600202018151811061529a57fe5b60200101907effffffffffffffffffffffffffffffffffffffffffffffffffffffffffffff1916908160001a905350600f60f81b8860018301815181106152dd57fe5b602001015160f81c60f81b1687836001846002020101815181106152fd57fe5b60200101907effffffffffffffffffffffffffffffffffffffffffffffffffffffffffffff1916908160001a905350808060010191505061523e565b505050505050919050565b6060600082518451101561535e5783600091509150615407565b6000602084518161536b57fe5b0490506001915060008090505b818110156153a2576020810260200180860151818801511484169350508080600101915050615378565b50602081026020017fffffffffffffffffffffffffffffffffffffffffffffffffffffffffffffffff855182036008021b81860151828801511816158316925050816153f5578460009250925050615407565b83518551038451860152835185019250505b9250929050565b606060008083511415615489576040517f08c379a00000000000000000000000000000000000000000000000000000000081526004018080602001828103825260188152602001807f74616b654f6e65427974653a20656d70747920696e707574000000000000000081525060200191505060405180910390fd5b60ff600184015116905060018351036001840152600183019150915091565b604051806040016040528060608152602001600081525090565b6040518060600160405280600067ffffffffffffffff168152602001600067ffffffffffffffff168152602001606081525090565b604051806060016040528060608152602001600067ffffffffffffffff16815260200161552261556f565b81525090565b6040518060e00160405280606081526020016060815260200160608152602001600067ffffffffffffffff1681526020016060815260200160608152602001606081525090565b6040518060e00160405280606081526020016060815260200160608152602001600067ffffffffffffffff168152602001606081526020016060815260200160608152509056fe476976656e2065706f6368206973206e6f7420746865206e6578742065706f6368206f662063757272656e74206f6e656279746573206c656e67746820646f6573206e6f74206d617463682061646472657373726c704765744e657874416464726573733a2064617461206c6f6e676572207468616e20323020627974657353617665205a696f6e2063757272656e742065706f63682073746172742068656967687420746f204461746120636f6e7472616374206661696c65642153617665205a696f6e2063757272656e742065706f63682076616c696461746f727320746f204461746120636f6e7472616374206661696c65642153617665205a696f6e206e6578742065706f63682076616c696461746f727320746f204461746120636f6e7472616374206661696c6564215468652063616c6c6572206973206368696c64206f66207468652063616c6c657220666163746f72792154686973205478206973206e6f742061696d696e672061742074686973206e6574776f726b2145746843726f7373436861696e2063616c6c20627573696e65737320636f6e7472616374206661696c6564536166654d6174683a206d756c7469706c69636174696f6e206f766572666c6f775468652070617373656420696e2061646472657373206973206e6f742066726f6d2074686520666163746f727921476976656e20626c6f636b20686569676874206973206c6f776572207468616e2063757272656e742065706f63682073746172742068656967687453617665205a696f6e2063757272656e742065706f636820696420746f204461746120636f6e7472616374206661696c6564214e6f2072657475726e2076616c75652066726f6d20627573696e65737320636f6e747261637421726c704765744e65787455696e7436343a2064617461206c6f6e676572207468616e203820627974657345746843726f7373436861696e2063616c6c20627573696e65737320636f6e74726163742072657475726e206973206e6f74207472756545746843726f7373436861696e4461746120636f6e74726163742068617320616c7265616479206265656e20696e697469616c697a65642153617665205a696f6e206e6578742065706f636820696420746f204461746120636f6e7472616374206661696c656421746865207472616e73616374696f6e20686173206265656e20657865637574656421536176652065746854784861736820627920696e64657820746f204461746120636f6e7472616374206661696c65642153617665205a696f6e206e6578742065706f63682068656967687420746f204461746120636f6e7472616374206661696c656421726c704765744e65787455696e743235363a2064617461206c6f6e676572207468616e203332206279746573a265627a7a72315820720a7eeb71f8a38d41bffa1410b62c8834b6ed3cefdfbbacb772a500cb60b5e864736f6c63430005110032",
  "linkReferences": {},
  "deployedLinkReferences": {}
}