{
  "_format": "hh-sol-artifact-1",
  "contractName": "CCMPMock",
  "sourceName": "contracts/core/lockProxy/CCMPMock.sol",
  "abi": [
    {
      "inputs": [
        {
          "internalType": "address",
          "name": "_tunnelCCM",
          "type": "address"
        }
      ],
      "payable": false,
      "stateMutability": "nonpayable",
      "type": "constructor"
    },
    {
      "constant": true,
      "inputs": [],
      "name": "getEthCrossChainManager",
      "outputs": [
        {
          "internalType": "address",
          "name": "",
          "type": "address"
        }
      ],
      "payable": false,
      "stateMutability": "view",
      "type": "function"
    },
    {
      "constant": true,
      "inputs": [],
      "name": "tunnelCCM",
      "outputs": [
        {
          "internalType": "address",
          "name": "",
          "type": "address"
        }
      ],
      "payable": false,
      "stateMutability": "view",
      "type": "function"
    }
  ],
  "bytecode": "0x608060405234801561001057600080fd5b506040516101e63803806101e68339818101604052602081101561003357600080fd5b8101908080519060200190929190505050806000806101000a81548173ffffffffffffffffffffffffffffffffffffffff021916908373ffffffffffffffffffffffffffffffffffffffff16021790555050610152806100946000396000f3fe608060405234801561001057600080fd5b50600436106100365760003560e01c806387939a7f1461003b578063ee371e3c14610085575b600080fd5b6100436100cf565b604051808273ffffffffffffffffffffffffffffffffffffffff1673ffffffffffffffffffffffffffffffffffffffff16815260200191505060405180910390f35b61008d6100f8565b604051808273ffffffffffffffffffffffffffffffffffffffff1673ffffffffffffffffffffffffffffffffffffffff16815260200191505060405180910390f35b60008060009054906101000a900473ffffffffffffffffffffffffffffffffffffffff16905090565b6000809054906101000a900473ffffffffffffffffffffffffffffffffffffffff168156fea265627a7a723158208827c66fd774b7b43827ed710b411a4058ce9b6a5a3cbfe4682a7a3edd2aed5d64736f6c63430005110032",
  "linkReferences": {},
  "deployedLinkReferences": {}
}