{
  "_format": "hh-sol-artifact-1",
  "contractName": "CallerSigMsgGen",
  "sourceName": "contracts/mocks/caller/callerMock.sol",
  "abi": [
    {
      "constant": true,
      "inputs": [
        {
          "internalType": "uint256",
          "name": "_salt",
          "type": "uint256"
        },
        {
          "internalType": "address",
          "name": "_logic",
          "type": "address"
        },
        {
          "internalType": "address",
          "name": "_admin",
          "type": "address"
        },
        {
          "internalType": "bytes",
          "name": "_data",
          "type": "bytes"
        },
        {
          "internalType": "address",
          "name": "_factory",
          "type": "address"
        }
      ],
      "name": "getSigMsg",
      "outputs": [
        {
          "internalType": "bytes32",
          "name": "",
          "type": "bytes32"
        }
      ],
      "payable": false,
      "stateMutability": "pure",
      "type": "function"
    }
  ],
  "bytecode": "0x608060405234801561001057600080fd5b506102ca806100206000396000f3fe608060405234801561001057600080fd5b506004361061002b5760003560e01c8063abbcde7714610030575b600080fd5b610153600480360360a081101561004657600080fd5b8101908080359060200190929190803573ffffffffffffffffffffffffffffffffffffffff169060200190929190803573ffffffffffffffffffffffffffffffffffffffff169060200190929190803590602001906401000000008111156100ad57600080fd5b8201836020820111156100bf57600080fd5b803590602001918460018302840111640100000000831117156100e157600080fd5b91908080601f016020809104026020016040519081016040528093929190818152602001838380828437600081840152601f19601f820116905080830192505050505050509192919290803573ffffffffffffffffffffffffffffffffffffffff169060200190929190505050610169565b6040518082815260200191505060405180910390f35b60008585858585604051602001808681526020018573ffffffffffffffffffffffffffffffffffffffff1673ffffffffffffffffffffffffffffffffffffffff1660601b81526014018473ffffffffffffffffffffffffffffffffffffffff1673ffffffffffffffffffffffffffffffffffffffff1660601b815260140183805190602001908083835b6020831061021657805182526020820191506020810190506020830392506101f3565b6001836020036101000a0380198251168184511680821785525050505050509050018273ffffffffffffffffffffffffffffffffffffffff1673ffffffffffffffffffffffffffffffffffffffff1660601b8152601401955050505050506040516020818303038152906040528051906020012090509594505050505056fea265627a7a723158207c11abb2a640b9636b54939ae08efcfe771df01d6026dae54ffb43e37f04fb1064736f6c63430005110032",
  "linkReferences": {},
  "deployedLinkReferences": {}
}