{
  "_format": "hh-sol-artifact-1",
  "contractName": "EthSigMsgGen",
  "sourceName": "contracts/mocks/caller/callerMock.sol",
  "abi": [
    {
      "constant": true,
      "inputs": [
        {
          "internalType": "bytes",
          "name": "_msg",
          "type": "bytes"
        }
      ],
      "name": "hashMsg",
      "outputs": [
        {
          "internalType": "bytes32",
          "name": "",
          "type": "bytes32"
        }
      ],
      "payable": false,
      "stateMutability": "pure",
      "type": "function"
    },
    {
      "constant": true,
      "inputs": [
        {
          "internalType": "bytes",
          "name": "_msg",
          "type": "bytes"
        }
      ],
      "name": "msgToEthSignedMessageHash",
      "outputs": [
        {
          "internalType": "bytes32",
          "name": "",
          "type": "bytes32"
        }
      ],
      "payable": false,
      "stateMutability": "pure",
      "type": "function"
    },
    {
      "constant": true,
      "inputs": [
        {
          "internalType": "bytes32",
          "name": "hash",
          "type": "bytes32"
        }
      ],
      "name": "toEthSignedMessageHash",
      "outputs": [
        {
          "internalType": "bytes32",
          "name": "",
          "type": "bytes32"
        }
      ],
      "payable": false,
      "stateMutability": "pure",
      "type": "function"
    }
  ],
  "bytecode": "0x608060405234801561001057600080fd5b506102de806100206000396000f3fe608060405234801561001057600080fd5b50600436106100415760003560e01c8063647d3ad614610046578063918a15cf14610115578063c300c71514610157575b600080fd5b6100ff6004803603602081101561005c57600080fd5b810190808035906020019064010000000081111561007957600080fd5b82018360208201111561008b57600080fd5b803590602001918460018302840111640100000000831117156100ad57600080fd5b91908080601f016020809104026020016040519081016040528093929190818152602001838380828437600081840152601f19601f820116905080830192505050505050509192919290505050610226565b6040518082815260200191505060405180910390f35b6101416004803603602081101561012b57600080fd5b8101908080359060200190929190505050610237565b6040518082815260200191505060405180910390f35b6102106004803603602081101561016d57600080fd5b810190808035906020019064010000000081111561018a57600080fd5b82018360208201111561019c57600080fd5b803590602001918460018302840111640100000000831117156101be57600080fd5b91908080601f016020809104026020016040519081016040528093929190818152602001838380828437600081840152601f19601f82011690508083019250505050505050919291929050505061028f565b6040518082815260200191505060405180910390f35b600081805190602001209050919050565b60008160405160200180807f19457468657265756d205369676e6564204d6573736167653a0a333200000000815250601c01828152602001915050604051602081830303815290604052805190602001209050919050565b60006102a261029d83610226565b610237565b905091905056fea265627a7a723158202fdd9d8484922fb3847b566e1fac9f12846eca7f1f7256cf038c259228bdf94064736f6c63430005110032",
  "linkReferences": {},
  "deployedLinkReferences": {}
}