{
	"data": {
		"bytecode": {
			"linkReferences": {},
			"object": "6080604052600062000016620000ba60201b60201c565b9050806000806101000a81548173ffffffffffffffffffffffffffffffffffffffff021916908373ffffffffffffffffffffffffffffffffffffffff1602179055508073ffffffffffffffffffffffffffffffffffffffff16600073ffffffffffffffffffffffffffffffffffffffff167f8be0079c531659141344cd1fd0a4f28419497f9722a3daafe3b4186f6b6457e060405160405180910390a350620000c2565b600033905090565b615fae80620000d26000396000f3fe60806040526004361061014b5760003560e01c80636bc9e760116100b65780639e5767aa1161006f5780639e5767aa14610543578063af9980f014610580578063d798f881146105a9578063f2fde38b146105d4578063f3fef3a3146105fd578063f45346dc1461063a5761014b565b80636bc9e7601461042c5780636f3326d514610469578063715018a6146104a657806384a6d055146104bd5780638da5cb5b146104ed5780638f32d59b146105185761014b565b806347e7ef241161010857806347e7ef24146102be5780634f7d9808146102fb57806353d1d2771461033857806359c589a11461037557806361c6617d146103b257806369328dec146103ef5761014b565b806306af4b9f146101505780630892cf481461018d57806325a9f900146101ca5780633348f63b146102075780633389279d14610244578063379b98f614610281575b600080fd5b34801561015c57600080fd5b50610177600480360361017291908101906144a4565b610677565b604051610184919061571a565b60405180910390f35b34801561019957600080fd5b506101b460048036036101af9190810190614289565b6109a8565b6040516101c1919061571a565b60405180910390f35b3480156101d657600080fd5b506101f160048036036101ec919081019061440f565b610e2c565b6040516101fe919061571a565b60405180910390f35b34801561021357600080fd5b5061022e6004803603610229919081019061413b565b610fa1565b60405161023b919061571a565b60405180910390f35b34801561025057600080fd5b5061026b60048036036102669190810190613f3f565b6110b3565b60405161027891906154e5565b60405180910390f35b34801561028d57600080fd5b506102a860048036036102a39190810190614575565b6110e6565b6040516102b5919061571a565b60405180910390f35b3480156102ca57600080fd5b506102e560048036036102e09190810190614074565b6111ae565b6040516102f2919061571a565b60405180910390f35b34801561030757600080fd5b50610322600480360361031d91908101906140ff565b611332565b60405161032f9190615735565b60405180910390f35b34801561034457600080fd5b5061035f600480360361035a9190810190613fcd565b6113ef565b60405161036c919061571a565b60405180910390f35b34801561038157600080fd5b5061039c60048036036103979190810190613f3f565b611678565b6040516103a99190615c17565b60405180910390f35b3480156103be57600080fd5b506103d960048036036103d4919081019061421d565b61176a565b6040516103e6919061571a565b60405180910390f35b3480156103fb57600080fd5b50610416600480360361041191908101906140b0565b611921565b604051610423919061571a565b60405180910390f35b34801561043857600080fd5b50610453600480360361044e9190810190613f91565b611aa6565b604051610460919061571a565b60405180910390f35b34801561047557600080fd5b50610490600480360361048b9190810190614378565b611bb0565b60405161049d919061571a565b60405180910390f35b3480156104b257600080fd5b506104bb611dec565b005b6104d760048036036104d291908101906141a2565b611ef2565b6040516104e4919061571a565b60405180910390f35b3480156104f957600080fd5b506105026123d8565b60405161050f91906154e5565b60405180910390f35b34801561052457600080fd5b5061052d612401565b60405161053a919061571a565b60405180910390f35b34801561054f57600080fd5b5061056a6004803603610565919081019061454c565b61245f565b6040516105779190615735565b60405180910390f35b34801561058c57600080fd5b506105a760048036036105a29190810190613f3f565b61250f565b005b3480156105b557600080fd5b506105be6125f3565b6040516105cb91906154e5565b60405180910390f35b3480156105e057600080fd5b506105fb60048036036105f69190810190613f3f565b612619565b005b34801561060957600080fd5b50610624600480360361061f9190810190614074565b61266c565b604051610631919061571a565b60405180910390f35b34801561064657600080fd5b50610661600480360361065c91908101906140b0565b6127f0565b60405161066e919061571a565b60405180910390f35b600080600160009054906101000a900473ffffffffffffffffffffffffffffffffffffffff1690508073ffffffffffffffffffffffffffffffffffffffff166387939a7f6040518163ffffffff1660e01b815260040160206040518083038186803b1580156106e557600080fd5b505afa1580156106f9573d6000803e3d6000fd5b505050506040513d601f19601f8201168201806040525061071d9190810190613f68565b73ffffffffffffffffffffffffffffffffffffffff1661073b612975565b73ffffffffffffffffffffffffffffffffffffffff1614610791576040517f08c379a0000000000000000000000000000000000000000000000000000000008152600401610788906158f7565b60405180910390fd5b610799613bd9565b6107a28661297d565b90506000855114156107e9576040517f08c379a00000000000000000000000000000000000000000000000000000000081526004016107e090615937565b60405180910390fd5b610819600260008667ffffffffffffffff1667ffffffffffffffff168152602001908152602001600020866129e5565b610858576040517f08c379a000000000000000000000000000000000000000000000000000000000815260040161084f90615b97565b60405180910390fd5b600081600001515114156108a1576040517f08c379a000000000000000000000000000000000000000000000000000000000815260040161089890615877565b60405180910390fd5b60006108b08260000151612a9d565b9050600082602001515114156108fb576040517f08c379a00000000000000000000000000000000000000000000000000000000081526004016108f290615a37565b60405180910390fd5b600061090a8360200151612a9d565b905061091b82828560400151612aef565b61095a576040517f08c379a000000000000000000000000000000000000000000000000000000000815260040161095190615897565b60405180910390fd5b7fd90288730b87c2b8e0c45bd82260fd22478aba30ae1c4d578b8daba9261604df8282856040015160405161099193929190615622565b60405180910390a160019450505050509392505050565b60006109b2612401565b6109f1576040517f08c379a00000000000000000000000000000000000000000000000000000000081526004016109e890615997565b60405180910390fd5b8451865114610a35576040517f08c379a0000000000000000000000000000000000000000000000000000000008152600401610a2c906158d7565b60405180910390fd5b8151835114610a79576040517f08c379a0000000000000000000000000000000000000000000000000000000008152600401610a70906158d7565b60405180910390fd5b60008090505b8551811015610e1e57838181518110610a9457fe5b602002602001015160036000898481518110610aac57fe5b602002602001015173ffffffffffffffffffffffffffffffffffffffff1673ffffffffffffffffffffffffffffffffffffffff1681526020019081526020016000206000878481518110610afc57fe5b602002602001015167ffffffffffffffff1667ffffffffffffffff1681526020019081526020016000209080519060200190610b39929190613bfa565b50828181518110610b4657fe5b602002602001015160036000888481518110610b5e57fe5b602002602001015173ffffffffffffffffffffffffffffffffffffffff1673ffffffffffffffffffffffffffffffffffffffff1681526020019081526020016000206000878481518110610bae57fe5b602002602001015167ffffffffffffffff1667ffffffffffffffff1681526020019081526020016000209080519060200190610beb929190613bfa565b50858181518110610bf857fe5b602002602001015160046000898481518110610c1057fe5b602002602001015173ffffffffffffffffffffffffffffffffffffffff1673ffffffffffffffffffffffffffffffffffffffff16815260200190815260200160002060006101000a81548173ffffffffffffffffffffffffffffffffffffffff021916908373ffffffffffffffffffffffffffffffffffffffff1602179055507f1628c8374c1bdfeb2275fd9f4c90562fd3fae974783dc522c8234e36abcfc58e878281518110610cbd57fe5b6020026020010151868381518110610cd157fe5b6020026020010151868481518110610ce557fe5b6020026020010151610d098b8681518110610cfc57fe5b6020026020010151611678565b604051610d1994939291906156ce565b60405180910390a17f1628c8374c1bdfeb2275fd9f4c90562fd3fae974783dc522c8234e36abcfc58e868281518110610d4e57fe5b6020026020010151868381518110610d6257fe5b6020026020010151858481518110610d7657fe5b6020026020010151610d9a8a8681518110610d8d57fe5b6020026020010151611678565b604051610daa94939291906156ce565b60405180910390a17f2319c5345cde8ceb76a957b55d75082616215452400c34305e4e6adaaf42f711878281518110610ddf57fe5b6020026020010151878381518110610df357fe5b6020026020010151604051610e09929190615545565b60405180910390a18080600101915050610a7f565b506001905095945050505050565b6000610e36612401565b610e75576040517f08c379a0000000000000000000000000000000000000000000000000000000008152600401610e6c90615997565b60405180910390fd5b8151835114610eb9576040517f08c379a0000000000000000000000000000000000000000000000000000000008152600401610eb090615977565b60405180910390fd5b60008090505b8351811015610f9657828181518110610ed457fe5b602002602001015160026000868481518110610eec57fe5b602002602001015167ffffffffffffffff1667ffffffffffffffff1681526020019081526020016000209080519060200190610f29929190613bfa565b507fdacd7d303272a3b58aec6620d6d1fb588f4996a5b46858ed437f1c34348f2d0f848281518110610f5757fe5b6020026020010151848381518110610f6b57fe5b6020026020010151604051610f81929190615c32565b60405180910390a18080600101915050610ebf565b506001905092915050565b6000610fab612401565b610fea576040517f08c379a0000000000000000000000000000000000000000000000000000000008152600401610fe190615997565b60405180910390fd5b81600360008673ffffffffffffffffffffffffffffffffffffffff1673ffffffffffffffffffffffffffffffffffffffff16815260200190815260200160002060008567ffffffffffffffff1667ffffffffffffffff1681526020019081526020016000209080519060200190611062929190613bfa565b507f1628c8374c1bdfeb2275fd9f4c90562fd3fae974783dc522c8234e36abcfc58e84848461109088611678565b6040516110a09493929190615682565b60405180910390a1600190509392505050565b60046020528060005260406000206000915054906101000a900473ffffffffffffffffffffffffffffffffffffffff1681565b60006110f0612401565b61112f576040517f08c379a000000000000000000000000000000000000000000000000000000000815260040161112690615997565b60405180910390fd5b81600260008567ffffffffffffffff1667ffffffffffffffff168152602001908152602001600020908051906020019061116a929190613bfa565b507fdacd7d303272a3b58aec6620d6d1fb588f4996a5b46858ed437f1c34348f2d0f838360405161119c929190615c62565b60405180910390a16001905092915050565b6000808214156111f3576040517f08c379a00000000000000000000000000000000000000000000000000000000081526004016111ea90615817565b60405180910390fd5b6111fd8383612bc7565b61123c576040517f08c379a000000000000000000000000000000000000000000000000000000000815260040161123390615857565b60405180910390fd5b6000600460008573ffffffffffffffffffffffffffffffffffffffff1673ffffffffffffffffffffffffffffffffffffffff16815260200190815260200160002060009054906101000a900473ffffffffffffffffffffffffffffffffffffffff1690506112ab813385612aef565b6112ea576040517f08c379a00000000000000000000000000000000000000000000000000000000081526004016112e190615a57565b60405180910390fd5b7f30b853cf217db6b44a3d46920798a5308afc086c638198e6c161bd7fa12a1d3a3385838660405161131f9493929190615500565b60405180910390a1600191505092915050565b6003602052816000526040600020602052806000526040600020600091509150508054600181600116156101000203166002900480601f0160208091040260200160405190810160405280929190818152602001828054600181600116156101000203166002900480156113e75780601f106113bc576101008083540402835291602001916113e7565b820191906000526020600020905b8154815290600101906020018083116113ca57829003601f168201915b505050505081565b60006113f9612401565b611438576040517f08c379a000000000000000000000000000000000000000000000000000000000815260040161142f90615997565b60405180910390fd5b82600360008873ffffffffffffffffffffffffffffffffffffffff1673ffffffffffffffffffffffffffffffffffffffff16815260200190815260200160002060008667ffffffffffffffff1667ffffffffffffffff16815260200190815260200160002090805190602001906114b0929190613bfa565b5081600360008773ffffffffffffffffffffffffffffffffffffffff1673ffffffffffffffffffffffffffffffffffffffff16815260200190815260200160002060008667ffffffffffffffff1667ffffffffffffffff1681526020019081526020016000209080519060200190611529929190613bfa565b5084600460008873ffffffffffffffffffffffffffffffffffffffff1673ffffffffffffffffffffffffffffffffffffffff16815260200190815260200160002060006101000a81548173ffffffffffffffffffffffffffffffffffffffff021916908373ffffffffffffffffffffffffffffffffffffffff1602179055507f1628c8374c1bdfeb2275fd9f4c90562fd3fae974783dc522c8234e36abcfc58e8685856115d58a611678565b6040516115e59493929190615682565b60405180910390a17f1628c8374c1bdfeb2275fd9f4c90562fd3fae974783dc522c8234e36abcfc58e85858461161a89611678565b60405161162a9493929190615682565b60405180910390a17f2319c5345cde8ceb76a957b55d75082616215452400c34305e4e6adaaf42f7118686604051611663929190615545565b60405180910390a16001905095945050505050565b60008073ffffffffffffffffffffffffffffffffffffffff168273ffffffffffffffffffffffffffffffffffffffff1614156116d35760003090508073ffffffffffffffffffffffffffffffffffffffff1631915050611765565b60008290508073ffffffffffffffffffffffffffffffffffffffff166370a08231306040518263ffffffff1660e01b815260040161171191906154e5565b60206040518083038186803b15801561172957600080fd5b505afa15801561173d573d6000803e3d6000fd5b505050506040513d601f19601f820116820180604052506117619190810190614523565b9150505b919050565b6000611774612401565b6117b3576040517f08c379a00000000000000000000000000000000000000000000000000000000081526004016117aa90615997565b60405180910390fd5b81518351146117f7576040517f08c379a00000000000000000000000000000000000000000000000000000000081526004016117ee90615bf7565b60405180910390fd5b60008090505b83518110156119165782818151811061181257fe5b60200260200101516004600086848151811061182a57fe5b602002602001015173ffffffffffffffffffffffffffffffffffffffff1673ffffffffffffffffffffffffffffffffffffffff16815260200190815260200160002060006101000a81548173ffffffffffffffffffffffffffffffffffffffff021916908373ffffffffffffffffffffffffffffffffffffffff1602179055507f2319c5345cde8ceb76a957b55d75082616215452400c34305e4e6adaaf42f7118482815181106118d757fe5b60200260200101518483815181106118eb57fe5b6020026020010151604051611901929190615545565b60405180910390a180806001019150506117fd565b506001905092915050565b600080831415611966576040517f08c379a000000000000000000000000000000000000000000000000000000000815260040161195d90615817565b60405180910390fd5b6000600460008673ffffffffffffffffffffffffffffffffffffffff1673ffffffffffffffffffffffffffffffffffffffff16815260200190815260200160002060009054906101000a900473ffffffffffffffffffffffffffffffffffffffff1690506119d48185612bc7565b611a13576040517f08c379a0000000000000000000000000000000000000000000000000000000008152600401611a0a90615a97565b60405180910390fd5b611a1e858486612aef565b611a5d576040517f08c379a0000000000000000000000000000000000000000000000000000000008152600401611a5490615757565b60405180910390fd5b7fcc7320d7ac24f61b5790719a3c0d7c3cdb569d0affd3996fd075136aa97fb51683868387604051611a9294939291906155dd565b60405180910390a160019150509392505050565b6000611ab0612401565b611aef576040517f08c379a0000000000000000000000000000000000000000000000000000000008152600401611ae690615997565b60405180910390fd5b81600460008573ffffffffffffffffffffffffffffffffffffffff1673ffffffffffffffffffffffffffffffffffffffff16815260200190815260200160002060006101000a81548173ffffffffffffffffffffffffffffffffffffffff021916908373ffffffffffffffffffffffffffffffffffffffff1602179055507f2319c5345cde8ceb76a957b55d75082616215452400c34305e4e6adaaf42f7118383604051611b9e929190615545565b60405180910390a16001905092915050565b6000611bba612401565b611bf9576040517f08c379a0000000000000000000000000000000000000000000000000000000008152600401611bf090615997565b60405180910390fd5b8351835114611c3d576040517f08c379a0000000000000000000000000000000000000000000000000000000008152600401611c3490615ab7565b60405180910390fd5b8151835114611c81576040517f08c379a0000000000000000000000000000000000000000000000000000000008152600401611c7890615ab7565b60405180910390fd5b60008090505b8351811015611de057828181518110611c9c57fe5b602002602001015160036000878481518110611cb457fe5b602002602001015173ffffffffffffffffffffffffffffffffffffffff1673ffffffffffffffffffffffffffffffffffffffff1681526020019081526020016000206000868481518110611d0457fe5b602002602001015167ffffffffffffffff1667ffffffffffffffff1681526020019081526020016000209080519060200190611d41929190613bfa565b507f1628c8374c1bdfeb2275fd9f4c90562fd3fae974783dc522c8234e36abcfc58e858281518110611d6f57fe5b6020026020010151858381518110611d8357fe5b6020026020010151858481518110611d9757fe5b6020026020010151611dbb898681518110611dae57fe5b6020026020010151611678565b604051611dcb94939291906156ce565b60405180910390a18080600101915050611c87565b50600190509392505050565b611df4612401565b611e33576040517f08c379a0000000000000000000000000000000000000000000000000000000008152600401611e2a90615997565b60405180910390fd5b600073ffffffffffffffffffffffffffffffffffffffff166000809054906101000a900473ffffffffffffffffffffffffffffffffffffffff1673ffffffffffffffffffffffffffffffffffffffff167f8be0079c531659141344cd1fd0a4f28419497f9722a3daafe3b4186f6b6457e060405160405180910390a360008060006101000a81548173ffffffffffffffffffffffffffffffffffffffff021916908373ffffffffffffffffffffffffffffffffffffffff160217905550565b600080821415611f37576040517f08c379a0000000000000000000000000000000000000000000000000000000008152600401611f2e90615817565b60405180910390fd5b611f418583612bc7565b611f80576040517f08c379a0000000000000000000000000000000000000000000000000000000008152600401611f7790615857565b60405180910390fd5b6060600360008773ffffffffffffffffffffffffffffffffffffffff1673ffffffffffffffffffffffffffffffffffffffff16815260200190815260200160002060008667ffffffffffffffff1667ffffffffffffffff1681526020019081526020016000208054600181600116156101000203166002900480601f01602080910402602001604051908101604052809291908181526020018280546001816001161561010002031660029004801561207a5780601f1061204f5761010080835404028352916020019161207a565b820191906000526020600020905b81548152906001019060200180831161205d57829003601f168201915b505050505090506000815114156120c6576040517f08c379a00000000000000000000000000000000000000000000000000000000081526004016120bd90615a17565b60405180910390fd5b6120ce613bd9565b604051806060016040528083815260200186815260200185815250905060606120f682612d28565b90506000600160009054906101000a900473ffffffffffffffffffffffffffffffffffffffff16905060008173ffffffffffffffffffffffffffffffffffffffff166387939a7f6040518163ffffffff1660e01b815260040160206040518083038186803b15801561216757600080fd5b505afa15801561217b573d6000803e3d6000fd5b505050506040513d601f19601f8201168201806040525061219f9190810190613f68565b905060008190506060600260008c67ffffffffffffffff1667ffffffffffffffff1681526020019081526020016000208054600181600116156101000203166002900480601f0160208091040260200160405190810160405280929190818152602001828054600181600116156101000203166002900480156122635780601f1061223857610100808354040283529160200191612263565b820191906000526020600020905b81548152906001019060200180831161224657829003601f168201915b505050505090506000815114156122af576040517f08c379a00000000000000000000000000000000000000000000000000000000081526004016122a6906158b7565b60405180910390fd5b8173ffffffffffffffffffffffffffffffffffffffff1663bd5cf6258c83886040518463ffffffff1660e01b81526004016122ec93929190615c92565b602060405180830381600087803b15801561230657600080fd5b505af115801561231a573d6000803e3d6000fd5b505050506040513d601f19601f8201168201806040525061233e919081019061447b565b61237d576040517f08c379a0000000000000000000000000000000000000000000000000000000008152600401612374906159b7565b60405180910390fd5b7f8636abd6d0e464fe725a13346c7ac779b73561c705506044a2e6b2cdb1295ea58c6123a7612975565b8d8a8e8e6040516123bd9695949392919061556e565b60405180910390a16001975050505050505050949350505050565b60008060009054906101000a900473ffffffffffffffffffffffffffffffffffffffff16905090565b60008060009054906101000a900473ffffffffffffffffffffffffffffffffffffffff1673ffffffffffffffffffffffffffffffffffffffff16612443612975565b73ffffffffffffffffffffffffffffffffffffffff1614905090565b60026020528060005260406000206000915090508054600181600116156101000203166002900480601f0160208091040260200160405190810160405280929190818152602001828054600181600116156101000203166002900480156125075780601f106124dc57610100808354040283529160200191612507565b820191906000526020600020905b8154815290600101906020018083116124ea57829003601f168201915b505050505081565b612517612401565b612556576040517f08c379a000000000000000000000000000000000000000000000000000000000815260040161254d90615997565b60405180910390fd5b80600160006101000a81548173ffffffffffffffffffffffffffffffffffffffff021916908373ffffffffffffffffffffffffffffffffffffffff1602179055507f43b1a8ec337adb61e8311ed025d99c80db65c02fe5c5027c1b6a93b40970cec4600160009054906101000a900473ffffffffffffffffffffffffffffffffffffffff166040516125e891906154e5565b60405180910390a150565b600160009054906101000a900473ffffffffffffffffffffffffffffffffffffffff1681565b612621612401565b612660576040517f08c379a000000000000000000000000000000000000000000000000000000000815260040161265790615997565b60405180910390fd5b61266981612d7e565b50565b6000808214156126b1576040517f08c379a00000000000000000000000000000000000000000000000000000000081526004016126a890615817565b60405180910390fd5b6000600460008573ffffffffffffffffffffffffffffffffffffffff1673ffffffffffffffffffffffffffffffffffffffff16815260200190815260200160002060009054906101000a900473ffffffffffffffffffffffffffffffffffffffff16905061271f8184612bc7565b61275e576040517f08c379a000000000000000000000000000000000000000000000000000000000815260040161275590615a97565b60405180910390fd5b612769843385612aef565b6127a8576040517f08c379a000000000000000000000000000000000000000000000000000000000815260040161279f90615757565b60405180910390fd5b7fcc7320d7ac24f61b5790719a3c0d7c3cdb569d0affd3996fd075136aa97fb516338583866040516127dd9493929190615500565b60405180910390a1600191505092915050565b600080831415612835576040517f08c379a000000000000000000000000000000000000000000000000000000000815260040161282c90615817565b60405180910390fd5b61283f8484612bc7565b61287e576040517f08c379a000000000000000000000000000000000000000000000000000000000815260040161287590615857565b60405180910390fd5b6000600460008673ffffffffffffffffffffffffffffffffffffffff1673ffffffffffffffffffffffffffffffffffffffff16815260200190815260200160002060009054906101000a900473ffffffffffffffffffffffffffffffffffffffff1690506128ed818486612aef565b61292c576040517f08c379a000000000000000000000000000000000000000000000000000000000815260040161292390615a57565b60405180910390fd5b7f30b853cf217db6b44a3d46920798a5308afc086c638198e6c161bd7fa12a1d3a8386838760405161296194939291906155dd565b60405180910390a160019150509392505050565b600033905090565b612985613bd9565b61298d613bd9565b600080905061299c8482612eac565b8191508360000181935082905250506129b58482612eac565b8191508360200181935082905250506129ce8482612f96565b836040018193508281525050508192505050919050565b60008060019050835460026001808316156101000203821604845180821460018114612a145760009450612a8f565b8215612a8e576020831060018114612a7257600189600052602060002060208a018581015b600284828410011415612a69578151835414612a585760009950600093505b600183019250602082019150612a39565b50505050612a8c565b61010080860402945060208801518514612a8b57600095505b5b505b5b505050508091505092915050565b60006014825114612ae3576040517f08c379a0000000000000000000000000000000000000000000000000000000008152600401612ada906157b7565b60405180910390fd5b60148201519050919050565b60008073ffffffffffffffffffffffffffffffffffffffff168473ffffffffffffffffffffffffffffffffffffffff161415612b71578273ffffffffffffffffffffffffffffffffffffffff166108fc839081150290604051600060405180830381858888f19350505050158015612b6b573d6000803e3d6000fd5b50612bbc565b612b7c8484846130a6565b612bbb576040517f08c379a0000000000000000000000000000000000000000000000000000000008152600401612bb2906157d7565b60405180910390fd5b5b600190509392505050565b60008073ffffffffffffffffffffffffffffffffffffffff168373ffffffffffffffffffffffffffffffffffffffff161415612c88576000341415612c41576040517f08c379a0000000000000000000000000000000000000000000000000000000008152600401612c3890615bd7565b60405180910390fd5b813414612c83576040517f08c379a0000000000000000000000000000000000000000000000000000000008152600401612c7a90615ad7565b60405180910390fd5b612d1e565b60003414612ccb576040517f08c379a0000000000000000000000000000000000000000000000000000000008152600401612cc290615957565b60405180910390fd5b612cde83612cd7612975565b30856130e3565b612d1d576040517f08c379a0000000000000000000000000000000000000000000000000000000008152600401612d14906157d7565b60405180910390fd5b5b6001905092915050565b606080612d388360000151613123565b612d458460200151613123565b612d52856040015161315d565b604051602001612d64939291906154b4565b604051602081830303815290604052905080915050919050565b600073ffffffffffffffffffffffffffffffffffffffff168173ffffffffffffffffffffffffffffffffffffffff161415612dee576040517f08c379a0000000000000000000000000000000000000000000000000000000008152600401612de5906157f7565b60405180910390fd5b8073ffffffffffffffffffffffffffffffffffffffff166000809054906101000a900473ffffffffffffffffffffffffffffffffffffffff1673ffffffffffffffffffffffffffffffffffffffff167f8be0079c531659141344cd1fd0a4f28419497f9722a3daafe3b4186f6b6457e060405160405180910390a3806000806101000a81548173ffffffffffffffffffffffffffffffffffffffff021916908373ffffffffffffffffffffffffffffffffffffffff16021790555050565b6060600080612ebb8585613209565b8095508192505050845181850111158015612ed7575080840184105b612f16576040517f08c379a0000000000000000000000000000000000000000000000000000000008152600401612f0d90615b77565b60405180910390fd5b6060811560008114612f3357604051915060208201604052612f84565b6040519150601f8316801560200281840101848101888315602002848c0101015b81831015612f715780518352602083019250602081019050612f54565b50858552601f19601f8301166040525050505b50808286019350935050509250929050565b60008083516020840111158015612faf57506020830183105b612fee576040517f08c379a0000000000000000000000000000000000000000000000000000000008152600401612fe590615777565b60405180910390fd5b600060405160206000600182038760208a0101515b838310156130235780821a83860153600183019250600182039150613003565b5050508082016040528151925050507f7fffffffffffffffffffffffffffffffffffffffffffffffffffffffffffffff811115613095576040517f08c379a000000000000000000000000000000000000000000000000000000000815260040161308c90615917565b60405180910390fd5b806020850192509250509250929050565b6000808490506130d784848373ffffffffffffffffffffffffffffffffffffffff1661346e9092919063ffffffff16565b60019150509392505050565b6000808590506131168585858473ffffffffffffffffffffffffffffffffffffffff1661350d909392919063ffffffff16565b6001915050949350505050565b6060600082519050613134816135af565b83604051602001613146929190615490565b604051602081830303815290604052915050919050565b60607f7fffffffffffffffffffffffffffffffffffffffffffffffffffffffffffffff8211156131c2576040517f08c379a00000000000000000000000000000000000000000000000000000000081526004016131b9906159f7565b60405180910390fd5b6060604051905060208082526000601f5b828210156131f65785811a826020860101536001820191506001810390506131d3565b5050604082016040525080915050919050565b600080600061321885856136b4565b8095508192505050600060fd60f81b827effffffffffffffffffffffffffffffffffffffffffffffffffffffffffffff191614156132c85761325a8686613728565b8161ffff169150809650819250505060fd811015801561327c575061ffff8111155b6132bb576040517f08c379a00000000000000000000000000000000000000000000000000000000081526004016132b290615797565b60405180910390fd5b8085935093505050613467565b60fe60f81b827effffffffffffffffffffffffffffffffffffffffffffffffffffffffffffff191614156133725761330086866137bc565b8163ffffffff169150809650819250505061ffff81118015613326575063ffffffff8111155b613365576040517f08c379a000000000000000000000000000000000000000000000000000000000815260040161335c90615a77565b60405180910390fd5b8085935093505050613467565b60ff60f81b827effffffffffffffffffffffffffffffffffffffffffffffffffffffffffffff19161415613412576133aa868661386e565b8167ffffffffffffffff169150809650819250505063ffffffff8111613405576040517f08c379a00000000000000000000000000000000000000000000000000000000081526004016133fc90615a77565b60405180910390fd5b8085935093505050613467565b8160f81c60ff16905060fd811061345e576040517f08c379a000000000000000000000000000000000000000000000000000000000815260040161345590615a77565b60405180910390fd5b80859350935050505b9250929050565b613508838473ffffffffffffffffffffffffffffffffffffffff1663a9059cbb905060e01b84846040516024016134a6929190615659565b604051602081830303815290604052907bffffffffffffffffffffffffffffffffffffffffffffffffffffffff19166020820180517bffffffffffffffffffffffffffffffffffffffffffffffffffffffff8381831617835250505050613920565b505050565b6135a9848573ffffffffffffffffffffffffffffffffffffffff166323b872dd905060e01b85858560405160240161354793929190615622565b604051602081830303815290604052907bffffffffffffffffffffffffffffffffffffffffffffffffffffffff19166020820180517bffffffffffffffffffffffffffffffffffffffffffffffffffffffff8381831617835250505050613920565b50505050565b606060fd8267ffffffffffffffff1610156135d4576135cd82613a7c565b90506136af565b61ffff8267ffffffffffffffff1611613624576135f460fd60f81b613aa1565b6135fd83613ab6565b60405160200161360e929190615490565b60405160208183030381529060405290506136af565b63ffffffff8267ffffffffffffffff16116136765761364660fe60f81b613aa1565b61364f83613afe565b604051602001613660929190615490565b60405160208183030381529060405290506136af565b61368360ff60f81b613aa1565b61368c83613b46565b60405160200161369d929190615490565b60405160208183030381529060405290505b919050565b600080835160018401111580156136cd57506001830183105b61370c576040517f08c379a0000000000000000000000000000000000000000000000000000000008152600401613703906159d7565b60405180910390fd5b6000836020860101519050806001850192509250509250929050565b6000808351600284011115801561374157506002830183105b613780576040517f08c379a000000000000000000000000000000000000000000000000000000000815260040161377790615af7565b60405180910390fd5b6000604051846020870101518060011a82538060001a600183015360028201604052601e82035192505050806002850192509250509250929050565b600080835160048401111580156137d557506004830183105b613814576040517f08c379a000000000000000000000000000000000000000000000000000000000815260040161380b90615b57565b60405180910390fd5b600060405160046000600182038760208a0101515b838310156138495780821a83860153600183019250600182039150613829565b5050508082016040528060200382035192505050806004850192509250509250929050565b6000808351600884011115801561388757506008830183105b6138c6576040517f08c379a00000000000000000000000000000000000000000000000000000000081526004016138bd90615b37565b60405180910390fd5b600060405160086000600182038760208a0101515b838310156138fb5780821a838601536001830192506001820391506138db565b5050508082016040528060200382035192505050806008850192509250509250929050565b61392982613b8e565b613968576040517f08c379a000000000000000000000000000000000000000000000000000000000815260040161395f90615bb7565b60405180910390fd5b600060608373ffffffffffffffffffffffffffffffffffffffff16836040516139919190615479565b6000604051808303816000865af19150503d80600081146139ce576040519150601f19603f3d011682016040523d82523d6000602084013e6139d3565b606091505b509150915081613a18576040517f08c379a0000000000000000000000000000000000000000000000000000000008152600401613a0f90615837565b60405180910390fd5b600081511115613a765780806020019051613a36919081019061447b565b613a75576040517f08c379a0000000000000000000000000000000000000000000000000000000008152600401613a6c90615b17565b60405180910390fd5b5b50505050565b6060806040519050600181528260f81b60208201526021810160405280915050919050565b6060613aaf8260f81c613a7c565b9050919050565b606080604051905060028082526000601f5b82821015613aeb5785811a82602086010153600182019150600181039050613ac8565b5050602282016040525080915050919050565b606080604051905060048082526000601f5b82821015613b335785811a82602086010153600182019150600181039050613b10565b5050602482016040525080915050919050565b606080604051905060088082526000601f5b82821015613b7b5785811a82602086010153600182019150600181039050613b58565b5050602882016040525080915050919050565b60008060007fc5d2460186f7233c927e7db2dcc703c0e500b653ca82273b7bfad8045d85a47060001b9050833f91506000801b8214158015613bd05750808214155b92505050919050565b60405180606001604052806060815260200160608152602001600081525090565b828054600181600116156101000203166002900490600052602060002090601f016020900481019282601f10613c3b57805160ff1916838001178555613c69565b82800160010185558215613c69579182015b82811115613c68578251825591602001919060010190613c4d565b5b509050613c769190613c7a565b5090565b613c9c91905b80821115613c98576000816000905550600101613c80565b5090565b90565b600081359050613cae81615f0f565b92915050565b600081519050613cc381615f0f565b92915050565b600082601f830112613cda57600080fd5b8135613ced613ce882615d17565b615cea565b91508181835260208401935060208101905083856020840282011115613d1257600080fd5b60005b83811015613d425781613d288882613c9f565b845260208401935060208301925050600181019050613d15565b5050505092915050565b600082601f830112613d5d57600080fd5b8135613d70613d6b82615d3f565b615cea565b9150818183526020840193506020810190508360005b83811015613db65781358601613d9c8882613e58565b845260208401935060208301925050600181019050613d86565b5050505092915050565b600082601f830112613dd157600080fd5b8135613de4613ddf82615d67565b615cea565b91508181835260208401935060208101905083856020840282011115613e0957600080fd5b60005b83811015613e395781613e1f8882613f2a565b845260208401935060208301925050600181019050613e0c565b5050505092915050565b600081519050613e5281615f26565b92915050565b600082601f830112613e6957600080fd5b8135613e7c613e7782615d8f565b615cea565b91508082526020830160208301858383011115613e9857600080fd5b613ea3838284615ebc565b50505092915050565b600082601f830112613ebd57600080fd5b8135613ed0613ecb82615dbb565b615cea565b91508082526020830160208301858383011115613eec57600080fd5b613ef7838284615ebc565b50505092915050565b600081359050613f0f81615f3d565b92915050565b600081519050613f2481615f3d565b92915050565b600081359050613f3981615f54565b92915050565b600060208284031215613f5157600080fd5b6000613f5f84828501613c9f565b91505092915050565b600060208284031215613f7a57600080fd5b6000613f8884828501613cb4565b91505092915050565b60008060408385031215613fa457600080fd5b6000613fb285828601613c9f565b9250506020613fc385828601613c9f565b9150509250929050565b600080600080600060a08688031215613fe557600080fd5b6000613ff388828901613c9f565b955050602061400488828901613c9f565b945050604061401588828901613f2a565b935050606086013567ffffffffffffffff81111561403257600080fd5b61403e88828901613eac565b925050608086013567ffffffffffffffff81111561405b57600080fd5b61406788828901613eac565b9150509295509295909350565b6000806040838503121561408757600080fd5b600061409585828601613c9f565b92505060206140a685828601613f00565b9150509250929050565b6000806000606084860312156140c557600080fd5b60006140d386828701613c9f565b93505060206140e486828701613f00565b92505060406140f586828701613c9f565b9150509250925092565b6000806040838503121561411257600080fd5b600061412085828601613c9f565b925050602061413185828601613f2a565b9150509250929050565b60008060006060848603121561415057600080fd5b600061415e86828701613c9f565b935050602061416f86828701613f2a565b925050604084013567ffffffffffffffff81111561418c57600080fd5b61419886828701613eac565b9150509250925092565b600080600080608085870312156141b857600080fd5b60006141c687828801613c9f565b94505060206141d787828801613f2a565b935050604085013567ffffffffffffffff8111156141f457600080fd5b61420087828801613eac565b925050606061421187828801613f00565b91505092959194509250565b6000806040838503121561423057600080fd5b600083013567ffffffffffffffff81111561424a57600080fd5b61425685828601613cc9565b925050602083013567ffffffffffffffff81111561427357600080fd5b61427f85828601613cc9565b9150509250929050565b600080600080600060a086880312156142a157600080fd5b600086013567ffffffffffffffff8111156142bb57600080fd5b6142c788828901613cc9565b955050602086013567ffffffffffffffff8111156142e457600080fd5b6142f088828901613cc9565b945050604086013567ffffffffffffffff81111561430d57600080fd5b61431988828901613dc0565b935050606086013567ffffffffffffffff81111561433657600080fd5b61434288828901613d4c565b925050608086013567ffffffffffffffff81111561435f57600080fd5b61436b88828901613d4c565b9150509295509295909350565b60008060006060848603121561438d57600080fd5b600084013567ffffffffffffffff8111156143a757600080fd5b6143b386828701613cc9565b935050602084013567ffffffffffffffff8111156143d057600080fd5b6143dc86828701613dc0565b925050604084013567ffffffffffffffff8111156143f957600080fd5b61440586828701613d4c565b9150509250925092565b6000806040838503121561442257600080fd5b600083013567ffffffffffffffff81111561443c57600080fd5b61444885828601613dc0565b925050602083013567ffffffffffffffff81111561446557600080fd5b61447185828601613d4c565b9150509250929050565b60006020828403121561448d57600080fd5b600061449b84828501613e43565b91505092915050565b6000806000606084860312156144b957600080fd5b600084013567ffffffffffffffff8111156144d357600080fd5b6144df86828701613eac565b935050602084013567ffffffffffffffff8111156144fc57600080fd5b61450886828701613eac565b925050604061451986828701613f2a565b9150509250925092565b60006020828403121561453557600080fd5b600061454384828501613f15565b91505092915050565b60006020828403121561455e57600080fd5b600061456c84828501613f2a565b91505092915050565b6000806040838503121561458857600080fd5b600061459685828601613f2a565b925050602083013567ffffffffffffffff8111156145b357600080fd5b6145bf85828601613eac565b9150509250929050565b6145d281615e86565b82525050565b6145e181615e2a565b82525050565b6145f081615e3c565b82525050565b600061460182615df2565b61460b8185615dfd565b935061461b818560208601615ecb565b61462481615efe565b840191505092915050565b600061463a82615df2565b6146448185615e0e565b9350614654818560208601615ecb565b80840191505092915050565b600061466b82615de7565b6146758185615dfd565b9350614685818560208601615ecb565b61468e81615efe565b840191505092915050565b60006146a6603e83615e19565b91507f7472616e736665722061737365742066726f6d206c6f636b5f70726f7879206360008301527f6f6e747261637420746f2066726f6d41646472657373206661696c65642100006020830152604082019050919050565b600061470c602383615e19565b91507f4e65787455696e743235352c206f66667365742065786365656473206d61786960008301527f6d756d00000000000000000000000000000000000000000000000000000000006020830152604082019050919050565b6000614772601f83615e19565b91507f4e65787455696e7431362c2076616c7565206f7574736964652072616e6765006000830152602082019050919050565b60006147b2602383615e19565b91507f6279746573206c656e67746820646f6573206e6f74206d61746368206164647260008301527f65737300000000000000000000000000000000000000000000000000000000006020830152604082019050919050565b6000614818603383615e19565b91507f7472616e7366657220657263323020617373657420746f206c6f636b5f70726f60008301527f787920636f6e7472616374206661696c656421000000000000000000000000006020830152604082019050919050565b600061487e602683615e19565b91507f4f776e61626c653a206e6577206f776e657220697320746865207a65726f206160008301527f64647265737300000000000000000000000000000000000000000000000000006020830152604082019050919050565b60006148e4601683615e19565b91507f616d6f756e742063616e6e6f74206265207a65726f21000000000000000000006000830152602082019050919050565b6000614924602083615e19565b91507f5361666545524332303a206c6f772d6c6576656c2063616c6c206661696c65646000830152602082019050919050565b6000614964603e83615e19565b91507f7472616e736665722061737365742066726f6d2066726f6d416464726573732060008301527f746f206c6f636b5f70726f787920636f6e7472616374206661696c65642100006020830152604082019050919050565b60006149ca601b83615e19565b91507f746f4173736574486173682063616e6e6f7420626520656d70747900000000006000830152602082019050919050565b6000614a0a603c83615e19565b91507f7472616e736665722061737365742066726f6d206c6f636b5f70726f7879206360008301527f6f6e747261637420746f20746f41646472657373206661696c656421000000006020830152604082019050919050565b6000614a70601983615e19565b91507f656d70747920696c6c6567616c20746f50726f787948617368000000000000006000830152602082019050919050565b6000614ab0602583615e19565b91507f62696e644c50416e64417373657442617463683a2061726773206c656e67746860008301527f20646966660000000000000000000000000000000000000000000000000000006020830152604082019050919050565b6000614b16602d83615e19565b91507f6d736753656e646572206973206e6f742045746843726f7373436861696e4d6160008301527f6e61676572436f6e7472616374000000000000000000000000000000000000006020830152604082019050919050565b6000614b7c601783615e19565b91507f56616c75652065786365656473207468652072616e67650000000000000000006000830152602082019050919050565b6000614bbc602b83615e19565b91507f66726f6d2070726f787920636f6e747261637420616464726573732063616e6e60008301527f6f7420626520656d7074790000000000000000000000000000000000000000006020830152604082019050919050565b6000614c22602283615e19565b91507f74686572652073686f756c64206265206e6f206574686572207472616e73666560008301527f72210000000000000000000000000000000000000000000000000000000000006020830152604082019050919050565b6000614c88602483615e19565b91507f62696e6450726f78794861736842617463683a2061726773206c656e6774682060008301527f64696666000000000000000000000000000000000000000000000000000000006020830152604082019050919050565b6000614cee602083615e19565b91507f4f776e61626c653a2063616c6c6572206973206e6f7420746865206f776e65726000830152602082019050919050565b6000614d2e602f83615e19565b91507f45746843726f7373436861696e4d616e616765722063726f7373436861696e2060008301527f6578656375746564206572726f722100000000000000000000000000000000006020830152604082019050919050565b6000614d94602083615e19565b91507f4e657874427974652c204f66667365742065786365656473206d6178696d756d6000830152602082019050919050565b6000614dd4600683615dfd565b91507f756e6c6f636b00000000000000000000000000000000000000000000000000006000830152602082019050919050565b6000614e14601b83615e19565b91507f56616c756520657863656564732075696e743235352072616e676500000000006000830152602082019050919050565b6000614e54601983615e19565b91507f656d70747920696c6c6567616c20746f417373657448617368000000000000006000830152602082019050919050565b6000614e94601983615e19565b91507f746f416464726573732063616e6e6f7420626520656d707479000000000000006000830152602082019050919050565b6000614ed4604b83615e19565b91507f7472616e736665722070726f6f66206f66206c69717569646974792066726f6d60008301527f206c6f636b5f70726f787920636f6e747261637420746f2066726f6d4164647260208301527f657373206661696c6564210000000000000000000000000000000000000000006040830152606082019050919050565b6000614f60602083615e19565b91507f4e65787456617255696e742c2076616c7565206f7574736964652072616e67656000830152602082019050919050565b6000614fa0604b83615e19565b91507f7472616e736665722070726f6f66206f66206c69717569646974792066726f6d60008301527f2066726f6d4164647265737320746f206c6f636b5f70726f787920636f6e747260208301527f616374206661696c6564210000000000000000000000000000000000000000006040830152606082019050919050565b600061502c602483615e19565b91507f62696e6441737365744861736842617463683a2061726773206c656e6774682060008301527f64696666000000000000000000000000000000000000000000000000000000006020830152604082019050919050565b6000615092602983615e19565b91507f7472616e73666572726564206574686572206973206e6f7420657175616c207460008301527f6f20616d6f756e742100000000000000000000000000000000000000000000006020830152604082019050919050565b60006150f8602283615e19565b91507f4e65787455696e7431362c206f66667365742065786365656473206d6178696d60008301527f756d0000000000000000000000000000000000000000000000000000000000006020830152604082019050919050565b600061515e602a83615e19565b91507f5361666545524332303a204552433230206f7065726174696f6e20646964206e60008301527f6f742073756363656564000000000000000000000000000000000000000000006020830152604082019050919050565b60006151c4602283615e19565b91507f4e65787455696e7436342c206f66667365742065786365656473206d6178696d60008301527f756d0000000000000000000000000000000000000000000000000000000000006020830152604082019050919050565b600061522a602283615e19565b91507f4e65787455696e7433322c206f66667365742065786365656473206d6178696d60008301527f756d0000000000000000000000000000000000000000000000000000000000006020830152604082019050919050565b6000615290602483615e19565b91507f4e65787456617242797465732c206f66667365742065786365656473206d617860008301527f696d756d000000000000000000000000000000000000000000000000000000006020830152604082019050919050565b60006152f6602283615e19565b91507f46726f6d2050726f787920636f6e74726163742061646472657373206572726f60008301527f72210000000000000000000000000000000000000000000000000000000000006020830152604082019050919050565b600061535c601f83615e19565b91507f5361666545524332303a2063616c6c20746f206e6f6e2d636f6e7472616374006000830152602082019050919050565b600061539c602183615e19565b91507f7472616e736665727265642065746865722063616e6e6f74206265207a65726f60008301527f21000000000000000000000000000000000000000000000000000000000000006020830152604082019050919050565b6000615402602483615e19565b91507f62696e644c50546f417373657442617463683a2061726773206c656e6774682060008301527f64696666000000000000000000000000000000000000000000000000000000006020830152604082019050919050565b61546481615e68565b82525050565b61547381615e72565b82525050565b6000615485828461462f565b915081905092915050565b600061549c828561462f565b91506154a8828461462f565b91508190509392505050565b60006154c0828661462f565b91506154cc828561462f565b91506154d8828461462f565b9150819050949350505050565b60006020820190506154fa60008301846145d8565b92915050565b600060808201905061551560008301876145c9565b61552260208301866145d8565b61552f60408301856145d8565b61553c606083018461545b565b95945050505050565b600060408201905061555a60008301856145d8565b61556760208301846145d8565b9392505050565b600060c08201905061558360008301896145d8565b61559060208301886145c9565b61559d604083018761546a565b81810360608301526155af81866145f6565b905081810360808301526155c381856145f6565b90506155d260a083018461545b565b979650505050505050565b60006080820190506155f260008301876145d8565b6155ff60208301866145d8565b61560c60408301856145d8565b615619606083018461545b565b95945050505050565b600060608201905061563760008301866145d8565b61564460208301856145d8565b615651604083018461545b565b949350505050565b600060408201905061566e60008301856145d8565b61567b602083018461545b565b9392505050565b600060808201905061569760008301876145d8565b6156a4602083018661546a565b81810360408301526156b681856145f6565b90506156c5606083018461545b565b95945050505050565b60006080820190506156e360008301876145d8565b6156f0602083018661546a565b81810360408301526157028185614660565b9050615711606083018461545b565b95945050505050565b600060208201905061572f60008301846145e7565b92915050565b6000602082019050818103600083015261574f8184614660565b905092915050565b6000602082019050818103600083015261577081614699565b9050919050565b60006020820190508181036000830152615790816146ff565b9050919050565b600060208201905081810360008301526157b081614765565b9050919050565b600060208201905081810360008301526157d0816147a5565b9050919050565b600060208201905081810360008301526157f08161480b565b9050919050565b6000602082019050818103600083015261581081614871565b9050919050565b60006020820190508181036000830152615830816148d7565b9050919050565b6000602082019050818103600083015261585081614917565b9050919050565b6000602082019050818103600083015261587081614957565b9050919050565b60006020820190508181036000830152615890816149bd565b9050919050565b600060208201905081810360008301526158b0816149fd565b9050919050565b600060208201905081810360008301526158d081614a63565b9050919050565b600060208201905081810360008301526158f081614aa3565b9050919050565b6000602082019050818103600083015261591081614b09565b9050919050565b6000602082019050818103600083015261593081614b6f565b9050919050565b6000602082019050818103600083015261595081614baf565b9050919050565b6000602082019050818103600083015261597081614c15565b9050919050565b6000602082019050818103600083015261599081614c7b565b9050919050565b600060208201905081810360008301526159b081614ce1565b9050919050565b600060208201905081810360008301526159d081614d21565b9050919050565b600060208201905081810360008301526159f081614d87565b9050919050565b60006020820190508181036000830152615a1081614e07565b9050919050565b60006020820190508181036000830152615a3081614e47565b9050919050565b60006020820190508181036000830152615a5081614e87565b9050919050565b60006020820190508181036000830152615a7081614ec7565b9050919050565b60006020820190508181036000830152615a9081614f53565b9050919050565b60006020820190508181036000830152615ab081614f93565b9050919050565b60006020820190508181036000830152615ad08161501f565b9050919050565b60006020820190508181036000830152615af081615085565b9050919050565b60006020820190508181036000830152615b10816150eb565b9050919050565b60006020820190508181036000830152615b3081615151565b9050919050565b60006020820190508181036000830152615b50816151b7565b9050919050565b60006020820190508181036000830152615b708161521d565b9050919050565b60006020820190508181036000830152615b9081615283565b9050919050565b60006020820190508181036000830152615bb0816152e9565b9050919050565b60006020820190508181036000830152615bd08161534f565b9050919050565b60006020820190508181036000830152615bf08161538f565b9050919050565b60006020820190508181036000830152615c10816153f5565b9050919050565b6000602082019050615c2c600083018461545b565b92915050565b6000604082019050615c47600083018561546a565b8181036020830152615c598184614660565b90509392505050565b6000604082019050615c77600083018561546a565b8181036020830152615c8981846145f6565b90509392505050565b6000608082019050615ca7600083018661546a565b8181036020830152615cb981856145f6565b90508181036040830152615ccc81614dc7565b90508181036060830152615ce081846145f6565b9050949350505050565b6000604051905081810181811067ffffffffffffffff82111715615d0d57600080fd5b8060405250919050565b600067ffffffffffffffff821115615d2e57600080fd5b602082029050602081019050919050565b600067ffffffffffffffff821115615d5657600080fd5b602082029050602081019050919050565b600067ffffffffffffffff821115615d7e57600080fd5b602082029050602081019050919050565b600067ffffffffffffffff821115615da657600080fd5b601f19601f8301169050602081019050919050565b600067ffffffffffffffff821115615dd257600080fd5b601f19601f8301169050602081019050919050565b600081519050919050565b600081519050919050565b600082825260208201905092915050565b600081905092915050565b600082825260208201905092915050565b6000615e3582615e48565b9050919050565b60008115159050919050565b600073ffffffffffffffffffffffffffffffffffffffff82169050919050565b6000819050919050565b600067ffffffffffffffff82169050919050565b6000615e9182615e98565b9050919050565b6000615ea382615eaa565b9050919050565b6000615eb582615e48565b9050919050565b82818337600083830152505050565b60005b83811015615ee9578082015181840152602081019050615ece565b83811115615ef8576000848401525b50505050565b6000601f19601f8301169050919050565b615f1881615e2a565b8114615f2357600080fd5b50565b615f2f81615e3c565b8114615f3a57600080fd5b50565b615f4681615e68565b8114615f5157600080fd5b50565b615f5d81615e72565b8114615f6857600080fd5b5056fea365627a7a723158205edea8160efade5a8b7ef3ca001034ea51377ce5bb85ec15567db07d070db01d6c6578706572696d656e74616cf564736f6c63430005110040",
			"opcodes": "PUSH1 0x80 PUSH1 0x40 MSTORE PUSH1 0x0 PUSH3 0x16 PUSH3 0xBA PUSH1 0x20 SHL PUSH1 0x20 SHR JUMP JUMPDEST SWAP1 POP DUP1 PUSH1 0x0 DUP1 PUSH2 0x100 EXP DUP2 SLOAD DUP2 PUSH20 0xFFFFFFFFFFFFFFFFFFFFFFFFFFFFFFFFFFFFFFFF MUL NOT AND SWAP1 DUP4 PUSH20 0xFFFFFFFFFFFFFFFFFFFFFFFFFFFFFFFFFFFFFFFF AND MUL OR SWAP1 SSTORE POP DUP1 PUSH20 0xFFFFFFFFFFFFFFFFFFFFFFFFFFFFFFFFFFFFFFFF AND PUSH1 0x0 PUSH20 0xFFFFFFFFFFFFFFFFFFFFFFFFFFFFFFFFFFFFFFFF AND PUSH32 0x8BE0079C531659141344CD1FD0A4F28419497F9722A3DAAFE3B4186F6B6457E0 PUSH1 0x40 MLOAD PUSH1 0x40 MLOAD DUP1 SWAP2 SUB SWAP1 LOG3 POP PUSH3 0xC2 JUMP JUMPDEST PUSH1 0x0 CALLER SWAP1 POP SWAP1 JUMP JUMPDEST PUSH2 0x5FAE DUP1 PUSH3 0xD2 PUSH1 0x0 CODECOPY PUSH1 0x0 RETURN INVALID PUSH1 0x80 PUSH1 0x40 MSTORE PUSH1 0x4 CALLDATASIZE LT PUSH2 0x14B JUMPI PUSH1 0x0 CALLDATALOAD PUSH1 0xE0 SHR DUP1 PUSH4 0x6BC9E760 GT PUSH2 0xB6 JUMPI DUP1 PUSH4 0x9E5767AA GT PUSH2 0x6F JUMPI DUP1 PUSH4 0x9E5767AA EQ PUSH2 0x543 JUMPI DUP1 PUSH4 0xAF9980F0 EQ PUSH2 0x580 JUMPI DUP1 PUSH4 0xD798F881 EQ PUSH2 0x5A9 JUMPI DUP1 PUSH4 0xF2FDE38B EQ PUSH2 0x5D4 JUMPI DUP1 PUSH4 0xF3FEF3A3 EQ PUSH2 0x5FD JUMPI DUP1 PUSH4 0xF45346DC EQ PUSH2 0x63A JUMPI PUSH2 0x14B JUMP JUMPDEST DUP1 PUSH4 0x6BC9E760 EQ PUSH2 0x42C JUMPI DUP1 PUSH4 0x6F3326D5 EQ PUSH2 0x469 JUMPI DUP1 PUSH4 0x715018A6 EQ PUSH2 0x4A6 JUMPI DUP1 PUSH4 0x84A6D055 EQ PUSH2 0x4BD JUMPI DUP1 PUSH4 0x8DA5CB5B EQ PUSH2 0x4ED JUMPI DUP1 PUSH4 0x8F32D59B EQ PUSH2 0x518 JUMPI PUSH2 0x14B JUMP JUMPDEST DUP1 PUSH4 0x47E7EF24 GT PUSH2 0x108 JUMPI DUP1 PUSH4 0x47E7EF24 EQ PUSH2 0x2BE JUMPI DUP1 PUSH4 0x4F7D9808 EQ PUSH2 0x2FB JUMPI DUP1 PUSH4 0x53D1D277 EQ PUSH2 0x338 JUMPI DUP1 PUSH4 0x59C589A1 EQ PUSH2 0x375 JUMPI DUP1 PUSH4 0x61C6617D EQ PUSH2 0x3B2 JUMPI DUP1 PUSH4 0x69328DEC EQ PUSH2 0x3EF JUMPI PUSH2 0x14B JUMP JUMPDEST DUP1 PUSH4 0x6AF4B9F EQ PUSH2 0x150 JUMPI DUP1 PUSH4 0x892CF48 EQ PUSH2 0x18D JUMPI DUP1 PUSH4 0x25A9F900 EQ PUSH2 0x1CA JUMPI DUP1 PUSH4 0x3348F63B EQ PUSH2 0x207 JUMPI DUP1 PUSH4 0x3389279D EQ PUSH2 0x244 JUMPI DUP1 PUSH4 0x379B98F6 EQ PUSH2 0x281 JUMPI JUMPDEST PUSH1 0x0 DUP1 REVERT JUMPDEST CALLVALUE DUP1 ISZERO PUSH2 0x15C JUMPI PUSH1 0x0 DUP1 REVERT JUMPDEST POP PUSH2 0x177 PUSH1 0x4 DUP1 CALLDATASIZE SUB PUSH2 0x172 SWAP2 SWAP1 DUP2 ADD SWAP1 PUSH2 0x44A4 JUMP JUMPDEST PUSH2 0x677 JUMP JUMPDEST PUSH1 0x40 MLOAD PUSH2 0x184 SWAP2 SWAP1 PUSH2 0x571A JUMP JUMPDEST PUSH1 0x40 MLOAD DUP1 SWAP2 SUB SWAP1 RETURN JUMPDEST CALLVALUE DUP1 ISZERO PUSH2 0x199 JUMPI PUSH1 0x0 DUP1 REVERT JUMPDEST POP PUSH2 0x1B4 PUSH1 0x4 DUP1 CALLDATASIZE SUB PUSH2 0x1AF SWAP2 SWAP1 DUP2 ADD SWAP1 PUSH2 0x4289 JUMP JUMPDEST PUSH2 0x9A8 JUMP JUMPDEST PUSH1 0x40 MLOAD PUSH2 0x1C1 SWAP2 SWAP1 PUSH2 0x571A JUMP JUMPDEST PUSH1 0x40 MLOAD DUP1 SWAP2 SUB SWAP1 RETURN JUMPDEST CALLVALUE DUP1 ISZERO PUSH2 0x1D6 JUMPI PUSH1 0x0 DUP1 REVERT JUMPDEST POP PUSH2 0x1F1 PUSH1 0x4 DUP1 CALLDATASIZE SUB PUSH2 0x1EC SWAP2 SWAP1 DUP2 ADD SWAP1 PUSH2 0x440F JUMP JUMPDEST PUSH2 0xE2C JUMP JUMPDEST PUSH1 0x40 MLOAD PUSH2 0x1FE SWAP2 SWAP1 PUSH2 0x571A JUMP JUMPDEST PUSH1 0x40 MLOAD DUP1 SWAP2 SUB SWAP1 RETURN JUMPDEST CALLVALUE DUP1 ISZERO PUSH2 0x213 JUMPI PUSH1 0x0 DUP1 REVERT JUMPDEST POP PUSH2 0x22E PUSH1 0x4 DUP1 CALLDATASIZE SUB PUSH2 0x229 SWAP2 SWAP1 DUP2 ADD SWAP1 PUSH2 0x413B JUMP JUMPDEST PUSH2 0xFA1 JUMP JUMPDEST PUSH1 0x40 MLOAD PUSH2 0x23B SWAP2 SWAP1 PUSH2 0x571A JUMP JUMPDEST PUSH1 0x40 MLOAD DUP1 SWAP2 SUB SWAP1 RETURN JUMPDEST CALLVALUE DUP1 ISZERO PUSH2 0x250 JUMPI PUSH1 0x0 DUP1 REVERT JUMPDEST POP PUSH2 0x26B PUSH1 0x4 DUP1 CALLDATASIZE SUB PUSH2 0x266 SWAP2 SWAP1 DUP2 ADD SWAP1 PUSH2 0x3F3F JUMP JUMPDEST PUSH2 0x10B3 JUMP JUMPDEST PUSH1 0x40 MLOAD PUSH2 0x278 SWAP2 SWAP1 PUSH2 0x54E5 JUMP JUMPDEST PUSH1 0x40 MLOAD DUP1 SWAP2 SUB SWAP1 RETURN JUMPDEST CALLVALUE DUP1 ISZERO PUSH2 0x28D JUMPI PUSH1 0x0 DUP1 REVERT JUMPDEST POP PUSH2 0x2A8 PUSH1 0x4 DUP1 CALLDATASIZE SUB PUSH2 0x2A3 SWAP2 SWAP1 DUP2 ADD SWAP1 PUSH2 0x4575 JUMP JUMPDEST PUSH2 0x10E6 JUMP JUMPDEST PUSH1 0x40 MLOAD PUSH2 0x2B5 SWAP2 SWAP1 PUSH2 0x571A JUMP JUMPDEST PUSH1 0x40 MLOAD DUP1 SWAP2 SUB SWAP1 RETURN JUMPDEST CALLVALUE DUP1 ISZERO PUSH2 0x2CA JUMPI PUSH1 0x0 DUP1 REVERT JUMPDEST POP PUSH2 0x2E5 PUSH1 0x4 DUP1 CALLDATASIZE SUB PUSH2 0x2E0 SWAP2 SWAP1 DUP2 ADD SWAP1 PUSH2 0x4074 JUMP JUMPDEST PUSH2 0x11AE JUMP JUMPDEST PUSH1 0x40 MLOAD PUSH2 0x2F2 SWAP2 SWAP1 PUSH2 0x571A JUMP JUMPDEST PUSH1 0x40 MLOAD DUP1 SWAP2 SUB SWAP1 RETURN JUMPDEST CALLVALUE DUP1 ISZERO PUSH2 0x307 JUMPI PUSH1 0x0 DUP1 REVERT JUMPDEST POP PUSH2 0x322 PUSH1 0x4 DUP1 CALLDATASIZE SUB PUSH2 0x31D SWAP2 SWAP1 DUP2 ADD SWAP1 PUSH2 0x40FF JUMP JUMPDEST PUSH2 0x1332 JUMP JUMPDEST PUSH1 0x40 MLOAD PUSH2 0x32F SWAP2 SWAP1 PUSH2 0x5735 JUMP JUMPDEST PUSH1 0x40 MLOAD DUP1 SWAP2 SUB SWAP1 RETURN JUMPDEST CALLVALUE DUP1 ISZERO PUSH2 0x344 JUMPI PUSH1 0x0 DUP1 REVERT JUMPDEST POP PUSH2 0x35F PUSH1 0x4 DUP1 CALLDATASIZE SUB PUSH2 0x35A SWAP2 SWAP1 DUP2 ADD SWAP1 PUSH2 0x3FCD JUMP JUMPDEST PUSH2 0x13EF JUMP JUMPDEST PUSH1 0x40 MLOAD PUSH2 0x36C SWAP2 SWAP1 PUSH2 0x571A JUMP JUMPDEST PUSH1 0x40 MLOAD DUP1 SWAP2 SUB SWAP1 RETURN JUMPDEST CALLVALUE DUP1 ISZERO PUSH2 0x381 JUMPI PUSH1 0x0 DUP1 REVERT JUMPDEST POP PUSH2 0x39C PUSH1 0x4 DUP1 CALLDATASIZE SUB PUSH2 0x397 SWAP2 SWAP1 DUP2 ADD SWAP1 PUSH2 0x3F3F JUMP JUMPDEST PUSH2 0x1678 JUMP JUMPDEST PUSH1 0x40 MLOAD PUSH2 0x3A9 SWAP2 SWAP1 PUSH2 0x5C17 JUMP JUMPDEST PUSH1 0x40 MLOAD DUP1 SWAP2 SUB SWAP1 RETURN JUMPDEST CALLVALUE DUP1 ISZERO PUSH2 0x3BE JUMPI PUSH1 0x0 DUP1 REVERT JUMPDEST POP PUSH2 0x3D9 PUSH1 0x4 DUP1 CALLDATASIZE SUB PUSH2 0x3D4 SWAP2 SWAP1 DUP2 ADD SWAP1 PUSH2 0x421D JUMP JUMPDEST PUSH2 0x176A JUMP JUMPDEST PUSH1 0x40 MLOAD PUSH2 0x3E6 SWAP2 SWAP1 PUSH2 0x571A JUMP JUMPDEST PUSH1 0x40 MLOAD DUP1 SWAP2 SUB SWAP1 RETURN JUMPDEST CALLVALUE DUP1 ISZERO PUSH2 0x3FB JUMPI PUSH1 0x0 DUP1 REVERT JUMPDEST POP PUSH2 0x416 PUSH1 0x4 DUP1 CALLDATASIZE SUB PUSH2 0x411 SWAP2 SWAP1 DUP2 ADD SWAP1 PUSH2 0x40B0 JUMP JUMPDEST PUSH2 0x1921 JUMP JUMPDEST PUSH1 0x40 MLOAD PUSH2 0x423 SWAP2 SWAP1 PUSH2 0x571A JUMP JUMPDEST PUSH1 0x40 MLOAD DUP1 SWAP2 SUB SWAP1 RETURN JUMPDEST CALLVALUE DUP1 ISZERO PUSH2 0x438 JUMPI PUSH1 0x0 DUP1 REVERT JUMPDEST POP PUSH2 0x453 PUSH1 0x4 DUP1 CALLDATASIZE SUB PUSH2 0x44E SWAP2 SWAP1 DUP2 ADD SWAP1 PUSH2 0x3F91 JUMP JUMPDEST PUSH2 0x1AA6 JUMP JUMPDEST PUSH1 0x40 MLOAD PUSH2 0x460 SWAP2 SWAP1 PUSH2 0x571A JUMP JUMPDEST PUSH1 0x40 MLOAD DUP1 SWAP2 SUB SWAP1 RETURN JUMPDEST CALLVALUE DUP1 ISZERO PUSH2 0x475 JUMPI PUSH1 0x0 DUP1 REVERT JUMPDEST POP PUSH2 0x490 PUSH1 0x4 DUP1 CALLDATASIZE SUB PUSH2 0x48B SWAP2 SWAP1 DUP2 ADD SWAP1 PUSH2 0x4378 JUMP JUMPDEST PUSH2 0x1BB0 JUMP JUMPDEST PUSH1 0x40 MLOAD PUSH2 0x49D SWAP2 SWAP1 PUSH2 0x571A JUMP JUMPDEST PUSH1 0x40 MLOAD DUP1 SWAP2 SUB SWAP1 RETURN JUMPDEST CALLVALUE DUP1 ISZERO PUSH2 0x4B2 JUMPI PUSH1 0x0 DUP1 REVERT JUMPDEST POP PUSH2 0x4BB PUSH2 0x1DEC JUMP JUMPDEST STOP JUMPDEST PUSH2 0x4D7 PUSH1 0x4 DUP1 CALLDATASIZE SUB PUSH2 0x4D2 SWAP2 SWAP1 DUP2 ADD SWAP1 PUSH2 0x41A2 JUMP JUMPDEST PUSH2 0x1EF2 JUMP JUMPDEST PUSH1 0x40 MLOAD PUSH2 0x4E4 SWAP2 SWAP1 PUSH2 0x571A JUMP JUMPDEST PUSH1 0x40 MLOAD DUP1 SWAP2 SUB SWAP1 RETURN JUMPDEST CALLVALUE DUP1 ISZERO PUSH2 0x4F9 JUMPI PUSH1 0x0 DUP1 REVERT JUMPDEST POP PUSH2 0x502 PUSH2 0x23D8 JUMP JUMPDEST PUSH1 0x40 MLOAD PUSH2 0x50F SWAP2 SWAP1 PUSH2 0x54E5 JUMP JUMPDEST PUSH1 0x40 MLOAD DUP1 SWAP2 SUB SWAP1 RETURN JUMPDEST CALLVALUE DUP1 ISZERO PUSH2 0x524 JUMPI PUSH1 0x0 DUP1 REVERT JUMPDEST POP PUSH2 0x52D PUSH2 0x2401 JUMP JUMPDEST PUSH1 0x40 MLOAD PUSH2 0x53A SWAP2 SWAP1 PUSH2 0x571A JUMP JUMPDEST PUSH1 0x40 MLOAD DUP1 SWAP2 SUB SWAP1 RETURN JUMPDEST CALLVALUE DUP1 ISZERO PUSH2 0x54F JUMPI PUSH1 0x0 DUP1 REVERT JUMPDEST POP PUSH2 0x56A PUSH1 0x4 DUP1 CALLDATASIZE SUB PUSH2 0x565 SWAP2 SWAP1 DUP2 ADD SWAP1 PUSH2 0x454C JUMP JUMPDEST PUSH2 0x245F JUMP JUMPDEST PUSH1 0x40 MLOAD PUSH2 0x577 SWAP2 SWAP1 PUSH2 0x5735 JUMP JUMPDEST PUSH1 0x40 MLOAD DUP1 SWAP2 SUB SWAP1 RETURN JUMPDEST CALLVALUE DUP1 ISZERO PUSH2 0x58C JUMPI PUSH1 0x0 DUP1 REVERT JUMPDEST POP PUSH2 0x5A7 PUSH1 0x4 DUP1 CALLDATASIZE SUB PUSH2 0x5A2 SWAP2 SWAP1 DUP2 ADD SWAP1 PUSH2 0x3F3F JUMP JUMPDEST PUSH2 0x250F JUMP JUMPDEST STOP JUMPDEST CALLVALUE DUP1 ISZERO PUSH2 0x5B5 JUMPI PUSH1 0x0 DUP1 REVERT JUMPDEST POP PUSH2 0x5BE PUSH2 0x25F3 JUMP JUMPDEST PUSH1 0x40 MLOAD PUSH2 0x5CB SWAP2 SWAP1 PUSH2 0x54E5 JUMP JUMPDEST PUSH1 0x40 MLOAD DUP1 SWAP2 SUB SWAP1 RETURN JUMPDEST CALLVALUE DUP1 ISZERO PUSH2 0x5E0 JUMPI PUSH1 0x0 DUP1 REVERT JUMPDEST POP PUSH2 0x5FB PUSH1 0x4 DUP1 CALLDATASIZE SUB PUSH2 0x5F6 SWAP2 SWAP1 DUP2 ADD SWAP1 PUSH2 0x3F3F JUMP JUMPDEST PUSH2 0x2619 JUMP JUMPDEST STOP JUMPDEST CALLVALUE DUP1 ISZERO PUSH2 0x609 JUMPI PUSH1 0x0 DUP1 REVERT JUMPDEST POP PUSH2 0x624 PUSH1 0x4 DUP1 CALLDATASIZE SUB PUSH2 0x61F SWAP2 SWAP1 DUP2 ADD SWAP1 PUSH2 0x4074 JUMP JUMPDEST PUSH2 0x266C JUMP JUMPDEST PUSH1 0x40 MLOAD PUSH2 0x631 SWAP2 SWAP1 PUSH2 0x571A JUMP JUMPDEST PUSH1 0x40 MLOAD DUP1 SWAP2 SUB SWAP1 RETURN JUMPDEST CALLVALUE DUP1 ISZERO PUSH2 0x646 JUMPI PUSH1 0x0 DUP1 REVERT JUMPDEST POP PUSH2 0x661 PUSH1 0x4 DUP1 CALLDATASIZE SUB PUSH2 0x65C SWAP2 SWAP1 DUP2 ADD SWAP1 PUSH2 0x40B0 JUMP JUMPDEST PUSH2 0x27F0 JUMP JUMPDEST PUSH1 0x40 MLOAD PUSH2 0x66E SWAP2 SWAP1 PUSH2 0x571A JUMP JUMPDEST PUSH1 0x40 MLOAD DUP1 SWAP2 SUB SWAP1 RETURN JUMPDEST PUSH1 0x0 DUP1 PUSH1 0x1 PUSH1 0x0 SWAP1 SLOAD SWAP1 PUSH2 0x100 EXP SWAP1 DIV PUSH20 0xFFFFFFFFFFFFFFFFFFFFFFFFFFFFFFFFFFFFFFFF AND SWAP1 POP DUP1 PUSH20 0xFFFFFFFFFFFFFFFFFFFFFFFFFFFFFFFFFFFFFFFF AND PUSH4 0x87939A7F PUSH1 0x40 MLOAD DUP2 PUSH4 0xFFFFFFFF AND PUSH1 0xE0 SHL DUP2 MSTORE PUSH1 0x4 ADD PUSH1 0x20 PUSH1 0x40 MLOAD DUP1 DUP4 SUB DUP2 DUP7 DUP1 EXTCODESIZE ISZERO DUP1 ISZERO PUSH2 0x6E5 JUMPI PUSH1 0x0 DUP1 REVERT JUMPDEST POP GAS STATICCALL ISZERO DUP1 ISZERO PUSH2 0x6F9 JUMPI RETURNDATASIZE PUSH1 0x0 DUP1 RETURNDATACOPY RETURNDATASIZE PUSH1 0x0 REVERT JUMPDEST POP POP POP POP PUSH1 0x40 MLOAD RETURNDATASIZE PUSH1 0x1F NOT PUSH1 0x1F DUP3 ADD AND DUP3 ADD DUP1 PUSH1 0x40 MSTORE POP PUSH2 0x71D SWAP2 SWAP1 DUP2 ADD SWAP1 PUSH2 0x3F68 JUMP JUMPDEST PUSH20 0xFFFFFFFFFFFFFFFFFFFFFFFFFFFFFFFFFFFFFFFF AND PUSH2 0x73B PUSH2 0x2975 JUMP JUMPDEST PUSH20 0xFFFFFFFFFFFFFFFFFFFFFFFFFFFFFFFFFFFFFFFF AND EQ PUSH2 0x791 JUMPI PUSH1 0x40 MLOAD PUSH32 0x8C379A000000000000000000000000000000000000000000000000000000000 DUP2 MSTORE PUSH1 0x4 ADD PUSH2 0x788 SWAP1 PUSH2 0x58F7 JUMP JUMPDEST PUSH1 0x40 MLOAD DUP1 SWAP2 SUB SWAP1 REVERT JUMPDEST PUSH2 0x799 PUSH2 0x3BD9 JUMP JUMPDEST PUSH2 0x7A2 DUP7 PUSH2 0x297D JUMP JUMPDEST SWAP1 POP PUSH1 0x0 DUP6 MLOAD EQ ISZERO PUSH2 0x7E9 JUMPI PUSH1 0x40 MLOAD PUSH32 0x8C379A000000000000000000000000000000000000000000000000000000000 DUP2 MSTORE PUSH1 0x4 ADD PUSH2 0x7E0 SWAP1 PUSH2 0x5937 JUMP JUMPDEST PUSH1 0x40 MLOAD DUP1 SWAP2 SUB SWAP1 REVERT JUMPDEST PUSH2 0x819 PUSH1 0x2 PUSH1 0x0 DUP7 PUSH8 0xFFFFFFFFFFFFFFFF AND PUSH8 0xFFFFFFFFFFFFFFFF AND DUP2 MSTORE PUSH1 0x20 ADD SWAP1 DUP2 MSTORE PUSH1 0x20 ADD PUSH1 0x0 KECCAK256 DUP7 PUSH2 0x29E5 JUMP JUMPDEST PUSH2 0x858 JUMPI PUSH1 0x40 MLOAD PUSH32 0x8C379A000000000000000000000000000000000000000000000000000000000 DUP2 MSTORE PUSH1 0x4 ADD PUSH2 0x84F SWAP1 PUSH2 0x5B97 JUMP JUMPDEST PUSH1 0x40 MLOAD DUP1 SWAP2 SUB SWAP1 REVERT JUMPDEST PUSH1 0x0 DUP2 PUSH1 0x0 ADD MLOAD MLOAD EQ ISZERO PUSH2 0x8A1 JUMPI PUSH1 0x40 MLOAD PUSH32 0x8C379A000000000000000000000000000000000000000000000000000000000 DUP2 MSTORE PUSH1 0x4 ADD PUSH2 0x898 SWAP1 PUSH2 0x5877 JUMP JUMPDEST PUSH1 0x40 MLOAD DUP1 SWAP2 SUB SWAP1 REVERT JUMPDEST PUSH1 0x0 PUSH2 0x8B0 DUP3 PUSH1 0x0 ADD MLOAD PUSH2 0x2A9D JUMP JUMPDEST SWAP1 POP PUSH1 0x0 DUP3 PUSH1 0x20 ADD MLOAD MLOAD EQ ISZERO PUSH2 0x8FB JUMPI PUSH1 0x40 MLOAD PUSH32 0x8C379A000000000000000000000000000000000000000000000000000000000 DUP2 MSTORE PUSH1 0x4 ADD PUSH2 0x8F2 SWAP1 PUSH2 0x5A37 JUMP JUMPDEST PUSH1 0x40 MLOAD DUP1 SWAP2 SUB SWAP1 REVERT JUMPDEST PUSH1 0x0 PUSH2 0x90A DUP4 PUSH1 0x20 ADD MLOAD PUSH2 0x2A9D JUMP JUMPDEST SWAP1 POP PUSH2 0x91B DUP3 DUP3 DUP6 PUSH1 0x40 ADD MLOAD PUSH2 0x2AEF JUMP JUMPDEST PUSH2 0x95A JUMPI PUSH1 0x40 MLOAD PUSH32 0x8C379A000000000000000000000000000000000000000000000000000000000 DUP2 MSTORE PUSH1 0x4 ADD PUSH2 0x951 SWAP1 PUSH2 0x5897 JUMP JUMPDEST PUSH1 0x40 MLOAD DUP1 SWAP2 SUB SWAP1 REVERT JUMPDEST PUSH32 0xD90288730B87C2B8E0C45BD82260FD22478ABA30AE1C4D578B8DABA9261604DF DUP3 DUP3 DUP6 PUSH1 0x40 ADD MLOAD PUSH1 0x40 MLOAD PUSH2 0x991 SWAP4 SWAP3 SWAP2 SWAP1 PUSH2 0x5622 JUMP JUMPDEST PUSH1 0x40 MLOAD DUP1 SWAP2 SUB SWAP1 LOG1 PUSH1 0x1 SWAP5 POP POP POP POP POP SWAP4 SWAP3 POP POP POP JUMP JUMPDEST PUSH1 0x0 PUSH2 0x9B2 PUSH2 0x2401 JUMP JUMPDEST PUSH2 0x9F1 JUMPI PUSH1 0x40 MLOAD PUSH32 0x8C379A000000000000000000000000000000000000000000000000000000000 DUP2 MSTORE PUSH1 0x4 ADD PUSH2 0x9E8 SWAP1 PUSH2 0x5997 JUMP JUMPDEST PUSH1 0x40 MLOAD DUP1 SWAP2 SUB SWAP1 REVERT JUMPDEST DUP5 MLOAD DUP7 MLOAD EQ PUSH2 0xA35 JUMPI PUSH1 0x40 MLOAD PUSH32 0x8C379A000000000000000000000000000000000000000000000000000000000 DUP2 MSTORE PUSH1 0x4 ADD PUSH2 0xA2C SWAP1 PUSH2 0x58D7 JUMP JUMPDEST PUSH1 0x40 MLOAD DUP1 SWAP2 SUB SWAP1 REVERT JUMPDEST DUP2 MLOAD DUP4 MLOAD EQ PUSH2 0xA79 JUMPI PUSH1 0x40 MLOAD PUSH32 0x8C379A000000000000000000000000000000000000000000000000000000000 DUP2 MSTORE PUSH1 0x4 ADD PUSH2 0xA70 SWAP1 PUSH2 0x58D7 JUMP JUMPDEST PUSH1 0x40 MLOAD DUP1 SWAP2 SUB SWAP1 REVERT JUMPDEST PUSH1 0x0 DUP1 SWAP1 POP JUMPDEST DUP6 MLOAD DUP2 LT ISZERO PUSH2 0xE1E JUMPI DUP4 DUP2 DUP2 MLOAD DUP2 LT PUSH2 0xA94 JUMPI INVALID JUMPDEST PUSH1 0x20 MUL PUSH1 0x20 ADD ADD MLOAD PUSH1 0x3 PUSH1 0x0 DUP10 DUP5 DUP2 MLOAD DUP2 LT PUSH2 0xAAC JUMPI INVALID JUMPDEST PUSH1 0x20 MUL PUSH1 0x20 ADD ADD MLOAD PUSH20 0xFFFFFFFFFFFFFFFFFFFFFFFFFFFFFFFFFFFFFFFF AND PUSH20 0xFFFFFFFFFFFFFFFFFFFFFFFFFFFFFFFFFFFFFFFF AND DUP2 MSTORE PUSH1 0x20 ADD SWAP1 DUP2 MSTORE PUSH1 0x20 ADD PUSH1 0x0 KECCAK256 PUSH1 0x0 DUP8 DUP5 DUP2 MLOAD DUP2 LT PUSH2 0xAFC JUMPI INVALID JUMPDEST PUSH1 0x20 MUL PUSH1 0x20 ADD ADD MLOAD PUSH8 0xFFFFFFFFFFFFFFFF AND PUSH8 0xFFFFFFFFFFFFFFFF AND DUP2 MSTORE PUSH1 0x20 ADD SWAP1 DUP2 MSTORE PUSH1 0x20 ADD PUSH1 0x0 KECCAK256 SWAP1 DUP1 MLOAD SWAP1 PUSH1 0x20 ADD SWAP1 PUSH2 0xB39 SWAP3 SWAP2 SWAP1 PUSH2 0x3BFA JUMP JUMPDEST POP DUP3 DUP2 DUP2 MLOAD DUP2 LT PUSH2 0xB46 JUMPI INVALID JUMPDEST PUSH1 0x20 MUL PUSH1 0x20 ADD ADD MLOAD PUSH1 0x3 PUSH1 0x0 DUP9 DUP5 DUP2 MLOAD DUP2 LT PUSH2 0xB5E JUMPI INVALID JUMPDEST PUSH1 0x20 MUL PUSH1 0x20 ADD ADD MLOAD PUSH20 0xFFFFFFFFFFFFFFFFFFFFFFFFFFFFFFFFFFFFFFFF AND PUSH20 0xFFFFFFFFFFFFFFFFFFFFFFFFFFFFFFFFFFFFFFFF AND DUP2 MSTORE PUSH1 0x20 ADD SWAP1 DUP2 MSTORE PUSH1 0x20 ADD PUSH1 0x0 KECCAK256 PUSH1 0x0 DUP8 DUP5 DUP2 MLOAD DUP2 LT PUSH2 0xBAE JUMPI INVALID JUMPDEST PUSH1 0x20 MUL PUSH1 0x20 ADD ADD MLOAD PUSH8 0xFFFFFFFFFFFFFFFF AND PUSH8 0xFFFFFFFFFFFFFFFF AND DUP2 MSTORE PUSH1 0x20 ADD SWAP1 DUP2 MSTORE PUSH1 0x20 ADD PUSH1 0x0 KECCAK256 SWAP1 DUP1 MLOAD SWAP1 PUSH1 0x20 ADD SWAP1 PUSH2 0xBEB SWAP3 SWAP2 SWAP1 PUSH2 0x3BFA JUMP JUMPDEST POP DUP6 DUP2 DUP2 MLOAD DUP2 LT PUSH2 0xBF8 JUMPI INVALID JUMPDEST PUSH1 0x20 MUL PUSH1 0x20 ADD ADD MLOAD PUSH1 0x4 PUSH1 0x0 DUP10 DUP5 DUP2 MLOAD DUP2 LT PUSH2 0xC10 JUMPI INVALID JUMPDEST PUSH1 0x20 MUL PUSH1 0x20 ADD ADD MLOAD PUSH20 0xFFFFFFFFFFFFFFFFFFFFFFFFFFFFFFFFFFFFFFFF AND PUSH20 0xFFFFFFFFFFFFFFFFFFFFFFFFFFFFFFFFFFFFFFFF AND DUP2 MSTORE PUSH1 0x20 ADD SWAP1 DUP2 MSTORE PUSH1 0x20 ADD PUSH1 0x0 KECCAK256 PUSH1 0x0 PUSH2 0x100 EXP DUP2 SLOAD DUP2 PUSH20 0xFFFFFFFFFFFFFFFFFFFFFFFFFFFFFFFFFFFFFFFF MUL NOT AND SWAP1 DUP4 PUSH20 0xFFFFFFFFFFFFFFFFFFFFFFFFFFFFFFFFFFFFFFFF AND MUL OR SWAP1 SSTORE POP PUSH32 0x1628C8374C1BDFEB2275FD9F4C90562FD3FAE974783DC522C8234E36ABCFC58E DUP8 DUP3 DUP2 MLOAD DUP2 LT PUSH2 0xCBD JUMPI INVALID JUMPDEST PUSH1 0x20 MUL PUSH1 0x20 ADD ADD MLOAD DUP7 DUP4 DUP2 MLOAD DUP2 LT PUSH2 0xCD1 JUMPI INVALID JUMPDEST PUSH1 0x20 MUL PUSH1 0x20 ADD ADD MLOAD DUP7 DUP5 DUP2 MLOAD DUP2 LT PUSH2 0xCE5 JUMPI INVALID JUMPDEST PUSH1 0x20 MUL PUSH1 0x20 ADD ADD MLOAD PUSH2 0xD09 DUP12 DUP7 DUP2 MLOAD DUP2 LT PUSH2 0xCFC JUMPI INVALID JUMPDEST PUSH1 0x20 MUL PUSH1 0x20 ADD ADD MLOAD PUSH2 0x1678 JUMP JUMPDEST PUSH1 0x40 MLOAD PUSH2 0xD19 SWAP5 SWAP4 SWAP3 SWAP2 SWAP1 PUSH2 0x56CE JUMP JUMPDEST PUSH1 0x40 MLOAD DUP1 SWAP2 SUB SWAP1 LOG1 PUSH32 0x1628C8374C1BDFEB2275FD9F4C90562FD3FAE974783DC522C8234E36ABCFC58E DUP7 DUP3 DUP2 MLOAD DUP2 LT PUSH2 0xD4E JUMPI INVALID JUMPDEST PUSH1 0x20 MUL PUSH1 0x20 ADD ADD MLOAD DUP7 DUP4 DUP2 MLOAD DUP2 LT PUSH2 0xD62 JUMPI INVALID JUMPDEST PUSH1 0x20 MUL PUSH1 0x20 ADD ADD MLOAD DUP6 DUP5 DUP2 MLOAD DUP2 LT PUSH2 0xD76 JUMPI INVALID JUMPDEST PUSH1 0x20 MUL PUSH1 0x20 ADD ADD MLOAD PUSH2 0xD9A DUP11 DUP7 DUP2 MLOAD DUP2 LT PUSH2 0xD8D JUMPI INVALID JUMPDEST PUSH1 0x20 MUL PUSH1 0x20 ADD ADD MLOAD PUSH2 0x1678 JUMP JUMPDEST PUSH1 0x40 MLOAD PUSH2 0xDAA SWAP5 SWAP4 SWAP3 SWAP2 SWAP1 PUSH2 0x56CE JUMP JUMPDEST PUSH1 0x40 MLOAD DUP1 SWAP2 SUB SWAP1 LOG1 PUSH32 0x2319C5345CDE8CEB76A957B55D75082616215452400C34305E4E6ADAAF42F711 DUP8 DUP3 DUP2 MLOAD DUP2 LT PUSH2 0xDDF JUMPI INVALID JUMPDEST PUSH1 0x20 MUL PUSH1 0x20 ADD ADD MLOAD DUP8 DUP4 DUP2 MLOAD DUP2 LT PUSH2 0xDF3 JUMPI INVALID JUMPDEST PUSH1 0x20 MUL PUSH1 0x20 ADD ADD MLOAD PUSH1 0x40 MLOAD PUSH2 0xE09 SWAP3 SWAP2 SWAP1 PUSH2 0x5545 JUMP JUMPDEST PUSH1 0x40 MLOAD DUP1 SWAP2 SUB SWAP1 LOG1 DUP1 DUP1 PUSH1 0x1 ADD SWAP2 POP POP PUSH2 0xA7F JUMP JUMPDEST POP PUSH1 0x1 SWAP1 POP SWAP6 SWAP5 POP POP POP POP POP JUMP JUMPDEST PUSH1 0x0 PUSH2 0xE36 PUSH2 0x2401 JUMP JUMPDEST PUSH2 0xE75 JUMPI PUSH1 0x40 MLOAD PUSH32 0x8C379A000000000000000000000000000000000000000000000000000000000 DUP2 MSTORE PUSH1 0x4 ADD PUSH2 0xE6C SWAP1 PUSH2 0x5997 JUMP JUMPDEST PUSH1 0x40 MLOAD DUP1 SWAP2 SUB SWAP1 REVERT JUMPDEST DUP2 MLOAD DUP4 MLOAD EQ PUSH2 0xEB9 JUMPI PUSH1 0x40 MLOAD PUSH32 0x8C379A000000000000000000000000000000000000000000000000000000000 DUP2 MSTORE PUSH1 0x4 ADD PUSH2 0xEB0 SWAP1 PUSH2 0x5977 JUMP JUMPDEST PUSH1 0x40 MLOAD DUP1 SWAP2 SUB SWAP1 REVERT JUMPDEST PUSH1 0x0 DUP1 SWAP1 POP JUMPDEST DUP4 MLOAD DUP2 LT ISZERO PUSH2 0xF96 JUMPI DUP3 DUP2 DUP2 MLOAD DUP2 LT PUSH2 0xED4 JUMPI INVALID JUMPDEST PUSH1 0x20 MUL PUSH1 0x20 ADD ADD MLOAD PUSH1 0x2 PUSH1 0x0 DUP7 DUP5 DUP2 MLOAD DUP2 LT PUSH2 0xEEC JUMPI INVALID JUMPDEST PUSH1 0x20 MUL PUSH1 0x20 ADD ADD MLOAD PUSH8 0xFFFFFFFFFFFFFFFF AND PUSH8 0xFFFFFFFFFFFFFFFF AND DUP2 MSTORE PUSH1 0x20 ADD SWAP1 DUP2 MSTORE PUSH1 0x20 ADD PUSH1 0x0 KECCAK256 SWAP1 DUP1 MLOAD SWAP1 PUSH1 0x20 ADD SWAP1 PUSH2 0xF29 SWAP3 SWAP2 SWAP1 PUSH2 0x3BFA JUMP JUMPDEST POP PUSH32 0xDACD7D303272A3B58AEC6620D6D1FB588F4996A5B46858ED437F1C34348F2D0F DUP5 DUP3 DUP2 MLOAD DUP2 LT PUSH2 0xF57 JUMPI INVALID JUMPDEST PUSH1 0x20 MUL PUSH1 0x20 ADD ADD MLOAD DUP5 DUP4 DUP2 MLOAD DUP2 LT PUSH2 0xF6B JUMPI INVALID JUMPDEST PUSH1 0x20 MUL PUSH1 0x20 ADD ADD MLOAD PUSH1 0x40 MLOAD PUSH2 0xF81 SWAP3 SWAP2 SWAP1 PUSH2 0x5C32 JUMP JUMPDEST PUSH1 0x40 MLOAD DUP1 SWAP2 SUB SWAP1 LOG1 DUP1 DUP1 PUSH1 0x1 ADD SWAP2 POP POP PUSH2 0xEBF JUMP JUMPDEST POP PUSH1 0x1 SWAP1 POP SWAP3 SWAP2 POP POP JUMP JUMPDEST PUSH1 0x0 PUSH2 0xFAB PUSH2 0x2401 JUMP JUMPDEST PUSH2 0xFEA JUMPI PUSH1 0x40 MLOAD PUSH32 0x8C379A000000000000000000000000000000000000000000000000000000000 DUP2 MSTORE PUSH1 0x4 ADD PUSH2 0xFE1 SWAP1 PUSH2 0x5997 JUMP JUMPDEST PUSH1 0x40 MLOAD DUP1 SWAP2 SUB SWAP1 REVERT JUMPDEST DUP2 PUSH1 0x3 PUSH1 0x0 DUP7 PUSH20 0xFFFFFFFFFFFFFFFFFFFFFFFFFFFFFFFFFFFFFFFF AND PUSH20 0xFFFFFFFFFFFFFFFFFFFFFFFFFFFFFFFFFFFFFFFF AND DUP2 MSTORE PUSH1 0x20 ADD SWAP1 DUP2 MSTORE PUSH1 0x20 ADD PUSH1 0x0 KECCAK256 PUSH1 0x0 DUP6 PUSH8 0xFFFFFFFFFFFFFFFF AND PUSH8 0xFFFFFFFFFFFFFFFF AND DUP2 MSTORE PUSH1 0x20 ADD SWAP1 DUP2 MSTORE PUSH1 0x20 ADD PUSH1 0x0 KECCAK256 SWAP1 DUP1 MLOAD SWAP1 PUSH1 0x20 ADD SWAP1 PUSH2 0x1062 SWAP3 SWAP2 SWAP1 PUSH2 0x3BFA JUMP JUMPDEST POP PUSH32 0x1628C8374C1BDFEB2275FD9F4C90562FD3FAE974783DC522C8234E36ABCFC58E DUP5 DUP5 DUP5 PUSH2 0x1090 DUP9 PUSH2 0x1678 JUMP JUMPDEST PUSH1 0x40 MLOAD PUSH2 0x10A0 SWAP5 SWAP4 SWAP3 SWAP2 SWAP1 PUSH2 0x5682 JUMP JUMPDEST PUSH1 0x40 MLOAD DUP1 SWAP2 SUB SWAP1 LOG1 PUSH1 0x1 SWAP1 POP SWAP4 SWAP3 POP POP POP JUMP JUMPDEST PUSH1 0x4 PUSH1 0x20 MSTORE DUP1 PUSH1 0x0 MSTORE PUSH1 0x40 PUSH1 0x0 KECCAK256 PUSH1 0x0 SWAP2 POP SLOAD SWAP1 PUSH2 0x100 EXP SWAP1 DIV PUSH20 0xFFFFFFFFFFFFFFFFFFFFFFFFFFFFFFFFFFFFFFFF AND DUP2 JUMP JUMPDEST PUSH1 0x0 PUSH2 0x10F0 PUSH2 0x2401 JUMP JUMPDEST PUSH2 0x112F JUMPI PUSH1 0x40 MLOAD PUSH32 0x8C379A000000000000000000000000000000000000000000000000000000000 DUP2 MSTORE PUSH1 0x4 ADD PUSH2 0x1126 SWAP1 PUSH2 0x5997 JUMP JUMPDEST PUSH1 0x40 MLOAD DUP1 SWAP2 SUB SWAP1 REVERT JUMPDEST DUP2 PUSH1 0x2 PUSH1 0x0 DUP6 PUSH8 0xFFFFFFFFFFFFFFFF AND PUSH8 0xFFFFFFFFFFFFFFFF AND DUP2 MSTORE PUSH1 0x20 ADD SWAP1 DUP2 MSTORE PUSH1 0x20 ADD PUSH1 0x0 KECCAK256 SWAP1 DUP1 MLOAD SWAP1 PUSH1 0x20 ADD SWAP1 PUSH2 0x116A SWAP3 SWAP2 SWAP1 PUSH2 0x3BFA JUMP JUMPDEST POP PUSH32 0xDACD7D303272A3B58AEC6620D6D1FB588F4996A5B46858ED437F1C34348F2D0F DUP4 DUP4 PUSH1 0x40 MLOAD PUSH2 0x119C SWAP3 SWAP2 SWAP1 PUSH2 0x5C62 JUMP JUMPDEST PUSH1 0x40 MLOAD DUP1 SWAP2 SUB SWAP1 LOG1 PUSH1 0x1 SWAP1 POP SWAP3 SWAP2 POP POP JUMP JUMPDEST PUSH1 0x0 DUP1 DUP3 EQ ISZERO PUSH2 0x11F3 JUMPI PUSH1 0x40 MLOAD PUSH32 0x8C379A000000000000000000000000000000000000000000000000000000000 DUP2 MSTORE PUSH1 0x4 ADD PUSH2 0x11EA SWAP1 PUSH2 0x5817 JUMP JUMPDEST PUSH1 0x40 MLOAD DUP1 SWAP2 SUB SWAP1 REVERT JUMPDEST PUSH2 0x11FD DUP4 DUP4 PUSH2 0x2BC7 JUMP JUMPDEST PUSH2 0x123C JUMPI PUSH1 0x40 MLOAD PUSH32 0x8C379A000000000000000000000000000000000000000000000000000000000 DUP2 MSTORE PUSH1 0x4 ADD PUSH2 0x1233 SWAP1 PUSH2 0x5857 JUMP JUMPDEST PUSH1 0x40 MLOAD DUP1 SWAP2 SUB SWAP1 REVERT JUMPDEST PUSH1 0x0 PUSH1 0x4 PUSH1 0x0 DUP6 PUSH20 0xFFFFFFFFFFFFFFFFFFFFFFFFFFFFFFFFFFFFFFFF AND PUSH20 0xFFFFFFFFFFFFFFFFFFFFFFFFFFFFFFFFFFFFFFFF AND DUP2 MSTORE PUSH1 0x20 ADD SWAP1 DUP2 MSTORE PUSH1 0x20 ADD PUSH1 0x0 KECCAK256 PUSH1 0x0 SWAP1 SLOAD SWAP1 PUSH2 0x100 EXP SWAP1 DIV PUSH20 0xFFFFFFFFFFFFFFFFFFFFFFFFFFFFFFFFFFFFFFFF AND SWAP1 POP PUSH2 0x12AB DUP2 CALLER DUP6 PUSH2 0x2AEF JUMP JUMPDEST PUSH2 0x12EA JUMPI PUSH1 0x40 MLOAD PUSH32 0x8C379A000000000000000000000000000000000000000000000000000000000 DUP2 MSTORE PUSH1 0x4 ADD PUSH2 0x12E1 SWAP1 PUSH2 0x5A57 JUMP JUMPDEST PUSH1 0x40 MLOAD DUP1 SWAP2 SUB SWAP1 REVERT JUMPDEST PUSH32 0x30B853CF217DB6B44A3D46920798A5308AFC086C638198E6C161BD7FA12A1D3A CALLER DUP6 DUP4 DUP7 PUSH1 0x40 MLOAD PUSH2 0x131F SWAP5 SWAP4 SWAP3 SWAP2 SWAP1 PUSH2 0x5500 JUMP JUMPDEST PUSH1 0x40 MLOAD DUP1 SWAP2 SUB SWAP1 LOG1 PUSH1 0x1 SWAP2 POP POP SWAP3 SWAP2 POP POP JUMP JUMPDEST PUSH1 0x3 PUSH1 0x20 MSTORE DUP2 PUSH1 0x0 MSTORE PUSH1 0x40 PUSH1 0x0 KECCAK256 PUSH1 0x20 MSTORE DUP1 PUSH1 0x0 MSTORE PUSH1 0x40 PUSH1 0x0 KECCAK256 PUSH1 0x0 SWAP2 POP SWAP2 POP POP DUP1 SLOAD PUSH1 0x1 DUP2 PUSH1 0x1 AND ISZERO PUSH2 0x100 MUL SUB AND PUSH1 0x2 SWAP1 DIV DUP1 PUSH1 0x1F ADD PUSH1 0x20 DUP1 SWAP2 DIV MUL PUSH1 0x20 ADD PUSH1 0x40 MLOAD SWAP1 DUP2 ADD PUSH1 0x40 MSTORE DUP1 SWAP3 SWAP2 SWAP1 DUP2 DUP2 MSTORE PUSH1 0x20 ADD DUP3 DUP1 SLOAD PUSH1 0x1 DUP2 PUSH1 0x1 AND ISZERO PUSH2 0x100 MUL SUB AND PUSH1 0x2 SWAP1 DIV DUP1 ISZERO PUSH2 0x13E7 JUMPI DUP1 PUSH1 0x1F LT PUSH2 0x13BC JUMPI PUSH2 0x100 DUP1 DUP4 SLOAD DIV MUL DUP4 MSTORE SWAP2 PUSH1 0x20 ADD SWAP2 PUSH2 0x13E7 JUMP JUMPDEST DUP3 ADD SWAP2 SWAP1 PUSH1 0x0 MSTORE PUSH1 0x20 PUSH1 0x0 KECCAK256 SWAP1 JUMPDEST DUP2 SLOAD DUP2 MSTORE SWAP1 PUSH1 0x1 ADD SWAP1 PUSH1 0x20 ADD DUP1 DUP4 GT PUSH2 0x13CA JUMPI DUP3 SWAP1 SUB PUSH1 0x1F AND DUP3 ADD SWAP2 JUMPDEST POP POP POP POP POP DUP2 JUMP JUMPDEST PUSH1 0x0 PUSH2 0x13F9 PUSH2 0x2401 JUMP JUMPDEST PUSH2 0x1438 JUMPI PUSH1 0x40 MLOAD PUSH32 0x8C379A000000000000000000000000000000000000000000000000000000000 DUP2 MSTORE PUSH1 0x4 ADD PUSH2 0x142F SWAP1 PUSH2 0x5997 JUMP JUMPDEST PUSH1 0x40 MLOAD DUP1 SWAP2 SUB SWAP1 REVERT JUMPDEST DUP3 PUSH1 0x3 PUSH1 0x0 DUP9 PUSH20 0xFFFFFFFFFFFFFFFFFFFFFFFFFFFFFFFFFFFFFFFF AND PUSH20 0xFFFFFFFFFFFFFFFFFFFFFFFFFFFFFFFFFFFFFFFF AND DUP2 MSTORE PUSH1 0x20 ADD SWAP1 DUP2 MSTORE PUSH1 0x20 ADD PUSH1 0x0 KECCAK256 PUSH1 0x0 DUP7 PUSH8 0xFFFFFFFFFFFFFFFF AND PUSH8 0xFFFFFFFFFFFFFFFF AND DUP2 MSTORE PUSH1 0x20 ADD SWAP1 DUP2 MSTORE PUSH1 0x20 ADD PUSH1 0x0 KECCAK256 SWAP1 DUP1 MLOAD SWAP1 PUSH1 0x20 ADD SWAP1 PUSH2 0x14B0 SWAP3 SWAP2 SWAP1 PUSH2 0x3BFA JUMP JUMPDEST POP DUP2 PUSH1 0x3 PUSH1 0x0 DUP8 PUSH20 0xFFFFFFFFFFFFFFFFFFFFFFFFFFFFFFFFFFFFFFFF AND PUSH20 0xFFFFFFFFFFFFFFFFFFFFFFFFFFFFFFFFFFFFFFFF AND DUP2 MSTORE PUSH1 0x20 ADD SWAP1 DUP2 MSTORE PUSH1 0x20 ADD PUSH1 0x0 KECCAK256 PUSH1 0x0 DUP7 PUSH8 0xFFFFFFFFFFFFFFFF AND PUSH8 0xFFFFFFFFFFFFFFFF AND DUP2 MSTORE PUSH1 0x20 ADD SWAP1 DUP2 MSTORE PUSH1 0x20 ADD PUSH1 0x0 KECCAK256 SWAP1 DUP1 MLOAD SWAP1 PUSH1 0x20 ADD SWAP1 PUSH2 0x1529 SWAP3 SWAP2 SWAP1 PUSH2 0x3BFA JUMP JUMPDEST POP DUP5 PUSH1 0x4 PUSH1 0x0 DUP9 PUSH20 0xFFFFFFFFFFFFFFFFFFFFFFFFFFFFFFFFFFFFFFFF AND PUSH20 0xFFFFFFFFFFFFFFFFFFFFFFFFFFFFFFFFFFFFFFFF AND DUP2 MSTORE PUSH1 0x20 ADD SWAP1 DUP2 MSTORE PUSH1 0x20 ADD PUSH1 0x0 KECCAK256 PUSH1 0x0 PUSH2 0x100 EXP DUP2 SLOAD DUP2 PUSH20 0xFFFFFFFFFFFFFFFFFFFFFFFFFFFFFFFFFFFFFFFF MUL NOT AND SWAP1 DUP4 PUSH20 0xFFFFFFFFFFFFFFFFFFFFFFFFFFFFFFFFFFFFFFFF AND MUL OR SWAP1 SSTORE POP PUSH32 0x1628C8374C1BDFEB2275FD9F4C90562FD3FAE974783DC522C8234E36ABCFC58E DUP7 DUP6 DUP6 PUSH2 0x15D5 DUP11 PUSH2 0x1678 JUMP JUMPDEST PUSH1 0x40 MLOAD PUSH2 0x15E5 SWAP5 SWAP4 SWAP3 SWAP2 SWAP1 PUSH2 0x5682 JUMP JUMPDEST PUSH1 0x40 MLOAD DUP1 SWAP2 SUB SWAP1 LOG1 PUSH32 0x1628C8374C1BDFEB2275FD9F4C90562FD3FAE974783DC522C8234E36ABCFC58E DUP6 DUP6 DUP5 PUSH2 0x161A DUP10 PUSH2 0x1678 JUMP JUMPDEST PUSH1 0x40 MLOAD PUSH2 0x162A SWAP5 SWAP4 SWAP3 SWAP2 SWAP1 PUSH2 0x5682 JUMP JUMPDEST PUSH1 0x40 MLOAD DUP1 SWAP2 SUB SWAP1 LOG1 PUSH32 0x2319C5345CDE8CEB76A957B55D75082616215452400C34305E4E6ADAAF42F711 DUP7 DUP7 PUSH1 0x40 MLOAD PUSH2 0x1663 SWAP3 SWAP2 SWAP1 PUSH2 0x5545 JUMP JUMPDEST PUSH1 0x40 MLOAD DUP1 SWAP2 SUB SWAP1 LOG1 PUSH1 0x1 SWAP1 POP SWAP6 SWAP5 POP POP POP POP POP JUMP JUMPDEST PUSH1 0x0 DUP1 PUSH20 0xFFFFFFFFFFFFFFFFFFFFFFFFFFFFFFFFFFFFFFFF AND DUP3 PUSH20 0xFFFFFFFFFFFFFFFFFFFFFFFFFFFFFFFFFFFFFFFF AND EQ ISZERO PUSH2 0x16D3 JUMPI PUSH1 0x0 ADDRESS SWAP1 POP DUP1 PUSH20 0xFFFFFFFFFFFFFFFFFFFFFFFFFFFFFFFFFFFFFFFF AND BALANCE SWAP2 POP POP PUSH2 0x1765 JUMP JUMPDEST PUSH1 0x0 DUP3 SWAP1 POP DUP1 PUSH20 0xFFFFFFFFFFFFFFFFFFFFFFFFFFFFFFFFFFFFFFFF AND PUSH4 0x70A08231 ADDRESS PUSH1 0x40 MLOAD DUP3 PUSH4 0xFFFFFFFF AND PUSH1 0xE0 SHL DUP2 MSTORE PUSH1 0x4 ADD PUSH2 0x1711 SWAP2 SWAP1 PUSH2 0x54E5 JUMP JUMPDEST PUSH1 0x20 PUSH1 0x40 MLOAD DUP1 DUP4 SUB DUP2 DUP7 DUP1 EXTCODESIZE ISZERO DUP1 ISZERO PUSH2 0x1729 JUMPI PUSH1 0x0 DUP1 REVERT JUMPDEST POP GAS STATICCALL ISZERO DUP1 ISZERO PUSH2 0x173D JUMPI RETURNDATASIZE PUSH1 0x0 DUP1 RETURNDATACOPY RETURNDATASIZE PUSH1 0x0 REVERT JUMPDEST POP POP POP POP PUSH1 0x40 MLOAD RETURNDATASIZE PUSH1 0x1F NOT PUSH1 0x1F DUP3 ADD AND DUP3 ADD DUP1 PUSH1 0x40 MSTORE POP PUSH2 0x1761 SWAP2 SWAP1 DUP2 ADD SWAP1 PUSH2 0x4523 JUMP JUMPDEST SWAP2 POP POP JUMPDEST SWAP2 SWAP1 POP JUMP JUMPDEST PUSH1 0x0 PUSH2 0x1774 PUSH2 0x2401 JUMP JUMPDEST PUSH2 0x17B3 JUMPI PUSH1 0x40 MLOAD PUSH32 0x8C379A000000000000000000000000000000000000000000000000000000000 DUP2 MSTORE PUSH1 0x4 ADD PUSH2 0x17AA SWAP1 PUSH2 0x5997 JUMP JUMPDEST PUSH1 0x40 MLOAD DUP1 SWAP2 SUB SWAP1 REVERT JUMPDEST DUP2 MLOAD DUP4 MLOAD EQ PUSH2 0x17F7 JUMPI PUSH1 0x40 MLOAD PUSH32 0x8C379A000000000000000000000000000000000000000000000000000000000 DUP2 MSTORE PUSH1 0x4 ADD PUSH2 0x17EE SWAP1 PUSH2 0x5BF7 JUMP JUMPDEST PUSH1 0x40 MLOAD DUP1 SWAP2 SUB SWAP1 REVERT JUMPDEST PUSH1 0x0 DUP1 SWAP1 POP JUMPDEST DUP4 MLOAD DUP2 LT ISZERO PUSH2 0x1916 JUMPI DUP3 DUP2 DUP2 MLOAD DUP2 LT PUSH2 0x1812 JUMPI INVALID JUMPDEST PUSH1 0x20 MUL PUSH1 0x20 ADD ADD MLOAD PUSH1 0x4 PUSH1 0x0 DUP7 DUP5 DUP2 MLOAD DUP2 LT PUSH2 0x182A JUMPI INVALID JUMPDEST PUSH1 0x20 MUL PUSH1 0x20 ADD ADD MLOAD PUSH20 0xFFFFFFFFFFFFFFFFFFFFFFFFFFFFFFFFFFFFFFFF AND PUSH20 0xFFFFFFFFFFFFFFFFFFFFFFFFFFFFFFFFFFFFFFFF AND DUP2 MSTORE PUSH1 0x20 ADD SWAP1 DUP2 MSTORE PUSH1 0x20 ADD PUSH1 0x0 KECCAK256 PUSH1 0x0 PUSH2 0x100 EXP DUP2 SLOAD DUP2 PUSH20 0xFFFFFFFFFFFFFFFFFFFFFFFFFFFFFFFFFFFFFFFF MUL NOT AND SWAP1 DUP4 PUSH20 0xFFFFFFFFFFFFFFFFFFFFFFFFFFFFFFFFFFFFFFFF AND MUL OR SWAP1 SSTORE POP PUSH32 0x2319C5345CDE8CEB76A957B55D75082616215452400C34305E4E6ADAAF42F711 DUP5 DUP3 DUP2 MLOAD DUP2 LT PUSH2 0x18D7 JUMPI INVALID JUMPDEST PUSH1 0x20 MUL PUSH1 0x20 ADD ADD MLOAD DUP5 DUP4 DUP2 MLOAD DUP2 LT PUSH2 0x18EB JUMPI INVALID JUMPDEST PUSH1 0x20 MUL PUSH1 0x20 ADD ADD MLOAD PUSH1 0x40 MLOAD PUSH2 0x1901 SWAP3 SWAP2 SWAP1 PUSH2 0x5545 JUMP JUMPDEST PUSH1 0x40 MLOAD DUP1 SWAP2 SUB SWAP1 LOG1 DUP1 DUP1 PUSH1 0x1 ADD SWAP2 POP POP PUSH2 0x17FD JUMP JUMPDEST POP PUSH1 0x1 SWAP1 POP SWAP3 SWAP2 POP POP JUMP JUMPDEST PUSH1 0x0 DUP1 DUP4 EQ ISZERO PUSH2 0x1966 JUMPI PUSH1 0x40 MLOAD PUSH32 0x8C379A000000000000000000000000000000000000000000000000000000000 DUP2 MSTORE PUSH1 0x4 ADD PUSH2 0x195D SWAP1 PUSH2 0x5817 JUMP JUMPDEST PUSH1 0x40 MLOAD DUP1 SWAP2 SUB SWAP1 REVERT JUMPDEST PUSH1 0x0 PUSH1 0x4 PUSH1 0x0 DUP7 PUSH20 0xFFFFFFFFFFFFFFFFFFFFFFFFFFFFFFFFFFFFFFFF AND PUSH20 0xFFFFFFFFFFFFFFFFFFFFFFFFFFFFFFFFFFFFFFFF AND DUP2 MSTORE PUSH1 0x20 ADD SWAP1 DUP2 MSTORE PUSH1 0x20 ADD PUSH1 0x0 KECCAK256 PUSH1 0x0 SWAP1 SLOAD SWAP1 PUSH2 0x100 EXP SWAP1 DIV PUSH20 0xFFFFFFFFFFFFFFFFFFFFFFFFFFFFFFFFFFFFFFFF AND SWAP1 POP PUSH2 0x19D4 DUP2 DUP6 PUSH2 0x2BC7 JUMP JUMPDEST PUSH2 0x1A13 JUMPI PUSH1 0x40 MLOAD PUSH32 0x8C379A000000000000000000000000000000000000000000000000000000000 DUP2 MSTORE PUSH1 0x4 ADD PUSH2 0x1A0A SWAP1 PUSH2 0x5A97 JUMP JUMPDEST PUSH1 0x40 MLOAD DUP1 SWAP2 SUB SWAP1 REVERT JUMPDEST PUSH2 0x1A1E DUP6 DUP5 DUP7 PUSH2 0x2AEF JUMP JUMPDEST PUSH2 0x1A5D JUMPI PUSH1 0x40 MLOAD PUSH32 0x8C379A000000000000000000000000000000000000000000000000000000000 DUP2 MSTORE PUSH1 0x4 ADD PUSH2 0x1A54 SWAP1 PUSH2 0x5757 JUMP JUMPDEST PUSH1 0x40 MLOAD DUP1 SWAP2 SUB SWAP1 REVERT JUMPDEST PUSH32 0xCC7320D7AC24F61B5790719A3C0D7C3CDB569D0AFFD3996FD075136AA97FB516 DUP4 DUP7 DUP4 DUP8 PUSH1 0x40 MLOAD PUSH2 0x1A92 SWAP5 SWAP4 SWAP3 SWAP2 SWAP1 PUSH2 0x55DD JUMP JUMPDEST PUSH1 0x40 MLOAD DUP1 SWAP2 SUB SWAP1 LOG1 PUSH1 0x1 SWAP2 POP POP SWAP4 SWAP3 POP POP POP JUMP JUMPDEST PUSH1 0x0 PUSH2 0x1AB0 PUSH2 0x2401 JUMP JUMPDEST PUSH2 0x1AEF JUMPI PUSH1 0x40 MLOAD PUSH32 0x8C379A000000000000000000000000000000000000000000000000000000000 DUP2 MSTORE PUSH1 0x4 ADD PUSH2 0x1AE6 SWAP1 PUSH2 0x5997 JUMP JUMPDEST PUSH1 0x40 MLOAD DUP1 SWAP2 SUB SWAP1 REVERT JUMPDEST DUP2 PUSH1 0x4 PUSH1 0x0 DUP6 PUSH20 0xFFFFFFFFFFFFFFFFFFFFFFFFFFFFFFFFFFFFFFFF AND PUSH20 0xFFFFFFFFFFFFFFFFFFFFFFFFFFFFFFFFFFFFFFFF AND DUP2 MSTORE PUSH1 0x20 ADD SWAP1 DUP2 MSTORE PUSH1 0x20 ADD PUSH1 0x0 KECCAK256 PUSH1 0x0 PUSH2 0x100 EXP DUP2 SLOAD DUP2 PUSH20 0xFFFFFFFFFFFFFFFFFFFFFFFFFFFFFFFFFFFFFFFF MUL NOT AND SWAP1 DUP4 PUSH20 0xFFFFFFFFFFFFFFFFFFFFFFFFFFFFFFFFFFFFFFFF AND MUL OR SWAP1 SSTORE POP PUSH32 0x2319C5345CDE8CEB76A957B55D75082616215452400C34305E4E6ADAAF42F711 DUP4 DUP4 PUSH1 0x40 MLOAD PUSH2 0x1B9E SWAP3 SWAP2 SWAP1 PUSH2 0x5545 JUMP JUMPDEST PUSH1 0x40 MLOAD DUP1 SWAP2 SUB SWAP1 LOG1 PUSH1 0x1 SWAP1 POP SWAP3 SWAP2 POP POP JUMP JUMPDEST PUSH1 0x0 PUSH2 0x1BBA PUSH2 0x2401 JUMP JUMPDEST PUSH2 0x1BF9 JUMPI PUSH1 0x40 MLOAD PUSH32 0x8C379A000000000000000000000000000000000000000000000000000000000 DUP2 MSTORE PUSH1 0x4 ADD PUSH2 0x1BF0 SWAP1 PUSH2 0x5997 JUMP JUMPDEST PUSH1 0x40 MLOAD DUP1 SWAP2 SUB SWAP1 REVERT JUMPDEST DUP4 MLOAD DUP4 MLOAD EQ PUSH2 0x1C3D JUMPI PUSH1 0x40 MLOAD PUSH32 0x8C379A000000000000000000000000000000000000000000000000000000000 DUP2 MSTORE PUSH1 0x4 ADD PUSH2 0x1C34 SWAP1 PUSH2 0x5AB7 JUMP JUMPDEST PUSH1 0x40 MLOAD DUP1 SWAP2 SUB SWAP1 REVERT JUMPDEST DUP2 MLOAD DUP4 MLOAD EQ PUSH2 0x1C81 JUMPI PUSH1 0x40 MLOAD PUSH32 0x8C379A000000000000000000000000000000000000000000000000000000000 DUP2 MSTORE PUSH1 0x4 ADD PUSH2 0x1C78 SWAP1 PUSH2 0x5AB7 JUMP JUMPDEST PUSH1 0x40 MLOAD DUP1 SWAP2 SUB SWAP1 REVERT JUMPDEST PUSH1 0x0 DUP1 SWAP1 POP JUMPDEST DUP4 MLOAD DUP2 LT ISZERO PUSH2 0x1DE0 JUMPI DUP3 DUP2 DUP2 MLOAD DUP2 LT PUSH2 0x1C9C JUMPI INVALID JUMPDEST PUSH1 0x20 MUL PUSH1 0x20 ADD ADD MLOAD PUSH1 0x3 PUSH1 0x0 DUP8 DUP5 DUP2 MLOAD DUP2 LT PUSH2 0x1CB4 JUMPI INVALID JUMPDEST PUSH1 0x20 MUL PUSH1 0x20 ADD ADD MLOAD PUSH20 0xFFFFFFFFFFFFFFFFFFFFFFFFFFFFFFFFFFFFFFFF AND PUSH20 0xFFFFFFFFFFFFFFFFFFFFFFFFFFFFFFFFFFFFFFFF AND DUP2 MSTORE PUSH1 0x20 ADD SWAP1 DUP2 MSTORE PUSH1 0x20 ADD PUSH1 0x0 KECCAK256 PUSH1 0x0 DUP7 DUP5 DUP2 MLOAD DUP2 LT PUSH2 0x1D04 JUMPI INVALID JUMPDEST PUSH1 0x20 MUL PUSH1 0x20 ADD ADD MLOAD PUSH8 0xFFFFFFFFFFFFFFFF AND PUSH8 0xFFFFFFFFFFFFFFFF AND DUP2 MSTORE PUSH1 0x20 ADD SWAP1 DUP2 MSTORE PUSH1 0x20 ADD PUSH1 0x0 KECCAK256 SWAP1 DUP1 MLOAD SWAP1 PUSH1 0x20 ADD SWAP1 PUSH2 0x1D41 SWAP3 SWAP2 SWAP1 PUSH2 0x3BFA JUMP JUMPDEST POP PUSH32 0x1628C8374C1BDFEB2275FD9F4C90562FD3FAE974783DC522C8234E36ABCFC58E DUP6 DUP3 DUP2 MLOAD DUP2 LT PUSH2 0x1D6F JUMPI INVALID JUMPDEST PUSH1 0x20 MUL PUSH1 0x20 ADD ADD MLOAD DUP6 DUP4 DUP2 MLOAD DUP2 LT PUSH2 0x1D83 JUMPI INVALID JUMPDEST PUSH1 0x20 MUL PUSH1 0x20 ADD ADD MLOAD DUP6 DUP5 DUP2 MLOAD DUP2 LT PUSH2 0x1D97 JUMPI INVALID JUMPDEST PUSH1 0x20 MUL PUSH1 0x20 ADD ADD MLOAD PUSH2 0x1DBB DUP10 DUP7 DUP2 MLOAD DUP2 LT PUSH2 0x1DAE JUMPI INVALID JUMPDEST PUSH1 0x20 MUL PUSH1 0x20 ADD ADD MLOAD PUSH2 0x1678 JUMP JUMPDEST PUSH1 0x40 MLOAD PUSH2 0x1DCB SWAP5 SWAP4 SWAP3 SWAP2 SWAP1 PUSH2 0x56CE JUMP JUMPDEST PUSH1 0x40 MLOAD DUP1 SWAP2 SUB SWAP1 LOG1 DUP1 DUP1 PUSH1 0x1 ADD SWAP2 POP POP PUSH2 0x1C87 JUMP JUMPDEST POP PUSH1 0x1 SWAP1 POP SWAP4 SWAP3 POP POP POP JUMP JUMPDEST PUSH2 0x1DF4 PUSH2 0x2401 JUMP JUMPDEST PUSH2 0x1E33 JUMPI PUSH1 0x40 MLOAD PUSH32 0x8C379A000000000000000000000000000000000000000000000000000000000 DUP2 MSTORE PUSH1 0x4 ADD PUSH2 0x1E2A SWAP1 PUSH2 0x5997 JUMP JUMPDEST PUSH1 0x40 MLOAD DUP1 SWAP2 SUB SWAP1 REVERT JUMPDEST PUSH1 0x0 PUSH20 0xFFFFFFFFFFFFFFFFFFFFFFFFFFFFFFFFFFFFFFFF AND PUSH1 0x0 DUP1 SWAP1 SLOAD SWAP1 PUSH2 0x100 EXP SWAP1 DIV PUSH20 0xFFFFFFFFFFFFFFFFFFFFFFFFFFFFFFFFFFFFFFFF AND PUSH20 0xFFFFFFFFFFFFFFFFFFFFFFFFFFFFFFFFFFFFFFFF AND PUSH32 0x8BE0079C531659141344CD1FD0A4F28419497F9722A3DAAFE3B4186F6B6457E0 PUSH1 0x40 MLOAD PUSH1 0x40 MLOAD DUP1 SWAP2 SUB SWAP1 LOG3 PUSH1 0x0 DUP1 PUSH1 0x0 PUSH2 0x100 EXP DUP2 SLOAD DUP2 PUSH20 0xFFFFFFFFFFFFFFFFFFFFFFFFFFFFFFFFFFFFFFFF MUL NOT AND SWAP1 DUP4 PUSH20 0xFFFFFFFFFFFFFFFFFFFFFFFFFFFFFFFFFFFFFFFF AND MUL OR SWAP1 SSTORE POP JUMP JUMPDEST PUSH1 0x0 DUP1 DUP3 EQ ISZERO PUSH2 0x1F37 JUMPI PUSH1 0x40 MLOAD PUSH32 0x8C379A000000000000000000000000000000000000000000000000000000000 DUP2 MSTORE PUSH1 0x4 ADD PUSH2 0x1F2E SWAP1 PUSH2 0x5817 JUMP JUMPDEST PUSH1 0x40 MLOAD DUP1 SWAP2 SUB SWAP1 REVERT JUMPDEST PUSH2 0x1F41 DUP6 DUP4 PUSH2 0x2BC7 JUMP JUMPDEST PUSH2 0x1F80 JUMPI PUSH1 0x40 MLOAD PUSH32 0x8C379A000000000000000000000000000000000000000000000000000000000 DUP2 MSTORE PUSH1 0x4 ADD PUSH2 0x1F77 SWAP1 PUSH2 0x5857 JUMP JUMPDEST PUSH1 0x40 MLOAD DUP1 SWAP2 SUB SWAP1 REVERT JUMPDEST PUSH1 0x60 PUSH1 0x3 PUSH1 0x0 DUP8 PUSH20 0xFFFFFFFFFFFFFFFFFFFFFFFFFFFFFFFFFFFFFFFF AND PUSH20 0xFFFFFFFFFFFFFFFFFFFFFFFFFFFFFFFFFFFFFFFF AND DUP2 MSTORE PUSH1 0x20 ADD SWAP1 DUP2 MSTORE PUSH1 0x20 ADD PUSH1 0x0 KECCAK256 PUSH1 0x0 DUP7 PUSH8 0xFFFFFFFFFFFFFFFF AND PUSH8 0xFFFFFFFFFFFFFFFF AND DUP2 MSTORE PUSH1 0x20 ADD SWAP1 DUP2 MSTORE PUSH1 0x20 ADD PUSH1 0x0 KECCAK256 DUP1 SLOAD PUSH1 0x1 DUP2 PUSH1 0x1 AND ISZERO PUSH2 0x100 MUL SUB AND PUSH1 0x2 SWAP1 DIV DUP1 PUSH1 0x1F ADD PUSH1 0x20 DUP1 SWAP2 DIV MUL PUSH1 0x20 ADD PUSH1 0x40 MLOAD SWAP1 DUP2 ADD PUSH1 0x40 MSTORE DUP1 SWAP3 SWAP2 SWAP1 DUP2 DUP2 MSTORE PUSH1 0x20 ADD DUP3 DUP1 SLOAD PUSH1 0x1 DUP2 PUSH1 0x1 AND ISZERO PUSH2 0x100 MUL SUB AND PUSH1 0x2 SWAP1 DIV DUP1 ISZERO PUSH2 0x207A JUMPI DUP1 PUSH1 0x1F LT PUSH2 0x204F JUMPI PUSH2 0x100 DUP1 DUP4 SLOAD DIV MUL DUP4 MSTORE SWAP2 PUSH1 0x20 ADD SWAP2 PUSH2 0x207A JUMP JUMPDEST DUP3 ADD SWAP2 SWAP1 PUSH1 0x0 MSTORE PUSH1 0x20 PUSH1 0x0 KECCAK256 SWAP1 JUMPDEST DUP2 SLOAD DUP2 MSTORE SWAP1 PUSH1 0x1 ADD SWAP1 PUSH1 0x20 ADD DUP1 DUP4 GT PUSH2 0x205D JUMPI DUP3 SWAP1 SUB PUSH1 0x1F AND DUP3 ADD SWAP2 JUMPDEST POP POP POP POP POP SWAP1 POP PUSH1 0x0 DUP2 MLOAD EQ ISZERO PUSH2 0x20C6 JUMPI PUSH1 0x40 MLOAD PUSH32 0x8C379A000000000000000000000000000000000000000000000000000000000 DUP2 MSTORE PUSH1 0x4 ADD PUSH2 0x20BD SWAP1 PUSH2 0x5A17 JUMP JUMPDEST PUSH1 0x40 MLOAD DUP1 SWAP2 SUB SWAP1 REVERT JUMPDEST PUSH2 0x20CE PUSH2 0x3BD9 JUMP JUMPDEST PUSH1 0x40 MLOAD DUP1 PUSH1 0x60 ADD PUSH1 0x40 MSTORE DUP1 DUP4 DUP2 MSTORE PUSH1 0x20 ADD DUP7 DUP2 MSTORE PUSH1 0x20 ADD DUP6 DUP2 MSTORE POP SWAP1 POP PUSH1 0x60 PUSH2 0x20F6 DUP3 PUSH2 0x2D28 JUMP JUMPDEST SWAP1 POP PUSH1 0x0 PUSH1 0x1 PUSH1 0x0 SWAP1 SLOAD SWAP1 PUSH2 0x100 EXP SWAP1 DIV PUSH20 0xFFFFFFFFFFFFFFFFFFFFFFFFFFFFFFFFFFFFFFFF AND SWAP1 POP PUSH1 0x0 DUP2 PUSH20 0xFFFFFFFFFFFFFFFFFFFFFFFFFFFFFFFFFFFFFFFF AND PUSH4 0x87939A7F PUSH1 0x40 MLOAD DUP2 PUSH4 0xFFFFFFFF AND PUSH1 0xE0 SHL DUP2 MSTORE PUSH1 0x4 ADD PUSH1 0x20 PUSH1 0x40 MLOAD DUP1 DUP4 SUB DUP2 DUP7 DUP1 EXTCODESIZE ISZERO DUP1 ISZERO PUSH2 0x2167 JUMPI PUSH1 0x0 DUP1 REVERT JUMPDEST POP GAS STATICCALL ISZERO DUP1 ISZERO PUSH2 0x217B JUMPI RETURNDATASIZE PUSH1 0x0 DUP1 RETURNDATACOPY RETURNDATASIZE PUSH1 0x0 REVERT JUMPDEST POP POP POP POP PUSH1 0x40 MLOAD RETURNDATASIZE PUSH1 0x1F NOT PUSH1 0x1F DUP3 ADD AND DUP3 ADD DUP1 PUSH1 0x40 MSTORE POP PUSH2 0x219F SWAP2 SWAP1 DUP2 ADD SWAP1 PUSH2 0x3F68 JUMP JUMPDEST SWAP1 POP PUSH1 0x0 DUP2 SWAP1 POP PUSH1 0x60 PUSH1 0x2 PUSH1 0x0 DUP13 PUSH8 0xFFFFFFFFFFFFFFFF AND PUSH8 0xFFFFFFFFFFFFFFFF AND DUP2 MSTORE PUSH1 0x20 ADD SWAP1 DUP2 MSTORE PUSH1 0x20 ADD PUSH1 0x0 KECCAK256 DUP1 SLOAD PUSH1 0x1 DUP2 PUSH1 0x1 AND ISZERO PUSH2 0x100 MUL SUB AND PUSH1 0x2 SWAP1 DIV DUP1 PUSH1 0x1F ADD PUSH1 0x20 DUP1 SWAP2 DIV MUL PUSH1 0x20 ADD PUSH1 0x40 MLOAD SWAP1 DUP2 ADD PUSH1 0x40 MSTORE DUP1 SWAP3 SWAP2 SWAP1 DUP2 DUP2 MSTORE PUSH1 0x20 ADD DUP3 DUP1 SLOAD PUSH1 0x1 DUP2 PUSH1 0x1 AND ISZERO PUSH2 0x100 MUL SUB AND PUSH1 0x2 SWAP1 DIV DUP1 ISZERO PUSH2 0x2263 JUMPI DUP1 PUSH1 0x1F LT PUSH2 0x2238 JUMPI PUSH2 0x100 DUP1 DUP4 SLOAD DIV MUL DUP4 MSTORE SWAP2 PUSH1 0x20 ADD SWAP2 PUSH2 0x2263 JUMP JUMPDEST DUP3 ADD SWAP2 SWAP1 PUSH1 0x0 MSTORE PUSH1 0x20 PUSH1 0x0 KECCAK256 SWAP1 JUMPDEST DUP2 SLOAD DUP2 MSTORE SWAP1 PUSH1 0x1 ADD SWAP1 PUSH1 0x20 ADD DUP1 DUP4 GT PUSH2 0x2246 JUMPI DUP3 SWAP1 SUB PUSH1 0x1F AND DUP3 ADD SWAP2 JUMPDEST POP POP POP POP POP SWAP1 POP PUSH1 0x0 DUP2 MLOAD EQ ISZERO PUSH2 0x22AF JUMPI PUSH1 0x40 MLOAD PUSH32 0x8C379A000000000000000000000000000000000000000000000000000000000 DUP2 MSTORE PUSH1 0x4 ADD PUSH2 0x22A6 SWAP1 PUSH2 0x58B7 JUMP JUMPDEST PUSH1 0x40 MLOAD DUP1 SWAP2 SUB SWAP1 REVERT JUMPDEST DUP2 PUSH20 0xFFFFFFFFFFFFFFFFFFFFFFFFFFFFFFFFFFFFFFFF AND PUSH4 0xBD5CF625 DUP13 DUP4 DUP9 PUSH1 0x40 MLOAD DUP5 PUSH4 0xFFFFFFFF AND PUSH1 0xE0 SHL DUP2 MSTORE PUSH1 0x4 ADD PUSH2 0x22EC SWAP4 SWAP3 SWAP2 SWAP1 PUSH2 0x5C92 JUMP JUMPDEST PUSH1 0x20 PUSH1 0x40 MLOAD DUP1 DUP4 SUB DUP2 PUSH1 0x0 DUP8 DUP1 EXTCODESIZE ISZERO DUP1 ISZERO PUSH2 0x2306 JUMPI PUSH1 0x0 DUP1 REVERT JUMPDEST POP GAS CALL ISZERO DUP1 ISZERO PUSH2 0x231A JUMPI RETURNDATASIZE PUSH1 0x0 DUP1 RETURNDATACOPY RETURNDATASIZE PUSH1 0x0 REVERT JUMPDEST POP POP POP POP PUSH1 0x40 MLOAD RETURNDATASIZE PUSH1 0x1F NOT PUSH1 0x1F DUP3 ADD AND DUP3 ADD DUP1 PUSH1 0x40 MSTORE POP PUSH2 0x233E SWAP2 SWAP1 DUP2 ADD SWAP1 PUSH2 0x447B JUMP JUMPDEST PUSH2 0x237D JUMPI PUSH1 0x40 MLOAD PUSH32 0x8C379A000000000000000000000000000000000000000000000000000000000 DUP2 MSTORE PUSH1 0x4 ADD PUSH2 0x2374 SWAP1 PUSH2 0x59B7 JUMP JUMPDEST PUSH1 0x40 MLOAD DUP1 SWAP2 SUB SWAP1 REVERT JUMPDEST PUSH32 0x8636ABD6D0E464FE725A13346C7AC779B73561C705506044A2E6B2CDB1295EA5 DUP13 PUSH2 0x23A7 PUSH2 0x2975 JUMP JUMPDEST DUP14 DUP11 DUP15 DUP15 PUSH1 0x40 MLOAD PUSH2 0x23BD SWAP7 SWAP6 SWAP5 SWAP4 SWAP3 SWAP2 SWAP1 PUSH2 0x556E JUMP JUMPDEST PUSH1 0x40 MLOAD DUP1 SWAP2 SUB SWAP1 LOG1 PUSH1 0x1 SWAP8 POP POP POP POP POP POP POP POP SWAP5 SWAP4 POP POP POP POP JUMP JUMPDEST PUSH1 0x0 DUP1 PUSH1 0x0 SWAP1 SLOAD SWAP1 PUSH2 0x100 EXP SWAP1 DIV PUSH20 0xFFFFFFFFFFFFFFFFFFFFFFFFFFFFFFFFFFFFFFFF AND SWAP1 POP SWAP1 JUMP JUMPDEST PUSH1 0x0 DUP1 PUSH1 0x0 SWAP1 SLOAD SWAP1 PUSH2 0x100 EXP SWAP1 DIV PUSH20 0xFFFFFFFFFFFFFFFFFFFFFFFFFFFFFFFFFFFFFFFF AND PUSH20 0xFFFFFFFFFFFFFFFFFFFFFFFFFFFFFFFFFFFFFFFF AND PUSH2 0x2443 PUSH2 0x2975 JUMP JUMPDEST PUSH20 0xFFFFFFFFFFFFFFFFFFFFFFFFFFFFFFFFFFFFFFFF AND EQ SWAP1 POP SWAP1 JUMP JUMPDEST PUSH1 0x2 PUSH1 0x20 MSTORE DUP1 PUSH1 0x0 MSTORE PUSH1 0x40 PUSH1 0x0 KECCAK256 PUSH1 0x0 SWAP2 POP SWAP1 POP DUP1 SLOAD PUSH1 0x1 DUP2 PUSH1 0x1 AND ISZERO PUSH2 0x100 MUL SUB AND PUSH1 0x2 SWAP1 DIV DUP1 PUSH1 0x1F ADD PUSH1 0x20 DUP1 SWAP2 DIV MUL PUSH1 0x20 ADD PUSH1 0x40 MLOAD SWAP1 DUP2 ADD PUSH1 0x40 MSTORE DUP1 SWAP3 SWAP2 SWAP1 DUP2 DUP2 MSTORE PUSH1 0x20 ADD DUP3 DUP1 SLOAD PUSH1 0x1 DUP2 PUSH1 0x1 AND ISZERO PUSH2 0x100 MUL SUB AND PUSH1 0x2 SWAP1 DIV DUP1 ISZERO PUSH2 0x2507 JUMPI DUP1 PUSH1 0x1F LT PUSH2 0x24DC JUMPI PUSH2 0x100 DUP1 DUP4 SLOAD DIV MUL DUP4 MSTORE SWAP2 PUSH1 0x20 ADD SWAP2 PUSH2 0x2507 JUMP JUMPDEST DUP3 ADD SWAP2 SWAP1 PUSH1 0x0 MSTORE PUSH1 0x20 PUSH1 0x0 KECCAK256 SWAP1 JUMPDEST DUP2 SLOAD DUP2 MSTORE SWAP1 PUSH1 0x1 ADD SWAP1 PUSH1 0x20 ADD DUP1 DUP4 GT PUSH2 0x24EA JUMPI DUP3 SWAP1 SUB PUSH1 0x1F AND DUP3 ADD SWAP2 JUMPDEST POP POP POP POP POP DUP2 JUMP JUMPDEST PUSH2 0x2517 PUSH2 0x2401 JUMP JUMPDEST PUSH2 0x2556 JUMPI PUSH1 0x40 MLOAD PUSH32 0x8C379A000000000000000000000000000000000000000000000000000000000 DUP2 MSTORE PUSH1 0x4 ADD PUSH2 0x254D SWAP1 PUSH2 0x5997 JUMP JUMPDEST PUSH1 0x40 MLOAD DUP1 SWAP2 SUB SWAP1 REVERT JUMPDEST DUP1 PUSH1 0x1 PUSH1 0x0 PUSH2 0x100 EXP DUP2 SLOAD DUP2 PUSH20 0xFFFFFFFFFFFFFFFFFFFFFFFFFFFFFFFFFFFFFFFF MUL NOT AND SWAP1 DUP4 PUSH20 0xFFFFFFFFFFFFFFFFFFFFFFFFFFFFFFFFFFFFFFFF AND MUL OR SWAP1 SSTORE POP PUSH32 0x43B1A8EC337ADB61E8311ED025D99C80DB65C02FE5C5027C1B6A93B40970CEC4 PUSH1 0x1 PUSH1 0x0 SWAP1 SLOAD SWAP1 PUSH2 0x100 EXP SWAP1 DIV PUSH20 0xFFFFFFFFFFFFFFFFFFFFFFFFFFFFFFFFFFFFFFFF AND PUSH1 0x40 MLOAD PUSH2 0x25E8 SWAP2 SWAP1 PUSH2 0x54E5 JUMP JUMPDEST PUSH1 0x40 MLOAD DUP1 SWAP2 SUB SWAP1 LOG1 POP JUMP JUMPDEST PUSH1 0x1 PUSH1 0x0 SWAP1 SLOAD SWAP1 PUSH2 0x100 EXP SWAP1 DIV PUSH20 0xFFFFFFFFFFFFFFFFFFFFFFFFFFFFFFFFFFFFFFFF AND DUP2 JUMP JUMPDEST PUSH2 0x2621 PUSH2 0x2401 JUMP JUMPDEST PUSH2 0x2660 JUMPI PUSH1 0x40 MLOAD PUSH32 0x8C379A000000000000000000000000000000000000000000000000000000000 DUP2 MSTORE PUSH1 0x4 ADD PUSH2 0x2657 SWAP1 PUSH2 0x5997 JUMP JUMPDEST PUSH1 0x40 MLOAD DUP1 SWAP2 SUB SWAP1 REVERT JUMPDEST PUSH2 0x2669 DUP2 PUSH2 0x2D7E JUMP JUMPDEST POP JUMP JUMPDEST PUSH1 0x0 DUP1 DUP3 EQ ISZERO PUSH2 0x26B1 JUMPI PUSH1 0x40 MLOAD PUSH32 0x8C379A000000000000000000000000000000000000000000000000000000000 DUP2 MSTORE PUSH1 0x4 ADD PUSH2 0x26A8 SWAP1 PUSH2 0x5817 JUMP JUMPDEST PUSH1 0x40 MLOAD DUP1 SWAP2 SUB SWAP1 REVERT JUMPDEST PUSH1 0x0 PUSH1 0x4 PUSH1 0x0 DUP6 PUSH20 0xFFFFFFFFFFFFFFFFFFFFFFFFFFFFFFFFFFFFFFFF AND PUSH20 0xFFFFFFFFFFFFFFFFFFFFFFFFFFFFFFFFFFFFFFFF AND DUP2 MSTORE PUSH1 0x20 ADD SWAP1 DUP2 MSTORE PUSH1 0x20 ADD PUSH1 0x0 KECCAK256 PUSH1 0x0 SWAP1 SLOAD SWAP1 PUSH2 0x100 EXP SWAP1 DIV PUSH20 0xFFFFFFFFFFFFFFFFFFFFFFFFFFFFFFFFFFFFFFFF AND SWAP1 POP PUSH2 0x271F DUP2 DUP5 PUSH2 0x2BC7 JUMP JUMPDEST PUSH2 0x275E JUMPI PUSH1 0x40 MLOAD PUSH32 0x8C379A000000000000000000000000000000000000000000000000000000000 DUP2 MSTORE PUSH1 0x4 ADD PUSH2 0x2755 SWAP1 PUSH2 0x5A97 JUMP JUMPDEST PUSH1 0x40 MLOAD DUP1 SWAP2 SUB SWAP1 REVERT JUMPDEST PUSH2 0x2769 DUP5 CALLER DUP6 PUSH2 0x2AEF JUMP JUMPDEST PUSH2 0x27A8 JUMPI PUSH1 0x40 MLOAD PUSH32 0x8C379A000000000000000000000000000000000000000000000000000000000 DUP2 MSTORE PUSH1 0x4 ADD PUSH2 0x279F SWAP1 PUSH2 0x5757 JUMP JUMPDEST PUSH1 0x40 MLOAD DUP1 SWAP2 SUB SWAP1 REVERT JUMPDEST PUSH32 0xCC7320D7AC24F61B5790719A3C0D7C3CDB569D0AFFD3996FD075136AA97FB516 CALLER DUP6 DUP4 DUP7 PUSH1 0x40 MLOAD PUSH2 0x27DD SWAP5 SWAP4 SWAP3 SWAP2 SWAP1 PUSH2 0x5500 JUMP JUMPDEST PUSH1 0x40 MLOAD DUP1 SWAP2 SUB SWAP1 LOG1 PUSH1 0x1 SWAP2 POP POP SWAP3 SWAP2 POP POP JUMP JUMPDEST PUSH1 0x0 DUP1 DUP4 EQ ISZERO PUSH2 0x2835 JUMPI PUSH1 0x40 MLOAD PUSH32 0x8C379A000000000000000000000000000000000000000000000000000000000 DUP2 MSTORE PUSH1 0x4 ADD PUSH2 0x282C SWAP1 PUSH2 0x5817 JUMP JUMPDEST PUSH1 0x40 MLOAD DUP1 SWAP2 SUB SWAP1 REVERT JUMPDEST PUSH2 0x283F DUP5 DUP5 PUSH2 0x2BC7 JUMP JUMPDEST PUSH2 0x287E JUMPI PUSH1 0x40 MLOAD PUSH32 0x8C379A000000000000000000000000000000000000000000000000000000000 DUP2 MSTORE PUSH1 0x4 ADD PUSH2 0x2875 SWAP1 PUSH2 0x5857 JUMP JUMPDEST PUSH1 0x40 MLOAD DUP1 SWAP2 SUB SWAP1 REVERT JUMPDEST PUSH1 0x0 PUSH1 0x4 PUSH1 0x0 DUP7 PUSH20 0xFFFFFFFFFFFFFFFFFFFFFFFFFFFFFFFFFFFFFFFF AND PUSH20 0xFFFFFFFFFFFFFFFFFFFFFFFFFFFFFFFFFFFFFFFF AND DUP2 MSTORE PUSH1 0x20 ADD SWAP1 DUP2 MSTORE PUSH1 0x20 ADD PUSH1 0x0 KECCAK256 PUSH1 0x0 SWAP1 SLOAD SWAP1 PUSH2 0x100 EXP SWAP1 DIV PUSH20 0xFFFFFFFFFFFFFFFFFFFFFFFFFFFFFFFFFFFFFFFF AND SWAP1 POP PUSH2 0x28ED DUP2 DUP5 DUP7 PUSH2 0x2AEF JUMP JUMPDEST PUSH2 0x292C JUMPI PUSH1 0x40 MLOAD PUSH32 0x8C379A000000000000000000000000000000000000000000000000000000000 DUP2 MSTORE PUSH1 0x4 ADD PUSH2 0x2923 SWAP1 PUSH2 0x5A57 JUMP JUMPDEST PUSH1 0x40 MLOAD DUP1 SWAP2 SUB SWAP1 REVERT JUMPDEST PUSH32 0x30B853CF217DB6B44A3D46920798A5308AFC086C638198E6C161BD7FA12A1D3A DUP4 DUP7 DUP4 DUP8 PUSH1 0x40 MLOAD PUSH2 0x2961 SWAP5 SWAP4 SWAP3 SWAP2 SWAP1 PUSH2 0x55DD JUMP JUMPDEST PUSH1 0x40 MLOAD DUP1 SWAP2 SUB SWAP1 LOG1 PUSH1 0x1 SWAP2 POP POP SWAP4 SWAP3 POP POP POP JUMP JUMPDEST PUSH1 0x0 CALLER SWAP1 POP SWAP1 JUMP JUMPDEST PUSH2 0x2985 PUSH2 0x3BD9 JUMP JUMPDEST PUSH2 0x298D PUSH2 0x3BD9 JUMP JUMPDEST PUSH1 0x0 DUP1 SWAP1 POP PUSH2 0x299C DUP5 DUP3 PUSH2 0x2EAC JUMP JUMPDEST DUP2 SWAP2 POP DUP4 PUSH1 0x0 ADD DUP2 SWAP4 POP DUP3 SWAP1 MSTORE POP POP PUSH2 0x29B5 DUP5 DUP3 PUSH2 0x2EAC JUMP JUMPDEST DUP2 SWAP2 POP DUP4 PUSH1 0x20 ADD DUP2 SWAP4 POP DUP3 SWAP1 MSTORE POP POP PUSH2 0x29CE DUP5 DUP3 PUSH2 0x2F96 JUMP JUMPDEST DUP4 PUSH1 0x40 ADD DUP2 SWAP4 POP DUP3 DUP2 MSTORE POP POP POP DUP2 SWAP3 POP POP POP SWAP2 SWAP1 POP JUMP JUMPDEST PUSH1 0x0 DUP1 PUSH1 0x1 SWAP1 POP DUP4 SLOAD PUSH1 0x2 PUSH1 0x1 DUP1 DUP4 AND ISZERO PUSH2 0x100 MUL SUB DUP3 AND DIV DUP5 MLOAD DUP1 DUP3 EQ PUSH1 0x1 DUP2 EQ PUSH2 0x2A14 JUMPI PUSH1 0x0 SWAP5 POP PUSH2 0x2A8F JUMP JUMPDEST DUP3 ISZERO PUSH2 0x2A8E JUMPI PUSH1 0x20 DUP4 LT PUSH1 0x1 DUP2 EQ PUSH2 0x2A72 JUMPI PUSH1 0x1 DUP10 PUSH1 0x0 MSTORE PUSH1 0x20 PUSH1 0x0 KECCAK256 PUSH1 0x20 DUP11 ADD DUP6 DUP2 ADD JUMPDEST PUSH1 0x2 DUP5 DUP3 DUP5 LT ADD EQ ISZERO PUSH2 0x2A69 JUMPI DUP2 MLOAD DUP4 SLOAD EQ PUSH2 0x2A58 JUMPI PUSH1 0x0 SWAP10 POP PUSH1 0x0 SWAP4 POP JUMPDEST PUSH1 0x1 DUP4 ADD SWAP3 POP PUSH1 0x20 DUP3 ADD SWAP2 POP PUSH2 0x2A39 JUMP JUMPDEST POP POP POP POP PUSH2 0x2A8C JUMP JUMPDEST PUSH2 0x100 DUP1 DUP7 DIV MUL SWAP5 POP PUSH1 0x20 DUP9 ADD MLOAD DUP6 EQ PUSH2 0x2A8B JUMPI PUSH1 0x0 SWAP6 POP JUMPDEST JUMPDEST POP JUMPDEST JUMPDEST POP POP POP POP DUP1 SWAP2 POP POP SWAP3 SWAP2 POP POP JUMP JUMPDEST PUSH1 0x0 PUSH1 0x14 DUP3 MLOAD EQ PUSH2 0x2AE3 JUMPI PUSH1 0x40 MLOAD PUSH32 0x8C379A000000000000000000000000000000000000000000000000000000000 DUP2 MSTORE PUSH1 0x4 ADD PUSH2 0x2ADA SWAP1 PUSH2 0x57B7 JUMP JUMPDEST PUSH1 0x40 MLOAD DUP1 SWAP2 SUB SWAP1 REVERT JUMPDEST PUSH1 0x14 DUP3 ADD MLOAD SWAP1 POP SWAP2 SWAP1 POP JUMP JUMPDEST PUSH1 0x0 DUP1 PUSH20 0xFFFFFFFFFFFFFFFFFFFFFFFFFFFFFFFFFFFFFFFF AND DUP5 PUSH20 0xFFFFFFFFFFFFFFFFFFFFFFFFFFFFFFFFFFFFFFFF AND EQ ISZERO PUSH2 0x2B71 JUMPI DUP3 PUSH20 0xFFFFFFFFFFFFFFFFFFFFFFFFFFFFFFFFFFFFFFFF AND PUSH2 0x8FC DUP4 SWAP1 DUP2 ISZERO MUL SWAP1 PUSH1 0x40 MLOAD PUSH1 0x0 PUSH1 0x40 MLOAD DUP1 DUP4 SUB DUP2 DUP6 DUP9 DUP9 CALL SWAP4 POP POP POP POP ISZERO DUP1 ISZERO PUSH2 0x2B6B JUMPI RETURNDATASIZE PUSH1 0x0 DUP1 RETURNDATACOPY RETURNDATASIZE PUSH1 0x0 REVERT JUMPDEST POP PUSH2 0x2BBC JUMP JUMPDEST PUSH2 0x2B7C DUP5 DUP5 DUP5 PUSH2 0x30A6 JUMP JUMPDEST PUSH2 0x2BBB JUMPI PUSH1 0x40 MLOAD PUSH32 0x8C379A000000000000000000000000000000000000000000000000000000000 DUP2 MSTORE PUSH1 0x4 ADD PUSH2 0x2BB2 SWAP1 PUSH2 0x57D7 JUMP JUMPDEST PUSH1 0x40 MLOAD DUP1 SWAP2 SUB SWAP1 REVERT JUMPDEST JUMPDEST PUSH1 0x1 SWAP1 POP SWAP4 SWAP3 POP POP POP JUMP JUMPDEST PUSH1 0x0 DUP1 PUSH20 0xFFFFFFFFFFFFFFFFFFFFFFFFFFFFFFFFFFFFFFFF AND DUP4 PUSH20 0xFFFFFFFFFFFFFFFFFFFFFFFFFFFFFFFFFFFFFFFF AND EQ ISZERO PUSH2 0x2C88 JUMPI PUSH1 0x0 CALLVALUE EQ ISZERO PUSH2 0x2C41 JUMPI PUSH1 0x40 MLOAD PUSH32 0x8C379A000000000000000000000000000000000000000000000000000000000 DUP2 MSTORE PUSH1 0x4 ADD PUSH2 0x2C38 SWAP1 PUSH2 0x5BD7 JUMP JUMPDEST PUSH1 0x40 MLOAD DUP1 SWAP2 SUB SWAP1 REVERT JUMPDEST DUP2 CALLVALUE EQ PUSH2 0x2C83 JUMPI PUSH1 0x40 MLOAD PUSH32 0x8C379A000000000000000000000000000000000000000000000000000000000 DUP2 MSTORE PUSH1 0x4 ADD PUSH2 0x2C7A SWAP1 PUSH2 0x5AD7 JUMP JUMPDEST PUSH1 0x40 MLOAD DUP1 SWAP2 SUB SWAP1 REVERT JUMPDEST PUSH2 0x2D1E JUMP JUMPDEST PUSH1 0x0 CALLVALUE EQ PUSH2 0x2CCB JUMPI PUSH1 0x40 MLOAD PUSH32 0x8C379A000000000000000000000000000000000000000000000000000000000 DUP2 MSTORE PUSH1 0x4 ADD PUSH2 0x2CC2 SWAP1 PUSH2 0x5957 JUMP JUMPDEST PUSH1 0x40 MLOAD DUP1 SWAP2 SUB SWAP1 REVERT JUMPDEST PUSH2 0x2CDE DUP4 PUSH2 0x2CD7 PUSH2 0x2975 JUMP JUMPDEST ADDRESS DUP6 PUSH2 0x30E3 JUMP JUMPDEST PUSH2 0x2D1D JUMPI PUSH1 0x40 MLOAD PUSH32 0x8C379A000000000000000000000000000000000000000000000000000000000 DUP2 MSTORE PUSH1 0x4 ADD PUSH2 0x2D14 SWAP1 PUSH2 0x57D7 JUMP JUMPDEST PUSH1 0x40 MLOAD DUP1 SWAP2 SUB SWAP1 REVERT JUMPDEST JUMPDEST PUSH1 0x1 SWAP1 POP SWAP3 SWAP2 POP POP JUMP JUMPDEST PUSH1 0x60 DUP1 PUSH2 0x2D38 DUP4 PUSH1 0x0 ADD MLOAD PUSH2 0x3123 JUMP JUMPDEST PUSH2 0x2D45 DUP5 PUSH1 0x20 ADD MLOAD PUSH2 0x3123 JUMP JUMPDEST PUSH2 0x2D52 DUP6 PUSH1 0x40 ADD MLOAD PUSH2 0x315D JUMP JUMPDEST PUSH1 0x40 MLOAD PUSH1 0x20 ADD PUSH2 0x2D64 SWAP4 SWAP3 SWAP2 SWAP1 PUSH2 0x54B4 JUMP JUMPDEST PUSH1 0x40 MLOAD PUSH1 0x20 DUP2 DUP4 SUB SUB DUP2 MSTORE SWAP1 PUSH1 0x40 MSTORE SWAP1 POP DUP1 SWAP2 POP POP SWAP2 SWAP1 POP JUMP JUMPDEST PUSH1 0x0 PUSH20 0xFFFFFFFFFFFFFFFFFFFFFFFFFFFFFFFFFFFFFFFF AND DUP2 PUSH20 0xFFFFFFFFFFFFFFFFFFFFFFFFFFFFFFFFFFFFFFFF AND EQ ISZERO PUSH2 0x2DEE JUMPI PUSH1 0x40 MLOAD PUSH32 0x8C379A000000000000000000000000000000000000000000000000000000000 DUP2 MSTORE PUSH1 0x4 ADD PUSH2 0x2DE5 SWAP1 PUSH2 0x57F7 JUMP JUMPDEST PUSH1 0x40 MLOAD DUP1 SWAP2 SUB SWAP1 REVERT JUMPDEST DUP1 PUSH20 0xFFFFFFFFFFFFFFFFFFFFFFFFFFFFFFFFFFFFFFFF AND PUSH1 0x0 DUP1 SWAP1 SLOAD SWAP1 PUSH2 0x100 EXP SWAP1 DIV PUSH20 0xFFFFFFFFFFFFFFFFFFFFFFFFFFFFFFFFFFFFFFFF AND PUSH20 0xFFFFFFFFFFFFFFFFFFFFFFFFFFFFFFFFFFFFFFFF AND PUSH32 0x8BE0079C531659141344CD1FD0A4F28419497F9722A3DAAFE3B4186F6B6457E0 PUSH1 0x40 MLOAD PUSH1 0x40 MLOAD DUP1 SWAP2 SUB SWAP1 LOG3 DUP1 PUSH1 0x0 DUP1 PUSH2 0x100 EXP DUP2 SLOAD DUP2 PUSH20 0xFFFFFFFFFFFFFFFFFFFFFFFFFFFFFFFFFFFFFFFF MUL NOT AND SWAP1 DUP4 PUSH20 0xFFFFFFFFFFFFFFFFFFFFFFFFFFFFFFFFFFFFFFFF AND MUL OR SWAP1 SSTORE POP POP JUMP JUMPDEST PUSH1 0x60 PUSH1 0x0 DUP1 PUSH2 0x2EBB DUP6 DUP6 PUSH2 0x3209 JUMP JUMPDEST DUP1 SWAP6 POP DUP2 SWAP3 POP POP POP DUP5 MLOAD DUP2 DUP6 ADD GT ISZERO DUP1 ISZERO PUSH2 0x2ED7 JUMPI POP DUP1 DUP5 ADD DUP5 LT JUMPDEST PUSH2 0x2F16 JUMPI PUSH1 0x40 MLOAD PUSH32 0x8C379A000000000000000000000000000000000000000000000000000000000 DUP2 MSTORE PUSH1 0x4 ADD PUSH2 0x2F0D SWAP1 PUSH2 0x5B77 JUMP JUMPDEST PUSH1 0x40 MLOAD DUP1 SWAP2 SUB SWAP1 REVERT JUMPDEST PUSH1 0x60 DUP2 ISZERO PUSH1 0x0 DUP2 EQ PUSH2 0x2F33 JUMPI PUSH1 0x40 MLOAD SWAP2 POP PUSH1 0x20 DUP3 ADD PUSH1 0x40 MSTORE PUSH2 0x2F84 JUMP JUMPDEST PUSH1 0x40 MLOAD SWAP2 POP PUSH1 0x1F DUP4 AND DUP1 ISZERO PUSH1 0x20 MUL DUP2 DUP5 ADD ADD DUP5 DUP2 ADD DUP9 DUP4 ISZERO PUSH1 0x20 MUL DUP5 DUP13 ADD ADD ADD JUMPDEST DUP2 DUP4 LT ISZERO PUSH2 0x2F71 JUMPI DUP1 MLOAD DUP4 MSTORE PUSH1 0x20 DUP4 ADD SWAP3 POP PUSH1 0x20 DUP2 ADD SWAP1 POP PUSH2 0x2F54 JUMP JUMPDEST POP DUP6 DUP6 MSTORE PUSH1 0x1F NOT PUSH1 0x1F DUP4 ADD AND PUSH1 0x40 MSTORE POP POP POP JUMPDEST POP DUP1 DUP3 DUP7 ADD SWAP4 POP SWAP4 POP POP POP SWAP3 POP SWAP3 SWAP1 POP JUMP JUMPDEST PUSH1 0x0 DUP1 DUP4 MLOAD PUSH1 0x20 DUP5 ADD GT ISZERO DUP1 ISZERO PUSH2 0x2FAF JUMPI POP PUSH1 0x20 DUP4 ADD DUP4 LT JUMPDEST PUSH2 0x2FEE JUMPI PUSH1 0x40 MLOAD PUSH32 0x8C379A000000000000000000000000000000000000000000000000000000000 DUP2 MSTORE PUSH1 0x4 ADD PUSH2 0x2FE5 SWAP1 PUSH2 0x5777 JUMP JUMPDEST PUSH1 0x40 MLOAD DUP1 SWAP2 SUB SWAP1 REVERT JUMPDEST PUSH1 0x0 PUSH1 0x40 MLOAD PUSH1 0x20 PUSH1 0x0 PUSH1 0x1 DUP3 SUB DUP8 PUSH1 0x20 DUP11 ADD ADD MLOAD JUMPDEST DUP4 DUP4 LT ISZERO PUSH2 0x3023 JUMPI DUP1 DUP3 BYTE DUP4 DUP7 ADD MSTORE8 PUSH1 0x1 DUP4 ADD SWAP3 POP PUSH1 0x1 DUP3 SUB SWAP2 POP PUSH2 0x3003 JUMP JUMPDEST POP POP POP DUP1 DUP3 ADD PUSH1 0x40 MSTORE DUP2 MLOAD SWAP3 POP POP POP PUSH32 0x7FFFFFFFFFFFFFFFFFFFFFFFFFFFFFFFFFFFFFFFFFFFFFFFFFFFFFFFFFFFFFFF DUP2 GT ISZERO PUSH2 0x3095 JUMPI PUSH1 0x40 MLOAD PUSH32 0x8C379A000000000000000000000000000000000000000000000000000000000 DUP2 MSTORE PUSH1 0x4 ADD PUSH2 0x308C SWAP1 PUSH2 0x5917 JUMP JUMPDEST PUSH1 0x40 MLOAD DUP1 SWAP2 SUB SWAP1 REVERT JUMPDEST DUP1 PUSH1 0x20 DUP6 ADD SWAP3 POP SWAP3 POP POP SWAP3 POP SWAP3 SWAP1 POP JUMP JUMPDEST PUSH1 0x0 DUP1 DUP5 SWAP1 POP PUSH2 0x30D7 DUP5 DUP5 DUP4 PUSH20 0xFFFFFFFFFFFFFFFFFFFFFFFFFFFFFFFFFFFFFFFF AND PUSH2 0x346E SWAP1 SWAP3 SWAP2 SWAP1 PUSH4 0xFFFFFFFF AND JUMP JUMPDEST PUSH1 0x1 SWAP2 POP POP SWAP4 SWAP3 POP POP POP JUMP JUMPDEST PUSH1 0x0 DUP1 DUP6 SWAP1 POP PUSH2 0x3116 DUP6 DUP6 DUP6 DUP5 PUSH20 0xFFFFFFFFFFFFFFFFFFFFFFFFFFFFFFFFFFFFFFFF AND PUSH2 0x350D SWAP1 SWAP4 SWAP3 SWAP2 SWAP1 PUSH4 0xFFFFFFFF AND JUMP JUMPDEST PUSH1 0x1 SWAP2 POP POP SWAP5 SWAP4 POP POP POP POP JUMP JUMPDEST PUSH1 0x60 PUSH1 0x0 DUP3 MLOAD SWAP1 POP PUSH2 0x3134 DUP2 PUSH2 0x35AF JUMP JUMPDEST DUP4 PUSH1 0x40 MLOAD PUSH1 0x20 ADD PUSH2 0x3146 SWAP3 SWAP2 SWAP1 PUSH2 0x5490 JUMP JUMPDEST PUSH1 0x40 MLOAD PUSH1 0x20 DUP2 DUP4 SUB SUB DUP2 MSTORE SWAP1 PUSH1 0x40 MSTORE SWAP2 POP POP SWAP2 SWAP1 POP JUMP JUMPDEST PUSH1 0x60 PUSH32 0x7FFFFFFFFFFFFFFFFFFFFFFFFFFFFFFFFFFFFFFFFFFFFFFFFFFFFFFFFFFFFFFF DUP3 GT ISZERO PUSH2 0x31C2 JUMPI PUSH1 0x40 MLOAD PUSH32 0x8C379A000000000000000000000000000000000000000000000000000000000 DUP2 MSTORE PUSH1 0x4 ADD PUSH2 0x31B9 SWAP1 PUSH2 0x59F7 JUMP JUMPDEST PUSH1 0x40 MLOAD DUP1 SWAP2 SUB SWAP1 REVERT JUMPDEST PUSH1 0x60 PUSH1 0x40 MLOAD SWAP1 POP PUSH1 0x20 DUP1 DUP3 MSTORE PUSH1 0x0 PUSH1 0x1F JUMPDEST DUP3 DUP3 LT ISZERO PUSH2 0x31F6 JUMPI DUP6 DUP2 BYTE DUP3 PUSH1 0x20 DUP7 ADD ADD MSTORE8 PUSH1 0x1 DUP3 ADD SWAP2 POP PUSH1 0x1 DUP2 SUB SWAP1 POP PUSH2 0x31D3 JUMP JUMPDEST POP POP PUSH1 0x40 DUP3 ADD PUSH1 0x40 MSTORE POP DUP1 SWAP2 POP POP SWAP2 SWAP1 POP JUMP JUMPDEST PUSH1 0x0 DUP1 PUSH1 0x0 PUSH2 0x3218 DUP6 DUP6 PUSH2 0x36B4 JUMP JUMPDEST DUP1 SWAP6 POP DUP2 SWAP3 POP POP POP PUSH1 0x0 PUSH1 0xFD PUSH1 0xF8 SHL DUP3 PUSH31 0xFFFFFFFFFFFFFFFFFFFFFFFFFFFFFFFFFFFFFFFFFFFFFFFFFFFFFFFFFFFFFF NOT AND EQ ISZERO PUSH2 0x32C8 JUMPI PUSH2 0x325A DUP7 DUP7 PUSH2 0x3728 JUMP JUMPDEST DUP2 PUSH2 0xFFFF AND SWAP2 POP DUP1 SWAP7 POP DUP2 SWAP3 POP POP POP PUSH1 0xFD DUP2 LT ISZERO DUP1 ISZERO PUSH2 0x327C JUMPI POP PUSH2 0xFFFF DUP2 GT ISZERO JUMPDEST PUSH2 0x32BB JUMPI PUSH1 0x40 MLOAD PUSH32 0x8C379A000000000000000000000000000000000000000000000000000000000 DUP2 MSTORE PUSH1 0x4 ADD PUSH2 0x32B2 SWAP1 PUSH2 0x5797 JUMP JUMPDEST PUSH1 0x40 MLOAD DUP1 SWAP2 SUB SWAP1 REVERT JUMPDEST DUP1 DUP6 SWAP4 POP SWAP4 POP POP POP PUSH2 0x3467 JUMP JUMPDEST PUSH1 0xFE PUSH1 0xF8 SHL DUP3 PUSH31 0xFFFFFFFFFFFFFFFFFFFFFFFFFFFFFFFFFFFFFFFFFFFFFFFFFFFFFFFFFFFFFF NOT AND EQ ISZERO PUSH2 0x3372 JUMPI PUSH2 0x3300 DUP7 DUP7 PUSH2 0x37BC JUMP JUMPDEST DUP2 PUSH4 0xFFFFFFFF AND SWAP2 POP DUP1 SWAP7 POP DUP2 SWAP3 POP POP POP PUSH2 0xFFFF DUP2 GT DUP1 ISZERO PUSH2 0x3326 JUMPI POP PUSH4 0xFFFFFFFF DUP2 GT ISZERO JUMPDEST PUSH2 0x3365 JUMPI PUSH1 0x40 MLOAD PUSH32 0x8C379A000000000000000000000000000000000000000000000000000000000 DUP2 MSTORE PUSH1 0x4 ADD PUSH2 0x335C SWAP1 PUSH2 0x5A77 JUMP JUMPDEST PUSH1 0x40 MLOAD DUP1 SWAP2 SUB SWAP1 REVERT JUMPDEST DUP1 DUP6 SWAP4 POP SWAP4 POP POP POP PUSH2 0x3467 JUMP JUMPDEST PUSH1 0xFF PUSH1 0xF8 SHL DUP3 PUSH31 0xFFFFFFFFFFFFFFFFFFFFFFFFFFFFFFFFFFFFFFFFFFFFFFFFFFFFFFFFFFFFFF NOT AND EQ ISZERO PUSH2 0x3412 JUMPI PUSH2 0x33AA DUP7 DUP7 PUSH2 0x386E JUMP JUMPDEST DUP2 PUSH8 0xFFFFFFFFFFFFFFFF AND SWAP2 POP DUP1 SWAP7 POP DUP2 SWAP3 POP POP POP PUSH4 0xFFFFFFFF DUP2 GT PUSH2 0x3405 JUMPI PUSH1 0x40 MLOAD PUSH32 0x8C379A000000000000000000000000000000000000000000000000000000000 DUP2 MSTORE PUSH1 0x4 ADD PUSH2 0x33FC SWAP1 PUSH2 0x5A77 JUMP JUMPDEST PUSH1 0x40 MLOAD DUP1 SWAP2 SUB SWAP1 REVERT JUMPDEST DUP1 DUP6 SWAP4 POP SWAP4 POP POP POP PUSH2 0x3467 JUMP JUMPDEST DUP2 PUSH1 0xF8 SHR PUSH1 0xFF AND SWAP1 POP PUSH1 0xFD DUP2 LT PUSH2 0x345E JUMPI PUSH1 0x40 MLOAD PUSH32 0x8C379A000000000000000000000000000000000000000000000000000000000 DUP2 MSTORE PUSH1 0x4 ADD PUSH2 0x3455 SWAP1 PUSH2 0x5A77 JUMP JUMPDEST PUSH1 0x40 MLOAD DUP1 SWAP2 SUB SWAP1 REVERT JUMPDEST DUP1 DUP6 SWAP4 POP SWAP4 POP POP POP JUMPDEST SWAP3 POP SWAP3 SWAP1 POP JUMP JUMPDEST PUSH2 0x3508 DUP4 DUP5 PUSH20 0xFFFFFFFFFFFFFFFFFFFFFFFFFFFFFFFFFFFFFFFF AND PUSH4 0xA9059CBB SWAP1 POP PUSH1 0xE0 SHL DUP5 DUP5 PUSH1 0x40 MLOAD PUSH1 0x24 ADD PUSH2 0x34A6 SWAP3 SWAP2 SWAP1 PUSH2 0x5659 JUMP JUMPDEST PUSH1 0x40 MLOAD PUSH1 0x20 DUP2 DUP4 SUB SUB DUP2 MSTORE SWAP1 PUSH1 0x40 MSTORE SWAP1 PUSH28 0xFFFFFFFFFFFFFFFFFFFFFFFFFFFFFFFFFFFFFFFFFFFFFFFFFFFFFFFF NOT AND PUSH1 0x20 DUP3 ADD DUP1 MLOAD PUSH28 0xFFFFFFFFFFFFFFFFFFFFFFFFFFFFFFFFFFFFFFFFFFFFFFFFFFFFFFFF DUP4 DUP2 DUP4 AND OR DUP4 MSTORE POP POP POP POP PUSH2 0x3920 JUMP JUMPDEST POP POP POP JUMP JUMPDEST PUSH2 0x35A9 DUP5 DUP6 PUSH20 0xFFFFFFFFFFFFFFFFFFFFFFFFFFFFFFFFFFFFFFFF AND PUSH4 0x23B872DD SWAP1 POP PUSH1 0xE0 SHL DUP6 DUP6 DUP6 PUSH1 0x40 MLOAD PUSH1 0x24 ADD PUSH2 0x3547 SWAP4 SWAP3 SWAP2 SWAP1 PUSH2 0x5622 JUMP JUMPDEST PUSH1 0x40 MLOAD PUSH1 0x20 DUP2 DUP4 SUB SUB DUP2 MSTORE SWAP1 PUSH1 0x40 MSTORE SWAP1 PUSH28 0xFFFFFFFFFFFFFFFFFFFFFFFFFFFFFFFFFFFFFFFFFFFFFFFFFFFFFFFF NOT AND PUSH1 0x20 DUP3 ADD DUP1 MLOAD PUSH28 0xFFFFFFFFFFFFFFFFFFFFFFFFFFFFFFFFFFFFFFFFFFFFFFFFFFFFFFFF DUP4 DUP2 DUP4 AND OR DUP4 MSTORE POP POP POP POP PUSH2 0x3920 JUMP JUMPDEST POP POP POP POP JUMP JUMPDEST PUSH1 0x60 PUSH1 0xFD DUP3 PUSH8 0xFFFFFFFFFFFFFFFF AND LT ISZERO PUSH2 0x35D4 JUMPI PUSH2 0x35CD DUP3 PUSH2 0x3A7C JUMP JUMPDEST SWAP1 POP PUSH2 0x36AF JUMP JUMPDEST PUSH2 0xFFFF DUP3 PUSH8 0xFFFFFFFFFFFFFFFF AND GT PUSH2 0x3624 JUMPI PUSH2 0x35F4 PUSH1 0xFD PUSH1 0xF8 SHL PUSH2 0x3AA1 JUMP JUMPDEST PUSH2 0x35FD DUP4 PUSH2 0x3AB6 JUMP JUMPDEST PUSH1 0x40 MLOAD PUSH1 0x20 ADD PUSH2 0x360E SWAP3 SWAP2 SWAP1 PUSH2 0x5490 JUMP JUMPDEST PUSH1 0x40 MLOAD PUSH1 0x20 DUP2 DUP4 SUB SUB DUP2 MSTORE SWAP1 PUSH1 0x40 MSTORE SWAP1 POP PUSH2 0x36AF JUMP JUMPDEST PUSH4 0xFFFFFFFF DUP3 PUSH8 0xFFFFFFFFFFFFFFFF AND GT PUSH2 0x3676 JUMPI PUSH2 0x3646 PUSH1 0xFE PUSH1 0xF8 SHL PUSH2 0x3AA1 JUMP JUMPDEST PUSH2 0x364F DUP4 PUSH2 0x3AFE JUMP JUMPDEST PUSH1 0x40 MLOAD PUSH1 0x20 ADD PUSH2 0x3660 SWAP3 SWAP2 SWAP1 PUSH2 0x5490 JUMP JUMPDEST PUSH1 0x40 MLOAD PUSH1 0x20 DUP2 DUP4 SUB SUB DUP2 MSTORE SWAP1 PUSH1 0x40 MSTORE SWAP1 POP PUSH2 0x36AF JUMP JUMPDEST PUSH2 0x3683 PUSH1 0xFF PUSH1 0xF8 SHL PUSH2 0x3AA1 JUMP JUMPDEST PUSH2 0x368C DUP4 PUSH2 0x3B46 JUMP JUMPDEST PUSH1 0x40 MLOAD PUSH1 0x20 ADD PUSH2 0x369D SWAP3 SWAP2 SWAP1 PUSH2 0x5490 JUMP JUMPDEST PUSH1 0x40 MLOAD PUSH1 0x20 DUP2 DUP4 SUB SUB DUP2 MSTORE SWAP1 PUSH1 0x40 MSTORE SWAP1 POP JUMPDEST SWAP2 SWAP1 POP JUMP JUMPDEST PUSH1 0x0 DUP1 DUP4 MLOAD PUSH1 0x1 DUP5 ADD GT ISZERO DUP1 ISZERO PUSH2 0x36CD JUMPI POP PUSH1 0x1 DUP4 ADD DUP4 LT JUMPDEST PUSH2 0x370C JUMPI PUSH1 0x40 MLOAD PUSH32 0x8C379A000000000000000000000000000000000000000000000000000000000 DUP2 MSTORE PUSH1 0x4 ADD PUSH2 0x3703 SWAP1 PUSH2 0x59D7 JUMP JUMPDEST PUSH1 0x40 MLOAD DUP1 SWAP2 SUB SWAP1 REVERT JUMPDEST PUSH1 0x0 DUP4 PUSH1 0x20 DUP7 ADD ADD MLOAD SWAP1 POP DUP1 PUSH1 0x1 DUP6 ADD SWAP3 POP SWAP3 POP POP SWAP3 POP SWAP3 SWAP1 POP JUMP JUMPDEST PUSH1 0x0 DUP1 DUP4 MLOAD PUSH1 0x2 DUP5 ADD GT ISZERO DUP1 ISZERO PUSH2 0x3741 JUMPI POP PUSH1 0x2 DUP4 ADD DUP4 LT JUMPDEST PUSH2 0x3780 JUMPI PUSH1 0x40 MLOAD PUSH32 0x8C379A000000000000000000000000000000000000000000000000000000000 DUP2 MSTORE PUSH1 0x4 ADD PUSH2 0x3777 SWAP1 PUSH2 0x5AF7 JUMP JUMPDEST PUSH1 0x40 MLOAD DUP1 SWAP2 SUB SWAP1 REVERT JUMPDEST PUSH1 0x0 PUSH1 0x40 MLOAD DUP5 PUSH1 0x20 DUP8 ADD ADD MLOAD DUP1 PUSH1 0x1 BYTE DUP3 MSTORE8 DUP1 PUSH1 0x0 BYTE PUSH1 0x1 DUP4 ADD MSTORE8 PUSH1 0x2 DUP3 ADD PUSH1 0x40 MSTORE PUSH1 0x1E DUP3 SUB MLOAD SWAP3 POP POP POP DUP1 PUSH1 0x2 DUP6 ADD SWAP3 POP SWAP3 POP POP SWAP3 POP SWAP3 SWAP1 POP JUMP JUMPDEST PUSH1 0x0 DUP1 DUP4 MLOAD PUSH1 0x4 DUP5 ADD GT ISZERO DUP1 ISZERO PUSH2 0x37D5 JUMPI POP PUSH1 0x4 DUP4 ADD DUP4 LT JUMPDEST PUSH2 0x3814 JUMPI PUSH1 0x40 MLOAD PUSH32 0x8C379A000000000000000000000000000000000000000000000000000000000 DUP2 MSTORE PUSH1 0x4 ADD PUSH2 0x380B SWAP1 PUSH2 0x5B57 JUMP JUMPDEST PUSH1 0x40 MLOAD DUP1 SWAP2 SUB SWAP1 REVERT JUMPDEST PUSH1 0x0 PUSH1 0x40 MLOAD PUSH1 0x4 PUSH1 0x0 PUSH1 0x1 DUP3 SUB DUP8 PUSH1 0x20 DUP11 ADD ADD MLOAD JUMPDEST DUP4 DUP4 LT ISZERO PUSH2 0x3849 JUMPI DUP1 DUP3 BYTE DUP4 DUP7 ADD MSTORE8 PUSH1 0x1 DUP4 ADD SWAP3 POP PUSH1 0x1 DUP3 SUB SWAP2 POP PUSH2 0x3829 JUMP JUMPDEST POP POP POP DUP1 DUP3 ADD PUSH1 0x40 MSTORE DUP1 PUSH1 0x20 SUB DUP3 SUB MLOAD SWAP3 POP POP POP DUP1 PUSH1 0x4 DUP6 ADD SWAP3 POP SWAP3 POP POP SWAP3 POP SWAP3 SWAP1 POP JUMP JUMPDEST PUSH1 0x0 DUP1 DUP4 MLOAD PUSH1 0x8 DUP5 ADD GT ISZERO DUP1 ISZERO PUSH2 0x3887 JUMPI POP PUSH1 0x8 DUP4 ADD DUP4 LT JUMPDEST PUSH2 0x38C6 JUMPI PUSH1 0x40 MLOAD PUSH32 0x8C379A000000000000000000000000000000000000000000000000000000000 DUP2 MSTORE PUSH1 0x4 ADD PUSH2 0x38BD SWAP1 PUSH2 0x5B37 JUMP JUMPDEST PUSH1 0x40 MLOAD DUP1 SWAP2 SUB SWAP1 REVERT JUMPDEST PUSH1 0x0 PUSH1 0x40 MLOAD PUSH1 0x8 PUSH1 0x0 PUSH1 0x1 DUP3 SUB DUP8 PUSH1 0x20 DUP11 ADD ADD MLOAD JUMPDEST DUP4 DUP4 LT ISZERO PUSH2 0x38FB JUMPI DUP1 DUP3 BYTE DUP4 DUP7 ADD MSTORE8 PUSH1 0x1 DUP4 ADD SWAP3 POP PUSH1 0x1 DUP3 SUB SWAP2 POP PUSH2 0x38DB JUMP JUMPDEST POP POP POP DUP1 DUP3 ADD PUSH1 0x40 MSTORE DUP1 PUSH1 0x20 SUB DUP3 SUB MLOAD SWAP3 POP POP POP DUP1 PUSH1 0x8 DUP6 ADD SWAP3 POP SWAP3 POP POP SWAP3 POP SWAP3 SWAP1 POP JUMP JUMPDEST PUSH2 0x3929 DUP3 PUSH2 0x3B8E JUMP JUMPDEST PUSH2 0x3968 JUMPI PUSH1 0x40 MLOAD PUSH32 0x8C379A000000000000000000000000000000000000000000000000000000000 DUP2 MSTORE PUSH1 0x4 ADD PUSH2 0x395F SWAP1 PUSH2 0x5BB7 JUMP JUMPDEST PUSH1 0x40 MLOAD DUP1 SWAP2 SUB SWAP1 REVERT JUMPDEST PUSH1 0x0 PUSH1 0x60 DUP4 PUSH20 0xFFFFFFFFFFFFFFFFFFFFFFFFFFFFFFFFFFFFFFFF AND DUP4 PUSH1 0x40 MLOAD PUSH2 0x3991 SWAP2 SWAP1 PUSH2 0x5479 JUMP JUMPDEST PUSH1 0x0 PUSH1 0x40 MLOAD DUP1 DUP4 SUB DUP2 PUSH1 0x0 DUP7 GAS CALL SWAP2 POP POP RETURNDATASIZE DUP1 PUSH1 0x0 DUP2 EQ PUSH2 0x39CE JUMPI PUSH1 0x40 MLOAD SWAP2 POP PUSH1 0x1F NOT PUSH1 0x3F RETURNDATASIZE ADD AND DUP3 ADD PUSH1 0x40 MSTORE RETURNDATASIZE DUP3 MSTORE RETURNDATASIZE PUSH1 0x0 PUSH1 0x20 DUP5 ADD RETURNDATACOPY PUSH2 0x39D3 JUMP JUMPDEST PUSH1 0x60 SWAP2 POP JUMPDEST POP SWAP2 POP SWAP2 POP DUP2 PUSH2 0x3A18 JUMPI PUSH1 0x40 MLOAD PUSH32 0x8C379A000000000000000000000000000000000000000000000000000000000 DUP2 MSTORE PUSH1 0x4 ADD PUSH2 0x3A0F SWAP1 PUSH2 0x5837 JUMP JUMPDEST PUSH1 0x40 MLOAD DUP1 SWAP2 SUB SWAP1 REVERT JUMPDEST PUSH1 0x0 DUP2 MLOAD GT ISZERO PUSH2 0x3A76 JUMPI DUP1 DUP1 PUSH1 0x20 ADD SWAP1 MLOAD PUSH2 0x3A36 SWAP2 SWAP1 DUP2 ADD SWAP1 PUSH2 0x447B JUMP JUMPDEST PUSH2 0x3A75 JUMPI PUSH1 0x40 MLOAD PUSH32 0x8C379A000000000000000000000000000000000000000000000000000000000 DUP2 MSTORE PUSH1 0x4 ADD PUSH2 0x3A6C SWAP1 PUSH2 0x5B17 JUMP JUMPDEST PUSH1 0x40 MLOAD DUP1 SWAP2 SUB SWAP1 REVERT JUMPDEST JUMPDEST POP POP POP POP JUMP JUMPDEST PUSH1 0x60 DUP1 PUSH1 0x40 MLOAD SWAP1 POP PUSH1 0x1 DUP2 MSTORE DUP3 PUSH1 0xF8 SHL PUSH1 0x20 DUP3 ADD MSTORE PUSH1 0x21 DUP2 ADD PUSH1 0x40 MSTORE DUP1 SWAP2 POP POP SWAP2 SWAP1 POP JUMP JUMPDEST PUSH1 0x60 PUSH2 0x3AAF DUP3 PUSH1 0xF8 SHR PUSH2 0x3A7C JUMP JUMPDEST SWAP1 POP SWAP2 SWAP1 POP JUMP JUMPDEST PUSH1 0x60 DUP1 PUSH1 0x40 MLOAD SWAP1 POP PUSH1 0x2 DUP1 DUP3 MSTORE PUSH1 0x0 PUSH1 0x1F JUMPDEST DUP3 DUP3 LT ISZERO PUSH2 0x3AEB JUMPI DUP6 DUP2 BYTE DUP3 PUSH1 0x20 DUP7 ADD ADD MSTORE8 PUSH1 0x1 DUP3 ADD SWAP2 POP PUSH1 0x1 DUP2 SUB SWAP1 POP PUSH2 0x3AC8 JUMP JUMPDEST POP POP PUSH1 0x22 DUP3 ADD PUSH1 0x40 MSTORE POP DUP1 SWAP2 POP POP SWAP2 SWAP1 POP JUMP JUMPDEST PUSH1 0x60 DUP1 PUSH1 0x40 MLOAD SWAP1 POP PUSH1 0x4 DUP1 DUP3 MSTORE PUSH1 0x0 PUSH1 0x1F JUMPDEST DUP3 DUP3 LT ISZERO PUSH2 0x3B33 JUMPI DUP6 DUP2 BYTE DUP3 PUSH1 0x20 DUP7 ADD ADD MSTORE8 PUSH1 0x1 DUP3 ADD SWAP2 POP PUSH1 0x1 DUP2 SUB SWAP1 POP PUSH2 0x3B10 JUMP JUMPDEST POP POP PUSH1 0x24 DUP3 ADD PUSH1 0x40 MSTORE POP DUP1 SWAP2 POP POP SWAP2 SWAP1 POP JUMP JUMPDEST PUSH1 0x60 DUP1 PUSH1 0x40 MLOAD SWAP1 POP PUSH1 0x8 DUP1 DUP3 MSTORE PUSH1 0x0 PUSH1 0x1F JUMPDEST DUP3 DUP3 LT ISZERO PUSH2 0x3B7B JUMPI DUP6 DUP2 BYTE DUP3 PUSH1 0x20 DUP7 ADD ADD MSTORE8 PUSH1 0x1 DUP3 ADD SWAP2 POP PUSH1 0x1 DUP2 SUB SWAP1 POP PUSH2 0x3B58 JUMP JUMPDEST POP POP PUSH1 0x28 DUP3 ADD PUSH1 0x40 MSTORE POP DUP1 SWAP2 POP POP SWAP2 SWAP1 POP JUMP JUMPDEST PUSH1 0x0 DUP1 PUSH1 0x0 PUSH32 0xC5D2460186F7233C927E7DB2DCC703C0E500B653CA82273B7BFAD8045D85A470 PUSH1 0x0 SHL SWAP1 POP DUP4 EXTCODEHASH SWAP2 POP PUSH1 0x0 DUP1 SHL DUP3 EQ ISZERO DUP1 ISZERO PUSH2 0x3BD0 JUMPI POP DUP1 DUP3 EQ ISZERO JUMPDEST SWAP3 POP POP POP SWAP2 SWAP1 POP JUMP JUMPDEST PUSH1 0x40 MLOAD DUP1 PUSH1 0x60 ADD PUSH1 0x40 MSTORE DUP1 PUSH1 0x60 DUP2 MSTORE PUSH1 0x20 ADD PUSH1 0x60 DUP2 MSTORE PUSH1 0x20 ADD PUSH1 0x0 DUP2 MSTORE POP SWAP1 JUMP JUMPDEST DUP3 DUP1 SLOAD PUSH1 0x1 DUP2 PUSH1 0x1 AND ISZERO PUSH2 0x100 MUL SUB AND PUSH1 0x2 SWAP1 DIV SWAP1 PUSH1 0x0 MSTORE PUSH1 0x20 PUSH1 0x0 KECCAK256 SWAP1 PUSH1 0x1F ADD PUSH1 0x20 SWAP1 DIV DUP2 ADD SWAP3 DUP3 PUSH1 0x1F LT PUSH2 0x3C3B JUMPI DUP1 MLOAD PUSH1 0xFF NOT AND DUP4 DUP1 ADD OR DUP6 SSTORE PUSH2 0x3C69 JUMP JUMPDEST DUP3 DUP1 ADD PUSH1 0x1 ADD DUP6 SSTORE DUP3 ISZERO PUSH2 0x3C69 JUMPI SWAP2 DUP3 ADD JUMPDEST DUP3 DUP2 GT ISZERO PUSH2 0x3C68 JUMPI DUP3 MLOAD DUP3 SSTORE SWAP2 PUSH1 0x20 ADD SWAP2 SWAP1 PUSH1 0x1 ADD SWAP1 PUSH2 0x3C4D JUMP JUMPDEST JUMPDEST POP SWAP1 POP PUSH2 0x3C76 SWAP2 SWAP1 PUSH2 0x3C7A JUMP JUMPDEST POP SWAP1 JUMP JUMPDEST PUSH2 0x3C9C SWAP2 SWAP1 JUMPDEST DUP1 DUP3 GT ISZERO PUSH2 0x3C98 JUMPI PUSH1 0x0 DUP2 PUSH1 0x0 SWAP1 SSTORE POP PUSH1 0x1 ADD PUSH2 0x3C80 JUMP JUMPDEST POP SWAP1 JUMP JUMPDEST SWAP1 JUMP JUMPDEST PUSH1 0x0 DUP2 CALLDATALOAD SWAP1 POP PUSH2 0x3CAE DUP2 PUSH2 0x5F0F JUMP JUMPDEST SWAP3 SWAP2 POP POP JUMP JUMPDEST PUSH1 0x0 DUP2 MLOAD SWAP1 POP PUSH2 0x3CC3 DUP2 PUSH2 0x5F0F JUMP JUMPDEST SWAP3 SWAP2 POP POP JUMP JUMPDEST PUSH1 0x0 DUP3 PUSH1 0x1F DUP4 ADD SLT PUSH2 0x3CDA JUMPI PUSH1 0x0 DUP1 REVERT JUMPDEST DUP2 CALLDATALOAD PUSH2 0x3CED PUSH2 0x3CE8 DUP3 PUSH2 0x5D17 JUMP JUMPDEST PUSH2 0x5CEA JUMP JUMPDEST SWAP2 POP DUP2 DUP2 DUP4 MSTORE PUSH1 0x20 DUP5 ADD SWAP4 POP PUSH1 0x20 DUP2 ADD SWAP1 POP DUP4 DUP6 PUSH1 0x20 DUP5 MUL DUP3 ADD GT ISZERO PUSH2 0x3D12 JUMPI PUSH1 0x0 DUP1 REVERT JUMPDEST PUSH1 0x0 JUMPDEST DUP4 DUP2 LT ISZERO PUSH2 0x3D42 JUMPI DUP2 PUSH2 0x3D28 DUP9 DUP3 PUSH2 0x3C9F JUMP JUMPDEST DUP5 MSTORE PUSH1 0x20 DUP5 ADD SWAP4 POP PUSH1 0x20 DUP4 ADD SWAP3 POP POP PUSH1 0x1 DUP2 ADD SWAP1 POP PUSH2 0x3D15 JUMP JUMPDEST POP POP POP POP SWAP3 SWAP2 POP POP JUMP JUMPDEST PUSH1 0x0 DUP3 PUSH1 0x1F DUP4 ADD SLT PUSH2 0x3D5D JUMPI PUSH1 0x0 DUP1 REVERT JUMPDEST DUP2 CALLDATALOAD PUSH2 0x3D70 PUSH2 0x3D6B DUP3 PUSH2 0x5D3F JUMP JUMPDEST PUSH2 0x5CEA JUMP JUMPDEST SWAP2 POP DUP2 DUP2 DUP4 MSTORE PUSH1 0x20 DUP5 ADD SWAP4 POP PUSH1 0x20 DUP2 ADD SWAP1 POP DUP4 PUSH1 0x0 JUMPDEST DUP4 DUP2 LT ISZERO PUSH2 0x3DB6 JUMPI DUP2 CALLDATALOAD DUP7 ADD PUSH2 0x3D9C DUP9 DUP3 PUSH2 0x3E58 JUMP JUMPDEST DUP5 MSTORE PUSH1 0x20 DUP5 ADD SWAP4 POP PUSH1 0x20 DUP4 ADD SWAP3 POP POP PUSH1 0x1 DUP2 ADD SWAP1 POP PUSH2 0x3D86 JUMP JUMPDEST POP POP POP POP SWAP3 SWAP2 POP POP JUMP JUMPDEST PUSH1 0x0 DUP3 PUSH1 0x1F DUP4 ADD SLT PUSH2 0x3DD1 JUMPI PUSH1 0x0 DUP1 REVERT JUMPDEST DUP2 CALLDATALOAD PUSH2 0x3DE4 PUSH2 0x3DDF DUP3 PUSH2 0x5D67 JUMP JUMPDEST PUSH2 0x5CEA JUMP JUMPDEST SWAP2 POP DUP2 DUP2 DUP4 MSTORE PUSH1 0x20 DUP5 ADD SWAP4 POP PUSH1 0x20 DUP2 ADD SWAP1 POP DUP4 DUP6 PUSH1 0x20 DUP5 MUL DUP3 ADD GT ISZERO PUSH2 0x3E09 JUMPI PUSH1 0x0 DUP1 REVERT JUMPDEST PUSH1 0x0 JUMPDEST DUP4 DUP2 LT ISZERO PUSH2 0x3E39 JUMPI DUP2 PUSH2 0x3E1F DUP9 DUP3 PUSH2 0x3F2A JUMP JUMPDEST DUP5 MSTORE PUSH1 0x20 DUP5 ADD SWAP4 POP PUSH1 0x20 DUP4 ADD SWAP3 POP POP PUSH1 0x1 DUP2 ADD SWAP1 POP PUSH2 0x3E0C JUMP JUMPDEST POP POP POP POP SWAP3 SWAP2 POP POP JUMP JUMPDEST PUSH1 0x0 DUP2 MLOAD SWAP1 POP PUSH2 0x3E52 DUP2 PUSH2 0x5F26 JUMP JUMPDEST SWAP3 SWAP2 POP POP JUMP JUMPDEST PUSH1 0x0 DUP3 PUSH1 0x1F DUP4 ADD SLT PUSH2 0x3E69 JUMPI PUSH1 0x0 DUP1 REVERT JUMPDEST DUP2 CALLDATALOAD PUSH2 0x3E7C PUSH2 0x3E77 DUP3 PUSH2 0x5D8F JUMP JUMPDEST PUSH2 0x5CEA JUMP JUMPDEST SWAP2 POP DUP1 DUP3 MSTORE PUSH1 0x20 DUP4 ADD PUSH1 0x20 DUP4 ADD DUP6 DUP4 DUP4 ADD GT ISZERO PUSH2 0x3E98 JUMPI PUSH1 0x0 DUP1 REVERT JUMPDEST PUSH2 0x3EA3 DUP4 DUP3 DUP5 PUSH2 0x5EBC JUMP JUMPDEST POP POP POP SWAP3 SWAP2 POP POP JUMP JUMPDEST PUSH1 0x0 DUP3 PUSH1 0x1F DUP4 ADD SLT PUSH2 0x3EBD JUMPI PUSH1 0x0 DUP1 REVERT JUMPDEST DUP2 CALLDATALOAD PUSH2 0x3ED0 PUSH2 0x3ECB DUP3 PUSH2 0x5DBB JUMP JUMPDEST PUSH2 0x5CEA JUMP JUMPDEST SWAP2 POP DUP1 DUP3 MSTORE PUSH1 0x20 DUP4 ADD PUSH1 0x20 DUP4 ADD DUP6 DUP4 DUP4 ADD GT ISZERO PUSH2 0x3EEC JUMPI PUSH1 0x0 DUP1 REVERT JUMPDEST PUSH2 0x3EF7 DUP4 DUP3 DUP5 PUSH2 0x5EBC JUMP JUMPDEST POP POP POP SWAP3 SWAP2 POP POP JUMP JUMPDEST PUSH1 0x0 DUP2 CALLDATALOAD SWAP1 POP PUSH2 0x3F0F DUP2 PUSH2 0x5F3D JUMP JUMPDEST SWAP3 SWAP2 POP POP JUMP JUMPDEST PUSH1 0x0 DUP2 MLOAD SWAP1 POP PUSH2 0x3F24 DUP2 PUSH2 0x5F3D JUMP JUMPDEST SWAP3 SWAP2 POP POP JUMP JUMPDEST PUSH1 0x0 DUP2 CALLDATALOAD SWAP1 POP PUSH2 0x3F39 DUP2 PUSH2 0x5F54 JUMP JUMPDEST SWAP3 SWAP2 POP POP JUMP JUMPDEST PUSH1 0x0 PUSH1 0x20 DUP3 DUP5 SUB SLT ISZERO PUSH2 0x3F51 JUMPI PUSH1 0x0 DUP1 REVERT JUMPDEST PUSH1 0x0 PUSH2 0x3F5F DUP5 DUP3 DUP6 ADD PUSH2 0x3C9F JUMP JUMPDEST SWAP2 POP POP SWAP3 SWAP2 POP POP JUMP JUMPDEST PUSH1 0x0 PUSH1 0x20 DUP3 DUP5 SUB SLT ISZERO PUSH2 0x3F7A JUMPI PUSH1 0x0 DUP1 REVERT JUMPDEST PUSH1 0x0 PUSH2 0x3F88 DUP5 DUP3 DUP6 ADD PUSH2 0x3CB4 JUMP JUMPDEST SWAP2 POP POP SWAP3 SWAP2 POP POP JUMP JUMPDEST PUSH1 0x0 DUP1 PUSH1 0x40 DUP4 DUP6 SUB SLT ISZERO PUSH2 0x3FA4 JUMPI PUSH1 0x0 DUP1 REVERT JUMPDEST PUSH1 0x0 PUSH2 0x3FB2 DUP6 DUP3 DUP7 ADD PUSH2 0x3C9F JUMP JUMPDEST SWAP3 POP POP PUSH1 0x20 PUSH2 0x3FC3 DUP6 DUP3 DUP7 ADD PUSH2 0x3C9F JUMP JUMPDEST SWAP2 POP POP SWAP3 POP SWAP3 SWAP1 POP JUMP JUMPDEST PUSH1 0x0 DUP1 PUSH1 0x0 DUP1 PUSH1 0x0 PUSH1 0xA0 DUP7 DUP9 SUB SLT ISZERO PUSH2 0x3FE5 JUMPI PUSH1 0x0 DUP1 REVERT JUMPDEST PUSH1 0x0 PUSH2 0x3FF3 DUP9 DUP3 DUP10 ADD PUSH2 0x3C9F JUMP JUMPDEST SWAP6 POP POP PUSH1 0x20 PUSH2 0x4004 DUP9 DUP3 DUP10 ADD PUSH2 0x3C9F JUMP JUMPDEST SWAP5 POP POP PUSH1 0x40 PUSH2 0x4015 DUP9 DUP3 DUP10 ADD PUSH2 0x3F2A JUMP JUMPDEST SWAP4 POP POP PUSH1 0x60 DUP7 ADD CALLDATALOAD PUSH8 0xFFFFFFFFFFFFFFFF DUP2 GT ISZERO PUSH2 0x4032 JUMPI PUSH1 0x0 DUP1 REVERT JUMPDEST PUSH2 0x403E DUP9 DUP3 DUP10 ADD PUSH2 0x3EAC JUMP JUMPDEST SWAP3 POP POP PUSH1 0x80 DUP7 ADD CALLDATALOAD PUSH8 0xFFFFFFFFFFFFFFFF DUP2 GT ISZERO PUSH2 0x405B JUMPI PUSH1 0x0 DUP1 REVERT JUMPDEST PUSH2 0x4067 DUP9 DUP3 DUP10 ADD PUSH2 0x3EAC JUMP JUMPDEST SWAP2 POP POP SWAP3 SWAP6 POP SWAP3 SWAP6 SWAP1 SWAP4 POP JUMP JUMPDEST PUSH1 0x0 DUP1 PUSH1 0x40 DUP4 DUP6 SUB SLT ISZERO PUSH2 0x4087 JUMPI PUSH1 0x0 DUP1 REVERT JUMPDEST PUSH1 0x0 PUSH2 0x4095 DUP6 DUP3 DUP7 ADD PUSH2 0x3C9F JUMP JUMPDEST SWAP3 POP POP PUSH1 0x20 PUSH2 0x40A6 DUP6 DUP3 DUP7 ADD PUSH2 0x3F00 JUMP JUMPDEST SWAP2 POP POP SWAP3 POP SWAP3 SWAP1 POP JUMP JUMPDEST PUSH1 0x0 DUP1 PUSH1 0x0 PUSH1 0x60 DUP5 DUP7 SUB SLT ISZERO PUSH2 0x40C5 JUMPI PUSH1 0x0 DUP1 REVERT JUMPDEST PUSH1 0x0 PUSH2 0x40D3 DUP7 DUP3 DUP8 ADD PUSH2 0x3C9F JUMP JUMPDEST SWAP4 POP POP PUSH1 0x20 PUSH2 0x40E4 DUP7 DUP3 DUP8 ADD PUSH2 0x3F00 JUMP JUMPDEST SWAP3 POP POP PUSH1 0x40 PUSH2 0x40F5 DUP7 DUP3 DUP8 ADD PUSH2 0x3C9F JUMP JUMPDEST SWAP2 POP POP SWAP3 POP SWAP3 POP SWAP3 JUMP JUMPDEST PUSH1 0x0 DUP1 PUSH1 0x40 DUP4 DUP6 SUB SLT ISZERO PUSH2 0x4112 JUMPI PUSH1 0x0 DUP1 REVERT JUMPDEST PUSH1 0x0 PUSH2 0x4120 DUP6 DUP3 DUP7 ADD PUSH2 0x3C9F JUMP JUMPDEST SWAP3 POP POP PUSH1 0x20 PUSH2 0x4131 DUP6 DUP3 DUP7 ADD PUSH2 0x3F2A JUMP JUMPDEST SWAP2 POP POP SWAP3 POP SWAP3 SWAP1 POP JUMP JUMPDEST PUSH1 0x0 DUP1 PUSH1 0x0 PUSH1 0x60 DUP5 DUP7 SUB SLT ISZERO PUSH2 0x4150 JUMPI PUSH1 0x0 DUP1 REVERT JUMPDEST PUSH1 0x0 PUSH2 0x415E DUP7 DUP3 DUP8 ADD PUSH2 0x3C9F JUMP JUMPDEST SWAP4 POP POP PUSH1 0x20 PUSH2 0x416F DUP7 DUP3 DUP8 ADD PUSH2 0x3F2A JUMP JUMPDEST SWAP3 POP POP PUSH1 0x40 DUP5 ADD CALLDATALOAD PUSH8 0xFFFFFFFFFFFFFFFF DUP2 GT ISZERO PUSH2 0x418C JUMPI PUSH1 0x0 DUP1 REVERT JUMPDEST PUSH2 0x4198 DUP7 DUP3 DUP8 ADD PUSH2 0x3EAC JUMP JUMPDEST SWAP2 POP POP SWAP3 POP SWAP3 POP SWAP3 JUMP JUMPDEST PUSH1 0x0 DUP1 PUSH1 0x0 DUP1 PUSH1 0x80 DUP6 DUP8 SUB SLT ISZERO PUSH2 0x41B8 JUMPI PUSH1 0x0 DUP1 REVERT JUMPDEST PUSH1 0x0 PUSH2 0x41C6 DUP8 DUP3 DUP9 ADD PUSH2 0x3C9F JUMP JUMPDEST SWAP5 POP POP PUSH1 0x20 PUSH2 0x41D7 DUP8 DUP3 DUP9 ADD PUSH2 0x3F2A JUMP JUMPDEST SWAP4 POP POP PUSH1 0x40 DUP6 ADD CALLDATALOAD PUSH8 0xFFFFFFFFFFFFFFFF DUP2 GT ISZERO PUSH2 0x41F4 JUMPI PUSH1 0x0 DUP1 REVERT JUMPDEST PUSH2 0x4200 DUP8 DUP3 DUP9 ADD PUSH2 0x3EAC JUMP JUMPDEST SWAP3 POP POP PUSH1 0x60 PUSH2 0x4211 DUP8 DUP3 DUP9 ADD PUSH2 0x3F00 JUMP JUMPDEST SWAP2 POP POP SWAP3 SWAP6 SWAP2 SWAP5 POP SWAP3 POP JUMP JUMPDEST PUSH1 0x0 DUP1 PUSH1 0x40 DUP4 DUP6 SUB SLT ISZERO PUSH2 0x4230 JUMPI PUSH1 0x0 DUP1 REVERT JUMPDEST PUSH1 0x0 DUP4 ADD CALLDATALOAD PUSH8 0xFFFFFFFFFFFFFFFF DUP2 GT ISZERO PUSH2 0x424A JUMPI PUSH1 0x0 DUP1 REVERT JUMPDEST PUSH2 0x4256 DUP6 DUP3 DUP7 ADD PUSH2 0x3CC9 JUMP JUMPDEST SWAP3 POP POP PUSH1 0x20 DUP4 ADD CALLDATALOAD PUSH8 0xFFFFFFFFFFFFFFFF DUP2 GT ISZERO PUSH2 0x4273 JUMPI PUSH1 0x0 DUP1 REVERT JUMPDEST PUSH2 0x427F DUP6 DUP3 DUP7 ADD PUSH2 0x3CC9 JUMP JUMPDEST SWAP2 POP POP SWAP3 POP SWAP3 SWAP1 POP JUMP JUMPDEST PUSH1 0x0 DUP1 PUSH1 0x0 DUP1 PUSH1 0x0 PUSH1 0xA0 DUP7 DUP9 SUB SLT ISZERO PUSH2 0x42A1 JUMPI PUSH1 0x0 DUP1 REVERT JUMPDEST PUSH1 0x0 DUP7 ADD CALLDATALOAD PUSH8 0xFFFFFFFFFFFFFFFF DUP2 GT ISZERO PUSH2 0x42BB JUMPI PUSH1 0x0 DUP1 REVERT JUMPDEST PUSH2 0x42C7 DUP9 DUP3 DUP10 ADD PUSH2 0x3CC9 JUMP JUMPDEST SWAP6 POP POP PUSH1 0x20 DUP7 ADD CALLDATALOAD PUSH8 0xFFFFFFFFFFFFFFFF DUP2 GT ISZERO PUSH2 0x42E4 JUMPI PUSH1 0x0 DUP1 REVERT JUMPDEST PUSH2 0x42F0 DUP9 DUP3 DUP10 ADD PUSH2 0x3CC9 JUMP JUMPDEST SWAP5 POP POP PUSH1 0x40 DUP7 ADD CALLDATALOAD PUSH8 0xFFFFFFFFFFFFFFFF DUP2 GT ISZERO PUSH2 0x430D JUMPI PUSH1 0x0 DUP1 REVERT JUMPDEST PUSH2 0x4319 DUP9 DUP3 DUP10 ADD PUSH2 0x3DC0 JUMP JUMPDEST SWAP4 POP POP PUSH1 0x60 DUP7 ADD CALLDATALOAD PUSH8 0xFFFFFFFFFFFFFFFF DUP2 GT ISZERO PUSH2 0x4336 JUMPI PUSH1 0x0 DUP1 REVERT JUMPDEST PUSH2 0x4342 DUP9 DUP3 DUP10 ADD PUSH2 0x3D4C JUMP JUMPDEST SWAP3 POP POP PUSH1 0x80 DUP7 ADD CALLDATALOAD PUSH8 0xFFFFFFFFFFFFFFFF DUP2 GT ISZERO PUSH2 0x435F JUMPI PUSH1 0x0 DUP1 REVERT JUMPDEST PUSH2 0x436B DUP9 DUP3 DUP10 ADD PUSH2 0x3D4C JUMP JUMPDEST SWAP2 POP POP SWAP3 SWAP6 POP SWAP3 SWAP6 SWAP1 SWAP4 POP JUMP JUMPDEST PUSH1 0x0 DUP1 PUSH1 0x0 PUSH1 0x60 DUP5 DUP7 SUB SLT ISZERO PUSH2 0x438D JUMPI PUSH1 0x0 DUP1 REVERT JUMPDEST PUSH1 0x0 DUP5 ADD CALLDATALOAD PUSH8 0xFFFFFFFFFFFFFFFF DUP2 GT ISZERO PUSH2 0x43A7 JUMPI PUSH1 0x0 DUP1 REVERT JUMPDEST PUSH2 0x43B3 DUP7 DUP3 DUP8 ADD PUSH2 0x3CC9 JUMP JUMPDEST SWAP4 POP POP PUSH1 0x20 DUP5 ADD CALLDATALOAD PUSH8 0xFFFFFFFFFFFFFFFF DUP2 GT ISZERO PUSH2 0x43D0 JUMPI PUSH1 0x0 DUP1 REVERT JUMPDEST PUSH2 0x43DC DUP7 DUP3 DUP8 ADD PUSH2 0x3DC0 JUMP JUMPDEST SWAP3 POP POP PUSH1 0x40 DUP5 ADD CALLDATALOAD PUSH8 0xFFFFFFFFFFFFFFFF DUP2 GT ISZERO PUSH2 0x43F9 JUMPI PUSH1 0x0 DUP1 REVERT JUMPDEST PUSH2 0x4405 DUP7 DUP3 DUP8 ADD PUSH2 0x3D4C JUMP JUMPDEST SWAP2 POP POP SWAP3 POP SWAP3 POP SWAP3 JUMP JUMPDEST PUSH1 0x0 DUP1 PUSH1 0x40 DUP4 DUP6 SUB SLT ISZERO PUSH2 0x4422 JUMPI PUSH1 0x0 DUP1 REVERT JUMPDEST PUSH1 0x0 DUP4 ADD CALLDATALOAD PUSH8 0xFFFFFFFFFFFFFFFF DUP2 GT ISZERO PUSH2 0x443C JUMPI PUSH1 0x0 DUP1 REVERT JUMPDEST PUSH2 0x4448 DUP6 DUP3 DUP7 ADD PUSH2 0x3DC0 JUMP JUMPDEST SWAP3 POP POP PUSH1 0x20 DUP4 ADD CALLDATALOAD PUSH8 0xFFFFFFFFFFFFFFFF DUP2 GT ISZERO PUSH2 0x4465 JUMPI PUSH1 0x0 DUP1 REVERT JUMPDEST PUSH2 0x4471 DUP6 DUP3 DUP7 ADD PUSH2 0x3D4C JUMP JUMPDEST SWAP2 POP POP SWAP3 POP SWAP3 SWAP1 POP JUMP JUMPDEST PUSH1 0x0 PUSH1 0x20 DUP3 DUP5 SUB SLT ISZERO PUSH2 0x448D JUMPI PUSH1 0x0 DUP1 REVERT JUMPDEST PUSH1 0x0 PUSH2 0x449B DUP5 DUP3 DUP6 ADD PUSH2 0x3E43 JUMP JUMPDEST SWAP2 POP POP SWAP3 SWAP2 POP POP JUMP JUMPDEST PUSH1 0x0 DUP1 PUSH1 0x0 PUSH1 0x60 DUP5 DUP7 SUB SLT ISZERO PUSH2 0x44B9 JUMPI PUSH1 0x0 DUP1 REVERT JUMPDEST PUSH1 0x0 DUP5 ADD CALLDATALOAD PUSH8 0xFFFFFFFFFFFFFFFF DUP2 GT ISZERO PUSH2 0x44D3 JUMPI PUSH1 0x0 DUP1 REVERT JUMPDEST PUSH2 0x44DF DUP7 DUP3 DUP8 ADD PUSH2 0x3EAC JUMP JUMPDEST SWAP4 POP POP PUSH1 0x20 DUP5 ADD CALLDATALOAD PUSH8 0xFFFFFFFFFFFFFFFF DUP2 GT ISZERO PUSH2 0x44FC JUMPI PUSH1 0x0 DUP1 REVERT JUMPDEST PUSH2 0x4508 DUP7 DUP3 DUP8 ADD PUSH2 0x3EAC JUMP JUMPDEST SWAP3 POP POP PUSH1 0x40 PUSH2 0x4519 DUP7 DUP3 DUP8 ADD PUSH2 0x3F2A JUMP JUMPDEST SWAP2 POP POP SWAP3 POP SWAP3 POP SWAP3 JUMP JUMPDEST PUSH1 0x0 PUSH1 0x20 DUP3 DUP5 SUB SLT ISZERO PUSH2 0x4535 JUMPI PUSH1 0x0 DUP1 REVERT JUMPDEST PUSH1 0x0 PUSH2 0x4543 DUP5 DUP3 DUP6 ADD PUSH2 0x3F15 JUMP JUMPDEST SWAP2 POP POP SWAP3 SWAP2 POP POP JUMP JUMPDEST PUSH1 0x0 PUSH1 0x20 DUP3 DUP5 SUB SLT ISZERO PUSH2 0x455E JUMPI PUSH1 0x0 DUP1 REVERT JUMPDEST PUSH1 0x0 PUSH2 0x456C DUP5 DUP3 DUP6 ADD PUSH2 0x3F2A JUMP JUMPDEST SWAP2 POP POP SWAP3 SWAP2 POP POP JUMP JUMPDEST PUSH1 0x0 DUP1 PUSH1 0x40 DUP4 DUP6 SUB SLT ISZERO PUSH2 0x4588 JUMPI PUSH1 0x0 DUP1 REVERT JUMPDEST PUSH1 0x0 PUSH2 0x4596 DUP6 DUP3 DUP7 ADD PUSH2 0x3F2A JUMP JUMPDEST SWAP3 POP POP PUSH1 0x20 DUP4 ADD CALLDATALOAD PUSH8 0xFFFFFFFFFFFFFFFF DUP2 GT ISZERO PUSH2 0x45B3 JUMPI PUSH1 0x0 DUP1 REVERT JUMPDEST PUSH2 0x45BF DUP6 DUP3 DUP7 ADD PUSH2 0x3EAC JUMP JUMPDEST SWAP2 POP POP SWAP3 POP SWAP3 SWAP1 POP JUMP JUMPDEST PUSH2 0x45D2 DUP2 PUSH2 0x5E86 JUMP JUMPDEST DUP3 MSTORE POP POP JUMP JUMPDEST PUSH2 0x45E1 DUP2 PUSH2 0x5E2A JUMP JUMPDEST DUP3 MSTORE POP POP JUMP JUMPDEST PUSH2 0x45F0 DUP2 PUSH2 0x5E3C JUMP JUMPDEST DUP3 MSTORE POP POP JUMP JUMPDEST PUSH1 0x0 PUSH2 0x4601 DUP3 PUSH2 0x5DF2 JUMP JUMPDEST PUSH2 0x460B DUP2 DUP6 PUSH2 0x5DFD JUMP JUMPDEST SWAP4 POP PUSH2 0x461B DUP2 DUP6 PUSH1 0x20 DUP7 ADD PUSH2 0x5ECB JUMP JUMPDEST PUSH2 0x4624 DUP2 PUSH2 0x5EFE JUMP JUMPDEST DUP5 ADD SWAP2 POP POP SWAP3 SWAP2 POP POP JUMP JUMPDEST PUSH1 0x0 PUSH2 0x463A DUP3 PUSH2 0x5DF2 JUMP JUMPDEST PUSH2 0x4644 DUP2 DUP6 PUSH2 0x5E0E JUMP JUMPDEST SWAP4 POP PUSH2 0x4654 DUP2 DUP6 PUSH1 0x20 DUP7 ADD PUSH2 0x5ECB JUMP JUMPDEST DUP1 DUP5 ADD SWAP2 POP POP SWAP3 SWAP2 POP POP JUMP JUMPDEST PUSH1 0x0 PUSH2 0x466B DUP3 PUSH2 0x5DE7 JUMP JUMPDEST PUSH2 0x4675 DUP2 DUP6 PUSH2 0x5DFD JUMP JUMPDEST SWAP4 POP PUSH2 0x4685 DUP2 DUP6 PUSH1 0x20 DUP7 ADD PUSH2 0x5ECB JUMP JUMPDEST PUSH2 0x468E DUP2 PUSH2 0x5EFE JUMP JUMPDEST DUP5 ADD SWAP2 POP POP SWAP3 SWAP2 POP POP JUMP JUMPDEST PUSH1 0x0 PUSH2 0x46A6 PUSH1 0x3E DUP4 PUSH2 0x5E19 JUMP JUMPDEST SWAP2 POP PUSH32 0x7472616E736665722061737365742066726F6D206C6F636B5F70726F78792063 PUSH1 0x0 DUP4 ADD MSTORE PUSH32 0x6F6E747261637420746F2066726F6D41646472657373206661696C6564210000 PUSH1 0x20 DUP4 ADD MSTORE PUSH1 0x40 DUP3 ADD SWAP1 POP SWAP2 SWAP1 POP JUMP JUMPDEST PUSH1 0x0 PUSH2 0x470C PUSH1 0x23 DUP4 PUSH2 0x5E19 JUMP JUMPDEST SWAP2 POP PUSH32 0x4E65787455696E743235352C206F66667365742065786365656473206D617869 PUSH1 0x0 DUP4 ADD MSTORE PUSH32 0x6D756D0000000000000000000000000000000000000000000000000000000000 PUSH1 0x20 DUP4 ADD MSTORE PUSH1 0x40 DUP3 ADD SWAP1 POP SWAP2 SWAP1 POP JUMP JUMPDEST PUSH1 0x0 PUSH2 0x4772 PUSH1 0x1F DUP4 PUSH2 0x5E19 JUMP JUMPDEST SWAP2 POP PUSH32 0x4E65787455696E7431362C2076616C7565206F7574736964652072616E676500 PUSH1 0x0 DUP4 ADD MSTORE PUSH1 0x20 DUP3 ADD SWAP1 POP SWAP2 SWAP1 POP JUMP JUMPDEST PUSH1 0x0 PUSH2 0x47B2 PUSH1 0x23 DUP4 PUSH2 0x5E19 JUMP JUMPDEST SWAP2 POP PUSH32 0x6279746573206C656E67746820646F6573206E6F74206D617463682061646472 PUSH1 0x0 DUP4 ADD MSTORE PUSH32 0x6573730000000000000000000000000000000000000000000000000000000000 PUSH1 0x20 DUP4 ADD MSTORE PUSH1 0x40 DUP3 ADD SWAP1 POP SWAP2 SWAP1 POP JUMP JUMPDEST PUSH1 0x0 PUSH2 0x4818 PUSH1 0x33 DUP4 PUSH2 0x5E19 JUMP JUMPDEST SWAP2 POP PUSH32 0x7472616E7366657220657263323020617373657420746F206C6F636B5F70726F PUSH1 0x0 DUP4 ADD MSTORE PUSH32 0x787920636F6E7472616374206661696C65642100000000000000000000000000 PUSH1 0x20 DUP4 ADD MSTORE PUSH1 0x40 DUP3 ADD SWAP1 POP SWAP2 SWAP1 POP JUMP JUMPDEST PUSH1 0x0 PUSH2 0x487E PUSH1 0x26 DUP4 PUSH2 0x5E19 JUMP JUMPDEST SWAP2 POP PUSH32 0x4F776E61626C653A206E6577206F776E657220697320746865207A65726F2061 PUSH1 0x0 DUP4 ADD MSTORE PUSH32 0x6464726573730000000000000000000000000000000000000000000000000000 PUSH1 0x20 DUP4 ADD MSTORE PUSH1 0x40 DUP3 ADD SWAP1 POP SWAP2 SWAP1 POP JUMP JUMPDEST PUSH1 0x0 PUSH2 0x48E4 PUSH1 0x16 DUP4 PUSH2 0x5E19 JUMP JUMPDEST SWAP2 POP PUSH32 0x616D6F756E742063616E6E6F74206265207A65726F2100000000000000000000 PUSH1 0x0 DUP4 ADD MSTORE PUSH1 0x20 DUP3 ADD SWAP1 POP SWAP2 SWAP1 POP JUMP JUMPDEST PUSH1 0x0 PUSH2 0x4924 PUSH1 0x20 DUP4 PUSH2 0x5E19 JUMP JUMPDEST SWAP2 POP PUSH32 0x5361666545524332303A206C6F772D6C6576656C2063616C6C206661696C6564 PUSH1 0x0 DUP4 ADD MSTORE PUSH1 0x20 DUP3 ADD SWAP1 POP SWAP2 SWAP1 POP JUMP JUMPDEST PUSH1 0x0 PUSH2 0x4964 PUSH1 0x3E DUP4 PUSH2 0x5E19 JUMP JUMPDEST SWAP2 POP PUSH32 0x7472616E736665722061737365742066726F6D2066726F6D4164647265737320 PUSH1 0x0 DUP4 ADD MSTORE PUSH32 0x746F206C6F636B5F70726F787920636F6E7472616374206661696C6564210000 PUSH1 0x20 DUP4 ADD MSTORE PUSH1 0x40 DUP3 ADD SWAP1 POP SWAP2 SWAP1 POP JUMP JUMPDEST PUSH1 0x0 PUSH2 0x49CA PUSH1 0x1B DUP4 PUSH2 0x5E19 JUMP JUMPDEST SWAP2 POP PUSH32 0x746F4173736574486173682063616E6E6F7420626520656D7074790000000000 PUSH1 0x0 DUP4 ADD MSTORE PUSH1 0x20 DUP3 ADD SWAP1 POP SWAP2 SWAP1 POP JUMP JUMPDEST PUSH1 0x0 PUSH2 0x4A0A PUSH1 0x3C DUP4 PUSH2 0x5E19 JUMP JUMPDEST SWAP2 POP PUSH32 0x7472616E736665722061737365742066726F6D206C6F636B5F70726F78792063 PUSH1 0x0 DUP4 ADD MSTORE PUSH32 0x6F6E747261637420746F20746F41646472657373206661696C65642100000000 PUSH1 0x20 DUP4 ADD MSTORE PUSH1 0x40 DUP3 ADD SWAP1 POP SWAP2 SWAP1 POP JUMP JUMPDEST PUSH1 0x0 PUSH2 0x4A70 PUSH1 0x19 DUP4 PUSH2 0x5E19 JUMP JUMPDEST SWAP2 POP PUSH32 0x656D70747920696C6C6567616C20746F50726F78794861736800000000000000 PUSH1 0x0 DUP4 ADD MSTORE PUSH1 0x20 DUP3 ADD SWAP1 POP SWAP2 SWAP1 POP JUMP JUMPDEST PUSH1 0x0 PUSH2 0x4AB0 PUSH1 0x25 DUP4 PUSH2 0x5E19 JUMP JUMPDEST SWAP2 POP PUSH32 0x62696E644C50416E64417373657442617463683A2061726773206C656E677468 PUSH1 0x0 DUP4 ADD MSTORE PUSH32 0x2064696666000000000000000000000000000000000000000000000000000000 PUSH1 0x20 DUP4 ADD MSTORE PUSH1 0x40 DUP3 ADD SWAP1 POP SWAP2 SWAP1 POP JUMP JUMPDEST PUSH1 0x0 PUSH2 0x4B16 PUSH1 0x2D DUP4 PUSH2 0x5E19 JUMP JUMPDEST SWAP2 POP PUSH32 0x6D736753656E646572206973206E6F742045746843726F7373436861696E4D61 PUSH1 0x0 DUP4 ADD MSTORE PUSH32 0x6E61676572436F6E747261637400000000000000000000000000000000000000 PUSH1 0x20 DUP4 ADD MSTORE PUSH1 0x40 DUP3 ADD SWAP1 POP SWAP2 SWAP1 POP JUMP JUMPDEST PUSH1 0x0 PUSH2 0x4B7C PUSH1 0x17 DUP4 PUSH2 0x5E19 JUMP JUMPDEST SWAP2 POP PUSH32 0x56616C75652065786365656473207468652072616E6765000000000000000000 PUSH1 0x0 DUP4 ADD MSTORE PUSH1 0x20 DUP3 ADD SWAP1 POP SWAP2 SWAP1 POP JUMP JUMPDEST PUSH1 0x0 PUSH2 0x4BBC PUSH1 0x2B DUP4 PUSH2 0x5E19 JUMP JUMPDEST SWAP2 POP PUSH32 0x66726F6D2070726F787920636F6E747261637420616464726573732063616E6E PUSH1 0x0 DUP4 ADD MSTORE PUSH32 0x6F7420626520656D707479000000000000000000000000000000000000000000 PUSH1 0x20 DUP4 ADD MSTORE PUSH1 0x40 DUP3 ADD SWAP1 POP SWAP2 SWAP1 POP JUMP JUMPDEST PUSH1 0x0 PUSH2 0x4C22 PUSH1 0x22 DUP4 PUSH2 0x5E19 JUMP JUMPDEST SWAP2 POP PUSH32 0x74686572652073686F756C64206265206E6F206574686572207472616E736665 PUSH1 0x0 DUP4 ADD MSTORE PUSH32 0x7221000000000000000000000000000000000000000000000000000000000000 PUSH1 0x20 DUP4 ADD MSTORE PUSH1 0x40 DUP3 ADD SWAP1 POP SWAP2 SWAP1 POP JUMP JUMPDEST PUSH1 0x0 PUSH2 0x4C88 PUSH1 0x24 DUP4 PUSH2 0x5E19 JUMP JUMPDEST SWAP2 POP PUSH32 0x62696E6450726F78794861736842617463683A2061726773206C656E67746820 PUSH1 0x0 DUP4 ADD MSTORE PUSH32 0x6469666600000000000000000000000000000000000000000000000000000000 PUSH1 0x20 DUP4 ADD MSTORE PUSH1 0x40 DUP3 ADD SWAP1 POP SWAP2 SWAP1 POP JUMP JUMPDEST PUSH1 0x0 PUSH2 0x4CEE PUSH1 0x20 DUP4 PUSH2 0x5E19 JUMP JUMPDEST SWAP2 POP PUSH32 0x4F776E61626C653A2063616C6C6572206973206E6F7420746865206F776E6572 PUSH1 0x0 DUP4 ADD MSTORE PUSH1 0x20 DUP3 ADD SWAP1 POP SWAP2 SWAP1 POP JUMP JUMPDEST PUSH1 0x0 PUSH2 0x4D2E PUSH1 0x2F DUP4 PUSH2 0x5E19 JUMP JUMPDEST SWAP2 POP PUSH32 0x45746843726F7373436861696E4D616E616765722063726F7373436861696E20 PUSH1 0x0 DUP4 ADD MSTORE PUSH32 0x6578656375746564206572726F72210000000000000000000000000000000000 PUSH1 0x20 DUP4 ADD MSTORE PUSH1 0x40 DUP3 ADD SWAP1 POP SWAP2 SWAP1 POP JUMP JUMPDEST PUSH1 0x0 PUSH2 0x4D94 PUSH1 0x20 DUP4 PUSH2 0x5E19 JUMP JUMPDEST SWAP2 POP PUSH32 0x4E657874427974652C204F66667365742065786365656473206D6178696D756D PUSH1 0x0 DUP4 ADD MSTORE PUSH1 0x20 DUP3 ADD SWAP1 POP SWAP2 SWAP1 POP JUMP JUMPDEST PUSH1 0x0 PUSH2 0x4DD4 PUSH1 0x6 DUP4 PUSH2 0x5DFD JUMP JUMPDEST SWAP2 POP PUSH32 0x756E6C6F636B0000000000000000000000000000000000000000000000000000 PUSH1 0x0 DUP4 ADD MSTORE PUSH1 0x20 DUP3 ADD SWAP1 POP SWAP2 SWAP1 POP JUMP JUMPDEST PUSH1 0x0 PUSH2 0x4E14 PUSH1 0x1B DUP4 PUSH2 0x5E19 JUMP JUMPDEST SWAP2 POP PUSH32 0x56616C756520657863656564732075696E743235352072616E67650000000000 PUSH1 0x0 DUP4 ADD MSTORE PUSH1 0x20 DUP3 ADD SWAP1 POP SWAP2 SWAP1 POP JUMP JUMPDEST PUSH1 0x0 PUSH2 0x4E54 PUSH1 0x19 DUP4 PUSH2 0x5E19 JUMP JUMPDEST SWAP2 POP PUSH32 0x656D70747920696C6C6567616C20746F41737365744861736800000000000000 PUSH1 0x0 DUP4 ADD MSTORE PUSH1 0x20 DUP3 ADD SWAP1 POP SWAP2 SWAP1 POP JUMP JUMPDEST PUSH1 0x0 PUSH2 0x4E94 PUSH1 0x19 DUP4 PUSH2 0x5E19 JUMP JUMPDEST SWAP2 POP PUSH32 0x746F416464726573732063616E6E6F7420626520656D70747900000000000000 PUSH1 0x0 DUP4 ADD MSTORE PUSH1 0x20 DUP3 ADD SWAP1 POP SWAP2 SWAP1 POP JUMP JUMPDEST PUSH1 0x0 PUSH2 0x4ED4 PUSH1 0x4B DUP4 PUSH2 0x5E19 JUMP JUMPDEST SWAP2 POP PUSH32 0x7472616E736665722070726F6F66206F66206C69717569646974792066726F6D PUSH1 0x0 DUP4 ADD MSTORE PUSH32 0x206C6F636B5F70726F787920636F6E747261637420746F2066726F6D41646472 PUSH1 0x20 DUP4 ADD MSTORE PUSH32 0x657373206661696C656421000000000000000000000000000000000000000000 PUSH1 0x40 DUP4 ADD MSTORE PUSH1 0x60 DUP3 ADD SWAP1 POP SWAP2 SWAP1 POP JUMP JUMPDEST PUSH1 0x0 PUSH2 0x4F60 PUSH1 0x20 DUP4 PUSH2 0x5E19 JUMP JUMPDEST SWAP2 POP PUSH32 0x4E65787456617255696E742C2076616C7565206F7574736964652072616E6765 PUSH1 0x0 DUP4 ADD MSTORE PUSH1 0x20 DUP3 ADD SWAP1 POP SWAP2 SWAP1 POP JUMP JUMPDEST PUSH1 0x0 PUSH2 0x4FA0 PUSH1 0x4B DUP4 PUSH2 0x5E19 JUMP JUMPDEST SWAP2 POP PUSH32 0x7472616E736665722070726F6F66206F66206C69717569646974792066726F6D PUSH1 0x0 DUP4 ADD MSTORE PUSH32 0x2066726F6D4164647265737320746F206C6F636B5F70726F787920636F6E7472 PUSH1 0x20 DUP4 ADD MSTORE PUSH32 0x616374206661696C656421000000000000000000000000000000000000000000 PUSH1 0x40 DUP4 ADD MSTORE PUSH1 0x60 DUP3 ADD SWAP1 POP SWAP2 SWAP1 POP JUMP JUMPDEST PUSH1 0x0 PUSH2 0x502C PUSH1 0x24 DUP4 PUSH2 0x5E19 JUMP JUMPDEST SWAP2 POP PUSH32 0x62696E6441737365744861736842617463683A2061726773206C656E67746820 PUSH1 0x0 DUP4 ADD MSTORE PUSH32 0x6469666600000000000000000000000000000000000000000000000000000000 PUSH1 0x20 DUP4 ADD MSTORE PUSH1 0x40 DUP3 ADD SWAP1 POP SWAP2 SWAP1 POP JUMP JUMPDEST PUSH1 0x0 PUSH2 0x5092 PUSH1 0x29 DUP4 PUSH2 0x5E19 JUMP JUMPDEST SWAP2 POP PUSH32 0x7472616E73666572726564206574686572206973206E6F7420657175616C2074 PUSH1 0x0 DUP4 ADD MSTORE PUSH32 0x6F20616D6F756E74210000000000000000000000000000000000000000000000 PUSH1 0x20 DUP4 ADD MSTORE PUSH1 0x40 DUP3 ADD SWAP1 POP SWAP2 SWAP1 POP JUMP JUMPDEST PUSH1 0x0 PUSH2 0x50F8 PUSH1 0x22 DUP4 PUSH2 0x5E19 JUMP JUMPDEST SWAP2 POP PUSH32 0x4E65787455696E7431362C206F66667365742065786365656473206D6178696D PUSH1 0x0 DUP4 ADD MSTORE PUSH32 0x756D000000000000000000000000000000000000000000000000000000000000 PUSH1 0x20 DUP4 ADD MSTORE PUSH1 0x40 DUP3 ADD SWAP1 POP SWAP2 SWAP1 POP JUMP JUMPDEST PUSH1 0x0 PUSH2 0x515E PUSH1 0x2A DUP4 PUSH2 0x5E19 JUMP JUMPDEST SWAP2 POP PUSH32 0x5361666545524332303A204552433230206F7065726174696F6E20646964206E PUSH1 0x0 DUP4 ADD MSTORE PUSH32 0x6F74207375636365656400000000000000000000000000000000000000000000 PUSH1 0x20 DUP4 ADD MSTORE PUSH1 0x40 DUP3 ADD SWAP1 POP SWAP2 SWAP1 POP JUMP JUMPDEST PUSH1 0x0 PUSH2 0x51C4 PUSH1 0x22 DUP4 PUSH2 0x5E19 JUMP JUMPDEST SWAP2 POP PUSH32 0x4E65787455696E7436342C206F66667365742065786365656473206D6178696D PUSH1 0x0 DUP4 ADD MSTORE PUSH32 0x756D000000000000000000000000000000000000000000000000000000000000 PUSH1 0x20 DUP4 ADD MSTORE PUSH1 0x40 DUP3 ADD SWAP1 POP SWAP2 SWAP1 POP JUMP JUMPDEST PUSH1 0x0 PUSH2 0x522A PUSH1 0x22 DUP4 PUSH2 0x5E19 JUMP JUMPDEST SWAP2 POP PUSH32 0x4E65787455696E7433322C206F66667365742065786365656473206D6178696D PUSH1 0x0 DUP4 ADD MSTORE PUSH32 0x756D000000000000000000000000000000000000000000000000000000000000 PUSH1 0x20 DUP4 ADD MSTORE PUSH1 0x40 DUP3 ADD SWAP1 POP SWAP2 SWAP1 POP JUMP JUMPDEST PUSH1 0x0 PUSH2 0x5290 PUSH1 0x24 DUP4 PUSH2 0x5E19 JUMP JUMPDEST SWAP2 POP PUSH32 0x4E65787456617242797465732C206F66667365742065786365656473206D6178 PUSH1 0x0 DUP4 ADD MSTORE PUSH32 0x696D756D00000000000000000000000000000000000000000000000000000000 PUSH1 0x20 DUP4 ADD MSTORE PUSH1 0x40 DUP3 ADD SWAP1 POP SWAP2 SWAP1 POP JUMP JUMPDEST PUSH1 0x0 PUSH2 0x52F6 PUSH1 0x22 DUP4 PUSH2 0x5E19 JUMP JUMPDEST SWAP2 POP PUSH32 0x46726F6D2050726F787920636F6E74726163742061646472657373206572726F PUSH1 0x0 DUP4 ADD MSTORE PUSH32 0x7221000000000000000000000000000000000000000000000000000000000000 PUSH1 0x20 DUP4 ADD MSTORE PUSH1 0x40 DUP3 ADD SWAP1 POP SWAP2 SWAP1 POP JUMP JUMPDEST PUSH1 0x0 PUSH2 0x535C PUSH1 0x1F DUP4 PUSH2 0x5E19 JUMP JUMPDEST SWAP2 POP PUSH32 0x5361666545524332303A2063616C6C20746F206E6F6E2D636F6E747261637400 PUSH1 0x0 DUP4 ADD MSTORE PUSH1 0x20 DUP3 ADD SWAP1 POP SWAP2 SWAP1 POP JUMP JUMPDEST PUSH1 0x0 PUSH2 0x539C PUSH1 0x21 DUP4 PUSH2 0x5E19 JUMP JUMPDEST SWAP2 POP PUSH32 0x7472616E736665727265642065746865722063616E6E6F74206265207A65726F PUSH1 0x0 DUP4 ADD MSTORE PUSH32 0x2100000000000000000000000000000000000000000000000000000000000000 PUSH1 0x20 DUP4 ADD MSTORE PUSH1 0x40 DUP3 ADD SWAP1 POP SWAP2 SWAP1 POP JUMP JUMPDEST PUSH1 0x0 PUSH2 0x5402 PUSH1 0x24 DUP4 PUSH2 0x5E19 JUMP JUMPDEST SWAP2 POP PUSH32 0x62696E644C50546F417373657442617463683A2061726773206C656E67746820 PUSH1 0x0 DUP4 ADD MSTORE PUSH32 0x6469666600000000000000000000000000000000000000000000000000000000 PUSH1 0x20 DUP4 ADD MSTORE PUSH1 0x40 DUP3 ADD SWAP1 POP SWAP2 SWAP1 POP JUMP JUMPDEST PUSH2 0x5464 DUP2 PUSH2 0x5E68 JUMP JUMPDEST DUP3 MSTORE POP POP JUMP JUMPDEST PUSH2 0x5473 DUP2 PUSH2 0x5E72 JUMP JUMPDEST DUP3 MSTORE POP POP JUMP JUMPDEST PUSH1 0x0 PUSH2 0x5485 DUP3 DUP5 PUSH2 0x462F JUMP JUMPDEST SWAP2 POP DUP2 SWAP1 POP SWAP3 SWAP2 POP POP JUMP JUMPDEST PUSH1 0x0 PUSH2 0x549C DUP3 DUP6 PUSH2 0x462F JUMP JUMPDEST SWAP2 POP PUSH2 0x54A8 DUP3 DUP5 PUSH2 0x462F JUMP JUMPDEST SWAP2 POP DUP2 SWAP1 POP SWAP4 SWAP3 POP POP POP JUMP JUMPDEST PUSH1 0x0 PUSH2 0x54C0 DUP3 DUP7 PUSH2 0x462F JUMP JUMPDEST SWAP2 POP PUSH2 0x54CC DUP3 DUP6 PUSH2 0x462F JUMP JUMPDEST SWAP2 POP PUSH2 0x54D8 DUP3 DUP5 PUSH2 0x462F JUMP JUMPDEST SWAP2 POP DUP2 SWAP1 POP SWAP5 SWAP4 POP POP POP POP JUMP JUMPDEST PUSH1 0x0 PUSH1 0x20 DUP3 ADD SWAP1 POP PUSH2 0x54FA PUSH1 0x0 DUP4 ADD DUP5 PUSH2 0x45D8 JUMP JUMPDEST SWAP3 SWAP2 POP POP JUMP JUMPDEST PUSH1 0x0 PUSH1 0x80 DUP3 ADD SWAP1 POP PUSH2 0x5515 PUSH1 0x0 DUP4 ADD DUP8 PUSH2 0x45C9 JUMP JUMPDEST PUSH2 0x5522 PUSH1 0x20 DUP4 ADD DUP7 PUSH2 0x45D8 JUMP JUMPDEST PUSH2 0x552F PUSH1 0x40 DUP4 ADD DUP6 PUSH2 0x45D8 JUMP JUMPDEST PUSH2 0x553C PUSH1 0x60 DUP4 ADD DUP5 PUSH2 0x545B JUMP JUMPDEST SWAP6 SWAP5 POP POP POP POP POP JUMP JUMPDEST PUSH1 0x0 PUSH1 0x40 DUP3 ADD SWAP1 POP PUSH2 0x555A PUSH1 0x0 DUP4 ADD DUP6 PUSH2 0x45D8 JUMP JUMPDEST PUSH2 0x5567 PUSH1 0x20 DUP4 ADD DUP5 PUSH2 0x45D8 JUMP JUMPDEST SWAP4 SWAP3 POP POP POP JUMP JUMPDEST PUSH1 0x0 PUSH1 0xC0 DUP3 ADD SWAP1 POP PUSH2 0x5583 PUSH1 0x0 DUP4 ADD DUP10 PUSH2 0x45D8 JUMP JUMPDEST PUSH2 0x5590 PUSH1 0x20 DUP4 ADD DUP9 PUSH2 0x45C9 JUMP JUMPDEST PUSH2 0x559D PUSH1 0x40 DUP4 ADD DUP8 PUSH2 0x546A JUMP JUMPDEST DUP2 DUP2 SUB PUSH1 0x60 DUP4 ADD MSTORE PUSH2 0x55AF DUP2 DUP7 PUSH2 0x45F6 JUMP JUMPDEST SWAP1 POP DUP2 DUP2 SUB PUSH1 0x80 DUP4 ADD MSTORE PUSH2 0x55C3 DUP2 DUP6 PUSH2 0x45F6 JUMP JUMPDEST SWAP1 POP PUSH2 0x55D2 PUSH1 0xA0 DUP4 ADD DUP5 PUSH2 0x545B JUMP JUMPDEST SWAP8 SWAP7 POP POP POP POP POP POP POP JUMP JUMPDEST PUSH1 0x0 PUSH1 0x80 DUP3 ADD SWAP1 POP PUSH2 0x55F2 PUSH1 0x0 DUP4 ADD DUP8 PUSH2 0x45D8 JUMP JUMPDEST PUSH2 0x55FF PUSH1 0x20 DUP4 ADD DUP7 PUSH2 0x45D8 JUMP JUMPDEST PUSH2 0x560C PUSH1 0x40 DUP4 ADD DUP6 PUSH2 0x45D8 JUMP JUMPDEST PUSH2 0x5619 PUSH1 0x60 DUP4 ADD DUP5 PUSH2 0x545B JUMP JUMPDEST SWAP6 SWAP5 POP POP POP POP POP JUMP JUMPDEST PUSH1 0x0 PUSH1 0x60 DUP3 ADD SWAP1 POP PUSH2 0x5637 PUSH1 0x0 DUP4 ADD DUP7 PUSH2 0x45D8 JUMP JUMPDEST PUSH2 0x5644 PUSH1 0x20 DUP4 ADD DUP6 PUSH2 0x45D8 JUMP JUMPDEST PUSH2 0x5651 PUSH1 0x40 DUP4 ADD DUP5 PUSH2 0x545B JUMP JUMPDEST SWAP5 SWAP4 POP POP POP POP JUMP JUMPDEST PUSH1 0x0 PUSH1 0x40 DUP3 ADD SWAP1 POP PUSH2 0x566E PUSH1 0x0 DUP4 ADD DUP6 PUSH2 0x45D8 JUMP JUMPDEST PUSH2 0x567B PUSH1 0x20 DUP4 ADD DUP5 PUSH2 0x545B JUMP JUMPDEST SWAP4 SWAP3 POP POP POP JUMP JUMPDEST PUSH1 0x0 PUSH1 0x80 DUP3 ADD SWAP1 POP PUSH2 0x5697 PUSH1 0x0 DUP4 ADD DUP8 PUSH2 0x45D8 JUMP JUMPDEST PUSH2 0x56A4 PUSH1 0x20 DUP4 ADD DUP7 PUSH2 0x546A JUMP JUMPDEST DUP2 DUP2 SUB PUSH1 0x40 DUP4 ADD MSTORE PUSH2 0x56B6 DUP2 DUP6 PUSH2 0x45F6 JUMP JUMPDEST SWAP1 POP PUSH2 0x56C5 PUSH1 0x60 DUP4 ADD DUP5 PUSH2 0x545B JUMP JUMPDEST SWAP6 SWAP5 POP POP POP POP POP JUMP JUMPDEST PUSH1 0x0 PUSH1 0x80 DUP3 ADD SWAP1 POP PUSH2 0x56E3 PUSH1 0x0 DUP4 ADD DUP8 PUSH2 0x45D8 JUMP JUMPDEST PUSH2 0x56F0 PUSH1 0x20 DUP4 ADD DUP7 PUSH2 0x546A JUMP JUMPDEST DUP2 DUP2 SUB PUSH1 0x40 DUP4 ADD MSTORE PUSH2 0x5702 DUP2 DUP6 PUSH2 0x4660 JUMP JUMPDEST SWAP1 POP PUSH2 0x5711 PUSH1 0x60 DUP4 ADD DUP5 PUSH2 0x545B JUMP JUMPDEST SWAP6 SWAP5 POP POP POP POP POP JUMP JUMPDEST PUSH1 0x0 PUSH1 0x20 DUP3 ADD SWAP1 POP PUSH2 0x572F PUSH1 0x0 DUP4 ADD DUP5 PUSH2 0x45E7 JUMP JUMPDEST SWAP3 SWAP2 POP POP JUMP JUMPDEST PUSH1 0x0 PUSH1 0x20 DUP3 ADD SWAP1 POP DUP2 DUP2 SUB PUSH1 0x0 DUP4 ADD MSTORE PUSH2 0x574F DUP2 DUP5 PUSH2 0x4660 JUMP JUMPDEST SWAP1 POP SWAP3 SWAP2 POP POP JUMP JUMPDEST PUSH1 0x0 PUSH1 0x20 DUP3 ADD SWAP1 POP DUP2 DUP2 SUB PUSH1 0x0 DUP4 ADD MSTORE PUSH2 0x5770 DUP2 PUSH2 0x4699 JUMP JUMPDEST SWAP1 POP SWAP2 SWAP1 POP JUMP JUMPDEST PUSH1 0x0 PUSH1 0x20 DUP3 ADD SWAP1 POP DUP2 DUP2 SUB PUSH1 0x0 DUP4 ADD MSTORE PUSH2 0x5790 DUP2 PUSH2 0x46FF JUMP JUMPDEST SWAP1 POP SWAP2 SWAP1 POP JUMP JUMPDEST PUSH1 0x0 PUSH1 0x20 DUP3 ADD SWAP1 POP DUP2 DUP2 SUB PUSH1 0x0 DUP4 ADD MSTORE PUSH2 0x57B0 DUP2 PUSH2 0x4765 JUMP JUMPDEST SWAP1 POP SWAP2 SWAP1 POP JUMP JUMPDEST PUSH1 0x0 PUSH1 0x20 DUP3 ADD SWAP1 POP DUP2 DUP2 SUB PUSH1 0x0 DUP4 ADD MSTORE PUSH2 0x57D0 DUP2 PUSH2 0x47A5 JUMP JUMPDEST SWAP1 POP SWAP2 SWAP1 POP JUMP JUMPDEST PUSH1 0x0 PUSH1 0x20 DUP3 ADD SWAP1 POP DUP2 DUP2 SUB PUSH1 0x0 DUP4 ADD MSTORE PUSH2 0x57F0 DUP2 PUSH2 0x480B JUMP JUMPDEST SWAP1 POP SWAP2 SWAP1 POP JUMP JUMPDEST PUSH1 0x0 PUSH1 0x20 DUP3 ADD SWAP1 POP DUP2 DUP2 SUB PUSH1 0x0 DUP4 ADD MSTORE PUSH2 0x5810 DUP2 PUSH2 0x4871 JUMP JUMPDEST SWAP1 POP SWAP2 SWAP1 POP JUMP JUMPDEST PUSH1 0x0 PUSH1 0x20 DUP3 ADD SWAP1 POP DUP2 DUP2 SUB PUSH1 0x0 DUP4 ADD MSTORE PUSH2 0x5830 DUP2 PUSH2 0x48D7 JUMP JUMPDEST SWAP1 POP SWAP2 SWAP1 POP JUMP JUMPDEST PUSH1 0x0 PUSH1 0x20 DUP3 ADD SWAP1 POP DUP2 DUP2 SUB PUSH1 0x0 DUP4 ADD MSTORE PUSH2 0x5850 DUP2 PUSH2 0x4917 JUMP JUMPDEST SWAP1 POP SWAP2 SWAP1 POP JUMP JUMPDEST PUSH1 0x0 PUSH1 0x20 DUP3 ADD SWAP1 POP DUP2 DUP2 SUB PUSH1 0x0 DUP4 ADD MSTORE PUSH2 0x5870 DUP2 PUSH2 0x4957 JUMP JUMPDEST SWAP1 POP SWAP2 SWAP1 POP JUMP JUMPDEST PUSH1 0x0 PUSH1 0x20 DUP3 ADD SWAP1 POP DUP2 DUP2 SUB PUSH1 0x0 DUP4 ADD MSTORE PUSH2 0x5890 DUP2 PUSH2 0x49BD JUMP JUMPDEST SWAP1 POP SWAP2 SWAP1 POP JUMP JUMPDEST PUSH1 0x0 PUSH1 0x20 DUP3 ADD SWAP1 POP DUP2 DUP2 SUB PUSH1 0x0 DUP4 ADD MSTORE PUSH2 0x58B0 DUP2 PUSH2 0x49FD JUMP JUMPDEST SWAP1 POP SWAP2 SWAP1 POP JUMP JUMPDEST PUSH1 0x0 PUSH1 0x20 DUP3 ADD SWAP1 POP DUP2 DUP2 SUB PUSH1 0x0 DUP4 ADD MSTORE PUSH2 0x58D0 DUP2 PUSH2 0x4A63 JUMP JUMPDEST SWAP1 POP SWAP2 SWAP1 POP JUMP JUMPDEST PUSH1 0x0 PUSH1 0x20 DUP3 ADD SWAP1 POP DUP2 DUP2 SUB PUSH1 0x0 DUP4 ADD MSTORE PUSH2 0x58F0 DUP2 PUSH2 0x4AA3 JUMP JUMPDEST SWAP1 POP SWAP2 SWAP1 POP JUMP JUMPDEST PUSH1 0x0 PUSH1 0x20 DUP3 ADD SWAP1 POP DUP2 DUP2 SUB PUSH1 0x0 DUP4 ADD MSTORE PUSH2 0x5910 DUP2 PUSH2 0x4B09 JUMP JUMPDEST SWAP1 POP SWAP2 SWAP1 POP JUMP JUMPDEST PUSH1 0x0 PUSH1 0x20 DUP3 ADD SWAP1 POP DUP2 DUP2 SUB PUSH1 0x0 DUP4 ADD MSTORE PUSH2 0x5930 DUP2 PUSH2 0x4B6F JUMP JUMPDEST SWAP1 POP SWAP2 SWAP1 POP JUMP JUMPDEST PUSH1 0x0 PUSH1 0x20 DUP3 ADD SWAP1 POP DUP2 DUP2 SUB PUSH1 0x0 DUP4 ADD MSTORE PUSH2 0x5950 DUP2 PUSH2 0x4BAF JUMP JUMPDEST SWAP1 POP SWAP2 SWAP1 POP JUMP JUMPDEST PUSH1 0x0 PUSH1 0x20 DUP3 ADD SWAP1 POP DUP2 DUP2 SUB PUSH1 0x0 DUP4 ADD MSTORE PUSH2 0x5970 DUP2 PUSH2 0x4C15 JUMP JUMPDEST SWAP1 POP SWAP2 SWAP1 POP JUMP JUMPDEST PUSH1 0x0 PUSH1 0x20 DUP3 ADD SWAP1 POP DUP2 DUP2 SUB PUSH1 0x0 DUP4 ADD MSTORE PUSH2 0x5990 DUP2 PUSH2 0x4C7B JUMP JUMPDEST SWAP1 POP SWAP2 SWAP1 POP JUMP JUMPDEST PUSH1 0x0 PUSH1 0x20 DUP3 ADD SWAP1 POP DUP2 DUP2 SUB PUSH1 0x0 DUP4 ADD MSTORE PUSH2 0x59B0 DUP2 PUSH2 0x4CE1 JUMP JUMPDEST SWAP1 POP SWAP2 SWAP1 POP JUMP JUMPDEST PUSH1 0x0 PUSH1 0x20 DUP3 ADD SWAP1 POP DUP2 DUP2 SUB PUSH1 0x0 DUP4 ADD MSTORE PUSH2 0x59D0 DUP2 PUSH2 0x4D21 JUMP JUMPDEST SWAP1 POP SWAP2 SWAP1 POP JUMP JUMPDEST PUSH1 0x0 PUSH1 0x20 DUP3 ADD SWAP1 POP DUP2 DUP2 SUB PUSH1 0x0 DUP4 ADD MSTORE PUSH2 0x59F0 DUP2 PUSH2 0x4D87 JUMP JUMPDEST SWAP1 POP SWAP2 SWAP1 POP JUMP JUMPDEST PUSH1 0x0 PUSH1 0x20 DUP3 ADD SWAP1 POP DUP2 DUP2 SUB PUSH1 0x0 DUP4 ADD MSTORE PUSH2 0x5A10 DUP2 PUSH2 0x4E07 JUMP JUMPDEST SWAP1 POP SWAP2 SWAP1 POP JUMP JUMPDEST PUSH1 0x0 PUSH1 0x20 DUP3 ADD SWAP1 POP DUP2 DUP2 SUB PUSH1 0x0 DUP4 ADD MSTORE PUSH2 0x5A30 DUP2 PUSH2 0x4E47 JUMP JUMPDEST SWAP1 POP SWAP2 SWAP1 POP JUMP JUMPDEST PUSH1 0x0 PUSH1 0x20 DUP3 ADD SWAP1 POP DUP2 DUP2 SUB PUSH1 0x0 DUP4 ADD MSTORE PUSH2 0x5A50 DUP2 PUSH2 0x4E87 JUMP JUMPDEST SWAP1 POP SWAP2 SWAP1 POP JUMP JUMPDEST PUSH1 0x0 PUSH1 0x20 DUP3 ADD SWAP1 POP DUP2 DUP2 SUB PUSH1 0x0 DUP4 ADD MSTORE PUSH2 0x5A70 DUP2 PUSH2 0x4EC7 JUMP JUMPDEST SWAP1 POP SWAP2 SWAP1 POP JUMP JUMPDEST PUSH1 0x0 PUSH1 0x20 DUP3 ADD SWAP1 POP DUP2 DUP2 SUB PUSH1 0x0 DUP4 ADD MSTORE PUSH2 0x5A90 DUP2 PUSH2 0x4F53 JUMP JUMPDEST SWAP1 POP SWAP2 SWAP1 POP JUMP JUMPDEST PUSH1 0x0 PUSH1 0x20 DUP3 ADD SWAP1 POP DUP2 DUP2 SUB PUSH1 0x0 DUP4 ADD MSTORE PUSH2 0x5AB0 DUP2 PUSH2 0x4F93 JUMP JUMPDEST SWAP1 POP SWAP2 SWAP1 POP JUMP JUMPDEST PUSH1 0x0 PUSH1 0x20 DUP3 ADD SWAP1 POP DUP2 DUP2 SUB PUSH1 0x0 DUP4 ADD MSTORE PUSH2 0x5AD0 DUP2 PUSH2 0x501F JUMP JUMPDEST SWAP1 POP SWAP2 SWAP1 POP JUMP JUMPDEST PUSH1 0x0 PUSH1 0x20 DUP3 ADD SWAP1 POP DUP2 DUP2 SUB PUSH1 0x0 DUP4 ADD MSTORE PUSH2 0x5AF0 DUP2 PUSH2 0x5085 JUMP JUMPDEST SWAP1 POP SWAP2 SWAP1 POP JUMP JUMPDEST PUSH1 0x0 PUSH1 0x20 DUP3 ADD SWAP1 POP DUP2 DUP2 SUB PUSH1 0x0 DUP4 ADD MSTORE PUSH2 0x5B10 DUP2 PUSH2 0x50EB JUMP JUMPDEST SWAP1 POP SWAP2 SWAP1 POP JUMP JUMPDEST PUSH1 0x0 PUSH1 0x20 DUP3 ADD SWAP1 POP DUP2 DUP2 SUB PUSH1 0x0 DUP4 ADD MSTORE PUSH2 0x5B30 DUP2 PUSH2 0x5151 JUMP JUMPDEST SWAP1 POP SWAP2 SWAP1 POP JUMP JUMPDEST PUSH1 0x0 PUSH1 0x20 DUP3 ADD SWAP1 POP DUP2 DUP2 SUB PUSH1 0x0 DUP4 ADD MSTORE PUSH2 0x5B50 DUP2 PUSH2 0x51B7 JUMP JUMPDEST SWAP1 POP SWAP2 SWAP1 POP JUMP JUMPDEST PUSH1 0x0 PUSH1 0x20 DUP3 ADD SWAP1 POP DUP2 DUP2 SUB PUSH1 0x0 DUP4 ADD MSTORE PUSH2 0x5B70 DUP2 PUSH2 0x521D JUMP JUMPDEST SWAP1 POP SWAP2 SWAP1 POP JUMP JUMPDEST PUSH1 0x0 PUSH1 0x20 DUP3 ADD SWAP1 POP DUP2 DUP2 SUB PUSH1 0x0 DUP4 ADD MSTORE PUSH2 0x5B90 DUP2 PUSH2 0x5283 JUMP JUMPDEST SWAP1 POP SWAP2 SWAP1 POP JUMP JUMPDEST PUSH1 0x0 PUSH1 0x20 DUP3 ADD SWAP1 POP DUP2 DUP2 SUB PUSH1 0x0 DUP4 ADD MSTORE PUSH2 0x5BB0 DUP2 PUSH2 0x52E9 JUMP JUMPDEST SWAP1 POP SWAP2 SWAP1 POP JUMP JUMPDEST PUSH1 0x0 PUSH1 0x20 DUP3 ADD SWAP1 POP DUP2 DUP2 SUB PUSH1 0x0 DUP4 ADD MSTORE PUSH2 0x5BD0 DUP2 PUSH2 0x534F JUMP JUMPDEST SWAP1 POP SWAP2 SWAP1 POP JUMP JUMPDEST PUSH1 0x0 PUSH1 0x20 DUP3 ADD SWAP1 POP DUP2 DUP2 SUB PUSH1 0x0 DUP4 ADD MSTORE PUSH2 0x5BF0 DUP2 PUSH2 0x538F JUMP JUMPDEST SWAP1 POP SWAP2 SWAP1 POP JUMP JUMPDEST PUSH1 0x0 PUSH1 0x20 DUP3 ADD SWAP1 POP DUP2 DUP2 SUB PUSH1 0x0 DUP4 ADD MSTORE PUSH2 0x5C10 DUP2 PUSH2 0x53F5 JUMP JUMPDEST SWAP1 POP SWAP2 SWAP1 POP JUMP JUMPDEST PUSH1 0x0 PUSH1 0x20 DUP3 ADD SWAP1 POP PUSH2 0x5C2C PUSH1 0x0 DUP4 ADD DUP5 PUSH2 0x545B JUMP JUMPDEST SWAP3 SWAP2 POP POP JUMP JUMPDEST PUSH1 0x0 PUSH1 0x40 DUP3 ADD SWAP1 POP PUSH2 0x5C47 PUSH1 0x0 DUP4 ADD DUP6 PUSH2 0x546A JUMP JUMPDEST DUP2 DUP2 SUB PUSH1 0x20 DUP4 ADD MSTORE PUSH2 0x5C59 DUP2 DUP5 PUSH2 0x4660 JUMP JUMPDEST SWAP1 POP SWAP4 SWAP3 POP POP POP JUMP JUMPDEST PUSH1 0x0 PUSH1 0x40 DUP3 ADD SWAP1 POP PUSH2 0x5C77 PUSH1 0x0 DUP4 ADD DUP6 PUSH2 0x546A JUMP JUMPDEST DUP2 DUP2 SUB PUSH1 0x20 DUP4 ADD MSTORE PUSH2 0x5C89 DUP2 DUP5 PUSH2 0x45F6 JUMP JUMPDEST SWAP1 POP SWAP4 SWAP3 POP POP POP JUMP JUMPDEST PUSH1 0x0 PUSH1 0x80 DUP3 ADD SWAP1 POP PUSH2 0x5CA7 PUSH1 0x0 DUP4 ADD DUP7 PUSH2 0x546A JUMP JUMPDEST DUP2 DUP2 SUB PUSH1 0x20 DUP4 ADD MSTORE PUSH2 0x5CB9 DUP2 DUP6 PUSH2 0x45F6 JUMP JUMPDEST SWAP1 POP DUP2 DUP2 SUB PUSH1 0x40 DUP4 ADD MSTORE PUSH2 0x5CCC DUP2 PUSH2 0x4DC7 JUMP JUMPDEST SWAP1 POP DUP2 DUP2 SUB PUSH1 0x60 DUP4 ADD MSTORE PUSH2 0x5CE0 DUP2 DUP5 PUSH2 0x45F6 JUMP JUMPDEST SWAP1 POP SWAP5 SWAP4 POP POP POP POP JUMP JUMPDEST PUSH1 0x0 PUSH1 0x40 MLOAD SWAP1 POP DUP2 DUP2 ADD DUP2 DUP2 LT PUSH8 0xFFFFFFFFFFFFFFFF DUP3 GT OR ISZERO PUSH2 0x5D0D JUMPI PUSH1 0x0 DUP1 REVERT JUMPDEST DUP1 PUSH1 0x40 MSTORE POP SWAP2 SWAP1 POP JUMP JUMPDEST PUSH1 0x0 PUSH8 0xFFFFFFFFFFFFFFFF DUP3 GT ISZERO PUSH2 0x5D2E JUMPI PUSH1 0x0 DUP1 REVERT JUMPDEST PUSH1 0x20 DUP3 MUL SWAP1 POP PUSH1 0x20 DUP2 ADD SWAP1 POP SWAP2 SWAP1 POP JUMP JUMPDEST PUSH1 0x0 PUSH8 0xFFFFFFFFFFFFFFFF DUP3 GT ISZERO PUSH2 0x5D56 JUMPI PUSH1 0x0 DUP1 REVERT JUMPDEST PUSH1 0x20 DUP3 MUL SWAP1 POP PUSH1 0x20 DUP2 ADD SWAP1 POP SWAP2 SWAP1 POP JUMP JUMPDEST PUSH1 0x0 PUSH8 0xFFFFFFFFFFFFFFFF DUP3 GT ISZERO PUSH2 0x5D7E JUMPI PUSH1 0x0 DUP1 REVERT JUMPDEST PUSH1 0x20 DUP3 MUL SWAP1 POP PUSH1 0x20 DUP2 ADD SWAP1 POP SWAP2 SWAP1 POP JUMP JUMPDEST PUSH1 0x0 PUSH8 0xFFFFFFFFFFFFFFFF DUP3 GT ISZERO PUSH2 0x5DA6 JUMPI PUSH1 0x0 DUP1 REVERT JUMPDEST PUSH1 0x1F NOT PUSH1 0x1F DUP4 ADD AND SWAP1 POP PUSH1 0x20 DUP2 ADD SWAP1 POP SWAP2 SWAP1 POP JUMP JUMPDEST PUSH1 0x0 PUSH8 0xFFFFFFFFFFFFFFFF DUP3 GT ISZERO PUSH2 0x5DD2 JUMPI PUSH1 0x0 DUP1 REVERT JUMPDEST PUSH1 0x1F NOT PUSH1 0x1F DUP4 ADD AND SWAP1 POP PUSH1 0x20 DUP2 ADD SWAP1 POP SWAP2 SWAP1 POP JUMP JUMPDEST PUSH1 0x0 DUP2 MLOAD SWAP1 POP SWAP2 SWAP1 POP JUMP JUMPDEST PUSH1 0x0 DUP2 MLOAD SWAP1 POP SWAP2 SWAP1 POP JUMP JUMPDEST PUSH1 0x0 DUP3 DUP3 MSTORE PUSH1 0x20 DUP3 ADD SWAP1 POP SWAP3 SWAP2 POP POP JUMP JUMPDEST PUSH1 0x0 DUP2 SWAP1 POP SWAP3 SWAP2 POP POP JUMP JUMPDEST PUSH1 0x0 DUP3 DUP3 MSTORE PUSH1 0x20 DUP3 ADD SWAP1 POP SWAP3 SWAP2 POP POP JUMP JUMPDEST PUSH1 0x0 PUSH2 0x5E35 DUP3 PUSH2 0x5E48 JUMP JUMPDEST SWAP1 POP SWAP2 SWAP1 POP JUMP JUMPDEST PUSH1 0x0 DUP2 ISZERO ISZERO SWAP1 POP SWAP2 SWAP1 POP JUMP JUMPDEST PUSH1 0x0 PUSH20 0xFFFFFFFFFFFFFFFFFFFFFFFFFFFFFFFFFFFFFFFF DUP3 AND SWAP1 POP SWAP2 SWAP1 POP JUMP JUMPDEST PUSH1 0x0 DUP2 SWAP1 POP SWAP2 SWAP1 POP JUMP JUMPDEST PUSH1 0x0 PUSH8 0xFFFFFFFFFFFFFFFF DUP3 AND SWAP1 POP SWAP2 SWAP1 POP JUMP JUMPDEST PUSH1 0x0 PUSH2 0x5E91 DUP3 PUSH2 0x5E98 JUMP JUMPDEST SWAP1 POP SWAP2 SWAP1 POP JUMP JUMPDEST PUSH1 0x0 PUSH2 0x5EA3 DUP3 PUSH2 0x5EAA JUMP JUMPDEST SWAP1 POP SWAP2 SWAP1 POP JUMP JUMPDEST PUSH1 0x0 PUSH2 0x5EB5 DUP3 PUSH2 0x5E48 JUMP JUMPDEST SWAP1 POP SWAP2 SWAP1 POP JUMP JUMPDEST DUP3 DUP2 DUP4 CALLDATACOPY PUSH1 0x0 DUP4 DUP4 ADD MSTORE POP POP POP JUMP JUMPDEST PUSH1 0x0 JUMPDEST DUP4 DUP2 LT ISZERO PUSH2 0x5EE9 JUMPI DUP1 DUP3 ADD MLOAD DUP2 DUP5 ADD MSTORE PUSH1 0x20 DUP2 ADD SWAP1 POP PUSH2 0x5ECE JUMP JUMPDEST DUP4 DUP2 GT ISZERO PUSH2 0x5EF8 JUMPI PUSH1 0x0 DUP5 DUP5 ADD MSTORE JUMPDEST POP POP POP POP JUMP JUMPDEST PUSH1 0x0 PUSH1 0x1F NOT PUSH1 0x1F DUP4 ADD AND SWAP1 POP SWAP2 SWAP1 POP JUMP JUMPDEST PUSH2 0x5F18 DUP2 PUSH2 0x5E2A JUMP JUMPDEST DUP2 EQ PUSH2 0x5F23 JUMPI PUSH1 0x0 DUP1 REVERT JUMPDEST POP JUMP JUMPDEST PUSH2 0x5F2F DUP2 PUSH2 0x5E3C JUMP JUMPDEST DUP2 EQ PUSH2 0x5F3A JUMPI PUSH1 0x0 DUP1 REVERT JUMPDEST POP JUMP JUMPDEST PUSH2 0x5F46 DUP2 PUSH2 0x5E68 JUMP JUMPDEST DUP2 EQ PUSH2 0x5F51 JUMPI PUSH1 0x0 DUP1 REVERT JUMPDEST POP JUMP JUMPDEST PUSH2 0x5F5D DUP2 PUSH2 0x5E72 JUMP JUMPDEST DUP2 EQ PUSH2 0x5F68 JUMPI PUSH1 0x0 DUP1 REVERT JUMPDEST POP JUMP INVALID LOG3 PUSH6 0x627A7A723158 KECCAK256 0x5E 0xDE 0xA8 AND 0xE STATICCALL 0xDE GAS DUP12 PUSH31 0xF3CA001034EA51377CE5BB85EC15567DB07D070DB01D6C6578706572696D65 PUSH15 0x74616CF564736F6C63430005110040 "
		},
		"gasEstimates": {
			"creation": {
				"codeDepositCost": "4898800",
				"executionCost": "infinite",
				"totalCost": "infinite"
			},
			"external": {
				"assetHashMap(address,uint64)": "infinite",
				"assetLPMap(address)": "infinite",
				"bindAssetHash(address,uint64,bytes)": "infinite",
				"bindAssetHashBatch(address[],uint64[],bytes[])": "infinite",
				"bindLPAndAsset(address,address,uint64,bytes,bytes)": "infinite",
				"bindLPAndAssetBatch(address[],address[],uint64[],bytes[],bytes[])": "infinite",
				"bindLPToAsset(address,address)": "infinite",
				"bindLPToAssetBatch(address[],address[])": "infinite",
				"bindProxyHash(uint64,bytes)": "infinite",
				"bindProxyHashBatch(uint64[],bytes[])": "infinite",
				"deposit(address,uint256)": "infinite",
				"deposit(address,uint256,address)": "infinite",
				"getBalanceFor(address)": "infinite",
				"isOwner()": "1364",
				"lock(address,uint64,bytes,uint256)": "infinite",
				"managerProxyContract()": "1280",
				"owner()": "1333",
				"proxyHashMap(uint64)": "infinite",
				"renounceOwnership()": "24399",
				"setManagerProxy(address)": "infinite",
				"transferOwnership(address)": "24798",
				"unlock(bytes,bytes,uint64)": "infinite",
				"withdraw(address,uint256)": "infinite",
				"withdraw(address,uint256,address)": "infinite"
			},
			"internal": {
				"_deserializeTxArgs(bytes memory)": "infinite",
				"_serializeTxArgs(struct LockProxyWithLP.TxArgs memory)": "infinite",
				"_transferERC20FromContract(address,address,uint256)": "infinite",
				"_transferERC20ToContract(address,address,address,uint256)": "infinite",
				"_transferFromContract(address,address,uint256)": "infinite",
				"_transferToContract(address,uint256)": "infinite"
			}
		},
		"methodIdentifiers": {
			"assetHashMap(address,uint64)": "4f7d9808",
			"assetLPMap(address)": "3389279d",
			"bindAssetHash(address,uint64,bytes)": "3348f63b",
			"bindAssetHashBatch(address[],uint64[],bytes[])": "6f3326d5",
			"bindLPAndAsset(address,address,uint64,bytes,bytes)": "53d1d277",
			"bindLPAndAssetBatch(address[],address[],uint64[],bytes[],bytes[])": "0892cf48",
			"bindLPToAsset(address,address)": "6bc9e760",
			"bindLPToAssetBatch(address[],address[])": "61c6617d",
			"bindProxyHash(uint64,bytes)": "379b98f6",
			"bindProxyHashBatch(uint64[],bytes[])": "25a9f900",
			"deposit(address,uint256)": "47e7ef24",
			"deposit(address,uint256,address)": "f45346dc",
			"getBalanceFor(address)": "59c589a1",
			"isOwner()": "8f32d59b",
			"lock(address,uint64,bytes,uint256)": "84a6d055",
			"managerProxyContract()": "d798f881",
			"owner()": "8da5cb5b",
			"proxyHashMap(uint64)": "9e5767aa",
			"renounceOwnership()": "715018a6",
			"setManagerProxy(address)": "af9980f0",
			"transferOwnership(address)": "f2fde38b",
			"unlock(bytes,bytes,uint64)": "06af4b9f",
			"withdraw(address,uint256)": "f3fef3a3",
			"withdraw(address,uint256,address)": "69328dec"
		}
	},
	"abi": [
		{
			"anonymous": false,
			"inputs": [
				{
					"indexed": false,
					"internalType": "address",
					"name": "fromAssetHash",
					"type": "address"
				},
				{
					"indexed": false,
					"internalType": "uint64",
					"name": "toChainId",
					"type": "uint64"
				},
				{
					"indexed": false,
					"internalType": "bytes",
					"name": "targetProxyHash",
					"type": "bytes"
				},
				{
					"indexed": false,
					"internalType": "uint256",
					"name": "initialAmount",
					"type": "uint256"
				}
			],
			"name": "BindAssetEvent",
			"type": "event"
		},
		{
			"anonymous": false,
			"inputs": [
				{
					"indexed": false,
					"internalType": "address",
					"name": "originAssetAddress",
					"type": "address"
				},
				{
					"indexed": false,
					"internalType": "address",
					"name": "LPTokenAddress",
					"type": "address"
				}
			],
			"name": "BindLPToAssetEvent",
			"type": "event"
		},
		{
			"anonymous": false,
			"inputs": [
				{
					"indexed": false,
					"internalType": "uint64",
					"name": "toChainId",
					"type": "uint64"
				},
				{
					"indexed": false,
					"internalType": "bytes",
					"name": "targetProxyHash",
					"type": "bytes"
				}
			],
			"name": "BindProxyEvent",
			"type": "event"
		},
		{
			"anonymous": false,
			"inputs": [
				{
					"indexed": false,
					"internalType": "address",
					"name": "fromAssetHash",
					"type": "address"
				},
				{
					"indexed": false,
					"internalType": "address",
					"name": "fromAddress",
					"type": "address"
				},
				{
					"indexed": false,
					"internalType": "uint64",
					"name": "toChainId",
					"type": "uint64"
				},
				{
					"indexed": false,
					"internalType": "bytes",
					"name": "toAssetHash",
					"type": "bytes"
				},
				{
					"indexed": false,
					"internalType": "bytes",
					"name": "toAddress",
					"type": "bytes"
				},
				{
					"indexed": false,
					"internalType": "uint256",
					"name": "amount",
					"type": "uint256"
				}
			],
			"name": "LockEvent",
			"type": "event"
		},
		{
			"anonymous": false,
			"inputs": [
				{
					"indexed": true,
					"internalType": "address",
					"name": "previousOwner",
					"type": "address"
				},
				{
					"indexed": true,
					"internalType": "address",
					"name": "newOwner",
					"type": "address"
				}
			],
			"name": "OwnershipTransferred",
			"type": "event"
		},
		{
			"anonymous": false,
			"inputs": [
				{
					"indexed": false,
					"internalType": "address",
					"name": "manager",
					"type": "address"
				}
			],
			"name": "SetManagerProxyEvent",
			"type": "event"
		},
		{
			"anonymous": false,
			"inputs": [
				{
					"indexed": false,
					"internalType": "address",
					"name": "toAssetHash",
					"type": "address"
				},
				{
					"indexed": false,
					"internalType": "address",
					"name": "toAddress",
					"type": "address"
				},
				{
					"indexed": false,
					"internalType": "uint256",
					"name": "amount",
					"type": "uint256"
				}
			],
			"name": "UnlockEvent",
			"type": "event"
		},
		{
			"anonymous": false,
			"inputs": [
				{
					"indexed": false,
					"internalType": "address",
					"name": "toAddress",
					"type": "address"
				},
				{
					"indexed": false,
					"internalType": "address",
					"name": "fromAssetHash",
					"type": "address"
				},
				{
					"indexed": false,
					"internalType": "address",
					"name": "fromLPHash",
					"type": "address"
				},
				{
					"indexed": false,
					"internalType": "uint256",
					"name": "amount",
					"type": "uint256"
				}
			],
			"name": "depositEvent",
			"type": "event"
		},
		{
			"anonymous": false,
			"inputs": [
				{
					"indexed": false,
					"internalType": "address",
					"name": "toAddress",
					"type": "address"
				},
				{
					"indexed": false,
					"internalType": "address",
					"name": "fromAssetHash",
					"type": "address"
				},
				{
					"indexed": false,
					"internalType": "address",
					"name": "fromLPHash",
					"type": "address"
				},
				{
					"indexed": false,
					"internalType": "uint256",
					"name": "amount",
					"type": "uint256"
				}
			],
			"name": "withdrawEvent",
			"type": "event"
		},
		{
			"constant": true,
			"inputs": [
				{
					"internalType": "address",
					"name": "",
					"type": "address"
				},
				{
					"internalType": "uint64",
					"name": "",
					"type": "uint64"
				}
			],
			"name": "assetHashMap",
			"outputs": [
				{
					"internalType": "bytes",
					"name": "",
					"type": "bytes"
				}
			],
			"payable": false,
			"stateMutability": "view",
			"type": "function"
		},
		{
			"constant": true,
			"inputs": [
				{
					"internalType": "address",
					"name": "",
					"type": "address"
				}
			],
			"name": "assetLPMap",
			"outputs": [
				{
					"internalType": "address",
					"name": "",
					"type": "address"
				}
			],
			"payable": false,
			"stateMutability": "view",
			"type": "function"
		},
		{
			"constant": false,
			"inputs": [
				{
					"internalType": "address",
					"name": "fromAssetHash",
					"type": "address"
				},
				{
					"internalType": "uint64",
					"name": "toChainId",
					"type": "uint64"
				},
				{
					"internalType": "bytes",
					"name": "toAssetHash",
					"type": "bytes"
				}
			],
			"name": "bindAssetHash",
			"outputs": [
				{
					"internalType": "bool",
					"name": "",
					"type": "bool"
				}
			],
			"payable": false,
			"stateMutability": "nonpayable",
			"type": "function"
		},
		{
			"constant": false,
			"inputs": [
				{
					"internalType": "address[]",
					"name": "fromAssetHash",
					"type": "address[]"
				},
				{
					"internalType": "uint64[]",
					"name": "toChainId",
					"type": "uint64[]"
				},
				{
					"internalType": "bytes[]",
					"name": "toAssetHash",
					"type": "bytes[]"
				}
			],
			"name": "bindAssetHashBatch",
			"outputs": [
				{
					"internalType": "bool",
					"name": "",
					"type": "bool"
				}
			],
			"payable": false,
			"stateMutability": "nonpayable",
			"type": "function"
		},
		{
			"constant": false,
			"inputs": [
				{
					"internalType": "address",
					"name": "fromAssetHash",
					"type": "address"
				},
				{
					"internalType": "address",
					"name": "fromLPHash",
					"type": "address"
				},
				{
					"internalType": "uint64",
					"name": "toChainId",
					"type": "uint64"
				},
				{
					"internalType": "bytes",
					"name": "toAssetHash",
					"type": "bytes"
				},
				{
					"internalType": "bytes",
					"name": "toLPHash",
					"type": "bytes"
				}
			],
			"name": "bindLPAndAsset",
			"outputs": [
				{
					"internalType": "bool",
					"name": "",
					"type": "bool"
				}
			],
			"payable": false,
			"stateMutability": "nonpayable",
			"type": "function"
		},
		{
			"constant": false,
			"inputs": [
				{
					"internalType": "address[]",
					"name": "fromAssetHash",
					"type": "address[]"
				},
				{
					"internalType": "address[]",
					"name": "fromLPHash",
					"type": "address[]"
				},
				{
					"internalType": "uint64[]",
					"name": "toChainId",
					"type": "uint64[]"
				},
				{
					"internalType": "bytes[]",
					"name": "toAssetHash",
					"type": "bytes[]"
				},
				{
					"internalType": "bytes[]",
					"name": "toLPHash",
					"type": "bytes[]"
				}
			],
			"name": "bindLPAndAssetBatch",
			"outputs": [
				{
					"internalType": "bool",
					"name": "",
					"type": "bool"
				}
			],
			"payable": false,
			"stateMutability": "nonpayable",
			"type": "function"
		},
		{
			"constant": false,
			"inputs": [
				{
					"internalType": "address",
					"name": "originAssetAddress",
					"type": "address"
				},
				{
					"internalType": "address",
					"name": "LPTokenAddress",
					"type": "address"
				}
			],
			"name": "bindLPToAsset",
			"outputs": [
				{
					"internalType": "bool",
					"name": "",
					"type": "bool"
				}
			],
			"payable": false,
			"stateMutability": "nonpayable",
			"type": "function"
		},
		{
			"constant": false,
			"inputs": [
				{
					"internalType": "address[]",
					"name": "originAssetAddress",
					"type": "address[]"
				},
				{
					"internalType": "address[]",
					"name": "LPTokenAddress",
					"type": "address[]"
				}
			],
			"name": "bindLPToAssetBatch",
			"outputs": [
				{
					"internalType": "bool",
					"name": "",
					"type": "bool"
				}
			],
			"payable": false,
			"stateMutability": "nonpayable",
			"type": "function"
		},
		{
			"constant": false,
			"inputs": [
				{
					"internalType": "uint64",
					"name": "toChainId",
					"type": "uint64"
				},
				{
					"internalType": "bytes",
					"name": "targetProxyHash",
					"type": "bytes"
				}
			],
			"name": "bindProxyHash",
			"outputs": [
				{
					"internalType": "bool",
					"name": "",
					"type": "bool"
				}
			],
			"payable": false,
			"stateMutability": "nonpayable",
			"type": "function"
		},
		{
			"constant": false,
			"inputs": [
				{
					"internalType": "uint64[]",
					"name": "toChainId",
					"type": "uint64[]"
				},
				{
					"internalType": "bytes[]",
					"name": "targetProxyHash",
					"type": "bytes[]"
				}
			],
			"name": "bindProxyHashBatch",
			"outputs": [
				{
					"internalType": "bool",
					"name": "",
					"type": "bool"
				}
			],
			"payable": false,
			"stateMutability": "nonpayable",
			"type": "function"
		},
		{
			"constant": false,
			"inputs": [
				{
					"internalType": "address",
					"name": "originAssetAddress",
					"type": "address"
				},
				{
					"internalType": "uint256",
					"name": "amount",
					"type": "uint256"
				}
			],
			"name": "deposit",
			"outputs": [
				{
					"internalType": "bool",
					"name": "",
					"type": "bool"
				}
			],
			"payable": false,
			"stateMutability": "nonpayable",
			"type": "function"
		},
		{
			"constant": false,
			"inputs": [
				{
					"internalType": "address",
					"name": "originAssetAddress",
					"type": "address"
				},
				{
					"internalType": "uint256",
					"name": "amount",
					"type": "uint256"
				},
				{
					"internalType": "address",
					"name": "toAddress",
					"type": "address"
				}
			],
			"name": "deposit",
			"outputs": [
				{
					"internalType": "bool",
					"name": "",
					"type": "bool"
				}
			],
			"payable": false,
			"stateMutability": "nonpayable",
			"type": "function"
		},
		{
			"constant": true,
			"inputs": [
				{
					"internalType": "address",
					"name": "fromAssetHash",
					"type": "address"
				}
			],
			"name": "getBalanceFor",
			"outputs": [
				{
					"internalType": "uint256",
					"name": "",
					"type": "uint256"
				}
			],
			"payable": false,
			"stateMutability": "view",
			"type": "function"
		},
		{
			"constant": true,
			"inputs": [],
			"name": "isOwner",
			"outputs": [
				{
					"internalType": "bool",
					"name": "",
					"type": "bool"
				}
			],
			"payable": false,
			"stateMutability": "view",
			"type": "function"
		},
		{
			"constant": false,
			"inputs": [
				{
					"internalType": "address",
					"name": "fromAssetHash",
					"type": "address"
				},
				{
					"internalType": "uint64",
					"name": "toChainId",
					"type": "uint64"
				},
				{
					"internalType": "bytes",
					"name": "toAddress",
					"type": "bytes"
				},
				{
					"internalType": "uint256",
					"name": "amount",
					"type": "uint256"
				}
			],
			"name": "lock",
			"outputs": [
				{
					"internalType": "bool",
					"name": "",
					"type": "bool"
				}
			],
			"payable": true,
			"stateMutability": "payable",
			"type": "function"
		},
		{
			"constant": true,
			"inputs": [],
			"name": "managerProxyContract",
			"outputs": [
				{
					"internalType": "address",
					"name": "",
					"type": "address"
				}
			],
			"payable": false,
			"stateMutability": "view",
			"type": "function"
		},
		{
			"constant": true,
			"inputs": [],
			"name": "owner",
			"outputs": [
				{
					"internalType": "address",
					"name": "",
					"type": "address"
				}
			],
			"payable": false,
			"stateMutability": "view",
			"type": "function"
		},
		{
			"constant": true,
			"inputs": [
				{
					"internalType": "uint64",
					"name": "",
					"type": "uint64"
				}
			],
			"name": "proxyHashMap",
			"outputs": [
				{
					"internalType": "bytes",
					"name": "",
					"type": "bytes"
				}
			],
			"payable": false,
			"stateMutability": "view",
			"type": "function"
		},
		{
			"constant": false,
			"inputs": [],
			"name": "renounceOwnership",
			"outputs": [],
			"payable": false,
			"stateMutability": "nonpayable",
			"type": "function"
		},
		{
			"constant": false,
			"inputs": [
				{
					"internalType": "address",
					"name": "ethCCMProxyAddr",
					"type": "address"
				}
			],
			"name": "setManagerProxy",
			"outputs": [],
			"payable": false,
			"stateMutability": "nonpayable",
			"type": "function"
		},
		{
			"constant": false,
			"inputs": [
				{
					"internalType": "address",
					"name": "newOwner",
					"type": "address"
				}
			],
			"name": "transferOwnership",
			"outputs": [],
			"payable": false,
			"stateMutability": "nonpayable",
			"type": "function"
		},
		{
			"constant": false,
			"inputs": [
				{
					"internalType": "bytes",
					"name": "argsBs",
					"type": "bytes"
				},
				{
					"internalType": "bytes",
					"name": "fromContractAddr",
					"type": "bytes"
				},
				{
					"internalType": "uint64",
					"name": "fromChainId",
					"type": "uint64"
				}
			],
			"name": "unlock",
			"outputs": [
				{
					"internalType": "bool",
					"name": "",
					"type": "bool"
				}
			],
			"payable": false,
			"stateMutability": "nonpayable",
			"type": "function"
		},
		{
			"constant": false,
			"inputs": [
				{
					"internalType": "address",
					"name": "targetTokenAddress",
					"type": "address"
				},
				{
					"internalType": "uint256",
					"name": "amount",
					"type": "uint256"
				},
				{
					"internalType": "address",
					"name": "toAddress",
					"type": "address"
				}
			],
			"name": "withdraw",
			"outputs": [
				{
					"internalType": "bool",
					"name": "",
					"type": "bool"
				}
			],
			"payable": false,
			"stateMutability": "nonpayable",
			"type": "function"
		},
		{
			"constant": false,
			"inputs": [
				{
					"internalType": "address",
					"name": "targetTokenAddress",
					"type": "address"
				},
				{
					"internalType": "uint256",
					"name": "amount",
					"type": "uint256"
				}
			],
			"name": "withdraw",
			"outputs": [
				{
					"internalType": "bool",
					"name": "",
					"type": "bool"
				}
			],
			"payable": false,
			"stateMutability": "nonpayable",
			"type": "function"
		}
	]
}