{
  "_format": "hh-sol-artifact-1",
  "contractName": "CCMMock",
  "sourceName": "contracts/mocks/CCM/CCMMock.sol",
  "abi": [
    {
      "constant": true,
      "inputs": [],
      "name": "_fromChainId",
      "outputs": [
        {
          "internalType": "uint64",
          "name": "",
          "type": "uint64"
        }
      ],
      "payable": false,
      "stateMutability": "view",
      "type": "function"
    },
    {
      "constant": true,
      "inputs": [],
      "name": "_fromContract",
      "outputs": [
        {
          "internalType": "bytes",
          "name": "",
          "type": "bytes"
        }
      ],
      "payable": false,
      "stateMutability": "view",
      "type": "function"
    },
    {
      "constant": true,
      "inputs": [],
      "name": "_method",
      "outputs": [
        {
          "internalType": "bytes",
          "name": "",
          "type": "bytes"
        }
      ],
      "payable": false,
      "stateMutability": "view",
      "type": "function"
    },
    {
      "constant": true,
      "inputs": [],
      "name": "_toChainId",
      "outputs": [
        {
          "internalType": "uint64",
          "name": "",
          "type": "uint64"
        }
      ],
      "payable": false,
      "stateMutability": "view",
      "type": "function"
    },
    {
      "constant": true,
      "inputs": [],
      "name": "_toContract",
      "outputs": [
        {
          "internalType": "bytes",
          "name": "",
          "type": "bytes"
        }
      ],
      "payable": false,
      "stateMutability": "view",
      "type": "function"
    },
    {
      "constant": true,
      "inputs": [],
      "name": "_txData",
      "outputs": [
        {
          "internalType": "bytes",
          "name": "",
          "type": "bytes"
        }
      ],
      "payable": false,
      "stateMutability": "view",
      "type": "function"
    },
    {
      "constant": false,
      "inputs": [],
      "name": "clearStorage",
      "outputs": [],
      "payable": false,
      "stateMutability": "nonpayable",
      "type": "function"
    },
    {
      "constant": false,
      "inputs": [
        {
          "internalType": "uint64",
          "name": "toChainId",
          "type": "uint64"
        },
        {
          "internalType": "bytes",
          "name": "toContract",
          "type": "bytes"
        },
        {
          "internalType": "bytes",
          "name": "method",
          "type": "bytes"
        },
        {
          "internalType": "bytes",
          "name": "txData",
          "type": "bytes"
        }
      ],
      "name": "crossChain",
      "outputs": [
        {
          "internalType": "bool",
          "name": "",
          "type": "bool"
        }
      ],
      "payable": false,
      "stateMutability": "nonpayable",
      "type": "function"
    },
    {
      "constant": true,
      "inputs": [],
      "name": "iAmMock",
      "outputs": [
        {
          "internalType": "bool",
          "name": "",
          "type": "bool"
        }
      ],
      "payable": false,
      "stateMutability": "pure",
      "type": "function"
    },
    {
      "constant": false,
      "inputs": [
        {
          "internalType": "bytes",
          "name": "toContract",
          "type": "bytes"
        },
        {
          "internalType": "bytes",
          "name": "method",
          "type": "bytes"
        },
        {
          "internalType": "bytes",
          "name": "args",
          "type": "bytes"
        },
        {
          "internalType": "bytes",
          "name": "fromContract",
          "type": "bytes"
        },
        {
          "internalType": "uint64",
          "name": "fromChainId",
          "type": "uint64"
        }
      ],
      "name": "verifyHeaderAndExecuteTx",
      "outputs": [
        {
          "internalType": "bool",
          "name": "",
          "type": "bool"
        }
      ],
      "payable": false,
      "stateMutability": "nonpayable",
      "type": "function"
    }
  ],
  "bytecode": "0x608060405234801561001057600080fd5b5061124f806100206000396000f3fe608060405234801561001057600080fd5b506004361061009e5760003560e01c8063859c7af811610066578063859c7af814610207578063acbecacf1461028a578063bd5cf6251461030d578063d6b911be1461045c578063e73d5c6a146107085761009e565b80630ffca017146100a357806326df3b19146101265780633327090c146101585780634a8a1bfc146101db57806369bd38a0146101fd575b600080fd5b6100ab61073a565b6040518080602001828103825283818151815260200191508051906020019080838360005b838110156100eb5780820151818401526020810190506100d0565b50505050905090810190601f1680156101185780820380516001836020036101000a031916815260200191505b509250505060405180910390f35b61012e6107d8565b604051808267ffffffffffffffff1667ffffffffffffffff16815260200191505060405180910390f35b6101606107f1565b6040518080602001828103825283818151815260200191508051906020019080838360005b838110156101a0578082015181840152602081019050610185565b50505050905090810190601f1680156101cd5780820380516001836020036101000a031916815260200191505b509250505060405180910390f35b6101e361088f565b604051808215151515815260200191505060405180910390f35b610205610898565b005b61020f610903565b6040518080602001828103825283818151815260200191508051906020019080838360005b8381101561024f578082015181840152602081019050610234565b50505050905090810190601f16801561027c5780820380516001836020036101000a031916815260200191505b509250505060405180910390f35b6102926109a1565b6040518080602001828103825283818151815260200191508051906020019080838360005b838110156102d25780820151818401526020810190506102b7565b50505050905090810190601f1680156102ff5780820380516001836020036101000a031916815260200191505b509250505060405180910390f35b6104426004803603608081101561032357600080fd5b81019080803567ffffffffffffffff1690602001909291908035906020019064010000000081111561035457600080fd5b82018360208201111561036657600080fd5b8035906020019184600183028401116401000000008311171561038857600080fd5b9091929391929390803590602001906401000000008111156103a957600080fd5b8201836020820111156103bb57600080fd5b803590602001918460018302840111640100000000831117156103dd57600080fd5b9091929391929390803590602001906401000000008111156103fe57600080fd5b82018360208201111561041057600080fd5b8035906020019184600183028401116401000000008311171561043257600080fd5b9091929391929390505050610a3f565b604051808215151515815260200191505060405180910390f35b6106ee600480360360a081101561047257600080fd5b810190808035906020019064010000000081111561048f57600080fd5b8201836020820111156104a157600080fd5b803590602001918460018302840111640100000000831117156104c357600080fd5b91908080601f016020809104026020016040519081016040528093929190818152602001838380828437600081840152601f19601f8201169050808301925050505050505091929192908035906020019064010000000081111561052657600080fd5b82018360208201111561053857600080fd5b8035906020019184600183028401116401000000008311171561055a57600080fd5b91908080601f016020809104026020016040519081016040528093929190818152602001838380828437600081840152601f19601f820116905080830192505050505050509192919290803590602001906401000000008111156105bd57600080fd5b8201836020820111156105cf57600080fd5b803590602001918460018302840111640100000000831117156105f157600080fd5b91908080601f016020809104026020016040519081016040528093929190818152602001838380828437600081840152601f19601f8201169050808301925050505050505091929192908035906020019064010000000081111561065457600080fd5b82018360208201111561066657600080fd5b8035906020019184600183028401116401000000008311171561068857600080fd5b91908080601f016020809104026020016040519081016040528093929190818152602001838380828437600081840152601f19601f820116905080830192505050505050509192919290803567ffffffffffffffff169060200190929190505050610af6565b604051808215151515815260200191505060405180910390f35b610710610f5f565b604051808267ffffffffffffffff1667ffffffffffffffff16815260200191505060405180910390f35b60048054600181600116156101000203166002900480601f0160208091040260200160405190810160405280929190818152602001828054600181600116156101000203166002900480156107d05780601f106107a5576101008083540402835291602001916107d0565b820191906000526020600020905b8154815290600101906020018083116107b357829003601f168201915b505050505081565b6000809054906101000a900467ffffffffffffffff1681565b60018054600181600116156101000203166002900480601f0160208091040260200160405190810160405280929190818152602001828054600181600116156101000203166002900480156108875780601f1061085c57610100808354040283529160200191610887565b820191906000526020600020905b81548152906001019060200180831161086a57829003601f168201915b505050505081565b60006001905090565b6000806101000a81549067ffffffffffffffff0219169055600160006108be9190611001565b600260006108cc9190611001565b600360006108da9190611001565b600460006108e89190611001565b600560006101000a81549067ffffffffffffffff0219169055565b60028054600181600116156101000203166002900480601f0160208091040260200160405190810160405280929190818152602001828054600181600116156101000203166002900480156109995780601f1061096e57610100808354040283529160200191610999565b820191906000526020600020905b81548152906001019060200180831161097c57829003601f168201915b505050505081565b60038054600181600116156101000203166002900480601f016020809104026020016040519081016040528092919081815260200182805460018160011615610100020316600290048015610a375780601f10610a0c57610100808354040283529160200191610a37565b820191906000526020600020905b815481529060010190602001808311610a1a57829003601f168201915b505050505081565b6000876000806101000a81548167ffffffffffffffff021916908367ffffffffffffffff160217905550868660019190610a7a929190611049565b50848460029190610a8c929190611049565b50828260039190610a9e929190611049565b50610aa833610f79565b60049080519060200190610abd9291906110c9565b5087600560006101000a81548167ffffffffffffffff021916908367ffffffffffffffff16021790555060019050979650505050505050565b6000806060610b0488610f99565b73ffffffffffffffffffffffffffffffffffffffff16876040516020018082805190602001908083835b60208310610b515780518252602082019150602081019050602083039250610b2e565b6001836020036101000a038019825116818451168082178552505050505050905001807f2862797465732c62797465732c75696e74363429000000000000000000000000815250601401915050604051602081830303815290604052805190602001208787876040516020018080602001806020018467ffffffffffffffff1667ffffffffffffffff168152602001838103835286818151815260200191508051906020019080838360005b83811015610c18578082015181840152602081019050610bfd565b50505050905090810190601f168015610c455780820380516001836020036101000a031916815260200191505b50838103825285818151815260200191508051906020019080838360005b83811015610c7e578082015181840152602081019050610c63565b50505050905090810190601f168015610cab5780820380516001836020036101000a031916815260200191505b509550505050505060405160208183030381529060405260405160200180837bffffffffffffffffffffffffffffffffffffffffffffffffffffffff19167bffffffffffffffffffffffffffffffffffffffffffffffffffffffff1916815260040182805190602001908083835b60208310610d3c5780518252602082019150602081019050602083039250610d19565b6001836020036101000a038019825116818451168082178552505050505050905001925050506040516020818303038152906040526040518082805190602001908083835b60208310610da45780518252602082019150602081019050602083039250610d81565b6001836020036101000a0380198251168184511680821785525050505050509050019150506000604051808303816000865af19150503d8060008114610e06576040519150601f19603f3d011682016040523d82523d6000602084013e610e0b565b606091505b50915091506001151582151514610e6d576040517f08c379a000000000000000000000000000000000000000000000000000000000815260040180806020018281038252602b815260200180611192602b913960400191505060405180910390fd5b600081511415610ec8576040517f08c379a00000000000000000000000000000000000000000000000000000000081526004018080602001828103825260278152602001806111bd6027913960400191505060405180910390fd5b6000818060200190516020811015610edf57600080fd5b810190808051906020019092919050505090506001151581151514610f4f576040517f08c379a00000000000000000000000000000000000000000000000000000000081526004018080602001828103825260378152602001806111e46037913960400191505060405180910390fd5b6001935050505095945050505050565b600560009054906101000a900467ffffffffffffffff1681565b60606040519050601481528160601b602082015260408101604052919050565b60006014825114610ff5576040517f08c379a000000000000000000000000000000000000000000000000000000000815260040180806020018281038252602381526020018061116f6023913960400191505060405180910390fd5b60148201519050919050565b50805460018160011615610100020316600290046000825580601f106110275750611046565b601f0160209004906000526020600020908101906110459190611149565b5b50565b828054600181600116156101000203166002900490600052602060002090601f016020900481019282601f1061108a57803560ff19168380011785556110b8565b828001600101855582156110b8579182015b828111156110b757823582559160200191906001019061109c565b5b5090506110c59190611149565b5090565b828054600181600116156101000203166002900490600052602060002090601f016020900481019282601f1061110a57805160ff1916838001178555611138565b82800160010185558215611138579182015b8281111561113757825182559160200191906001019061111c565b5b5090506111459190611149565b5090565b61116b91905b8082111561116757600081600090555060010161114f565b5090565b9056fe6279746573206c656e67746820646f6573206e6f74206d61746368206164647265737345746843726f7373436861696e2063616c6c20627573696e65737320636f6e7472616374206661696c65644e6f2072657475726e2076616c75652066726f6d20627573696e65737320636f6e74726163742145746843726f7373436861696e2063616c6c20627573696e65737320636f6e74726163742072657475726e206973206e6f742074727565a265627a7a72315820904fd225d2d0e87afddda2caacaa9d2bf8c3ea90e5bae4e794262745cad6baf064736f6c63430005110032",
  "linkReferences": {},
  "deployedLinkReferences": {}
}