{
  "_format": "hh-sol-artifact-1",
  "contractName": "ProxyFactory",
  "sourceName": "contracts/core/cross_chain_manager/libs/upgradeability/ProxyFactory.sol",
  "abi": [
    {
      "inputs": [],
      "payable": false,
      "stateMutability": "nonpayable",
      "type": "constructor"
    },
    {
      "anonymous": false,
      "inputs": [
        {
          "indexed": false,
          "internalType": "address",
          "name": "proxy",
          "type": "address"
        }
      ],
      "name": "ProxyCreated",
      "type": "event"
    },
    {
      "constant": false,
      "inputs": [
        {
          "internalType": "uint256",
          "name": "_salt",
          "type": "uint256"
        },
        {
          "internalType": "address",
          "name": "_logic",
          "type": "address"
        },
        {
          "internalType": "address",
          "name": "_admin",
          "type": "address"
        },
        {
          "internalType": "bytes",
          "name": "_data",
          "type": "bytes"
        }
      ],
      "name": "deploy",
      "outputs": [
        {
          "internalType": "address",
          "name": "",
          "type": "address"
        }
      ],
      "payable": false,
      "stateMutability": "nonpayable",
      "type": "function"
    },
    {
      "constant": false,
      "inputs": [
        {
          "internalType": "uint256",
          "name": "_salt",
          "type": "uint256"
        },
        {
          "internalType": "address",
          "name": "_logic",
          "type": "address"
        },
        {
          "internalType": "address",
          "name": "_admin",
          "type": "address"
        },
        {
          "internalType": "bytes",
          "name": "_data",
          "type": "bytes"
        },
        {
          "internalType": "bytes",
          "name": "_signature",
          "type": "bytes"
        }
      ],
      "name": "deploySigned",
      "outputs": [
        {
          "internalType": "address",
          "name": "",
          "type": "address"
        }
      ],
      "payable": false,
      "stateMutability": "nonpayable",
      "type": "function"
    },
    {
      "constant": true,
      "inputs": [
        {
          "internalType": "uint256",
          "name": "_salt",
          "type": "uint256"
        },
        {
          "internalType": "address",
          "name": "_sender",
          "type": "address"
        }
      ],
      "name": "getDeploymentAddress",
      "outputs": [
        {
          "internalType": "address",
          "name": "",
          "type": "address"
        }
      ],
      "payable": false,
      "stateMutability": "view",
      "type": "function"
    },
    {
      "constant": true,
      "inputs": [
        {
          "internalType": "uint256",
          "name": "_salt",
          "type": "uint256"
        },
        {
          "internalType": "address",
          "name": "_logic",
          "type": "address"
        },
        {
          "internalType": "address",
          "name": "_admin",
          "type": "address"
        },
        {
          "internalType": "bytes",
          "name": "_data",
          "type": "bytes"
        },
        {
          "internalType": "bytes",
          "name": "_signature",
          "type": "bytes"
        }
      ],
      "name": "getSigner",
      "outputs": [
        {
          "internalType": "address",
          "name": "",
          "type": "address"
        }
      ],
      "payable": false,
      "stateMutability": "view",
      "type": "function"
    }
  ],
  "bytecode": "0x608060405234801561001057600080fd5b506040518060200161002190610047565b6020820181038252601f19601f8201166040525080519060200120600081905550610054565b610d2280611a7f83390190565b611a1c806100636000396000f3fe608060405234801561001057600080fd5b506004361061004c5760003560e01c8063290f8f5614610051578063332d66261461022d5780636150864c1461040957806381ae1f5b1461054e575b600080fd5b6101eb600480360360a081101561006757600080fd5b8101908080359060200190929190803573ffffffffffffffffffffffffffffffffffffffff169060200190929190803573ffffffffffffffffffffffffffffffffffffffff169060200190929190803590602001906401000000008111156100ce57600080fd5b8201836020820111156100e057600080fd5b8035906020019184600183028401116401000000008311171561010257600080fd5b91908080601f016020809104026020016040519081016040528093929190818152602001838380828437600081840152601f19601f8201169050808301925050505050505091929192908035906020019064010000000081111561016557600080fd5b82018360208201111561017757600080fd5b8035906020019184600183028401116401000000008311171561019957600080fd5b91908080601f016020809104026020016040519081016040528093929190818152602001838380828437600081840152601f19601f8201169050808301925050505050505091929192905050506105dc565b604051808273ffffffffffffffffffffffffffffffffffffffff1673ffffffffffffffffffffffffffffffffffffffff16815260200191505060405180910390f35b6103c7600480360360a081101561024357600080fd5b8101908080359060200190929190803573ffffffffffffffffffffffffffffffffffffffff169060200190929190803573ffffffffffffffffffffffffffffffffffffffff169060200190929190803590602001906401000000008111156102aa57600080fd5b8201836020820111156102bc57600080fd5b803590602001918460018302840111640100000000831117156102de57600080fd5b91908080601f016020809104026020016040519081016040528093929190818152602001838380828437600081840152601f19601f8201169050808301925050505050505091929192908035906020019064010000000081111561034157600080fd5b82018360208201111561035357600080fd5b8035906020019184600183028401116401000000008311171561037557600080fd5b91908080601f016020809104026020016040519081016040528093929190818152602001838380828437600081840152601f19601f82011690508083019250505050505050919291929050505061071e565b604051808273ffffffffffffffffffffffffffffffffffffffff1673ffffffffffffffffffffffffffffffffffffffff16815260200191505060405180910390f35b61050c6004803603608081101561041f57600080fd5b8101908080359060200190929190803573ffffffffffffffffffffffffffffffffffffffff169060200190929190803573ffffffffffffffffffffffffffffffffffffffff1690602001909291908035906020019064010000000081111561048657600080fd5b82018360208201111561049857600080fd5b803590602001918460018302840111640100000000831117156104ba57600080fd5b91908080601f016020809104026020016040519081016040528093929190818152602001838380828437600081840152601f19601f8201169050808301925050505050505091929192905050506107ec565b604051808273ffffffffffffffffffffffffffffffffffffffff1673ffffffffffffffffffffffffffffffffffffffff16815260200191505060405180910390f35b61059a6004803603604081101561056457600080fd5b8101908080359060200190929190803573ffffffffffffffffffffffffffffffffffffffff169060200190929190505050610805565b604051808273ffffffffffffffffffffffffffffffffffffffff1673ffffffffffffffffffffffffffffffffffffffff16815260200191505060405180910390f35b6000806107068787878730604051602001808681526020018573ffffffffffffffffffffffffffffffffffffffff1673ffffffffffffffffffffffffffffffffffffffff1660601b81526014018473ffffffffffffffffffffffffffffffffffffffff1673ffffffffffffffffffffffffffffffffffffffff1660601b815260140183805190602001908083835b6020831061068d578051825260208201915060208101905060208303925061066a565b6001836020036101000a0380198251168184511680821785525050505050509050018273ffffffffffffffffffffffffffffffffffffffff1673ffffffffffffffffffffffffffffffffffffffff1660601b815260140195505050505050604051602081830303815290604052805190602001206108e2565b9050610712818461093a565b91505095945050505050565b60008061072e87878787876105dc565b9050600073ffffffffffffffffffffffffffffffffffffffff168173ffffffffffffffffffffffffffffffffffffffff1614156107d3576040517f08c379a00000000000000000000000000000000000000000000000000000000081526004018080602001828103825260118152602001807f496e76616c6964207369676e617475726500000000000000000000000000000081525060200191505060405180910390fd5b6107e08787878785610a3e565b91505095945050505050565b60006107fb8585858533610a3e565b9050949350505050565b6000806108128484610bf4565b9050600060ff60f81b308360005460405160200180857effffffffffffffffffffffffffffffffffffffffffffffffffffffffffffff19167effffffffffffffffffffffffffffffffffffffffffffffffffffffffffffff191681526001018473ffffffffffffffffffffffffffffffffffffffff1673ffffffffffffffffffffffffffffffffffffffff1660601b8152601401838152602001828152602001945050505050604051602081830303815290604052805190602001209050606081901b60601c9250505092915050565b60008160405160200180807f19457468657265756d205369676e6564204d6573736167653a0a333200000000815250601c01828152602001915050604051602081830303815290604052805190602001209050919050565b6000604182511461094e5760009050610a38565b60008060006020850151925060408501519150606085015160001a90507f7fffffffffffffffffffffffffffffff5d576e7357a4501ddfe92f46681b20a08260001c11156109a25760009350505050610a38565b601b8160ff16141580156109ba5750601c8160ff1614155b156109cb5760009350505050610a38565b60018682858560405160008152602001604052604051808581526020018460ff1660ff1681526020018381526020018281526020019450505050506020604051602081039080840390855afa158015610a28573d6000803e3d6000fd5b5050506020604051035193505050505b92915050565b600080610a4b8784610c5c565b90507efffc2da0b561cae30d9826d37709e9421c4725faebc226cbbb7ef5fc5e734981604051808273ffffffffffffffffffffffffffffffffffffffff1673ffffffffffffffffffffffffffffffffffffffff16815260200191505060405180910390a18073ffffffffffffffffffffffffffffffffffffffff1663cf7a1d778787876040518463ffffffff1660e01b8152600401808473ffffffffffffffffffffffffffffffffffffffff1673ffffffffffffffffffffffffffffffffffffffff1681526020018373ffffffffffffffffffffffffffffffffffffffff1673ffffffffffffffffffffffffffffffffffffffff16815260200180602001828103825283818151815260200191508051906020019080838360005b83811015610b81578082015181840152602081019050610b66565b50505050905090810190601f168015610bae5780820380516001836020036101000a031916815260200191505b50945050505050600060405180830381600087803b158015610bcf57600080fd5b505af1158015610be3573d6000803e3d6000fd5b505050508091505095945050505050565b60008282604051602001808381526020018273ffffffffffffffffffffffffffffffffffffffff1673ffffffffffffffffffffffffffffffffffffffff1660601b81526014019250505060405160208183030381529060405280519060200120905092915050565b600080606060405180602001610c7190610cb8565b6020820181038252601f19601f8201166040525090506000610c938686610bf4565b9050808251602084016000f59250823b610cac57600080fd5b82935050505092915050565b610d2280610cc68339019056fe608060405234801561001057600080fd5b50610d02806100206000396000f3fe6080604052600436106100705760003560e01c80638f2839701161004e5780638f283970146101bb578063cf7a1d771461020c578063d1f5789414610307578063f851a440146103e257610070565b80633659cfe61461007a5780634f1ef286146100cb5780635c60da1b14610164575b610078610439565b005b34801561008657600080fd5b506100c96004803603602081101561009d57600080fd5b81019080803573ffffffffffffffffffffffffffffffffffffffff169060200190929190505050610453565b005b610162600480360360408110156100e157600080fd5b81019080803573ffffffffffffffffffffffffffffffffffffffff1690602001909291908035906020019064010000000081111561011e57600080fd5b82018360208201111561013057600080fd5b8035906020019184600183028401116401000000008311171561015257600080fd5b90919293919293905050506104a8565b005b34801561017057600080fd5b5061017961057e565b604051808273ffffffffffffffffffffffffffffffffffffffff1673ffffffffffffffffffffffffffffffffffffffff16815260200191505060405180910390f35b3480156101c757600080fd5b5061020a600480360360208110156101de57600080fd5b81019080803573ffffffffffffffffffffffffffffffffffffffff1690602001909291905050506105d6565b005b6103056004803603606081101561022257600080fd5b81019080803573ffffffffffffffffffffffffffffffffffffffff169060200190929190803573ffffffffffffffffffffffffffffffffffffffff1690602001909291908035906020019064010000000081111561027f57600080fd5b82018360208201111561029157600080fd5b803590602001918460018302840111640100000000831117156102b357600080fd5b91908080601f016020809104026020016040519081016040528093929190818152602001838380828437600081840152601f19601f82011690508083019250505050505050919291929050505061074f565b005b6103e06004803603604081101561031d57600080fd5b81019080803573ffffffffffffffffffffffffffffffffffffffff1690602001909291908035906020019064010000000081111561035a57600080fd5b82018360208201111561036c57600080fd5b8035906020019184600183028401116401000000008311171561038e57600080fd5b91908080601f016020809104026020016040519081016040528093929190818152602001838380828437600081840152601f19601f820116905080830192505050505050509192919290505050610811565b005b3480156103ee57600080fd5b506103f7610994565b604051808273ffffffffffffffffffffffffffffffffffffffff1673ffffffffffffffffffffffffffffffffffffffff16815260200191505060405180910390f35b6104416109ec565b61045161044c610a82565b610ab3565b565b61045b610ad9565b73ffffffffffffffffffffffffffffffffffffffff163373ffffffffffffffffffffffffffffffffffffffff16141561049c5761049781610b0a565b6104a5565b6104a4610439565b5b50565b6104b0610ad9565b73ffffffffffffffffffffffffffffffffffffffff163373ffffffffffffffffffffffffffffffffffffffff161415610570576104ec83610b0a565b60008373ffffffffffffffffffffffffffffffffffffffff168383604051808383808284378083019250505092505050600060405180830381855af49150503d8060008114610557576040519150601f19603f3d011682016040523d82523d6000602084013e61055c565b606091505b505090508061056a57600080fd5b50610579565b610578610439565b5b505050565b6000610588610ad9565b73ffffffffffffffffffffffffffffffffffffffff163373ffffffffffffffffffffffffffffffffffffffff1614156105ca576105c3610a82565b90506105d3565b6105d2610439565b5b90565b6105de610ad9565b73ffffffffffffffffffffffffffffffffffffffff163373ffffffffffffffffffffffffffffffffffffffff16141561074357600073ffffffffffffffffffffffffffffffffffffffff168173ffffffffffffffffffffffffffffffffffffffff161415610697576040517f08c379a0000000000000000000000000000000000000000000000000000000008152600401808060200182810382526036815260200180610c5d6036913960400191505060405180910390fd5b7f7e644d79422f17c01e4894b5f4f588d331ebfa28653d42ae832dc59e38c9798f6106c0610ad9565b82604051808373ffffffffffffffffffffffffffffffffffffffff1673ffffffffffffffffffffffffffffffffffffffff1681526020018273ffffffffffffffffffffffffffffffffffffffff1673ffffffffffffffffffffffffffffffffffffffff1681526020019250505060405180910390a161073e81610b59565b61074c565b61074b610439565b5b50565b600073ffffffffffffffffffffffffffffffffffffffff1661076f610a82565b73ffffffffffffffffffffffffffffffffffffffff161461078f57600080fd5b6107998382610811565b600160405180807f656970313936372e70726f78792e61646d696e000000000000000000000000008152506013019050604051809103902060001c0360001b7fb53127684a568b3173ae13b9f8a6016e243e63b6e8ee1178d6a717850b5d610360001b1461080357fe5b61080c82610b59565b505050565b600073ffffffffffffffffffffffffffffffffffffffff16610831610a82565b73ffffffffffffffffffffffffffffffffffffffff161461085157600080fd5b600160405180807f656970313936372e70726f78792e696d706c656d656e746174696f6e00000000815250601c019050604051809103902060001c0360001b7f360894a13ba1a3210667c828492db98dca3e2076cc3735a920a3ca505d382bbc60001b146108bb57fe5b6108c482610b88565b6000815111156109905760008273ffffffffffffffffffffffffffffffffffffffff16826040518082805190602001908083835b6020831061091b57805182526020820191506020810190506020830392506108f8565b6001836020036101000a038019825116818451168082178552505050505050905001915050600060405180830381855af49150503d806000811461097b576040519150601f19603f3d011682016040523d82523d6000602084013e610980565b606091505b505090508061098e57600080fd5b505b5050565b600061099e610ad9565b73ffffffffffffffffffffffffffffffffffffffff163373ffffffffffffffffffffffffffffffffffffffff1614156109e0576109d9610ad9565b90506109e9565b6109e8610439565b5b90565b6109f4610ad9565b73ffffffffffffffffffffffffffffffffffffffff163373ffffffffffffffffffffffffffffffffffffffff161415610a78576040517f08c379a0000000000000000000000000000000000000000000000000000000008152600401808060200182810382526032815260200180610c2b6032913960400191505060405180910390fd5b610a80610c15565b565b6000807f360894a13ba1a3210667c828492db98dca3e2076cc3735a920a3ca505d382bbc60001b9050805491505090565b3660008037600080366000845af43d6000803e8060008114610ad4573d6000f35b3d6000fd5b6000807fb53127684a568b3173ae13b9f8a6016e243e63b6e8ee1178d6a717850b5d610360001b9050805491505090565b610b1381610b88565b8073ffffffffffffffffffffffffffffffffffffffff167fbc7cd75a20ee27fd9adebab32041f755214dbc6bffa90cc0225b39da2e5c2d3b60405160405180910390a250565b60007fb53127684a568b3173ae13b9f8a6016e243e63b6e8ee1178d6a717850b5d610360001b90508181555050565b610b9181610c17565b610be6576040517f08c379a000000000000000000000000000000000000000000000000000000000815260040180806020018281038252603b815260200180610c93603b913960400191505060405180910390fd5b60007f360894a13ba1a3210667c828492db98dca3e2076cc3735a920a3ca505d382bbc60001b90508181555050565b565b600080823b90506000811191505091905056fe43616e6e6f742063616c6c2066616c6c6261636b2066756e6374696f6e2066726f6d207468652070726f78792061646d696e43616e6e6f74206368616e6765207468652061646d696e206f6620612070726f787920746f20746865207a65726f206164647265737343616e6e6f742073657420612070726f787920696d706c656d656e746174696f6e20746f2061206e6f6e2d636f6e74726163742061646472657373a265627a7a7231582068d06e2e1b55bf0e9ae957f90359c06da79c13924f8b8b02cfcb53a348107b7764736f6c63430005110032a265627a7a723158206f05ae1ad5e6b46822d71cbab054d6a7acb4ad224e1e0b6d9a3a9ce014961c7464736f6c63430005110032608060405234801561001057600080fd5b50610d02806100206000396000f3fe6080604052600436106100705760003560e01c80638f2839701161004e5780638f283970146101bb578063cf7a1d771461020c578063d1f5789414610307578063f851a440146103e257610070565b80633659cfe61461007a5780634f1ef286146100cb5780635c60da1b14610164575b610078610439565b005b34801561008657600080fd5b506100c96004803603602081101561009d57600080fd5b81019080803573ffffffffffffffffffffffffffffffffffffffff169060200190929190505050610453565b005b610162600480360360408110156100e157600080fd5b81019080803573ffffffffffffffffffffffffffffffffffffffff1690602001909291908035906020019064010000000081111561011e57600080fd5b82018360208201111561013057600080fd5b8035906020019184600183028401116401000000008311171561015257600080fd5b90919293919293905050506104a8565b005b34801561017057600080fd5b5061017961057e565b604051808273ffffffffffffffffffffffffffffffffffffffff1673ffffffffffffffffffffffffffffffffffffffff16815260200191505060405180910390f35b3480156101c757600080fd5b5061020a600480360360208110156101de57600080fd5b81019080803573ffffffffffffffffffffffffffffffffffffffff1690602001909291905050506105d6565b005b6103056004803603606081101561022257600080fd5b81019080803573ffffffffffffffffffffffffffffffffffffffff169060200190929190803573ffffffffffffffffffffffffffffffffffffffff1690602001909291908035906020019064010000000081111561027f57600080fd5b82018360208201111561029157600080fd5b803590602001918460018302840111640100000000831117156102b357600080fd5b91908080601f016020809104026020016040519081016040528093929190818152602001838380828437600081840152601f19601f82011690508083019250505050505050919291929050505061074f565b005b6103e06004803603604081101561031d57600080fd5b81019080803573ffffffffffffffffffffffffffffffffffffffff1690602001909291908035906020019064010000000081111561035a57600080fd5b82018360208201111561036c57600080fd5b8035906020019184600183028401116401000000008311171561038e57600080fd5b91908080601f016020809104026020016040519081016040528093929190818152602001838380828437600081840152601f19601f820116905080830192505050505050509192919290505050610811565b005b3480156103ee57600080fd5b506103f7610994565b604051808273ffffffffffffffffffffffffffffffffffffffff1673ffffffffffffffffffffffffffffffffffffffff16815260200191505060405180910390f35b6104416109ec565b61045161044c610a82565b610ab3565b565b61045b610ad9565b73ffffffffffffffffffffffffffffffffffffffff163373ffffffffffffffffffffffffffffffffffffffff16141561049c5761049781610b0a565b6104a5565b6104a4610439565b5b50565b6104b0610ad9565b73ffffffffffffffffffffffffffffffffffffffff163373ffffffffffffffffffffffffffffffffffffffff161415610570576104ec83610b0a565b60008373ffffffffffffffffffffffffffffffffffffffff168383604051808383808284378083019250505092505050600060405180830381855af49150503d8060008114610557576040519150601f19603f3d011682016040523d82523d6000602084013e61055c565b606091505b505090508061056a57600080fd5b50610579565b610578610439565b5b505050565b6000610588610ad9565b73ffffffffffffffffffffffffffffffffffffffff163373ffffffffffffffffffffffffffffffffffffffff1614156105ca576105c3610a82565b90506105d3565b6105d2610439565b5b90565b6105de610ad9565b73ffffffffffffffffffffffffffffffffffffffff163373ffffffffffffffffffffffffffffffffffffffff16141561074357600073ffffffffffffffffffffffffffffffffffffffff168173ffffffffffffffffffffffffffffffffffffffff161415610697576040517f08c379a0000000000000000000000000000000000000000000000000000000008152600401808060200182810382526036815260200180610c5d6036913960400191505060405180910390fd5b7f7e644d79422f17c01e4894b5f4f588d331ebfa28653d42ae832dc59e38c9798f6106c0610ad9565b82604051808373ffffffffffffffffffffffffffffffffffffffff1673ffffffffffffffffffffffffffffffffffffffff1681526020018273ffffffffffffffffffffffffffffffffffffffff1673ffffffffffffffffffffffffffffffffffffffff1681526020019250505060405180910390a161073e81610b59565b61074c565b61074b610439565b5b50565b600073ffffffffffffffffffffffffffffffffffffffff1661076f610a82565b73ffffffffffffffffffffffffffffffffffffffff161461078f57600080fd5b6107998382610811565b600160405180807f656970313936372e70726f78792e61646d696e000000000000000000000000008152506013019050604051809103902060001c0360001b7fb53127684a568b3173ae13b9f8a6016e243e63b6e8ee1178d6a717850b5d610360001b1461080357fe5b61080c82610b59565b505050565b600073ffffffffffffffffffffffffffffffffffffffff16610831610a82565b73ffffffffffffffffffffffffffffffffffffffff161461085157600080fd5b600160405180807f656970313936372e70726f78792e696d706c656d656e746174696f6e00000000815250601c019050604051809103902060001c0360001b7f360894a13ba1a3210667c828492db98dca3e2076cc3735a920a3ca505d382bbc60001b146108bb57fe5b6108c482610b88565b6000815111156109905760008273ffffffffffffffffffffffffffffffffffffffff16826040518082805190602001908083835b6020831061091b57805182526020820191506020810190506020830392506108f8565b6001836020036101000a038019825116818451168082178552505050505050905001915050600060405180830381855af49150503d806000811461097b576040519150601f19603f3d011682016040523d82523d6000602084013e610980565b606091505b505090508061098e57600080fd5b505b5050565b600061099e610ad9565b73ffffffffffffffffffffffffffffffffffffffff163373ffffffffffffffffffffffffffffffffffffffff1614156109e0576109d9610ad9565b90506109e9565b6109e8610439565b5b90565b6109f4610ad9565b73ffffffffffffffffffffffffffffffffffffffff163373ffffffffffffffffffffffffffffffffffffffff161415610a78576040517f08c379a0000000000000000000000000000000000000000000000000000000008152600401808060200182810382526032815260200180610c2b6032913960400191505060405180910390fd5b610a80610c15565b565b6000807f360894a13ba1a3210667c828492db98dca3e2076cc3735a920a3ca505d382bbc60001b9050805491505090565b3660008037600080366000845af43d6000803e8060008114610ad4573d6000f35b3d6000fd5b6000807fb53127684a568b3173ae13b9f8a6016e243e63b6e8ee1178d6a717850b5d610360001b9050805491505090565b610b1381610b88565b8073ffffffffffffffffffffffffffffffffffffffff167fbc7cd75a20ee27fd9adebab32041f755214dbc6bffa90cc0225b39da2e5c2d3b60405160405180910390a250565b60007fb53127684a568b3173ae13b9f8a6016e243e63b6e8ee1178d6a717850b5d610360001b90508181555050565b610b9181610c17565b610be6576040517f08c379a000000000000000000000000000000000000000000000000000000000815260040180806020018281038252603b815260200180610c93603b913960400191505060405180910390fd5b60007f360894a13ba1a3210667c828492db98dca3e2076cc3735a920a3ca505d382bbc60001b90508181555050565b565b600080823b90506000811191505091905056fe43616e6e6f742063616c6c2066616c6c6261636b2066756e6374696f6e2066726f6d207468652070726f78792061646d696e43616e6e6f74206368616e6765207468652061646d696e206f6620612070726f787920746f20746865207a65726f206164647265737343616e6e6f742073657420612070726f787920696d706c656d656e746174696f6e20746f2061206e6f6e2d636f6e74726163742061646472657373a265627a7a7231582068d06e2e1b55bf0e9ae957f90359c06da79c13924f8b8b02cfcb53a348107b7764736f6c63430005110032",
  "linkReferences": {},
  "deployedLinkReferences": {}
}